{"abi":[{"inputs":[{"internalType":"contract IController","name":"_controller","type":"address"}],"stateMutability":"nonpayable","type":"constructor","name":"constructor"},{"anonymous":false,"inputs":[{"indexed":true,"internalType":"address","name":"token","type":"address"},{"indexed":false,"internalType":"uint256","name":"amount","type":"uint256"}],"name":"ClaimRewards","type":"event"},{"anonymous":false,"inputs":[{"indexed":true,"internalType":"address","name":"vault","type":"address"},{"indexed":true,"internalType":"address","name":"token","type":"address"},{"indexed":false,"internalType":"uint256","name":"amount","type":"uint256"}],"name":"Deposit","type":"event"},{"anonymous":false,"inputs":[{"indexed":true,"internalType":"address","name":"previousOwner","type":"address"},{"indexed":true,"internalType":"address","name":"newOwner","type":"address"}],"name":"OwnershipTransferred","type":"event"},{"anonymous":false,"inputs":[{"indexed":false,"internalType":"address","name":"token","type":"address"},{"indexed":false,"internalType":"address","name":"amToken","type":"address"}],"name":"TokenAdded","type":"event"},{"anonymous":false,"inputs":[{"indexed":true,"internalType":"address","name":"vault","type":"address"},{"indexed":true,"internalType":"address","name":"token","type":"address"},{"indexed":false,"internalType":"uint256","name":"amount","type":"uint256"}],"name":"Withdraw","type":"event"},{"inputs":[],"name":"DEPOSIT_FEE_BASE_POINTS","outputs":[{"internalType":"uint256","name":"","type":"uint256"}],"stateMutability":"view","type":"function"},{"inputs":[],"name":"DEPOSIT_FEE_POINTS","outputs":[{"internalType":"uint256","name":"","type":"uint256"}],"stateMutability":"view","type":"function"},{"inputs":[],"name":"LendingPool","outputs":[{"internalType":"contract IAaveStake","name":"","type":"address"}],"stateMutability":"view","type":"function"},{"inputs":[],"name":"Rewards","outputs":[{"internalType":"contract IAaveStake","name":"","type":"address"}],"stateMutability":"view","type":"function"},{"inputs":[],"name":"TX_FEE_BASE_POINTS","outputs":[{"internalType":"uint256","name":"","type":"uint256"}],"stateMutability":"view","type":"function"},{"inputs":[],"name":"TX_FEE_POINTS","outputs":[{"internalType":"uint256","name":"","type":"uint256"}],"stateMutability":"view","type":"function"},{"inputs":[{"internalType":"uint256","name":"","type":"uint256"}],"name":"aaveMarketTokens","outputs":[{"internalType":"address","name":"","type":"address"}],"stateMutability":"view","type":"function"},{"inputs":[{"components":[{"internalType":"address","name":"token","type":"address"},{"internalType":"address","name":"amToken","type":"address"}],"internalType":"struct AAVEStrategyV2.Tokens","name":"_token","type":"tuple"}],"name":"addToken","outputs":[],"stateMutability":"nonpayable","type":"function"},{"inputs":[],"name":"claimRewards","outputs":[],"stateMutability":"nonpayable","type":"function"},{"inputs":[],"name":"controller","outputs":[{"internalType":"contract IController","name":"","type":"address"}],"stateMutability":"view","type":"function"},{"inputs":[{"internalType":"address","name":"_from","type":"address"},{"internalType":"address","name":"_token","type":"address"},{"internalType":"uint256","name":"_amount","type":"uint256"}],"name":"deposit","outputs":[],"stateMutability":"nonpayable","type":"function"},{"inputs":[{"internalType":"uint256","name":"_amountIn","type":"uint256"}],"name":"depositFee","outputs":[{"internalType":"uint256","name":"","type":"uint256"}],"stateMutability":"view","type":"function"},{"inputs":[],"name":"owner","outputs":[{"internalType":"address","name":"","type":"address"}],"stateMutability":"view","type":"function"},{"inputs":[],"name":"renounceOwnership","outputs":[],"stateMutability":"nonpayable","type":"function"},{"inputs":[],"name":"rewardToken","outputs":[{"internalType":"address","name":"","type":"address"}],"stateMutability":"view","type":"function"},{"inputs":[{"internalType":"address","name":"","type":"address"}],"name":"tokenToAm","outputs":[{"internalType":"address","name":"","type":"address"}],"stateMutability":"view","type":"function"},{"inputs":[{"internalType":"uint256","name":"","type":"uint256"}],"name":"tokens","outputs":[{"internalType":"address","name":"","type":"address"}],"stateMutability":"view","type":"function"},{"inputs":[{"internalType":"address","name":"","type":"address"}],"name":"totalDeposits","outputs":[{"internalType":"uint256","name":"","type":"uint256"}],"stateMutability":"view","type":"function"},{"inputs":[{"internalType":"address","name":"newOwner","type":"address"}],"name":"transferOwnership","outputs":[],"stateMutability":"nonpayable","type":"function"},{"inputs":[{"internalType":"uint256","name":"_amountIn","type":"uint256"}],"name":"txFee","outputs":[{"internalType":"uint256","name":"","type":"uint256"}],"stateMutability":"view","type":"function"},{"inputs":[{"internalType":"address","name":"","type":"address"},{"internalType":"address","name":"","type":"address"}],"name":"vaultDeposits","outputs":[{"internalType":"uint256","name":"","type":"uint256"}],"stateMutability":"view","type":"function"},{"inputs":[{"internalType":"address","name":"_from","type":"address"},{"internalType":"address","name":"_token","type":"address"},{"internalType":"uint256","name":"_amount","type":"uint256"}],"name":"withdraw","outputs":[],"stateMutability":"nonpayable","type":"function"}],"bytecode":"6101206040523480156200001257600080fd5b50604051620022aa380380620022aa8339810160408190526200003591620003bd565b8060056103e860018160006200004a62000293565b600080546001600160a01b0319166001600160a01b0383169081178255604051929350917f8be0079c531659141344cd1fd0a4f28419497f9722a3daafe3b4186f6b6457e0908290a35060609490941b6001600160601b03191660805260a09290925260c05260e05261010052620000c162000376565b506040805161010081018252738f3cf7ad23cd3cadbd9735aff958023239c6a06360c082019081527327f8d03b3a2196956ed754badc28d73be8830a6e60e0830152815281518083018352732791bca1f2de4661ed88a30c99a7a9449aa841748152731a13f4ca1d028320a707d99520abfefca3998b7f602082810191909152808301919091528251808401845273c2132d05d31c914a87c6611c10748aeb04b58e8f81527360d55f02a771d515e077c9c2403a1ef324885cec818301528284015282518084018452731bfd67037b42cf73acf2047067bd4f2c47d9bfd68152735c2ed810328349100a66b82b78a1791b101c9d6181830152606083015282518084018452737ceb23fd6bc0add59e62ac25578270cff1b9f61981527328424507fefb6f7f8e9d3860f56504e4e5f5f3908183015260808301528251808401909352730d500b1d8e8ef31e21c99d1db9a6444d3adf12708352738df3aad3a84da6b69a4da8aec3ea40d9091b2ac49083015260a081019190915260005b60068110156200028a57620002818282600681106200025957fe5b6020020151518383600681106200026c57fe5b6020020151602001516200029760201b60201c565b6001016200023e565b50505062000407565b3390565b6001600160a01b0380831660008181526005602052604080822080549486166001600160a01b031995861681179091556003805460018181019092557fc2575a0e9e593c00f959f8c92f12db2869c3395a3b0502d05e2516446f71f85b01805487169095179094556004805494850181559092527f8a35acfbc15ff81a39ae7d344fd709f28e8600b4aa8c65c6b64bfe7fe36bd19b909201805490931617909155517fdffbd9ded1c09446f09377de547142dcce7dc541c8b0b028142b1eba7026b9e7906200036a9084908490620003ed565b60405180910390a15050565b6040518060c001604052806006905b6200038f620003a6565b815260200190600190039081620003855790505090565b604080518082019091526000808252602082015290565b600060208284031215620003cf578081fd5b81516001600160a01b0381168114620003e6578182fd5b9392505050565b6001600160a01b0392831681529116602082015260400190565b60805160601c60a05160c05160e05161010051611e2462000486600039806108c55280610d0552508061089c52806108ea5280610ca15250806107ee5280610f4f5250806107c55280610813528061084f525080610391528061065752806109f65280610a8a5280610d295280610dbd52806110535250611e246000f3fe608060405234801561001057600080fd5b50600436106101425760003560e01c8063b363b1c8116100b8578063d9f2613e1161007c578063d9f2613e1461024f578063e940325614610257578063f2fde38b1461026a578063f575993b1461027d578063f77c479114610285578063f7c618c11461028d57610142565b8063b363b1c814610206578063c280895414610219578063d342c40214610221578063d7eedd5e14610234578063d9caed121461023c57610142565b80635f6501ab1161010a5780635f6501ab146101b55780636d880f52146101c8578063715018a6146101db5780638340f549146101e35780638da5cb5b146101f65780639814278e146101fe57610142565b8063372500ab14610147578063423c485a146101515780634c46eaaa1461017a5780634f64b2be146101825780635017f9fb146101a2575b600080fd5b61014f610295565b005b61016461015f36600461183a565b6107c1565b6040516101719190611da4565b60405180910390f35b61016461084d565b61019561019036600461183a565b610871565b60405161017191906118ed565b6101646101b036600461183a565b610898565b6101646101c3366004611748565b61090e565b61014f6101d63660046117e0565b61092b565b61014f610975565b61014f6101f1366004611780565b6109f4565b610195610c90565b610164610c9f565b61019561021436600461183a565b610cc3565b610195610cd0565b61019561022f366004611710565b610ce8565b610164610d03565b61014f61024a366004611780565b610d27565b610164610f4d565b610164610265366004611710565b610f71565b61014f610278366004611710565b610f83565b610195611039565b610195611051565b610195611075565b61029d61108d565b6000546001600160a01b039081169116146102d35760405162461bcd60e51b81526004016102ca90611c60565b60405180910390fd5b6040516345accf9360e11b815260009073357d51124f59836ded84c8a1730d72b749d8bc2390638b599f269061030f90600490309082016119a8565b60206040518083038186803b15801561032757600080fd5b505afa15801561033b573d6000803e3d6000fd5b505050506040513d601f19601f8201168201806040525081019061035f9190611852565b11156104e957600073357d51124f59836ded84c8a1730d72b749d8bc236001600160a01b0316633111e7b360046000197f00000000000000000000000000000000000000000000000000000000000000006001600160a01b0316633aaa36e66040518163ffffffff1660e01b815260040160206040518083038186803b1580156103e857600080fd5b505afa1580156103fc573d6000803e3d6000fd5b505050506040513d601f19601f82011682018060405250810190610420919061172c565b6040518463ffffffff1660e01b815260040161043e939291906119d2565b602060405180830381600087803b15801561045857600080fd5b505af115801561046c573d6000803e3d6000fd5b505050506040513d601f19601f820116820180604052508101906104909190611852565b9050730d500b1d8e8ef31e21c99d1db9a6444d3adf12706001600160a01b03167f1f89f96333d3133000ee447473151fa9606543368f02271c9d95ae14f13bcc67826040516104df9190611da4565b60405180910390a2505b6000805b6003548110156107bd576105fe600160006003848154811061050b57fe5b9060005260206000200160009054906101000a90046001600160a01b03166001600160a01b03166001600160a01b0316815260200190815260200160002054600560006003858154811061055b57fe5b60009182526020808320909101546001600160a01b03908116845290830193909352604091820190205490516370a0823160e01b81529116906370a08231906105a89030906004016118ed565b60206040518083038186803b1580156105c057600080fd5b505afa1580156105d4573d6000803e3d6000fd5b505050506040513d601f19601f820116820180604052508101906105f89190611852565b90611091565b915081156107b557738dff5e27ea6b7ac08ebfdf9eb090f32ee9a30fcf6001600160a01b03166369328dec6003838154811061063657fe5b9060005260206000200160009054906101000a90046001600160a01b0316847f00000000000000000000000000000000000000000000000000000000000000006001600160a01b0316633aaa36e66040518163ffffffff1660e01b815260040160206040518083038186803b1580156106ae57600080fd5b505afa1580156106c2573d6000803e3d6000fd5b505050506040513d601f19601f820116820180604052508101906106e6919061172c565b6040518463ffffffff1660e01b815260040161070493929190611958565b602060405180830381600087803b15801561071e57600080fd5b505af1158015610732573d6000803e3d6000fd5b505050506040513d601f19601f820116820180604052508101906107569190611852565b506003818154811061076457fe5b6000918252602090912001546040516001600160a01b03909116907f1f89f96333d3133000ee447473151fa9606543368f02271c9d95ae14f13bcc67906107ac908590611da4565b60405180910390a25b6001016104ed565b5050565b60007f0000000000000000000000000000000000000000000000000000000000000000156108445761083d7f0000000000000000000000000000000000000000000000000000000000000000610837847f00000000000000000000000000000000000000000000000000000000000000006110dc565b90611116565b9050610848565b5060005b919050565b7f000000000000000000000000000000000000000000000000000000000000000081565b6003818154811061087e57fe5b6000918252602090912001546001600160a01b0316905081565b60007f0000000000000000000000000000000000000000000000000000000000000000156108445761083d7f0000000000000000000000000000000000000000000000000000000000000000610837847f00000000000000000000000000000000000000000000000000000000000000006110dc565b600260209081526000928352604080842090915290825290205481565b61093361108d565b6000546001600160a01b039081169116146109605760405162461bcd60e51b81526004016102ca90611c60565b61097281600001518260200151611158565b50565b61097d61108d565b6000546001600160a01b039081169116146109aa5760405162461bcd60e51b81526004016102ca90611c60565b600080546040516001600160a01b03909116907f8be0079c531659141344cd1fd0a4f28419497f9722a3daafe3b4186f6b6457e0908390a3600080546001600160a01b0319169055565b7f00000000000000000000000000000000000000000000000000000000000000006001600160a01b031663bcb5703d6040518163ffffffff1660e01b815260040160206040518083038186803b158015610a4d57600080fd5b505afa158015610a61573d6000803e3d6000fd5b505050506040513d601f19601f82011682018060405250810190610a85919061186a565b60ff167f00000000000000000000000000000000000000000000000000000000000000006001600160a01b031663f815c03d336040518263ffffffff1660e01b8152600401610ad491906118ed565b60206040518083038186803b158015610aec57600080fd5b505afa158015610b00573d6000803e3d6000fd5b505050506040513d601f19601f82011682018060405250810190610b24919061186a565b60ff1614610b445760405162461bcd60e51b81526004016102ca90611a7e565b6001600160a01b0382811660009081526005602052604090205416610b7b5760405162461bcd60e51b81526004016102ca90611ce0565b610b86838383611235565b60405163095ea7b360e01b81526001600160a01b0383169063095ea7b390610bc890738dff5e27ea6b7ac08ebfdf9eb090f32ee9a30fcf90859060040161193f565b602060405180830381600087803b158015610be257600080fd5b505af1158015610bf6573d6000803e3d6000fd5b505050506040513d601f19601f82011682018060405250810190610c1a91906117c0565b5060405163e8eda9df60e01b8152738dff5e27ea6b7ac08ebfdf9eb090f32ee9a30fcf9063e8eda9df90610c599085908590309060009060040161197b565b600060405180830381600087803b158015610c7357600080fd5b505af1158015610c87573d6000803e3d6000fd5b50505050505050565b6000546001600160a01b031690565b7f000000000000000000000000000000000000000000000000000000000000000081565b6004818154811061087e57fe5b73357d51124f59836ded84c8a1730d72b749d8bc2381565b6005602052600090815260409020546001600160a01b031681565b7f000000000000000000000000000000000000000000000000000000000000000081565b7f00000000000000000000000000000000000000000000000000000000000000006001600160a01b03166324e702ed6040518163ffffffff1660e01b815260040160206040518083038186803b158015610d8057600080fd5b505afa158015610d94573d6000803e3d6000fd5b505050506040513d601f19601f82011682018060405250810190610db8919061186a565b60ff167f00000000000000000000000000000000000000000000000000000000000000006001600160a01b031663f815c03d336040518263ffffffff1660e01b8152600401610e0791906118ed565b60206040518083038186803b158015610e1f57600080fd5b505afa158015610e33573d6000803e3d6000fd5b505050506040513d601f19601f82011682018060405250810190610e57919061186a565b60ff161415610e785760405162461bcd60e51b81526004016102ca90611c95565b6001600160a01b0382811660009081526005602052604090205416610eaf5760405162461bcd60e51b81526004016102ca90611ce0565b610eba838383611403565b604051631a4ca37b60e21b8152738dff5e27ea6b7ac08ebfdf9eb090f32ee9a30fcf906369328dec90610ef590859085908890600401611958565b602060405180830381600087803b158015610f0f57600080fd5b505af1158015610f23573d6000803e3d6000fd5b505050506040513d601f19601f82011682018060405250810190610f479190611852565b50505050565b7f000000000000000000000000000000000000000000000000000000000000000081565b60016020526000908152604090205481565b610f8b61108d565b6000546001600160a01b03908116911614610fb85760405162461bcd60e51b81526004016102ca90611c60565b6001600160a01b038116610fde5760405162461bcd60e51b81526004016102ca90611a38565b600080546040516001600160a01b03808516939216917f8be0079c531659141344cd1fd0a4f28419497f9722a3daafe3b4186f6b6457e091a3600080546001600160a01b0319166001600160a01b0392909216919091179055565b738dff5e27ea6b7ac08ebfdf9eb090f32ee9a30fcf81565b7f000000000000000000000000000000000000000000000000000000000000000081565b730d500b1d8e8ef31e21c99d1db9a6444d3adf127081565b3390565b60006110d383836040518060400160405280601e81526020017f536166654d6174683a207375627472616374696f6e206f766572666c6f77000081525061150f565b90505b92915050565b6000826110eb575060006110d6565b828202828482816110f857fe5b04146110d35760405162461bcd60e51b81526004016102ca90611c1f565b60006110d383836040518060400160405280601a81526020017f536166654d6174683a206469766973696f6e206279207a65726f00000000000081525061153b565b6001600160a01b0380831660008181526005602052604080822080549486166001600160a01b031995861681179091556003805460018181019092557fc2575a0e9e593c00f959f8c92f12db2869c3395a3b0502d05e2516446f71f85b01805487169095179094556004805494850181559092527f8a35acfbc15ff81a39ae7d344fd709f28e8600b4aa8c65c6b64bfe7fe36bd19b909201805490931617909155517fdffbd9ded1c09446f09377de547142dcce7dc541c8b0b028142b1eba7026b9e7906112299084908490611901565b60405180910390a15050565b80156113e6576040516370a0823160e01b815282906000906001600160a01b038316906370a082319061126c9030906004016118ed565b60206040518083038186803b15801561128457600080fd5b505afa158015611298573d6000803e3d6000fd5b505050506040513d601f19601f820116820180604052508101906112bc9190611852565b90506112d36001600160a01b038316863086611572565b8261130482846001600160a01b03166370a08231306040518263ffffffff1660e01b81526004016105a891906118ed565b146113215760405162461bcd60e51b81526004016102ca90611bda565b6001600160a01b03841660009081526001602052604090205461134490846115ca565b6001600160a01b0385166000818152600160209081526040808320949094553382526002815283822092825291909152205461138090846115ca565b3360008181526002602090815260408083206001600160a01b038a1680855292529182902093909355517f5548c837ab068cf56a2c2479df0882a4922fd203edb7517321831d95078c5f62906113d7908790611da4565b60405180910390a350506113fe565b60405162461bcd60e51b81526004016102ca90611b92565b505050565b3360009081526002602090815260408083206001600160a01b03861684529091529020548111156114465760405162461bcd60e51b81526004016102ca90611b3c565b80156113fe576001600160a01b03821660009081526001602052604090205461146f9082611091565b6001600160a01b038316600081815260016020908152604080832094909455338252600281528382209282529190915220546114ab9082611091565b3360008181526002602090815260408083206001600160a01b03881680855292529182902093909355517f9b1bfa7fa9ee420a16e124f794c35ac9f90472acc99140eb2f6447c714cad8eb90611502908590611da4565b60405180910390a3505050565b600081848411156115335760405162461bcd60e51b81526004016102ca9190611a05565b505050900390565b6000818361155c5760405162461bcd60e51b81526004016102ca9190611a05565b50600083858161156857fe5b0495945050505050565b610f47846323b872dd60e01b8585856040516024016115939392919061191b565b60408051601f198184030181529190526020810180516001600160e01b03166001600160e01b0319909316929092179091526115ef565b6000828201838110156110d35760405162461bcd60e51b81526004016102ca90611ad0565b611601826001600160a01b03166116d4565b61161d5760405162461bcd60e51b81526004016102ca90611d6d565b60006060836001600160a01b03168360405161163991906118d1565b6000604051808303816000865af19150503d8060008114611676576040519150601f19603f3d011682016040523d82523d6000602084013e61167b565b606091505b50915091508161169d5760405162461bcd60e51b81526004016102ca90611b07565b805115610f4757808060200190518101906116b891906117c0565b610f475760405162461bcd60e51b81526004016102ca90611d23565b6000813f7fc5d2460186f7233c927e7db2dcc703c0e500b653ca82273b7bfad8045d85a47081811480159061170857508115155b949350505050565b600060208284031215611721578081fd5b81356110d381611dd9565b60006020828403121561173d578081fd5b81516110d381611dd9565b6000806040838503121561175a578081fd5b823561176581611dd9565b9150602083013561177581611dd9565b809150509250929050565b600080600060608486031215611794578081fd5b833561179f81611dd9565b925060208401356117af81611dd9565b929592945050506040919091013590565b6000602082840312156117d1578081fd5b815180151581146110d3578182fd5b6000604082840312156117f1578081fd5b6040516040810181811067ffffffffffffffff82111715611810578283fd5b604052823561181e81611dd9565b8152602083013561182e81611dd9565b60208201529392505050565b60006020828403121561184b578081fd5b5035919050565b600060208284031215611863578081fd5b5051919050565b60006020828403121561187b578081fd5b815160ff811681146110d3578182fd5b6000815480845260208085019450838352808320835b838110156118c65781546001600160a01b0316875295820195600191820191016118a1565b509495945050505050565b600082516118e3818460208701611dad565b9190910192915050565b6001600160a01b0391909116815260200190565b6001600160a01b0392831681529116602082015260400190565b6001600160a01b039384168152919092166020820152604081019190915260600190565b6001600160a01b03929092168252602082015260400190565b6001600160a01b0393841681526020810192909252909116604082015260600190565b6001600160a01b03948516815260208101939093529216604082015261ffff909116606082015260800190565b6000604082526119bb604083018561188b565b905060018060a01b03831660208301529392505050565b6000606082526119e5606083018661188b565b6020830194909452506001600160a01b0391909116604090910152919050565b6000602082528251806020840152611a24816040850160208701611dad565b601f01601f19169190910160400192915050565b60208082526026908201527f4f776e61626c653a206e6577206f776e657220697320746865207a65726f206160408201526564647265737360d01b606082015260800190565b60208082526032908201527f436f726e46692053696d706c652053747261746567793a20416374697665205660408201527130bab63a1027b7363c90233ab731ba34b7b760711b606082015260800190565b6020808252601b908201527f536166654d6174683a206164646974696f6e206f766572666c6f770000000000604082015260600190565b6020808252818101527f5361666545524332303a206c6f772d6c6576656c2063616c6c206661696c6564604082015260600190565b60208082526036908201527f436f726e46692053696d706c652053747261746567793a205661756c742057696040820152751d1a191c985dc8105b5bdd5b9d08115e18d95959195960521b606082015260800190565b60208082526028908201527f436f726e466920537472617465677920426173653a204465706f73697420416d6040820152676f756e742027302760c01b606082015260800190565b60208082526025908201527f436f726e46692053696d706c652053747261746567793a204465706f7369742060408201526422b93937b960d91b606082015260800190565b60208082526021908201527f536166654d6174683a206d756c7469706c69636174696f6e206f766572666c6f6040820152607760f81b606082015260800190565b6020808252818101527f4f776e61626c653a2063616c6c6572206973206e6f7420746865206f776e6572604082015260600190565b6020808252602b908201527f436f726e46692053696d706c652053747261746567793a205661756c74204f6e60408201526a363c90233ab731ba34b7b760a91b606082015260800190565b60208082526023908201527f436f726e466920414156452053747261746567793a20496e76616c696420546f60408201526235b2b760e91b606082015260800190565b6020808252602a908201527f5361666545524332303a204552433230206f7065726174696f6e20646964206e6040820152691bdd081cdd58d8d9595960b21b606082015260800190565b6020808252601f908201527f5361666545524332303a2063616c6c20746f206e6f6e2d636f6e747261637400604082015260600190565b90815260200190565b60005b83811015611dc8578181015183820152602001611db0565b83811115610f475750506000910152565b6001600160a01b038116811461097257600080fdfea2646970667358221220776efaeaa8ebe20d4eac3a3a4202acee6a1b2e59984df068151b8ae5c7ca65aa64736f6c634300060c0033","bytecodeSha1":"b01c33aacec15584f71bdf40546b5f21f06b20dd","compiler":{"evm_version":"istanbul","optimizer":{"enabled":true,"runs":200},"version":"0.6.12+commit.27d51765"},"contractName":"AAVEStrategyV2","language":"Solidity","natspec":{"author":"C.W.B.","kind":"dev","methods":{"addToken((address,address))":{"details":"Use to add an ERC20 token and its respective AAVE market token. Only add tokens that can be deposited into AAVE. This function is restricted to only the owner of this contract.","params":{"_token":": Tokens(ERC20 token address, AAVE market token equivalent)"}},"claimRewards()":{"details":"Claim WMATIC rewards and interest made from holding tokens in AAVE"},"constructor":{"params":{"_controller":": Corn Finance Controller contract "}},"deposit(address,address,uint256)":{"details":"Only currently active vaults can deposits tokens into this holding strategy. This function can only be called from one of the approved vaults added to the Controller contract. Tokens are deposited into holding strategies when calling 'createTrade()' and 'fillOrder()' in the Controller contract.","params":{"_amount":": Amount of '_token' to deposit","_from":": Vault token owner","_token":": ERC20 token address"}},"depositFee(uint256)":{"params":{"_amountIn":": Amount of an ERC20 token"},"returns":{"_0":"The corresponding deposit fee amount "}},"owner()":{"details":"Returns the address of the current owner."},"renounceOwnership()":{"details":"Leaves the contract without owner. It will not be possible to call `onlyOwner` functions anymore. Can only be called by the current owner. NOTE: Renouncing ownership will leave the contract without an owner, thereby removing any functionality that is only available to the owner."},"transferOwnership(address)":{"details":"Transfers ownership of the contract to a new account (`newOwner`). Can only be called by the current owner."},"txFee(uint256)":{"params":{"_amountIn":": Amount of an ERC20 token"},"returns":{"_0":"The corresponding transaction fee amount "}},"withdraw(address,address,uint256)":{"details":"Any vault that has deposited tokens into this strategy can withdraw their tokens even after a vault is deactivated. This function can only be called from  one of the approved vaults added to the Controller contract. Users are only able to withdraw tokens from a holding strategy through withdrawing their vault token by calling 'withdraw()' in the Controller contract.","params":{"_amount":": Amount of '_token' to withdraw","_from":": Vault token owner","_token":": ERC20 token address"}}},"title":"Corn Finance AAVE Holding Strategy","version":1},"opcodes":"PUSH1 0x80 PUSH1 0x40 MSTORE CALLVALUE DUP1 ISZERO PUSH2 0x10 JUMPI PUSH1 0x0 DUP1 REVERT JUMPDEST POP PUSH1 0x4 CALLDATASIZE LT PUSH2 0x142 JUMPI PUSH1 0x0 CALLDATALOAD PUSH1 0xE0 SHR DUP1 PUSH4 0xB363B1C8 GT PUSH2 0xB8 JUMPI DUP1 PUSH4 0xD9F2613E GT PUSH2 0x7C JUMPI DUP1 PUSH4 0xD9F2613E EQ PUSH2 0x24F JUMPI DUP1 PUSH4 0xE9403256 EQ PUSH2 0x257 JUMPI DUP1 PUSH4 0xF2FDE38B EQ PUSH2 0x26A JUMPI DUP1 PUSH4 0xF575993B EQ PUSH2 0x27D JUMPI DUP1 PUSH4 0xF77C4791 EQ PUSH2 0x285 JUMPI DUP1 PUSH4 0xF7C618C1 EQ PUSH2 0x28D JUMPI PUSH2 0x142 JUMP JUMPDEST DUP1 PUSH4 0xB363B1C8 EQ PUSH2 0x206 JUMPI DUP1 PUSH4 0xC2808954 EQ PUSH2 0x219 JUMPI DUP1 PUSH4 0xD342C402 EQ PUSH2 0x221 JUMPI DUP1 PUSH4 0xD7EEDD5E EQ PUSH2 0x234 JUMPI DUP1 PUSH4 0xD9CAED12 EQ PUSH2 0x23C JUMPI PUSH2 0x142 JUMP JUMPDEST DUP1 PUSH4 0x5F6501AB GT PUSH2 0x10A JUMPI DUP1 PUSH4 0x5F6501AB EQ PUSH2 0x1B5 JUMPI DUP1 PUSH4 0x6D880F52 EQ PUSH2 0x1C8 JUMPI DUP1 PUSH4 0x715018A6 EQ PUSH2 0x1DB JUMPI DUP1 PUSH4 0x8340F549 EQ PUSH2 0x1E3 JUMPI DUP1 PUSH4 0x8DA5CB5B EQ PUSH2 0x1F6 JUMPI DUP1 PUSH4 0x9814278E EQ PUSH2 0x1FE JUMPI PUSH2 0x142 JUMP JUMPDEST DUP1 PUSH4 0x372500AB EQ PUSH2 0x147 JUMPI DUP1 PUSH4 0x423C485A EQ PUSH2 0x151 JUMPI DUP1 PUSH4 0x4C46EAAA EQ PUSH2 0x17A JUMPI DUP1 PUSH4 0x4F64B2BE EQ PUSH2 0x182 JUMPI DUP1 PUSH4 0x5017F9FB EQ PUSH2 0x1A2 JUMPI JUMPDEST PUSH1 0x0 DUP1 REVERT JUMPDEST PUSH2 0x14F PUSH2 0x295 JUMP JUMPDEST STOP JUMPDEST PUSH2 0x164 PUSH2 0x15F CALLDATASIZE PUSH1 0x4 PUSH2 0x183A JUMP JUMPDEST PUSH2 0x7C1 JUMP JUMPDEST PUSH1 0x40 MLOAD PUSH2 0x171 SWAP2 SWAP1 PUSH2 0x1DA4 JUMP JUMPDEST PUSH1 0x40 MLOAD DUP1 SWAP2 SUB SWAP1 RETURN JUMPDEST PUSH2 0x164 PUSH2 0x84D JUMP JUMPDEST PUSH2 0x195 PUSH2 0x190 CALLDATASIZE PUSH1 0x4 PUSH2 0x183A JUMP JUMPDEST PUSH2 0x871 JUMP JUMPDEST PUSH1 0x40 MLOAD PUSH2 0x171 SWAP2 SWAP1 PUSH2 0x18ED JUMP JUMPDEST PUSH2 0x164 PUSH2 0x1B0 CALLDATASIZE PUSH1 0x4 PUSH2 0x183A JUMP JUMPDEST PUSH2 0x898 JUMP JUMPDEST PUSH2 0x164 PUSH2 0x1C3 CALLDATASIZE PUSH1 0x4 PUSH2 0x1748 JUMP JUMPDEST PUSH2 0x90E JUMP JUMPDEST PUSH2 0x14F PUSH2 0x1D6 CALLDATASIZE PUSH1 0x4 PUSH2 0x17E0 JUMP JUMPDEST PUSH2 0x92B JUMP JUMPDEST PUSH2 0x14F PUSH2 0x975 JUMP JUMPDEST PUSH2 0x14F PUSH2 0x1F1 CALLDATASIZE PUSH1 0x4 PUSH2 0x1780 JUMP JUMPDEST PUSH2 0x9F4 JUMP JUMPDEST PUSH2 0x195 PUSH2 0xC90 JUMP JUMPDEST PUSH2 0x164 PUSH2 0xC9F JUMP JUMPDEST PUSH2 0x195 PUSH2 0x214 CALLDATASIZE PUSH1 0x4 PUSH2 0x183A JUMP JUMPDEST PUSH2 0xCC3 JUMP JUMPDEST PUSH2 0x195 PUSH2 0xCD0 JUMP JUMPDEST PUSH2 0x195 PUSH2 0x22F CALLDATASIZE PUSH1 0x4 PUSH2 0x1710 JUMP JUMPDEST PUSH2 0xCE8 JUMP JUMPDEST PUSH2 0x164 PUSH2 0xD03 JUMP JUMPDEST PUSH2 0x14F PUSH2 0x24A CALLDATASIZE PUSH1 0x4 PUSH2 0x1780 JUMP JUMPDEST PUSH2 0xD27 JUMP JUMPDEST PUSH2 0x164 PUSH2 0xF4D JUMP JUMPDEST PUSH2 0x164 PUSH2 0x265 CALLDATASIZE PUSH1 0x4 PUSH2 0x1710 JUMP JUMPDEST PUSH2 0xF71 JUMP JUMPDEST PUSH2 0x14F PUSH2 0x278 CALLDATASIZE PUSH1 0x4 PUSH2 0x1710 JUMP JUMPDEST PUSH2 0xF83 JUMP JUMPDEST PUSH2 0x195 PUSH2 0x1039 JUMP JUMPDEST PUSH2 0x195 PUSH2 0x1051 JUMP JUMPDEST PUSH2 0x195 PUSH2 0x1075 JUMP JUMPDEST PUSH2 0x29D PUSH2 0x108D JUMP JUMPDEST PUSH1 0x0 SLOAD PUSH1 0x1 PUSH1 0x1 PUSH1 0xA0 SHL SUB SWAP1 DUP2 AND SWAP2 AND EQ PUSH2 0x2D3 JUMPI PUSH1 0x40 MLOAD PUSH3 0x461BCD PUSH1 0xE5 SHL DUP2 MSTORE PUSH1 0x4 ADD PUSH2 0x2CA SWAP1 PUSH2 0x1C60 JUMP JUMPDEST PUSH1 0x40 MLOAD DUP1 SWAP2 SUB SWAP1 REVERT JUMPDEST PUSH1 0x40 MLOAD PUSH4 0x45ACCF93 PUSH1 0xE1 SHL DUP2 MSTORE PUSH1 0x0 SWAP1 PUSH20 0x357D51124F59836DED84C8A1730D72B749D8BC23 SWAP1 PUSH4 0x8B599F26 SWAP1 PUSH2 0x30F SWAP1 PUSH1 0x4 SWAP1 ADDRESS SWAP1 DUP3 ADD PUSH2 0x19A8 JUMP JUMPDEST PUSH1 0x20 PUSH1 0x40 MLOAD DUP1 DUP4 SUB DUP2 DUP7 DUP1 EXTCODESIZE ISZERO DUP1 ISZERO PUSH2 0x327 JUMPI PUSH1 0x0 DUP1 REVERT JUMPDEST POP GAS STATICCALL ISZERO DUP1 ISZERO PUSH2 0x33B JUMPI RETURNDATASIZE PUSH1 0x0 DUP1 RETURNDATACOPY RETURNDATASIZE PUSH1 0x0 REVERT JUMPDEST POP POP POP POP PUSH1 0x40 MLOAD RETURNDATASIZE PUSH1 0x1F NOT PUSH1 0x1F DUP3 ADD AND DUP3 ADD DUP1 PUSH1 0x40 MSTORE POP DUP2 ADD SWAP1 PUSH2 0x35F SWAP2 SWAP1 PUSH2 0x1852 JUMP JUMPDEST GT ISZERO PUSH2 0x4E9 JUMPI PUSH1 0x0 PUSH20 0x357D51124F59836DED84C8A1730D72B749D8BC23 PUSH1 0x1 PUSH1 0x1 PUSH1 0xA0 SHL SUB AND PUSH4 0x3111E7B3 PUSH1 0x4 PUSH1 0x0 NOT PUSH32 0x0 PUSH1 0x1 PUSH1 0x1 PUSH1 0xA0 SHL SUB AND PUSH4 0x3AAA36E6 PUSH1 0x40 MLOAD DUP2 PUSH4 0xFFFFFFFF AND PUSH1 0xE0 SHL DUP2 MSTORE PUSH1 0x4 ADD PUSH1 0x20 PUSH1 0x40 MLOAD DUP1 DUP4 SUB DUP2 DUP7 DUP1 EXTCODESIZE ISZERO DUP1 ISZERO PUSH2 0x3E8 JUMPI PUSH1 0x0 DUP1 REVERT JUMPDEST POP GAS STATICCALL ISZERO DUP1 ISZERO PUSH2 0x3FC JUMPI RETURNDATASIZE PUSH1 0x0 DUP1 RETURNDATACOPY RETURNDATASIZE PUSH1 0x0 REVERT JUMPDEST POP POP POP POP PUSH1 0x40 MLOAD RETURNDATASIZE PUSH1 0x1F NOT PUSH1 0x1F DUP3 ADD AND DUP3 ADD DUP1 PUSH1 0x40 MSTORE POP DUP2 ADD SWAP1 PUSH2 0x420 SWAP2 SWAP1 PUSH2 0x172C JUMP JUMPDEST PUSH1 0x40 MLOAD DUP5 PUSH4 0xFFFFFFFF AND PUSH1 0xE0 SHL DUP2 MSTORE PUSH1 0x4 ADD PUSH2 0x43E SWAP4 SWAP3 SWAP2 SWAP1 PUSH2 0x19D2 JUMP JUMPDEST PUSH1 0x20 PUSH1 0x40 MLOAD DUP1 DUP4 SUB DUP2 PUSH1 0x0 DUP8 DUP1 EXTCODESIZE ISZERO DUP1 ISZERO PUSH2 0x458 JUMPI PUSH1 0x0 DUP1 REVERT JUMPDEST POP GAS CALL ISZERO DUP1 ISZERO PUSH2 0x46C JUMPI RETURNDATASIZE PUSH1 0x0 DUP1 RETURNDATACOPY RETURNDATASIZE PUSH1 0x0 REVERT JUMPDEST POP POP POP POP PUSH1 0x40 MLOAD RETURNDATASIZE PUSH1 0x1F NOT PUSH1 0x1F DUP3 ADD AND DUP3 ADD DUP1 PUSH1 0x40 MSTORE POP DUP2 ADD SWAP1 PUSH2 0x490 SWAP2 SWAP1 PUSH2 0x1852 JUMP JUMPDEST SWAP1 POP PUSH20 0xD500B1D8E8EF31E21C99D1DB9A6444D3ADF1270 PUSH1 0x1 PUSH1 0x1 PUSH1 0xA0 SHL SUB AND PUSH32 0x1F89F96333D3133000EE447473151FA9606543368F02271C9D95AE14F13BCC67 DUP3 PUSH1 0x40 MLOAD PUSH2 0x4DF SWAP2 SWAP1 PUSH2 0x1DA4 JUMP JUMPDEST PUSH1 0x40 MLOAD DUP1 SWAP2 SUB SWAP1 LOG2 POP JUMPDEST PUSH1 0x0 DUP1 JUMPDEST PUSH1 0x3 SLOAD DUP2 LT ISZERO PUSH2 0x7BD JUMPI PUSH2 0x5FE PUSH1 0x1 PUSH1 0x0 PUSH1 0x3 DUP5 DUP2 SLOAD DUP2 LT PUSH2 0x50B JUMPI INVALID JUMPDEST SWAP1 PUSH1 0x0 MSTORE PUSH1 0x20 PUSH1 0x0 KECCAK256 ADD PUSH1 0x0 SWAP1 SLOAD SWAP1 PUSH2 0x100 EXP SWAP1 DIV PUSH1 0x1 PUSH1 0x1 PUSH1 0xA0 SHL SUB AND PUSH1 0x1 PUSH1 0x1 PUSH1 0xA0 SHL SUB AND PUSH1 0x1 PUSH1 0x1 PUSH1 0xA0 SHL SUB AND DUP2 MSTORE PUSH1 0x20 ADD SWAP1 DUP2 MSTORE PUSH1 0x20 ADD PUSH1 0x0 KECCAK256 SLOAD PUSH1 0x5 PUSH1 0x0 PUSH1 0x3 DUP6 DUP2 SLOAD DUP2 LT PUSH2 0x55B JUMPI INVALID JUMPDEST PUSH1 0x0 SWAP2 DUP3 MSTORE PUSH1 0x20 DUP1 DUP4 KECCAK256 SWAP1 SWAP2 ADD SLOAD PUSH1 0x1 PUSH1 0x1 PUSH1 0xA0 SHL SUB SWAP1 DUP2 AND DUP5 MSTORE SWAP1 DUP4 ADD SWAP4 SWAP1 SWAP4 MSTORE PUSH1 0x40 SWAP2 DUP3 ADD SWAP1 KECCAK256 SLOAD SWAP1 MLOAD PUSH4 0x70A08231 PUSH1 0xE0 SHL DUP2 MSTORE SWAP2 AND SWAP1 PUSH4 0x70A08231 SWAP1 PUSH2 0x5A8 SWAP1 ADDRESS SWAP1 PUSH1 0x4 ADD PUSH2 0x18ED JUMP JUMPDEST PUSH1 0x20 PUSH1 0x40 MLOAD DUP1 DUP4 SUB DUP2 DUP7 DUP1 EXTCODESIZE ISZERO DUP1 ISZERO PUSH2 0x5C0 JUMPI PUSH1 0x0 DUP1 REVERT JUMPDEST POP GAS STATICCALL ISZERO DUP1 ISZERO PUSH2 0x5D4 JUMPI RETURNDATASIZE PUSH1 0x0 DUP1 RETURNDATACOPY RETURNDATASIZE PUSH1 0x0 REVERT JUMPDEST POP POP POP POP PUSH1 0x40 MLOAD RETURNDATASIZE PUSH1 0x1F NOT PUSH1 0x1F DUP3 ADD AND DUP3 ADD DUP1 PUSH1 0x40 MSTORE POP DUP2 ADD SWAP1 PUSH2 0x5F8 SWAP2 SWAP1 PUSH2 0x1852 JUMP JUMPDEST SWAP1 PUSH2 0x1091 JUMP JUMPDEST SWAP2 POP DUP2 ISZERO PUSH2 0x7B5 JUMPI PUSH20 0x8DFF5E27EA6B7AC08EBFDF9EB090F32EE9A30FCF PUSH1 0x1 PUSH1 0x1 PUSH1 0xA0 SHL SUB AND PUSH4 0x69328DEC PUSH1 0x3 DUP4 DUP2 SLOAD DUP2 LT PUSH2 0x636 JUMPI INVALID JUMPDEST SWAP1 PUSH1 0x0 MSTORE PUSH1 0x20 PUSH1 0x0 KECCAK256 ADD PUSH1 0x0 SWAP1 SLOAD SWAP1 PUSH2 0x100 EXP SWAP1 DIV PUSH1 0x1 PUSH1 0x1 PUSH1 0xA0 SHL SUB AND DUP5 PUSH32 0x0 PUSH1 0x1 PUSH1 0x1 PUSH1 0xA0 SHL SUB AND PUSH4 0x3AAA36E6 PUSH1 0x40 MLOAD DUP2 PUSH4 0xFFFFFFFF AND PUSH1 0xE0 SHL DUP2 MSTORE PUSH1 0x4 ADD PUSH1 0x20 PUSH1 0x40 MLOAD DUP1 DUP4 SUB DUP2 DUP7 DUP1 EXTCODESIZE ISZERO DUP1 ISZERO PUSH2 0x6AE JUMPI PUSH1 0x0 DUP1 REVERT JUMPDEST POP GAS STATICCALL ISZERO DUP1 ISZERO PUSH2 0x6C2 JUMPI RETURNDATASIZE PUSH1 0x0 DUP1 RETURNDATACOPY RETURNDATASIZE PUSH1 0x0 REVERT JUMPDEST POP POP POP POP PUSH1 0x40 MLOAD RETURNDATASIZE PUSH1 0x1F NOT PUSH1 0x1F DUP3 ADD AND DUP3 ADD DUP1 PUSH1 0x40 MSTORE POP DUP2 ADD SWAP1 PUSH2 0x6E6 SWAP2 SWAP1 PUSH2 0x172C JUMP JUMPDEST PUSH1 0x40 MLOAD DUP5 PUSH4 0xFFFFFFFF AND PUSH1 0xE0 SHL DUP2 MSTORE PUSH1 0x4 ADD PUSH2 0x704 SWAP4 SWAP3 SWAP2 SWAP1 PUSH2 0x1958 JUMP JUMPDEST PUSH1 0x20 PUSH1 0x40 MLOAD DUP1 DUP4 SUB DUP2 PUSH1 0x0 DUP8 DUP1 EXTCODESIZE ISZERO DUP1 ISZERO PUSH2 0x71E JUMPI PUSH1 0x0 DUP1 REVERT JUMPDEST POP GAS CALL ISZERO DUP1 ISZERO PUSH2 0x732 JUMPI RETURNDATASIZE PUSH1 0x0 DUP1 RETURNDATACOPY RETURNDATASIZE PUSH1 0x0 REVERT JUMPDEST POP POP POP POP PUSH1 0x40 MLOAD RETURNDATASIZE PUSH1 0x1F NOT PUSH1 0x1F DUP3 ADD AND DUP3 ADD DUP1 PUSH1 0x40 MSTORE POP DUP2 ADD SWAP1 PUSH2 0x756 SWAP2 SWAP1 PUSH2 0x1852 JUMP JUMPDEST POP PUSH1 0x3 DUP2 DUP2 SLOAD DUP2 LT PUSH2 0x764 JUMPI INVALID JUMPDEST PUSH1 0x0 SWAP2 DUP3 MSTORE PUSH1 0x20 SWAP1 SWAP2 KECCAK256 ADD SLOAD PUSH1 0x40 MLOAD PUSH1 0x1 PUSH1 0x1 PUSH1 0xA0 SHL SUB SWAP1 SWAP2 AND SWAP1 PUSH32 0x1F89F96333D3133000EE447473151FA9606543368F02271C9D95AE14F13BCC67 SWAP1 PUSH2 0x7AC SWAP1 DUP6 SWAP1 PUSH2 0x1DA4 JUMP JUMPDEST PUSH1 0x40 MLOAD DUP1 SWAP2 SUB SWAP1 LOG2 JUMPDEST PUSH1 0x1 ADD PUSH2 0x4ED JUMP JUMPDEST POP POP JUMP JUMPDEST PUSH1 0x0 PUSH32 0x0 ISZERO PUSH2 0x844 JUMPI PUSH2 0x83D PUSH32 0x0 PUSH2 0x837 DUP5 PUSH32 0x0 PUSH2 0x10DC JUMP JUMPDEST SWAP1 PUSH2 0x1116 JUMP JUMPDEST SWAP1 POP PUSH2 0x848 JUMP JUMPDEST POP PUSH1 0x0 JUMPDEST SWAP2 SWAP1 POP JUMP JUMPDEST PUSH32 0x0 DUP2 JUMP JUMPDEST PUSH1 0x3 DUP2 DUP2 SLOAD DUP2 LT PUSH2 0x87E JUMPI INVALID JUMPDEST PUSH1 0x0 SWAP2 DUP3 MSTORE PUSH1 0x20 SWAP1 SWAP2 KECCAK256 ADD SLOAD PUSH1 0x1 PUSH1 0x1 PUSH1 0xA0 SHL SUB AND SWAP1 POP DUP2 JUMP JUMPDEST PUSH1 0x0 PUSH32 0x0 ISZERO PUSH2 0x844 JUMPI PUSH2 0x83D PUSH32 0x0 PUSH2 0x837 DUP5 PUSH32 0x0 PUSH2 0x10DC JUMP JUMPDEST PUSH1 0x2 PUSH1 0x20 SWAP1 DUP2 MSTORE PUSH1 0x0 SWAP3 DUP4 MSTORE PUSH1 0x40 DUP1 DUP5 KECCAK256 SWAP1 SWAP2 MSTORE SWAP1 DUP3 MSTORE SWAP1 KECCAK256 SLOAD DUP2 JUMP JUMPDEST PUSH2 0x933 PUSH2 0x108D JUMP JUMPDEST PUSH1 0x0 SLOAD PUSH1 0x1 PUSH1 0x1 PUSH1 0xA0 SHL SUB SWAP1 DUP2 AND SWAP2 AND EQ PUSH2 0x960 JUMPI PUSH1 0x40 MLOAD PUSH3 0x461BCD PUSH1 0xE5 SHL DUP2 MSTORE PUSH1 0x4 ADD PUSH2 0x2CA SWAP1 PUSH2 0x1C60 JUMP JUMPDEST PUSH2 0x972 DUP2 PUSH1 0x0 ADD MLOAD DUP3 PUSH1 0x20 ADD MLOAD PUSH2 0x1158 JUMP JUMPDEST POP JUMP JUMPDEST PUSH2 0x97D PUSH2 0x108D JUMP JUMPDEST PUSH1 0x0 SLOAD PUSH1 0x1 PUSH1 0x1 PUSH1 0xA0 SHL SUB SWAP1 DUP2 AND SWAP2 AND EQ PUSH2 0x9AA JUMPI PUSH1 0x40 MLOAD PUSH3 0x461BCD PUSH1 0xE5 SHL DUP2 MSTORE PUSH1 0x4 ADD PUSH2 0x2CA SWAP1 PUSH2 0x1C60 JUMP JUMPDEST PUSH1 0x0 DUP1 SLOAD PUSH1 0x40 MLOAD PUSH1 0x1 PUSH1 0x1 PUSH1 0xA0 SHL SUB SWAP1 SWAP2 AND SWAP1 PUSH32 0x8BE0079C531659141344CD1FD0A4F28419497F9722A3DAAFE3B4186F6B6457E0 SWAP1 DUP4 SWAP1 LOG3 PUSH1 0x0 DUP1 SLOAD PUSH1 0x1 PUSH1 0x1 PUSH1 0xA0 SHL SUB NOT AND SWAP1 SSTORE JUMP JUMPDEST PUSH32 0x0 PUSH1 0x1 PUSH1 0x1 PUSH1 0xA0 SHL SUB AND PUSH4 0xBCB5703D PUSH1 0x40 MLOAD DUP2 PUSH4 0xFFFFFFFF AND PUSH1 0xE0 SHL DUP2 MSTORE PUSH1 0x4 ADD PUSH1 0x20 PUSH1 0x40 MLOAD DUP1 DUP4 SUB DUP2 DUP7 DUP1 EXTCODESIZE ISZERO DUP1 ISZERO PUSH2 0xA4D JUMPI PUSH1 0x0 DUP1 REVERT JUMPDEST POP GAS STATICCALL ISZERO DUP1 ISZERO PUSH2 0xA61 JUMPI RETURNDATASIZE PUSH1 0x0 DUP1 RETURNDATACOPY RETURNDATASIZE PUSH1 0x0 REVERT JUMPDEST POP POP POP POP PUSH1 0x40 MLOAD RETURNDATASIZE PUSH1 0x1F NOT PUSH1 0x1F DUP3 ADD AND DUP3 ADD DUP1 PUSH1 0x40 MSTORE POP DUP2 ADD SWAP1 PUSH2 0xA85 SWAP2 SWAP1 PUSH2 0x186A JUMP JUMPDEST PUSH1 0xFF AND PUSH32 0x0 PUSH1 0x1 PUSH1 0x1 PUSH1 0xA0 SHL SUB AND PUSH4 0xF815C03D CALLER PUSH1 0x40 MLOAD DUP3 PUSH4 0xFFFFFFFF AND PUSH1 0xE0 SHL DUP2 MSTORE PUSH1 0x4 ADD PUSH2 0xAD4 SWAP2 SWAP1 PUSH2 0x18ED JUMP JUMPDEST PUSH1 0x20 PUSH1 0x40 MLOAD DUP1 DUP4 SUB DUP2 DUP7 DUP1 EXTCODESIZE ISZERO DUP1 ISZERO PUSH2 0xAEC JUMPI PUSH1 0x0 DUP1 REVERT JUMPDEST POP GAS STATICCALL ISZERO DUP1 ISZERO PUSH2 0xB00 JUMPI RETURNDATASIZE PUSH1 0x0 DUP1 RETURNDATACOPY RETURNDATASIZE PUSH1 0x0 REVERT JUMPDEST POP POP POP POP PUSH1 0x40 MLOAD RETURNDATASIZE PUSH1 0x1F NOT PUSH1 0x1F DUP3 ADD AND DUP3 ADD DUP1 PUSH1 0x40 MSTORE POP DUP2 ADD SWAP1 PUSH2 0xB24 SWAP2 SWAP1 PUSH2 0x186A JUMP JUMPDEST PUSH1 0xFF AND EQ PUSH2 0xB44 JUMPI PUSH1 0x40 MLOAD PUSH3 0x461BCD PUSH1 0xE5 SHL DUP2 MSTORE PUSH1 0x4 ADD PUSH2 0x2CA SWAP1 PUSH2 0x1A7E JUMP JUMPDEST PUSH1 0x1 PUSH1 0x1 PUSH1 0xA0 SHL SUB DUP3 DUP2 AND PUSH1 0x0 SWAP1 DUP2 MSTORE PUSH1 0x5 PUSH1 0x20 MSTORE PUSH1 0x40 SWAP1 KECCAK256 SLOAD AND PUSH2 0xB7B JUMPI PUSH1 0x40 MLOAD PUSH3 0x461BCD PUSH1 0xE5 SHL DUP2 MSTORE PUSH1 0x4 ADD PUSH2 0x2CA SWAP1 PUSH2 0x1CE0 JUMP JUMPDEST PUSH2 0xB86 DUP4 DUP4 DUP4 PUSH2 0x1235 JUMP JUMPDEST PUSH1 0x40 MLOAD PUSH4 0x95EA7B3 PUSH1 0xE0 SHL DUP2 MSTORE PUSH1 0x1 PUSH1 0x1 PUSH1 0xA0 SHL SUB DUP4 AND SWAP1 PUSH4 0x95EA7B3 SWAP1 PUSH2 0xBC8 SWAP1 PUSH20 0x8DFF5E27EA6B7AC08EBFDF9EB090F32EE9A30FCF SWAP1 DUP6 SWAP1 PUSH1 0x4 ADD PUSH2 0x193F JUMP JUMPDEST PUSH1 0x20 PUSH1 0x40 MLOAD DUP1 DUP4 SUB DUP2 PUSH1 0x0 DUP8 DUP1 EXTCODESIZE ISZERO DUP1 ISZERO PUSH2 0xBE2 JUMPI PUSH1 0x0 DUP1 REVERT JUMPDEST POP GAS CALL ISZERO DUP1 ISZERO PUSH2 0xBF6 JUMPI RETURNDATASIZE PUSH1 0x0 DUP1 RETURNDATACOPY RETURNDATASIZE PUSH1 0x0 REVERT JUMPDEST POP POP POP POP PUSH1 0x40 MLOAD RETURNDATASIZE PUSH1 0x1F NOT PUSH1 0x1F DUP3 ADD AND DUP3 ADD DUP1 PUSH1 0x40 MSTORE POP DUP2 ADD SWAP1 PUSH2 0xC1A SWAP2 SWAP1 PUSH2 0x17C0 JUMP JUMPDEST POP PUSH1 0x40 MLOAD PUSH4 0xE8EDA9DF PUSH1 0xE0 SHL DUP2 MSTORE PUSH20 0x8DFF5E27EA6B7AC08EBFDF9EB090F32EE9A30FCF SWAP1 PUSH4 0xE8EDA9DF SWAP1 PUSH2 0xC59 SWAP1 DUP6 SWAP1 DUP6 SWAP1 ADDRESS SWAP1 PUSH1 0x0 SWAP1 PUSH1 0x4 ADD PUSH2 0x197B JUMP JUMPDEST PUSH1 0x0 PUSH1 0x40 MLOAD DUP1 DUP4 SUB DUP2 PUSH1 0x0 DUP8 DUP1 EXTCODESIZE ISZERO DUP1 ISZERO PUSH2 0xC73 JUMPI PUSH1 0x0 DUP1 REVERT JUMPDEST POP GAS CALL ISZERO DUP1 ISZERO PUSH2 0xC87 JUMPI RETURNDATASIZE PUSH1 0x0 DUP1 RETURNDATACOPY RETURNDATASIZE PUSH1 0x0 REVERT JUMPDEST POP POP POP POP POP POP POP JUMP JUMPDEST PUSH1 0x0 SLOAD PUSH1 0x1 PUSH1 0x1 PUSH1 0xA0 SHL SUB AND SWAP1 JUMP JUMPDEST PUSH32 0x0 DUP2 JUMP JUMPDEST PUSH1 0x4 DUP2 DUP2 SLOAD DUP2 LT PUSH2 0x87E JUMPI INVALID JUMPDEST PUSH20 0x357D51124F59836DED84C8A1730D72B749D8BC23 DUP2 JUMP JUMPDEST PUSH1 0x5 PUSH1 0x20 MSTORE PUSH1 0x0 SWAP1 DUP2 MSTORE PUSH1 0x40 SWAP1 KECCAK256 SLOAD PUSH1 0x1 PUSH1 0x1 PUSH1 0xA0 SHL SUB AND DUP2 JUMP JUMPDEST PUSH32 0x0 DUP2 JUMP JUMPDEST PUSH32 0x0 PUSH1 0x1 PUSH1 0x1 PUSH1 0xA0 SHL SUB AND PUSH4 0x24E702ED PUSH1 0x40 MLOAD DUP2 PUSH4 0xFFFFFFFF AND PUSH1 0xE0 SHL DUP2 MSTORE PUSH1 0x4 ADD PUSH1 0x20 PUSH1 0x40 MLOAD DUP1 DUP4 SUB DUP2 DUP7 DUP1 EXTCODESIZE ISZERO DUP1 ISZERO PUSH2 0xD80 JUMPI PUSH1 0x0 DUP1 REVERT JUMPDEST POP GAS STATICCALL ISZERO DUP1 ISZERO PUSH2 0xD94 JUMPI RETURNDATASIZE PUSH1 0x0 DUP1 RETURNDATACOPY RETURNDATASIZE PUSH1 0x0 REVERT JUMPDEST POP POP POP POP PUSH1 0x40 MLOAD RETURNDATASIZE PUSH1 0x1F NOT PUSH1 0x1F DUP3 ADD AND DUP3 ADD DUP1 PUSH1 0x40 MSTORE POP DUP2 ADD SWAP1 PUSH2 0xDB8 SWAP2 SWAP1 PUSH2 0x186A JUMP JUMPDEST PUSH1 0xFF AND PUSH32 0x0 PUSH1 0x1 PUSH1 0x1 PUSH1 0xA0 SHL SUB AND PUSH4 0xF815C03D CALLER PUSH1 0x40 MLOAD DUP3 PUSH4 0xFFFFFFFF AND PUSH1 0xE0 SHL DUP2 MSTORE PUSH1 0x4 ADD PUSH2 0xE07 SWAP2 SWAP1 PUSH2 0x18ED JUMP JUMPDEST PUSH1 0x20 PUSH1 0x40 MLOAD DUP1 DUP4 SUB DUP2 DUP7 DUP1 EXTCODESIZE ISZERO DUP1 ISZERO PUSH2 0xE1F JUMPI PUSH1 0x0 DUP1 REVERT JUMPDEST POP GAS STATICCALL ISZERO DUP1 ISZERO PUSH2 0xE33 JUMPI RETURNDATASIZE PUSH1 0x0 DUP1 RETURNDATACOPY RETURNDATASIZE PUSH1 0x0 REVERT JUMPDEST POP POP POP POP PUSH1 0x40 MLOAD RETURNDATASIZE PUSH1 0x1F NOT PUSH1 0x1F DUP3 ADD AND DUP3 ADD DUP1 PUSH1 0x40 MSTORE POP DUP2 ADD SWAP1 PUSH2 0xE57 SWAP2 SWAP1 PUSH2 0x186A JUMP JUMPDEST PUSH1 0xFF AND EQ ISZERO PUSH2 0xE78 JUMPI PUSH1 0x40 MLOAD PUSH3 0x461BCD PUSH1 0xE5 SHL DUP2 MSTORE PUSH1 0x4 ADD PUSH2 0x2CA SWAP1 PUSH2 0x1C95 JUMP JUMPDEST PUSH1 0x1 PUSH1 0x1 PUSH1 0xA0 SHL SUB DUP3 DUP2 AND PUSH1 0x0 SWAP1 DUP2 MSTORE PUSH1 0x5 PUSH1 0x20 MSTORE PUSH1 0x40 SWAP1 KECCAK256 SLOAD AND PUSH2 0xEAF JUMPI PUSH1 0x40 MLOAD PUSH3 0x461BCD PUSH1 0xE5 SHL DUP2 MSTORE PUSH1 0x4 ADD PUSH2 0x2CA SWAP1 PUSH2 0x1CE0 JUMP JUMPDEST PUSH2 0xEBA DUP4 DUP4 DUP4 PUSH2 0x1403 JUMP JUMPDEST PUSH1 0x40 MLOAD PUSH4 0x1A4CA37B PUSH1 0xE2 SHL DUP2 MSTORE PUSH20 0x8DFF5E27EA6B7AC08EBFDF9EB090F32EE9A30FCF SWAP1 PUSH4 0x69328DEC SWAP1 PUSH2 0xEF5 SWAP1 DUP6 SWAP1 DUP6 SWAP1 DUP9 SWAP1 PUSH1 0x4 ADD PUSH2 0x1958 JUMP JUMPDEST PUSH1 0x20 PUSH1 0x40 MLOAD DUP1 DUP4 SUB DUP2 PUSH1 0x0 DUP8 DUP1 EXTCODESIZE ISZERO DUP1 ISZERO PUSH2 0xF0F JUMPI PUSH1 0x0 DUP1 REVERT JUMPDEST POP GAS CALL ISZERO DUP1 ISZERO PUSH2 0xF23 JUMPI RETURNDATASIZE PUSH1 0x0 DUP1 RETURNDATACOPY RETURNDATASIZE PUSH1 0x0 REVERT JUMPDEST POP POP POP POP PUSH1 0x40 MLOAD RETURNDATASIZE PUSH1 0x1F NOT PUSH1 0x1F DUP3 ADD AND DUP3 ADD DUP1 PUSH1 0x40 MSTORE POP DUP2 ADD SWAP1 PUSH2 0xF47 SWAP2 SWAP1 PUSH2 0x1852 JUMP JUMPDEST POP POP POP POP JUMP JUMPDEST PUSH32 0x0 DUP2 JUMP JUMPDEST PUSH1 0x1 PUSH1 0x20 MSTORE PUSH1 0x0 SWAP1 DUP2 MSTORE PUSH1 0x40 SWAP1 KECCAK256 SLOAD DUP2 JUMP JUMPDEST PUSH2 0xF8B PUSH2 0x108D JUMP JUMPDEST PUSH1 0x0 SLOAD PUSH1 0x1 PUSH1 0x1 PUSH1 0xA0 SHL SUB SWAP1 DUP2 AND SWAP2 AND EQ PUSH2 0xFB8 JUMPI PUSH1 0x40 MLOAD PUSH3 0x461BCD PUSH1 0xE5 SHL DUP2 MSTORE PUSH1 0x4 ADD PUSH2 0x2CA SWAP1 PUSH2 0x1C60 JUMP JUMPDEST PUSH1 0x1 PUSH1 0x1 PUSH1 0xA0 SHL SUB DUP2 AND PUSH2 0xFDE JUMPI PUSH1 0x40 MLOAD PUSH3 0x461BCD PUSH1 0xE5 SHL DUP2 MSTORE PUSH1 0x4 ADD PUSH2 0x2CA SWAP1 PUSH2 0x1A38 JUMP JUMPDEST PUSH1 0x0 DUP1 SLOAD PUSH1 0x40 MLOAD PUSH1 0x1 PUSH1 0x1 PUSH1 0xA0 SHL SUB DUP1 DUP6 AND SWAP4 SWAP3 AND SWAP2 PUSH32 0x8BE0079C531659141344CD1FD0A4F28419497F9722A3DAAFE3B4186F6B6457E0 SWAP2 LOG3 PUSH1 0x0 DUP1 SLOAD PUSH1 0x1 PUSH1 0x1 PUSH1 0xA0 SHL SUB NOT AND PUSH1 0x1 PUSH1 0x1 PUSH1 0xA0 SHL SUB SWAP3 SWAP1 SWAP3 AND SWAP2 SWAP1 SWAP2 OR SWAP1 SSTORE JUMP JUMPDEST PUSH20 0x8DFF5E27EA6B7AC08EBFDF9EB090F32EE9A30FCF DUP2 JUMP JUMPDEST PUSH32 0x0 DUP2 JUMP JUMPDEST PUSH20 0xD500B1D8E8EF31E21C99D1DB9A6444D3ADF1270 DUP2 JUMP JUMPDEST CALLER SWAP1 JUMP JUMPDEST PUSH1 0x0 PUSH2 0x10D3 DUP4 DUP4 PUSH1 0x40 MLOAD DUP1 PUSH1 0x40 ADD PUSH1 0x40 MSTORE DUP1 PUSH1 0x1E DUP2 MSTORE PUSH1 0x20 ADD PUSH32 0x536166654D6174683A207375627472616374696F6E206F766572666C6F770000 DUP2 MSTORE POP PUSH2 0x150F JUMP JUMPDEST SWAP1 POP JUMPDEST SWAP3 SWAP2 POP POP JUMP JUMPDEST PUSH1 0x0 DUP3 PUSH2 0x10EB JUMPI POP PUSH1 0x0 PUSH2 0x10D6 JUMP JUMPDEST DUP3 DUP3 MUL DUP3 DUP5 DUP3 DUP2 PUSH2 0x10F8 JUMPI INVALID JUMPDEST DIV EQ PUSH2 0x10D3 JUMPI PUSH1 0x40 MLOAD PUSH3 0x461BCD PUSH1 0xE5 SHL DUP2 MSTORE PUSH1 0x4 ADD PUSH2 0x2CA SWAP1 PUSH2 0x1C1F JUMP JUMPDEST PUSH1 0x0 PUSH2 0x10D3 DUP4 DUP4 PUSH1 0x40 MLOAD DUP1 PUSH1 0x40 ADD PUSH1 0x40 MSTORE DUP1 PUSH1 0x1A DUP2 MSTORE PUSH1 0x20 ADD PUSH32 0x536166654D6174683A206469766973696F6E206279207A65726F000000000000 DUP2 MSTORE POP PUSH2 0x153B JUMP JUMPDEST PUSH1 0x1 PUSH1 0x1 PUSH1 0xA0 SHL SUB DUP1 DUP4 AND PUSH1 0x0 DUP2 DUP2 MSTORE PUSH1 0x5 PUSH1 0x20 MSTORE PUSH1 0x40 DUP1 DUP3 KECCAK256 DUP1 SLOAD SWAP5 DUP7 AND PUSH1 0x1 PUSH1 0x1 PUSH1 0xA0 SHL SUB NOT SWAP6 DUP7 AND DUP2 OR SWAP1 SWAP2 SSTORE PUSH1 0x3 DUP1 SLOAD PUSH1 0x1 DUP2 DUP2 ADD SWAP1 SWAP3 SSTORE PUSH32 0xC2575A0E9E593C00F959F8C92F12DB2869C3395A3B0502D05E2516446F71F85B ADD DUP1 SLOAD DUP8 AND SWAP1 SWAP6 OR SWAP1 SWAP5 SSTORE PUSH1 0x4 DUP1 SLOAD SWAP5 DUP6 ADD DUP2 SSTORE SWAP1 SWAP3 MSTORE PUSH32 0x8A35ACFBC15FF81A39AE7D344FD709F28E8600B4AA8C65C6B64BFE7FE36BD19B SWAP1 SWAP3 ADD DUP1 SLOAD SWAP1 SWAP4 AND OR SWAP1 SWAP2 SSTORE MLOAD PUSH32 0xDFFBD9DED1C09446F09377DE547142DCCE7DC541C8B0B028142B1EBA7026B9E7 SWAP1 PUSH2 0x1229 SWAP1 DUP5 SWAP1 DUP5 SWAP1 PUSH2 0x1901 JUMP JUMPDEST PUSH1 0x40 MLOAD DUP1 SWAP2 SUB SWAP1 LOG1 POP POP JUMP JUMPDEST DUP1 ISZERO PUSH2 0x13E6 JUMPI PUSH1 0x40 MLOAD PUSH4 0x70A08231 PUSH1 0xE0 SHL DUP2 MSTORE DUP3 SWAP1 PUSH1 0x0 SWAP1 PUSH1 0x1 PUSH1 0x1 PUSH1 0xA0 SHL SUB DUP4 AND SWAP1 PUSH4 0x70A08231 SWAP1 PUSH2 0x126C SWAP1 ADDRESS SWAP1 PUSH1 0x4 ADD PUSH2 0x18ED JUMP JUMPDEST PUSH1 0x20 PUSH1 0x40 MLOAD DUP1 DUP4 SUB DUP2 DUP7 DUP1 EXTCODESIZE ISZERO DUP1 ISZERO PUSH2 0x1284 JUMPI PUSH1 0x0 DUP1 REVERT JUMPDEST POP GAS STATICCALL ISZERO DUP1 ISZERO PUSH2 0x1298 JUMPI RETURNDATASIZE PUSH1 0x0 DUP1 RETURNDATACOPY RETURNDATASIZE PUSH1 0x0 REVERT JUMPDEST POP POP POP POP PUSH1 0x40 MLOAD RETURNDATASIZE PUSH1 0x1F NOT PUSH1 0x1F DUP3 ADD AND DUP3 ADD DUP1 PUSH1 0x40 MSTORE POP DUP2 ADD SWAP1 PUSH2 0x12BC SWAP2 SWAP1 PUSH2 0x1852 JUMP JUMPDEST SWAP1 POP PUSH2 0x12D3 PUSH1 0x1 PUSH1 0x1 PUSH1 0xA0 SHL SUB DUP4 AND DUP7 ADDRESS DUP7 PUSH2 0x1572 JUMP JUMPDEST DUP3 PUSH2 0x1304 DUP3 DUP5 PUSH1 0x1 PUSH1 0x1 PUSH1 0xA0 SHL SUB AND PUSH4 0x70A08231 ADDRESS PUSH1 0x40 MLOAD DUP3 PUSH4 0xFFFFFFFF AND PUSH1 0xE0 SHL DUP2 MSTORE PUSH1 0x4 ADD PUSH2 0x5A8 SWAP2 SWAP1 PUSH2 0x18ED JUMP JUMPDEST EQ PUSH2 0x1321 JUMPI PUSH1 0x40 MLOAD PUSH3 0x461BCD PUSH1 0xE5 SHL DUP2 MSTORE PUSH1 0x4 ADD PUSH2 0x2CA SWAP1 PUSH2 0x1BDA JUMP JUMPDEST PUSH1 0x1 PUSH1 0x1 PUSH1 0xA0 SHL SUB DUP5 AND PUSH1 0x0 SWAP1 DUP2 MSTORE PUSH1 0x1 PUSH1 0x20 MSTORE PUSH1 0x40 SWAP1 KECCAK256 SLOAD PUSH2 0x1344 SWAP1 DUP5 PUSH2 0x15CA JUMP JUMPDEST PUSH1 0x1 PUSH1 0x1 PUSH1 0xA0 SHL SUB DUP6 AND PUSH1 0x0 DUP2 DUP2 MSTORE PUSH1 0x1 PUSH1 0x20 SWAP1 DUP2 MSTORE PUSH1 0x40 DUP1 DUP4 KECCAK256 SWAP5 SWAP1 SWAP5 SSTORE CALLER DUP3 MSTORE PUSH1 0x2 DUP2 MSTORE DUP4 DUP3 KECCAK256 SWAP3 DUP3 MSTORE SWAP2 SWAP1 SWAP2 MSTORE KECCAK256 SLOAD PUSH2 0x1380 SWAP1 DUP5 PUSH2 0x15CA JUMP JUMPDEST CALLER PUSH1 0x0 DUP2 DUP2 MSTORE PUSH1 0x2 PUSH1 0x20 SWAP1 DUP2 MSTORE PUSH1 0x40 DUP1 DUP4 KECCAK256 PUSH1 0x1 PUSH1 0x1 PUSH1 0xA0 SHL SUB DUP11 AND DUP1 DUP6 MSTORE SWAP3 MSTORE SWAP2 DUP3 SWAP1 KECCAK256 SWAP4 SWAP1 SWAP4 SSTORE MLOAD PUSH32 0x5548C837AB068CF56A2C2479DF0882A4922FD203EDB7517321831D95078C5F62 SWAP1 PUSH2 0x13D7 SWAP1 DUP8 SWAP1 PUSH2 0x1DA4 JUMP JUMPDEST PUSH1 0x40 MLOAD DUP1 SWAP2 SUB SWAP1 LOG3 POP POP PUSH2 0x13FE JUMP JUMPDEST PUSH1 0x40 MLOAD PUSH3 0x461BCD PUSH1 0xE5 SHL DUP2 MSTORE PUSH1 0x4 ADD PUSH2 0x2CA SWAP1 PUSH2 0x1B92 JUMP JUMPDEST POP POP POP JUMP JUMPDEST CALLER PUSH1 0x0 SWAP1 DUP2 MSTORE PUSH1 0x2 PUSH1 0x20 SWAP1 DUP2 MSTORE PUSH1 0x40 DUP1 DUP4 KECCAK256 PUSH1 0x1 PUSH1 0x1 PUSH1 0xA0 SHL SUB DUP7 AND DUP5 MSTORE SWAP1 SWAP2 MSTORE SWAP1 KECCAK256 SLOAD DUP2 GT ISZERO PUSH2 0x1446 JUMPI PUSH1 0x40 MLOAD PUSH3 0x461BCD PUSH1 0xE5 SHL DUP2 MSTORE PUSH1 0x4 ADD PUSH2 0x2CA SWAP1 PUSH2 0x1B3C JUMP JUMPDEST DUP1 ISZERO PUSH2 0x13FE JUMPI PUSH1 0x1 PUSH1 0x1 PUSH1 0xA0 SHL SUB DUP3 AND PUSH1 0x0 SWAP1 DUP2 MSTORE PUSH1 0x1 PUSH1 0x20 MSTORE PUSH1 0x40 SWAP1 KECCAK256 SLOAD PUSH2 0x146F SWAP1 DUP3 PUSH2 0x1091 JUMP JUMPDEST PUSH1 0x1 PUSH1 0x1 PUSH1 0xA0 SHL SUB DUP4 AND PUSH1 0x0 DUP2 DUP2 MSTORE PUSH1 0x1 PUSH1 0x20 SWAP1 DUP2 MSTORE PUSH1 0x40 DUP1 DUP4 KECCAK256 SWAP5 SWAP1 SWAP5 SSTORE CALLER DUP3 MSTORE PUSH1 0x2 DUP2 MSTORE DUP4 DUP3 KECCAK256 SWAP3 DUP3 MSTORE SWAP2 SWAP1 SWAP2 MSTORE KECCAK256 SLOAD PUSH2 0x14AB SWAP1 DUP3 PUSH2 0x1091 JUMP JUMPDEST CALLER PUSH1 0x0 DUP2 DUP2 MSTORE PUSH1 0x2 PUSH1 0x20 SWAP1 DUP2 MSTORE PUSH1 0x40 DUP1 DUP4 KECCAK256 PUSH1 0x1 PUSH1 0x1 PUSH1 0xA0 SHL SUB DUP9 AND DUP1 DUP6 MSTORE SWAP3 MSTORE SWAP2 DUP3 SWAP1 KECCAK256 SWAP4 SWAP1 SWAP4 SSTORE MLOAD PUSH32 0x9B1BFA7FA9EE420A16E124F794C35AC9F90472ACC99140EB2F6447C714CAD8EB SWAP1 PUSH2 0x1502 SWAP1 DUP6 SWAP1 PUSH2 0x1DA4 JUMP JUMPDEST PUSH1 0x40 MLOAD DUP1 SWAP2 SUB SWAP1 LOG3 POP POP POP JUMP JUMPDEST PUSH1 0x0 DUP2 DUP5 DUP5 GT ISZERO PUSH2 0x1533 JUMPI PUSH1 0x40 MLOAD PUSH3 0x461BCD PUSH1 0xE5 SHL DUP2 MSTORE PUSH1 0x4 ADD PUSH2 0x2CA SWAP2 SWAP1 PUSH2 0x1A05 JUMP JUMPDEST POP POP POP SWAP1 SUB SWAP1 JUMP JUMPDEST PUSH1 0x0 DUP2 DUP4 PUSH2 0x155C JUMPI PUSH1 0x40 MLOAD PUSH3 0x461BCD PUSH1 0xE5 SHL DUP2 MSTORE PUSH1 0x4 ADD PUSH2 0x2CA SWAP2 SWAP1 PUSH2 0x1A05 JUMP JUMPDEST POP PUSH1 0x0 DUP4 DUP6 DUP2 PUSH2 0x1568 JUMPI INVALID JUMPDEST DIV SWAP6 SWAP5 POP POP POP POP POP JUMP JUMPDEST PUSH2 0xF47 DUP5 PUSH4 0x23B872DD PUSH1 0xE0 SHL DUP6 DUP6 DUP6 PUSH1 0x40 MLOAD PUSH1 0x24 ADD PUSH2 0x1593 SWAP4 SWAP3 SWAP2 SWAP1 PUSH2 0x191B JUMP JUMPDEST PUSH1 0x40 DUP1 MLOAD PUSH1 0x1F NOT DUP2 DUP5 SUB ADD DUP2 MSTORE SWAP2 SWAP1 MSTORE PUSH1 0x20 DUP2 ADD DUP1 MLOAD PUSH1 0x1 PUSH1 0x1 PUSH1 0xE0 SHL SUB AND PUSH1 0x1 PUSH1 0x1 PUSH1 0xE0 SHL SUB NOT SWAP1 SWAP4 AND SWAP3 SWAP1 SWAP3 OR SWAP1 SWAP2 MSTORE PUSH2 0x15EF JUMP JUMPDEST PUSH1 0x0 DUP3 DUP3 ADD DUP4 DUP2 LT ISZERO PUSH2 0x10D3 JUMPI PUSH1 0x40 MLOAD PUSH3 0x461BCD PUSH1 0xE5 SHL DUP2 MSTORE PUSH1 0x4 ADD PUSH2 0x2CA SWAP1 PUSH2 0x1AD0 JUMP JUMPDEST PUSH2 0x1601 DUP3 PUSH1 0x1 PUSH1 0x1 PUSH1 0xA0 SHL SUB AND PUSH2 0x16D4 JUMP JUMPDEST PUSH2 0x161D JUMPI PUSH1 0x40 MLOAD PUSH3 0x461BCD PUSH1 0xE5 SHL DUP2 MSTORE PUSH1 0x4 ADD PUSH2 0x2CA SWAP1 PUSH2 0x1D6D JUMP JUMPDEST PUSH1 0x0 PUSH1 0x60 DUP4 PUSH1 0x1 PUSH1 0x1 PUSH1 0xA0 SHL SUB AND DUP4 PUSH1 0x40 MLOAD PUSH2 0x1639 SWAP2 SWAP1 PUSH2 0x18D1 JUMP JUMPDEST PUSH1 0x0 PUSH1 0x40 MLOAD DUP1 DUP4 SUB DUP2 PUSH1 0x0 DUP7 GAS CALL SWAP2 POP POP RETURNDATASIZE DUP1 PUSH1 0x0 DUP2 EQ PUSH2 0x1676 JUMPI PUSH1 0x40 MLOAD SWAP2 POP PUSH1 0x1F NOT PUSH1 0x3F RETURNDATASIZE ADD AND DUP3 ADD PUSH1 0x40 MSTORE RETURNDATASIZE DUP3 MSTORE RETURNDATASIZE PUSH1 0x0 PUSH1 0x20 DUP5 ADD RETURNDATACOPY PUSH2 0x167B JUMP JUMPDEST PUSH1 0x60 SWAP2 POP JUMPDEST POP SWAP2 POP SWAP2 POP DUP2 PUSH2 0x169D JUMPI PUSH1 0x40 MLOAD PUSH3 0x461BCD PUSH1 0xE5 SHL DUP2 MSTORE PUSH1 0x4 ADD PUSH2 0x2CA SWAP1 PUSH2 0x1B07 JUMP JUMPDEST DUP1 MLOAD ISZERO PUSH2 0xF47 JUMPI DUP1 DUP1 PUSH1 0x20 ADD SWAP1 MLOAD DUP2 ADD SWAP1 PUSH2 0x16B8 SWAP2 SWAP1 PUSH2 0x17C0 JUMP JUMPDEST PUSH2 0xF47 JUMPI PUSH1 0x40 MLOAD PUSH3 0x461BCD PUSH1 0xE5 SHL DUP2 MSTORE PUSH1 0x4 ADD PUSH2 0x2CA SWAP1 PUSH2 0x1D23 JUMP JUMPDEST PUSH1 0x0 DUP2 EXTCODEHASH PUSH32 0xC5D2460186F7233C927E7DB2DCC703C0E500B653CA82273B7BFAD8045D85A470 DUP2 DUP2 EQ DUP1 ISZERO SWAP1 PUSH2 0x1708 JUMPI POP DUP2 ISZERO ISZERO JUMPDEST SWAP5 SWAP4 POP POP POP POP JUMP JUMPDEST PUSH1 0x0 PUSH1 0x20 DUP3 DUP5 SUB SLT ISZERO PUSH2 0x1721 JUMPI DUP1 DUP2 REVERT JUMPDEST DUP2 CALLDATALOAD PUSH2 0x10D3 DUP2 PUSH2 0x1DD9 JUMP JUMPDEST PUSH1 0x0 PUSH1 0x20 DUP3 DUP5 SUB SLT ISZERO PUSH2 0x173D JUMPI DUP1 DUP2 REVERT JUMPDEST DUP2 MLOAD PUSH2 0x10D3 DUP2 PUSH2 0x1DD9 JUMP JUMPDEST PUSH1 0x0 DUP1 PUSH1 0x40 DUP4 DUP6 SUB SLT ISZERO PUSH2 0x175A JUMPI DUP1 DUP2 REVERT JUMPDEST DUP3 CALLDATALOAD PUSH2 0x1765 DUP2 PUSH2 0x1DD9 JUMP JUMPDEST SWAP2 POP PUSH1 0x20 DUP4 ADD CALLDATALOAD PUSH2 0x1775 DUP2 PUSH2 0x1DD9 JUMP JUMPDEST DUP1 SWAP2 POP POP SWAP3 POP SWAP3 SWAP1 POP JUMP JUMPDEST PUSH1 0x0 DUP1 PUSH1 0x0 PUSH1 0x60 DUP5 DUP7 SUB SLT ISZERO PUSH2 0x1794 JUMPI DUP1 DUP2 REVERT JUMPDEST DUP4 CALLDATALOAD PUSH2 0x179F DUP2 PUSH2 0x1DD9 JUMP JUMPDEST SWAP3 POP PUSH1 0x20 DUP5 ADD CALLDATALOAD PUSH2 0x17AF DUP2 PUSH2 0x1DD9 JUMP JUMPDEST SWAP3 SWAP6 SWAP3 SWAP5 POP POP POP PUSH1 0x40 SWAP2 SWAP1 SWAP2 ADD CALLDATALOAD SWAP1 JUMP JUMPDEST PUSH1 0x0 PUSH1 0x20 DUP3 DUP5 SUB SLT ISZERO PUSH2 0x17D1 JUMPI DUP1 DUP2 REVERT JUMPDEST DUP2 MLOAD DUP1 ISZERO ISZERO DUP2 EQ PUSH2 0x10D3 JUMPI DUP2 DUP3 REVERT JUMPDEST PUSH1 0x0 PUSH1 0x40 DUP3 DUP5 SUB SLT ISZERO PUSH2 0x17F1 JUMPI DUP1 DUP2 REVERT JUMPDEST PUSH1 0x40 MLOAD PUSH1 0x40 DUP2 ADD DUP2 DUP2 LT PUSH8 0xFFFFFFFFFFFFFFFF DUP3 GT OR ISZERO PUSH2 0x1810 JUMPI DUP3 DUP4 REVERT JUMPDEST PUSH1 0x40 MSTORE DUP3 CALLDATALOAD PUSH2 0x181E DUP2 PUSH2 0x1DD9 JUMP JUMPDEST DUP2 MSTORE PUSH1 0x20 DUP4 ADD CALLDATALOAD PUSH2 0x182E DUP2 PUSH2 0x1DD9 JUMP JUMPDEST PUSH1 0x20 DUP3 ADD MSTORE SWAP4 SWAP3 POP POP POP JUMP JUMPDEST PUSH1 0x0 PUSH1 0x20 DUP3 DUP5 SUB SLT ISZERO PUSH2 0x184B JUMPI DUP1 DUP2 REVERT JUMPDEST POP CALLDATALOAD SWAP2 SWAP1 POP JUMP JUMPDEST PUSH1 0x0 PUSH1 0x20 DUP3 DUP5 SUB SLT ISZERO PUSH2 0x1863 JUMPI DUP1 DUP2 REVERT JUMPDEST POP MLOAD SWAP2 SWAP1 POP JUMP JUMPDEST PUSH1 0x0 PUSH1 0x20 DUP3 DUP5 SUB SLT ISZERO PUSH2 0x187B JUMPI DUP1 DUP2 REVERT JUMPDEST DUP2 MLOAD PUSH1 0xFF DUP2 AND DUP2 EQ PUSH2 0x10D3 JUMPI DUP2 DUP3 REVERT JUMPDEST PUSH1 0x0 DUP2 SLOAD DUP1 DUP5 MSTORE PUSH1 0x20 DUP1 DUP6 ADD SWAP5 POP DUP4 DUP4 MSTORE DUP1 DUP4 KECCAK256 DUP4 JUMPDEST DUP4 DUP2 LT ISZERO PUSH2 0x18C6 JUMPI DUP2 SLOAD PUSH1 0x1 PUSH1 0x1 PUSH1 0xA0 SHL SUB AND DUP8 MSTORE SWAP6 DUP3 ADD SWAP6 PUSH1 0x1 SWAP2 DUP3 ADD SWAP2 ADD PUSH2 0x18A1 JUMP JUMPDEST POP SWAP5 SWAP6 SWAP5 POP POP POP POP POP JUMP JUMPDEST PUSH1 0x0 DUP3 MLOAD PUSH2 0x18E3 DUP2 DUP5 PUSH1 0x20 DUP8 ADD PUSH2 0x1DAD JUMP JUMPDEST SWAP2 SWAP1 SWAP2 ADD SWAP3 SWAP2 POP POP JUMP JUMPDEST PUSH1 0x1 PUSH1 0x1 PUSH1 0xA0 SHL SUB SWAP2 SWAP1 SWAP2 AND DUP2 MSTORE PUSH1 0x20 ADD SWAP1 JUMP JUMPDEST PUSH1 0x1 PUSH1 0x1 PUSH1 0xA0 SHL SUB SWAP3 DUP4 AND DUP2 MSTORE SWAP2 AND PUSH1 0x20 DUP3 ADD MSTORE PUSH1 0x40 ADD SWAP1 JUMP JUMPDEST PUSH1 0x1 PUSH1 0x1 PUSH1 0xA0 SHL SUB SWAP4 DUP5 AND DUP2 MSTORE SWAP2 SWAP1 SWAP3 AND PUSH1 0x20 DUP3 ADD MSTORE PUSH1 0x40 DUP2 ADD SWAP2 SWAP1 SWAP2 MSTORE PUSH1 0x60 ADD SWAP1 JUMP JUMPDEST PUSH1 0x1 PUSH1 0x1 PUSH1 0xA0 SHL SUB SWAP3 SWAP1 SWAP3 AND DUP3 MSTORE PUSH1 0x20 DUP3 ADD MSTORE PUSH1 0x40 ADD SWAP1 JUMP JUMPDEST PUSH1 0x1 PUSH1 0x1 PUSH1 0xA0 SHL SUB SWAP4 DUP5 AND DUP2 MSTORE PUSH1 0x20 DUP2 ADD SWAP3 SWAP1 SWAP3 MSTORE SWAP1 SWAP2 AND PUSH1 0x40 DUP3 ADD MSTORE PUSH1 0x60 ADD SWAP1 JUMP JUMPDEST PUSH1 0x1 PUSH1 0x1 PUSH1 0xA0 SHL SUB SWAP5 DUP6 AND DUP2 MSTORE PUSH1 0x20 DUP2 ADD SWAP4 SWAP1 SWAP4 MSTORE SWAP3 AND PUSH1 0x40 DUP3 ADD MSTORE PUSH2 0xFFFF SWAP1 SWAP2 AND PUSH1 0x60 DUP3 ADD MSTORE PUSH1 0x80 ADD SWAP1 JUMP JUMPDEST PUSH1 0x0 PUSH1 0x40 DUP3 MSTORE PUSH2 0x19BB PUSH1 0x40 DUP4 ADD DUP6 PUSH2 0x188B JUMP JUMPDEST SWAP1 POP PUSH1 0x1 DUP1 PUSH1 0xA0 SHL SUB DUP4 AND PUSH1 0x20 DUP4 ADD MSTORE SWAP4 SWAP3 POP POP POP JUMP JUMPDEST PUSH1 0x0 PUSH1 0x60 DUP3 MSTORE PUSH2 0x19E5 PUSH1 0x60 DUP4 ADD DUP7 PUSH2 0x188B JUMP JUMPDEST PUSH1 0x20 DUP4 ADD SWAP5 SWAP1 SWAP5 MSTORE POP PUSH1 0x1 PUSH1 0x1 PUSH1 0xA0 SHL SUB SWAP2 SWAP1 SWAP2 AND PUSH1 0x40 SWAP1 SWAP2 ADD MSTORE SWAP2 SWAP1 POP JUMP JUMPDEST PUSH1 0x0 PUSH1 0x20 DUP3 MSTORE DUP3 MLOAD DUP1 PUSH1 0x20 DUP5 ADD MSTORE PUSH2 0x1A24 DUP2 PUSH1 0x40 DUP6 ADD PUSH1 0x20 DUP8 ADD PUSH2 0x1DAD JUMP JUMPDEST PUSH1 0x1F ADD PUSH1 0x1F NOT AND SWAP2 SWAP1 SWAP2 ADD PUSH1 0x40 ADD SWAP3 SWAP2 POP POP JUMP JUMPDEST PUSH1 0x20 DUP1 DUP3 MSTORE PUSH1 0x26 SWAP1 DUP3 ADD MSTORE PUSH32 0x4F776E61626C653A206E6577206F776E657220697320746865207A65726F2061 PUSH1 0x40 DUP3 ADD MSTORE PUSH6 0x646472657373 PUSH1 0xD0 SHL PUSH1 0x60 DUP3 ADD MSTORE PUSH1 0x80 ADD SWAP1 JUMP JUMPDEST PUSH1 0x20 DUP1 DUP3 MSTORE PUSH1 0x32 SWAP1 DUP3 ADD MSTORE PUSH32 0x436F726E46692053696D706C652053747261746567793A204163746976652056 PUSH1 0x40 DUP3 ADD MSTORE PUSH18 0x30BAB63A1027B7363C90233AB731BA34B7B7 PUSH1 0x71 SHL PUSH1 0x60 DUP3 ADD MSTORE PUSH1 0x80 ADD SWAP1 JUMP JUMPDEST PUSH1 0x20 DUP1 DUP3 MSTORE PUSH1 0x1B SWAP1 DUP3 ADD MSTORE PUSH32 0x536166654D6174683A206164646974696F6E206F766572666C6F770000000000 PUSH1 0x40 DUP3 ADD MSTORE PUSH1 0x60 ADD SWAP1 JUMP JUMPDEST PUSH1 0x20 DUP1 DUP3 MSTORE DUP2 DUP2 ADD MSTORE PUSH32 0x5361666545524332303A206C6F772D6C6576656C2063616C6C206661696C6564 PUSH1 0x40 DUP3 ADD MSTORE PUSH1 0x60 ADD SWAP1 JUMP JUMPDEST PUSH1 0x20 DUP1 DUP3 MSTORE PUSH1 0x36 SWAP1 DUP3 ADD MSTORE PUSH32 0x436F726E46692053696D706C652053747261746567793A205661756C74205769 PUSH1 0x40 DUP3 ADD MSTORE PUSH22 0x1D1A191C985DC8105B5BDD5B9D08115E18D959591959 PUSH1 0x52 SHL PUSH1 0x60 DUP3 ADD MSTORE PUSH1 0x80 ADD SWAP1 JUMP JUMPDEST PUSH1 0x20 DUP1 DUP3 MSTORE PUSH1 0x28 SWAP1 DUP3 ADD MSTORE PUSH32 0x436F726E466920537472617465677920426173653A204465706F73697420416D PUSH1 0x40 DUP3 ADD MSTORE PUSH8 0x6F756E7420273027 PUSH1 0xC0 SHL PUSH1 0x60 DUP3 ADD MSTORE PUSH1 0x80 ADD SWAP1 JUMP JUMPDEST PUSH1 0x20 DUP1 DUP3 MSTORE PUSH1 0x25 SWAP1 DUP3 ADD MSTORE PUSH32 0x436F726E46692053696D706C652053747261746567793A204465706F73697420 PUSH1 0x40 DUP3 ADD MSTORE PUSH5 0x22B93937B9 PUSH1 0xD9 SHL PUSH1 0x60 DUP3 ADD MSTORE PUSH1 0x80 ADD SWAP1 JUMP JUMPDEST PUSH1 0x20 DUP1 DUP3 MSTORE PUSH1 0x21 SWAP1 DUP3 ADD MSTORE PUSH32 0x536166654D6174683A206D756C7469706C69636174696F6E206F766572666C6F PUSH1 0x40 DUP3 ADD MSTORE PUSH1 0x77 PUSH1 0xF8 SHL PUSH1 0x60 DUP3 ADD MSTORE PUSH1 0x80 ADD SWAP1 JUMP JUMPDEST PUSH1 0x20 DUP1 DUP3 MSTORE DUP2 DUP2 ADD MSTORE PUSH32 0x4F776E61626C653A2063616C6C6572206973206E6F7420746865206F776E6572 PUSH1 0x40 DUP3 ADD MSTORE PUSH1 0x60 ADD SWAP1 JUMP JUMPDEST PUSH1 0x20 DUP1 DUP3 MSTORE PUSH1 0x2B SWAP1 DUP3 ADD MSTORE PUSH32 0x436F726E46692053696D706C652053747261746567793A205661756C74204F6E PUSH1 0x40 DUP3 ADD MSTORE PUSH11 0x363C90233AB731BA34B7B7 PUSH1 0xA9 SHL PUSH1 0x60 DUP3 ADD MSTORE PUSH1 0x80 ADD SWAP1 JUMP JUMPDEST PUSH1 0x20 DUP1 DUP3 MSTORE PUSH1 0x23 SWAP1 DUP3 ADD MSTORE PUSH32 0x436F726E466920414156452053747261746567793A20496E76616C696420546F PUSH1 0x40 DUP3 ADD MSTORE PUSH3 0x35B2B7 PUSH1 0xE9 SHL PUSH1 0x60 DUP3 ADD MSTORE PUSH1 0x80 ADD SWAP1 JUMP JUMPDEST PUSH1 0x20 DUP1 DUP3 MSTORE PUSH1 0x2A SWAP1 DUP3 ADD MSTORE PUSH32 0x5361666545524332303A204552433230206F7065726174696F6E20646964206E PUSH1 0x40 DUP3 ADD MSTORE PUSH10 0x1BDD081CDD58D8D95959 PUSH1 0xB2 SHL PUSH1 0x60 DUP3 ADD MSTORE PUSH1 0x80 ADD SWAP1 JUMP JUMPDEST PUSH1 0x20 DUP1 DUP3 MSTORE PUSH1 0x1F SWAP1 DUP3 ADD MSTORE PUSH32 0x5361666545524332303A2063616C6C20746F206E6F6E2D636F6E747261637400 PUSH1 0x40 DUP3 ADD MSTORE PUSH1 0x60 ADD SWAP1 JUMP JUMPDEST SWAP1 DUP2 MSTORE PUSH1 0x20 ADD SWAP1 JUMP JUMPDEST PUSH1 0x0 JUMPDEST DUP4 DUP2 LT ISZERO PUSH2 0x1DC8 JUMPI DUP2 DUP2 ADD MLOAD DUP4 DUP3 ADD MSTORE PUSH1 0x20 ADD PUSH2 0x1DB0 JUMP JUMPDEST DUP4 DUP2 GT ISZERO PUSH2 0xF47 JUMPI POP POP PUSH1 0x0 SWAP2 ADD MSTORE JUMP JUMPDEST PUSH1 0x1 PUSH1 0x1 PUSH1 0xA0 SHL SUB DUP2 AND DUP2 EQ PUSH2 0x972 JUMPI PUSH1 0x0 DUP1 REVERT INVALID LOG2 PUSH5 0x6970667358 0x22 SLT KECCAK256 PUSH24 0x6EFAEAA8EBE20D4EAC3A3A4202ACEE6A1B2E59984DF06815 SHL DUP11 0xE5 0xC7 0xCA PUSH6 0xAA64736F6C63 NUMBER STOP MOD 0xC STOP CALLER ","sha1":"61bbab72e5ff0f6fc279c25da3e967579a561e2c","source":"// SPDX-License-Identifier: MIT\npragma solidity 0.6.12;\n\nimport \"./StrategyBase.sol\";\nimport \"../../interfaces/IAaveStake.sol\";\n\n\npragma experimental ABIEncoderV2;\n\n/**\n* @title Corn Finance AAVE Holding Strategy\n* @author C.W.B.\n*/\ncontract AAVEStrategyV2 is StrategyBase {\n\n    struct Tokens {\n        address token;\n        address amToken;\n    }\n\n    // AAVE lending pool\n    IAaveStake public constant LendingPool = IAaveStake(0x8dFf5E27EA6b7AC08EbFdf9eB090F32ee9a30fcf);\n\n    // AAVE rewards contract\n    IAaveStake public constant Rewards = IAaveStake(0x357D51124f59836DeD84c8a1730D72B749d8BC23);\n\n    // Whitelisted ERC20 tokens that can be deposited into this contract\n    address[] public tokens;\n\n    // AAVE market tokens associated with 'tokens'\n    address[] public aaveMarketTokens;\n\n    // tokenToAm[ERC20] --> AAVE market token\n    // ex. tokenToAm[USDC] --> amUSDC\n    mapping(address => address) public tokenToAm;\n\n    address public constant rewardToken = 0x0d500B1d8E8eF31E21C99d1Db9A6444d3ADf1270;\n\n\n    // --------------------------------------------------------------------------------\n    // //////////////////////////////////// Events ////////////////////////////////////\n    // --------------------------------------------------------------------------------\n    event TokenAdded(address token, address amToken);\n\n\n    // --------------------------------------------------------------------------------\n    // --------------------------------------------------------------------------------\n    // --------------------------------------------------------------------------------\n\n    /**\n    * @param _controller: Corn Finance Controller contract \n    */\n    constructor( \n        IController _controller\n    ) public StrategyBase(_controller, 5, 1000, 1, 1000) {\n\n        Tokens[6] memory _tokens = [\n            Tokens(0x8f3Cf7ad23Cd3CaDbD9735AFf958023239c6A063, 0x27F8D03b3a2196956ED754baDc28D73be8830A6e), // DAI, amDAI\n            Tokens(0x2791Bca1f2de4661ED88A30C99A7a9449Aa84174, 0x1a13F4Ca1d028320A707D99520AbFefca3998b7F), // USDC, amUSDC\n            Tokens(0xc2132D05D31c914a87C6611C10748AEb04B58e8F, 0x60D55F02A771d515e077c9C2403a1ef324885CeC), // USDT, amUSDT\n            Tokens(0x1BFD67037B42Cf73acF2047067bd4F2C47D9BfD6, 0x5c2ed810328349100A66B82b78a1791B101C9D61), // WBTC, amWBTC\n            Tokens(0x7ceB23fD6bC0adD59E62ac25578270cFf1b9f619, 0x28424507fefb6f7f8E9D3860F56504E4e5f5f390), // WETH, amWETH\n            Tokens(0x0d500B1d8E8eF31E21C99d1Db9A6444d3ADf1270, 0x8dF3aad3a84da6b69A4DA8aeC3eA40d9091B2Ac4)  // WMATIC, amWMATIC\n        ];\n        for(uint i = 0; i < _tokens.length; i++) {\n            _addToken(_tokens[i].token, _tokens[i].amToken);\n        }\n    }\n\n    // --------------------------------------------------------------------------------\n\n    /**\n    * @dev Use to add an ERC20 token and its respective AAVE market token. Only add\n    * tokens that can be deposited into AAVE. This function is restricted to only the\n    * owner of this contract.\n    * @param _token: Tokens(ERC20 token address, AAVE market token equivalent)\n    */\n    function addToken(Tokens memory _token) external onlyOwner {\n        _addToken(_token.token, _token.amToken);\n    }\n\n    // --------------------------------------------------------------------------------\n\n    /**\n    * @dev Only currently active vaults can deposits tokens into this holding strategy.\n    * This function can only be called from one of the approved vaults added to the\n    * Controller contract. Tokens are deposited into holding strategies when calling\n    * 'createTrade()' and 'fillOrder()' in the Controller contract.\n    * @param _from: Vault token owner\n    * @param _token: ERC20 token address\n    * @param _amount: Amount of '_token' to deposit\n    */\n    function deposit(address _from, address _token, uint256 _amount) external onlyActiveVault {\n        require(tokenToAm[_token] != address(0), \"CornFi AAVE Strategy: Invalid Token\");\n\n        _deposit(_from, _token, _amount);\n\n        // Approve AAVE lending pool to take (deposit) a token\n        IERC20(_token).approve(address(LendingPool), _amount);\n\n        // Deposit assets into AAVE lending pool\n        LendingPool.deposit(_token, _amount, address(this), uint16(0));\n    }\n\n    // --------------------------------------------------------------------------------\n\n    /**\n    * @dev Any vault that has deposited tokens into this strategy can withdraw their\n    * tokens even after a vault is deactivated. This function can only be called from \n    * one of the approved vaults added to the Controller contract. Users are only able\n    * to withdraw tokens from a holding strategy through withdrawing their vault token\n    * by calling 'withdraw()' in the Controller contract.\n    * @param _from: Vault token owner\n    * @param _token: ERC20 token address\n    * @param _amount: Amount of '_token' to withdraw\n    */\n    function withdraw(address _from, address _token, uint256 _amount) external onlyVault {\n        require(tokenToAm[_token] != address(0), \"CornFi AAVE Strategy: Invalid Token\");\n\n        _withdraw(_from, _token, _amount);\n\n        // Withdraw tokens from AAVE and transfer to owner\n        LendingPool.withdraw(_token, _amount, _from);\n    }\n\n    // --------------------------------------------------------------------------------\n\n    /**\n    * @dev Claim WMATIC rewards and interest made from holding tokens in AAVE\n    */\n    function claimRewards() external onlyOwner {\n        // Claim Aave WMATIC rewards, if any\n        if(Rewards.getRewardsBalance(aaveMarketTokens, address(this)) > 0) {\n            uint256 reward = Rewards.claimRewards(aaveMarketTokens, uint256(-1), controller.Fees());\n\n            emit ClaimRewards(rewardToken, reward);\n        }\n\n        uint256 interest;\n        for(uint i = 0; i < tokens.length; i++) {\n            // Difference between current balance and total deposits is the interest made\n            interest = IERC20(tokenToAm[tokens[i]]).balanceOf(address(this)).sub(totalDeposits[tokens[i]]);\n\n            // Withdraw the interest made and send to the fee wallet\n            if(interest > 0) {\n                LendingPool.withdraw(tokens[i], interest, controller.Fees());\n\n                emit ClaimRewards(tokens[i], interest);\n            }\n        }\n    }\n\n    // --------------------------------------------------------------------------------\n\n    /**\n    * @dev Use to add an ERC20 token and its respective AAVE market token. Only add\n    * tokens that can be deposited into AAVE.\n    * @param _token: ERC20 token address\n    * @param _amToken: AAVE market token equivalent of '_token' \n    */\n    function _addToken(address _token, address _amToken) internal {\n        // Map token to AAVE market token\n        tokenToAm[_token] = _amToken;\n\n        // Add the token\n        tokens.push(_token);\n\n        // Add the AAVE market token\n        aaveMarketTokens.push(_amToken);\n\n        emit TokenAdded(_token, _amToken);\n    }\n}","sourcePath":"contracts/strategies/AAVEStrategyV2.sol","type":"contract","deployment":{"address":"0x905eD8C3A3EF813490D2DAAdDf36E57a3AFC2D2F","chainid":"137","blockHeight":24073726}}