{"abi":[{"inputs":[{"internalType":"address","name":"_controller","type":"address"},{"internalType":"uint256","name":"_maxTokens","type":"uint256"},{"internalType":"string","name":"_name","type":"string"},{"internalType":"string","name":"_symbol","type":"string"},{"internalType":"string","name":"_URI","type":"string"}],"stateMutability":"nonpayable","type":"constructor","name":"constructor"},{"anonymous":false,"inputs":[{"indexed":true,"internalType":"address","name":"owner","type":"address"},{"indexed":true,"internalType":"address","name":"approved","type":"address"},{"indexed":true,"internalType":"uint256","name":"tokenId","type":"uint256"}],"name":"Approval","type":"event"},{"anonymous":false,"inputs":[{"indexed":true,"internalType":"address","name":"owner","type":"address"},{"indexed":true,"internalType":"address","name":"operator","type":"address"},{"indexed":false,"internalType":"bool","name":"approved","type":"bool"}],"name":"ApprovalForAll","type":"event"},{"anonymous":false,"inputs":[{"indexed":true,"internalType":"address","name":"previousOwner","type":"address"},{"indexed":true,"internalType":"address","name":"newOwner","type":"address"}],"name":"OwnershipTransferred","type":"event"},{"anonymous":false,"inputs":[{"indexed":true,"internalType":"address","name":"from","type":"address"},{"indexed":true,"internalType":"address","name":"to","type":"address"},{"indexed":true,"internalType":"uint256","name":"tokenId","type":"uint256"}],"name":"Transfer","type":"event"},{"inputs":[],"name":"PRICE_MULTIPLIER","outputs":[{"internalType":"uint256","name":"","type":"uint256"}],"stateMutability":"view","type":"function"},{"inputs":[{"internalType":"uint256","name":"","type":"uint256"}],"name":"_tokenTradeLength","outputs":[{"internalType":"uint256","name":"","type":"uint256"}],"stateMutability":"view","type":"function"},{"inputs":[{"internalType":"address","name":"","type":"address"}],"name":"activeTokens","outputs":[{"internalType":"bool","name":"","type":"bool"}],"stateMutability":"view","type":"function"},{"inputs":[{"internalType":"address","name":"to","type":"address"},{"internalType":"uint256","name":"tokenId","type":"uint256"}],"name":"approve","outputs":[],"stateMutability":"nonpayable","type":"function"},{"inputs":[{"internalType":"address","name":"owner","type":"address"}],"name":"balanceOf","outputs":[{"internalType":"uint256","name":"","type":"uint256"}],"stateMutability":"view","type":"function"},{"inputs":[],"name":"baseURI","outputs":[{"internalType":"string","name":"","type":"string"}],"stateMutability":"view","type":"function"},{"inputs":[{"internalType":"address","name":"_token","type":"address"},{"internalType":"uint256","name":"_minDeposit","type":"uint256"}],"name":"changeMinimumDeposit","outputs":[],"stateMutability":"nonpayable","type":"function"},{"inputs":[],"name":"controller","outputs":[{"internalType":"contract IController","name":"","type":"address"}],"stateMutability":"view","type":"function"},{"inputs":[{"internalType":"address","name":"_from","type":"address"},{"internalType":"address[]","name":"_tokens","type":"address[]"},{"internalType":"uint256[]","name":"_amounts","type":"uint256[]"},{"internalType":"uint256[]","name":"_times","type":"uint256[]"}],"name":"createTrade","outputs":[{"internalType":"uint256[]","name":"","type":"uint256[]"}],"stateMutability":"nonpayable","type":"function"},{"inputs":[{"internalType":"address","name":"_token","type":"address"}],"name":"deactivateToken","outputs":[],"stateMutability":"nonpayable","type":"function"},{"inputs":[{"internalType":"address","name":"_from","type":"address"},{"internalType":"uint256","name":"_orderId","type":"uint256"},{"internalType":"contract IUniswapV2Router02","name":"_router","type":"address"},{"internalType":"address[]","name":"_path","type":"address[]"}],"name":"fillOrder","outputs":[{"components":[{"internalType":"uint256","name":"tokenId","type":"uint256"},{"internalType":"uint256","name":"tradeId","type":"uint256"},{"internalType":"uint256","name":"orderId","type":"uint256"},{"internalType":"uint256","name":"timestamp","type":"uint256"},{"internalType":"address[2]","name":"tokens","type":"address[2]"},{"internalType":"uint256[3]","name":"amounts","type":"uint256[3]"},{"internalType":"uint256[]","name":"times","type":"uint256[]"}],"internalType":"struct VaultBase.Order","name":"","type":"tuple"}],"stateMutability":"nonpayable","type":"function"},{"inputs":[{"internalType":"uint256","name":"tokenId","type":"uint256"}],"name":"getApproved","outputs":[{"internalType":"address","name":"","type":"address"}],"stateMutability":"view","type":"function"},{"inputs":[{"internalType":"address","name":"owner","type":"address"},{"internalType":"address","name":"operator","type":"address"}],"name":"isApprovedForAll","outputs":[{"internalType":"bool","name":"","type":"bool"}],"stateMutability":"view","type":"function"},{"inputs":[],"name":"maxTokens","outputs":[{"internalType":"uint256","name":"","type":"uint256"}],"stateMutability":"view","type":"function"},{"inputs":[{"internalType":"address","name":"","type":"address"}],"name":"minimumDeposit","outputs":[{"internalType":"uint256","name":"","type":"uint256"}],"stateMutability":"view","type":"function"},{"inputs":[],"name":"name","outputs":[{"internalType":"string","name":"","type":"string"}],"stateMutability":"view","type":"function"},{"inputs":[{"internalType":"uint256","name":"_index","type":"uint256"}],"name":"openOrderId","outputs":[{"internalType":"uint256","name":"","type":"uint256"}],"stateMutability":"view","type":"function"},{"inputs":[],"name":"openOrdersLength","outputs":[{"internalType":"uint256","name":"","type":"uint256"}],"stateMutability":"view","type":"function"},{"inputs":[{"internalType":"uint256","name":"_orderId","type":"uint256"}],"name":"order","outputs":[{"components":[{"internalType":"uint256","name":"tokenId","type":"uint256"},{"internalType":"uint256","name":"tradeId","type":"uint256"},{"internalType":"uint256","name":"orderId","type":"uint256"},{"internalType":"uint256","name":"timestamp","type":"uint256"},{"internalType":"address[2]","name":"tokens","type":"address[2]"},{"internalType":"uint256[3]","name":"amounts","type":"uint256[3]"},{"internalType":"uint256[]","name":"times","type":"uint256[]"}],"internalType":"struct VaultBase.Order","name":"","type":"tuple"}],"stateMutability":"view","type":"function"},{"inputs":[],"name":"ordersLength","outputs":[{"internalType":"uint256","name":"","type":"uint256"}],"stateMutability":"view","type":"function"},{"inputs":[],"name":"owner","outputs":[{"internalType":"address","name":"","type":"address"}],"stateMutability":"view","type":"function"},{"inputs":[{"internalType":"uint256","name":"tokenId","type":"uint256"}],"name":"ownerOf","outputs":[{"internalType":"address","name":"","type":"address"}],"stateMutability":"view","type":"function"},{"inputs":[],"name":"renounceOwnership","outputs":[],"stateMutability":"nonpayable","type":"function"},{"inputs":[{"internalType":"address","name":"from","type":"address"},{"internalType":"address","name":"to","type":"address"},{"internalType":"uint256","name":"tokenId","type":"uint256"}],"name":"safeTransferFrom","outputs":[],"stateMutability":"nonpayable","type":"function"},{"inputs":[{"internalType":"address","name":"from","type":"address"},{"internalType":"address","name":"to","type":"address"},{"internalType":"uint256","name":"tokenId","type":"uint256"},{"internalType":"bytes","name":"_data","type":"bytes"}],"name":"safeTransferFrom","outputs":[],"stateMutability":"nonpayable","type":"function"},{"inputs":[{"internalType":"address","name":"operator","type":"address"},{"internalType":"bool","name":"approved","type":"bool"}],"name":"setApprovalForAll","outputs":[],"stateMutability":"nonpayable","type":"function"},{"inputs":[{"internalType":"string","name":"baseURI_","type":"string"}],"name":"setBaseURI","outputs":[],"stateMutability":"nonpayable","type":"function"},{"inputs":[{"internalType":"address","name":"_token","type":"address"},{"internalType":"address","name":"_strategy","type":"address"},{"internalType":"uint256","name":"_minDeposit","type":"uint256"}],"name":"setStrategy","outputs":[],"stateMutability":"nonpayable","type":"function"},{"inputs":[{"internalType":"address","name":"_token","type":"address"}],"name":"strategy","outputs":[{"internalType":"contract IStrategy","name":"","type":"address"}],"stateMutability":"view","type":"function"},{"inputs":[{"internalType":"bytes4","name":"interfaceId","type":"bytes4"}],"name":"supportsInterface","outputs":[{"internalType":"bool","name":"","type":"bool"}],"stateMutability":"view","type":"function"},{"inputs":[],"name":"symbol","outputs":[{"internalType":"string","name":"","type":"string"}],"stateMutability":"view","type":"function"},{"inputs":[{"internalType":"uint256","name":"index","type":"uint256"}],"name":"tokenByIndex","outputs":[{"internalType":"uint256","name":"","type":"uint256"}],"stateMutability":"view","type":"function"},{"inputs":[],"name":"tokenCounter","outputs":[{"internalType":"uint256","name":"","type":"uint256"}],"stateMutability":"view","type":"function"},{"inputs":[{"internalType":"address","name":"owner","type":"address"},{"internalType":"uint256","name":"index","type":"uint256"}],"name":"tokenOfOwnerByIndex","outputs":[{"internalType":"uint256","name":"","type":"uint256"}],"stateMutability":"view","type":"function"},{"inputs":[{"internalType":"uint256","name":"_tokenId","type":"uint256"},{"internalType":"uint256","name":"_index","type":"uint256"}],"name":"tokenOpenOrderId","outputs":[{"internalType":"uint256","name":"","type":"uint256"}],"stateMutability":"view","type":"function"},{"inputs":[{"internalType":"uint256","name":"_tokenId","type":"uint256"}],"name":"tokenOpenOrdersLength","outputs":[{"internalType":"uint256","name":"","type":"uint256"}],"stateMutability":"view","type":"function"},{"inputs":[{"internalType":"uint256","name":"tokenId","type":"uint256"}],"name":"tokenURI","outputs":[{"internalType":"string","name":"","type":"string"}],"stateMutability":"view","type":"function"},{"inputs":[{"internalType":"uint256","name":"","type":"uint256"}],"name":"tokens","outputs":[{"internalType":"address","name":"","type":"address"}],"stateMutability":"view","type":"function"},{"inputs":[],"name":"tokensLength","outputs":[{"internalType":"uint256","name":"","type":"uint256"}],"stateMutability":"view","type":"function"},{"inputs":[],"name":"totalSupply","outputs":[{"internalType":"uint256","name":"","type":"uint256"}],"stateMutability":"view","type":"function"},{"inputs":[{"internalType":"uint256","name":"_tokenId","type":"uint256"},{"internalType":"uint256","name":"_tradeId","type":"uint256"}],"name":"trade","outputs":[{"internalType":"uint256[]","name":"","type":"uint256[]"}],"stateMutability":"view","type":"function"},{"inputs":[{"internalType":"address","name":"from","type":"address"},{"internalType":"address","name":"to","type":"address"},{"internalType":"uint256","name":"tokenId","type":"uint256"}],"name":"transferFrom","outputs":[],"stateMutability":"nonpayable","type":"function"},{"inputs":[{"internalType":"address","name":"newOwner","type":"address"}],"name":"transferOwnership","outputs":[],"stateMutability":"nonpayable","type":"function"},{"inputs":[{"internalType":"uint256","name":"_tokenId","type":"uint256"}],"name":"viewStrategy","outputs":[{"components":[{"internalType":"address[]","name":"tokens","type":"address[]"},{"internalType":"uint256[]","name":"amounts","type":"uint256[]"},{"internalType":"uint256[]","name":"times","type":"uint256[]"}],"internalType":"struct VaultBase.Strategy","name":"","type":"tuple"}],"stateMutability":"view","type":"function"},{"inputs":[{"internalType":"uint256","name":"_tokenId","type":"uint256"}],"name":"viewTokenAmounts","outputs":[{"components":[{"internalType":"address","name":"token","type":"address"},{"internalType":"uint256","name":"amount","type":"uint256"}],"internalType":"struct VaultBase.Token[]","name":"","type":"tuple[]"}],"stateMutability":"view","type":"function"},{"inputs":[{"internalType":"address","name":"_from","type":"address"},{"internalType":"uint256","name":"_tokenId","type":"uint256"}],"name":"withdraw","outputs":[],"stateMutability":"nonpayable","type":"function"}],"bytecode":"60806040523480156200001157600080fd5b506040516200654638038062006546833981016040819052620000349162000832565b848484848482826200004d6301ffc9a760e01b620001af565b81516200006290600690602085019062000715565b5080516200007890600790602084019062000715565b506200008b6380ac58cd60e01b620001af565b6200009d635b5e139f60e01b620001af565b620000af63780e9d6360e01b620001af565b5060009050620000be62000201565b600a80546001600160a01b0319166001600160a01b0383169081179091556040519192509060009060008051602062006526833981519152908290a350600d80546001600160a01b0319166001600160a01b038716179055620001218162000205565b600184116200014d5760405162461bcd60e51b8152600401620001449062000af7565b60405180910390fd5b600c849055600e80546001908101909155601480549091018155600052600b546200017a9030906200021e565b6010805460019081018255600091909152600b805490910190556200019f8562000240565b5050505050505050505062000b87565b6001600160e01b03198082161415620001dc5760405162461bcd60e51b8152600401620001449062000a1f565b6001600160e01b0319166000908152602081905260409020805460ff19166001179055565b3390565b80516200021a90600990602084019062000715565b5050565b6200021a828260405180602001604052806000815250620002ee60201b60201c565b6200024a62000201565b600a546001600160a01b039081169116146200027a5760405162461bcd60e51b8152600401620001449062000ac2565b6001600160a01b038116620002a35760405162461bcd60e51b81526004016200014490620009d9565b600a546040516001600160a01b038084169216906000805160206200652683398151915290600090a3600a80546001600160a01b0319166001600160a01b0392909216919091179055565b620002fa83836200032d565b6200030960008484846200041b565b620003285760405162461bcd60e51b8152600401620001449062000987565b505050565b6001600160a01b038216620003565760405162461bcd60e51b8152600401620001449062000a8d565b62000361816200057b565b15620003815760405162461bcd60e51b8152600401620001449062000a56565b6200038f6000838362000328565b6001600160a01b0382166000908152600160209081526040909120620003c0918390620019036200059e821b17901c565b50620003de81836002620005b360201b6200190f179092919060201c565b5060405181906001600160a01b038416906000907fddf252ad1be2c89b69c2b068fc378daa952ba7f163c4a11628f55a4df523b3ef908290a45050565b60006200043c846001600160a01b0316620005cb60201b6200192f1760201c565b6200044a5750600162000573565b600060606001600160a01b038616630a85bd0160e11b6200046a62000201565b89888860405160240162000482949392919062000931565b60408051601f198184030181529181526020820180516001600160e01b03166001600160e01b0319909416939093179092529051620004c2919062000913565b6000604051808303816000865af19150503d806000811462000501576040519150601f19603f3d011682016040523d82523d6000602084013e62000506565b606091505b5091509150816200053c57805115620005225780518082602001fd5b60405162461bcd60e51b8152600401620001449062000987565b600081806020019051810190620005549190620008e9565b6001600160e01b031916630a85bd0160e11b1493506200057392505050565b949350505050565b6000620005988260026200060560201b620019681790919060201c565b92915050565b6000620005ac838362000613565b9392505050565b60006200057384846001600160a01b03851662000662565b6000813f7fc5d2460186f7233c927e7db2dcc703c0e500b653ca82273b7bfad8045d85a47081811480159062000573575050151592915050565b6000620005ac8383620006fd565b6000620006218383620006fd565b620006595750815460018181018455600084815260208082209093018490558454848252828601909352604090209190915562000598565b50600062000598565b600082815260018401602052604081205480620006c9575050604080518082018252838152602080820184815286546001818101895560008981528481209551600290930290950191825591519082015586548684528188019092529290912055620005ac565b82856000016001830381548110620006dd57fe5b9060005260206000209060020201600101819055506000915050620005ac565b60009081526001919091016020526040902054151590565b828054600181600116156101000203166002900490600052602060002090601f016020900481019282601f106200075857805160ff191683800117855562000788565b8280016001018555821562000788579182015b82811115620007885782518255916020019190600101906200076b565b50620007969291506200079a565b5090565b5b808211156200079657600081556001016200079b565b600082601f830112620007c2578081fd5b81516001600160401b0380821115620007d9578283fd5b604051601f8301601f191681016020018281118282101715620007fa578485fd5b6040528281529250828483016020018610156200081657600080fd5b6200082983602083016020880162000b54565b50505092915050565b600080600080600060a086880312156200084a578081fd5b85516001600160a01b038116811462000861578182fd5b6020870151604088015191965094506001600160401b038082111562000885578283fd5b6200089389838a01620007b1565b94506060880151915080821115620008a9578283fd5b620008b789838a01620007b1565b93506080880151915080821115620008cd578283fd5b50620008dc88828901620007b1565b9150509295509295909350565b600060208284031215620008fb578081fd5b81516001600160e01b031981168114620005ac578182fd5b600082516200092781846020870162000b54565b9190910192915050565b600060018060a01b038087168352808616602084015250836040830152608060608301528251806080840152620009708160a085016020870162000b54565b601f01601f19169190910160a00195945050505050565b60208082526032908201527f4552433732313a207472616e7366657220746f206e6f6e20455243373231526560408201527131b2b4bb32b91034b6b83632b6b2b73a32b960711b606082015260800190565b60208082526026908201527f4f776e61626c653a206e6577206f776e657220697320746865207a65726f206160408201526564647265737360d01b606082015260800190565b6020808252601c908201527f4552433136353a20696e76616c696420696e7465726661636520696400000000604082015260600190565b6020808252601c908201527f4552433732313a20746f6b656e20616c7265616479206d696e74656400000000604082015260600190565b6020808252818101527f4552433732313a206d696e7420746f20746865207a65726f2061646472657373604082015260600190565b6020808252818101527f4f776e61626c653a2063616c6c6572206973206e6f7420746865206f776e6572604082015260600190565b60208082526038908201527f436f726e466920416363756d44697374205661756c743a204d617820546f6b6560408201527f6e732043616e6e6f74206265204c657373205468616e20310000000000000000606082015260800190565b60005b8381101562000b7157818101518382015260200162000b57565b8381111562000b81576000848401525b50505050565b61598f8062000b976000396000f3fe608060405234801561001057600080fd5b506004361061028a5760003560e01c80637f8faa6a1161015c578063be8acd3f116100ce578063e831574211610087578063e831574214610581578063e985e9c514610589578063f2fde38b1461059c578063f3fef3a3146105af578063f77c4791146105c2578063fcab2e14146105ca5761028a565b8063be8acd3f14610523578063c87b56dd1461052b578063d082e3811461053e578063d92fc67b14610546578063dbb037111461054e578063e20be69a1461056e5761028a565b80639fd19d92116101205780639fd19d92146104a4578063a22cb465146104b7578063a5f40303146104ca578063aea4e5ba146104dd578063b88d4fde146104f0578063b8dc7414146105035761028a565b80637f8faa6a1461044e5780638da5cb5b1461046e57806390a83dc214610476578063915b98591461048957806395d89b411461049c5761028a565b80632f745c59116102005780635acf6903116101b95780635acf6903146103f25780636352211e1461040557806368173bcf146104185780636c0360eb1461042b57806370a0823114610433578063715018a6146104465761028a565b80632f745c591461038057806342842e0e146103935780634f64b2be146103a65780634f6ccce7146103b957806355f804b3146103cc578063594a2b3e146103df5761028a565b806318160ddd1161025257806318160ddd14610317578063198e4ce61461031f5780631bf744db1461032757806321603f431461033a578063228bfd9f1461035a57806323b872dd1461036d5761028a565b806301ffc9a71461028f57806306fdde03146102b8578063081812fc146102cd578063095ea7b3146102ed578063113990b814610302575b600080fd5b6102a261029d366004614a5e565b6105dd565b6040516102af9190614d98565b60405180910390f35b6102c0610600565b6040516102af9190614da3565b6102e06102db366004614ac8565b610696565b6040516102af9190614ca9565b6103006102fb36600461492b565b6106e2565b005b61030a61077a565b6040516102af9190615828565b61030a610786565b61030a610797565b61030a610335366004614ac8565b61079d565b61034d610348366004614ac8565b6107be565b6040516102af919061573f565b6102e061036836600461475b565b6108fb565b61030061037b3660046147cb565b610919565b61030a61038e36600461492b565b610951565b6103006103a13660046147cb565b61097c565b6102e06103b4366004614ac8565b610997565b61030a6103c7366004614ac8565b6109be565b6103006103da366004614a96565b6109d4565b61034d6103ed366004614956565b610a15565b6102a261040036600461475b565b610bd1565b6102e0610413366004614ac8565b610be6565b61030061042636600461475b565b610c0e565b6102c0610c64565b61030a61044136600461475b565b610cc5565b610300610d0e565b61046161045c366004614ac8565b610d8d565b6040516102af91906157c7565b6102e0610ed2565b6103006104843660046147cb565b610ee1565b61030a610497366004614af8565b610fff565b6102c0611036565b61030a6104b2366004614ac8565b611097565b6103006104c53660046148fe565b6110a9565b61030a6104d8366004614ac8565b611177565b6103006104eb36600461492b565b611198565b6103006104fe36600461480b565b61120d565b610516610511366004614ac8565b61124c565b6040516102af9190614d2d565b61030a6113c0565b6102c0610539366004614ac8565b6113c6565b61030a611510565b61030a611516565b61056161055c366004614874565b61151c565b6040516102af9190614d85565b61056161057c366004614af8565b611749565b61030a6117b4565b6102a2610597366004614793565b6117ba565b6103006105aa36600461475b565b6117e8565b6103006105bd36600461492b565b61189f565b6102e06118e2565b61030a6105d836600461475b565b6118f1565b6001600160e01b0319811660009081526020819052604090205460ff165b919050565b60068054604080516020601f600260001961010060018816150201909516949094049384018190048102820181019092528281526060939092909183018282801561068c5780601f106106615761010080835404028352916020019161068c565b820191906000526020600020905b81548152906001019060200180831161066f57829003601f168201915b5050505050905090565b60006106a182611974565b6106c65760405162461bcd60e51b81526004016106bd90615373565b60405180910390fd5b506000908152600460205260409020546001600160a01b031690565b60006106ed82610be6565b9050806001600160a01b0316836001600160a01b031614156107215760405162461bcd60e51b81526004016106bd90615599565b806001600160a01b0316610733611981565b6001600160a01b0316148061074f575061074f81610597611981565b61076b5760405162461bcd60e51b81526004016106bd90615214565b6107758383611985565b505050565b670de0b6b3a764000081565b600061079260026119f3565b905090565b600f5490565b6000601082815481106107ac57fe5b60009182526020909120015492915050565b6107c661433e565b600e82815481106107d357fe5b90600052602060002090600a02016040518060e0016040529081600082015481526020016001820154815260200160028201548152602001600382015481526020016004820160028060200260405190810160405280929190826002801561085a576020028201915b81546001600160a01b0316815260019091019060200180831161083c575b505050918352505060408051606081019182905260209092019190600684019060039082845b8154815260200190600101908083116108805750505050508152602001600982018054806020026020016040519081016040528092919081815260200182805480156108eb57602002820191906000526020600020905b8154815260200190600101908083116108d7575b5050505050815250509050919050565b6001600160a01b039081166000908152601960205260409020541690565b61092a610924611981565b826119fe565b6109465760405162461bcd60e51b81526004016106bd906155da565b610775838383611a7b565b6001600160a01b03821660009081526001602052604081206109739083611b89565b90505b92915050565b6107758383836040518060200160405280600081525061120d565b601781815481106109a457fe5b6000918252602090912001546001600160a01b0316905081565b6000806109cc600284611b95565b509392505050565b6109dc611981565b600a546001600160a01b03908116911614610a095760405162461bcd60e51b81526004016106bd906153bf565b610a1281611bb1565b50565b610a1d61433e565b610a25611981565b600a546001600160a01b03908116911614610a525760405162461bcd60e51b81526004016106bd906153bf565b610a5a61433e565b600e8581548110610a6757fe5b90600052602060002090600a02016040518060e00160405290816000820154815260200160018201548152602001600282015481526020016003820154815260200160048201600280602002604051908101604052809291908260028015610aee576020028201915b81546001600160a01b03168152600190910190602001808311610ad0575b505050918352505060408051606081019182905260209092019190600684019060039082845b815481526020019060010190808311610b14575050505050815260200160098201805480602002602001604051908101604052809291908181526020018280548015610b7f57602002820191906000526020600020905b815481526020019060010190808311610b6b575b5050505050815250509050600080610b9988848888611bc4565b60a0850151602001519193509150821015610bc65760405162461bcd60e51b81526004016106bd9061517b565b505050949350505050565b60186020526000908152604090205460ff1681565b600061097682604051806060016040528060298152602001615931602991396002919061237b565b610c16611981565b600a546001600160a01b03908116911614610c435760405162461bcd60e51b81526004016106bd906153bf565b6001600160a01b03166000908152601860205260409020805460ff19169055565b60098054604080516020601f600260001961010060018816150201909516949094049384018190048102820181019092528281526060939092909183018282801561068c5780601f106106615761010080835404028352916020019161068c565b60006001600160a01b038216610ced5760405162461bcd60e51b81526004016106bd90615271565b6001600160a01b0382166000908152600160205260409020610976906119f3565b610d16611981565b600a546001600160a01b03908116911614610d435760405162461bcd60e51b81526004016106bd906153bf565b600a546040516000916001600160a01b0316907f8be0079c531659141344cd1fd0a4f28419497f9722a3daafe3b4186f6b6457e0908390a3600a80546001600160a01b0319169055565b610d95614387565b60148281548110610da257fe5b906000526020600020906003020160405180606001604052908160008201805480602002602001604051908101604052809291908181526020018280548015610e1457602002820191906000526020600020905b81546001600160a01b03168152600190910190602001808311610df6575b5050505050815260200160018201805480602002602001604051908101604052809291908181526020018280548015610e6c57602002820191906000526020600020905b815481526020019060010190808311610e58575b50505050508152602001600282018054806020026020016040519081016040528092919081815260200182805480156108eb57602002820191906000526020600020908154815260200190600101908083116108d7575050505050815250509050919050565b600a546001600160a01b031690565b610ee9611981565b600a546001600160a01b03908116911614610f165760405162461bcd60e51b81526004016106bd906153bf565b6001600160a01b038381166000908152601960205260409020541615610f4e5760405162461bcd60e51b81526004016106bd90615553565b6001600160a01b038216610f745760405162461bcd60e51b81526004016106bd9061550a565b6001600160a01b0392831660008181526019602090815260408083208054979096166001600160a01b031997881617909555601a8152848220939093556017805460018181019092557fc624b66cc0138b8fabc209247f72d758e1cf3343756d543badbf24212bed8c150180549096168317909555908152601890915220805460ff19169091179055565b60006010838154811061100e57fe5b90600052602060002001828154811061102357fe5b9060005260206000200154905092915050565b60078054604080516020601f600260001961010060018816150201909516949094049384018190048102820181019092528281526060939092909183018282801561068c5780601f106106615761010080835404028352916020019161068c565b60136020526000908152604090205481565b6110b1611981565b6001600160a01b0316826001600160a01b031614156110e25760405162461bcd60e51b81526004016106bd906150c3565b80600560006110ef611981565b6001600160a01b03908116825260208083019390935260409182016000908120918716808252919093529120805460ff191692151592909217909155611133611981565b6001600160a01b03167f17307eab39ab6107e8899845ad3d59bd9653f200f220920489ca2b5937696c318360405161116b9190614d98565b60405180910390a35050565b6000600f828154811061118657fe5b90600052602060002001549050919050565b6111a0611981565b600a546001600160a01b039081169116146111cd5760405162461bcd60e51b81526004016106bd906153bf565b6001600160a01b03828116600090815260196020526040902054166111f157600080fd5b6001600160a01b039091166000908152601a6020526040902055565b61121e611218611981565b836119fe565b61123a5760405162461bcd60e51b81526004016106bd906155da565b61124684848484612388565b50505050565b606060006014838154811061125d57fe5b600091825260209091206003909102015490506060816001600160401b038111801561128857600080fd5b506040519080825280602002602001820160405280156112c257816020015b6112af6143a8565b8152602001906001900390816112a75790505b50905060005b601485815481106112d557fe5b60009182526020909120600390910201548110156109cc5760405180604001604052806014878154811061130557fe5b9060005260206000209060030201600001838154811061132157fe5b60009182526020808320909101546001600160a01b031683528882526015815260408220601480549490920193909291908a90811061135c57fe5b9060005260206000209060030201600001858154811061137857fe5b60009182526020808320909101546001600160a01b03168352820192909252604001902054905282518390839081106113ad57fe5b60209081029190910101526001016112c8565b600e5490565b60606113d182611974565b6113ed5760405162461bcd60e51b81526004016106bd90615472565b60008281526008602090815260409182902080548351601f60026000196101006001861615020190931692909204918201849004840281018401909452808452606093928301828280156114825780601f1061145757610100808354040283529160200191611482565b820191906000526020600020905b81548152906001019060200180831161146557829003601f168201915b5050600954939450505050600260001961010060018416150201909116046114ab5790506105fb565b8051156114dd576009816040516020016114c6929190614c28565b6040516020818303038152906040529150506105fb565b60096114e8846123bb565b6040516020016114f9929190614c28565b604051602081830303815290604052915050919050565b600b5481565b60175490565b6060611526611981565b600a546001600160a01b039081169116146115535760405162461bcd60e51b81526004016106bd906153bf565b815160011461156157600080fd5b835160021461156f57600080fd5b600283511015801561158357506005835111155b61159f5760405162461bcd60e51b81526004016106bd906154c1565b60006115ad86868686612495565b905060006115d06115c9600187516129f890919063ffffffff16565b8390612a3a565b905060606115e9600187516129f890919063ffffffff16565b6001600160401b03811180156115fe57600080fd5b50604051908082528060200260200182016040528015611628578160200160208202803683370190505b509050858760015b825181101561173857600b546117169061164b9060016129f8565b600060405180604001604052808660008151811061166557fe5b60200260200101516001600160a01b03166001600160a01b031681526020018660018151811061169157fe5b60200260200101516001600160a01b03166001600160a01b031681525060405180606001604052808a8152602001611706886000815181106116cf57fe5b6020026020010151896001815181106116e457fe5b60200260200101518d8c8b815181106116f957fe5b6020026020010151612a7c565b815260200160008152508c612be7565b84600183038151811061172557fe5b6020908102919091010152600101611630565b50919450505050505b949350505050565b60008281526012602090815260408083208484528252918290208054835181840281018401909452808452606093928301828280156117a757602002820191906000526020600020905b815481526020019060010190808311611793575b5050505050905092915050565b600c5481565b6001600160a01b03918216600090815260056020908152604080832093909416825291909152205460ff1690565b6117f0611981565b600a546001600160a01b0390811691161461181d5760405162461bcd60e51b81526004016106bd906153bf565b6001600160a01b0381166118435760405162461bcd60e51b81526004016106bd90614f0c565b600a546040516001600160a01b038084169216907f8be0079c531659141344cd1fd0a4f28419497f9722a3daafe3b4186f6b6457e090600090a3600a80546001600160a01b0319166001600160a01b0392909216919091179055565b6118a7611981565b600a546001600160a01b039081169116146118d45760405162461bcd60e51b81526004016106bd906153bf565b6118de828261323e565b5050565b600d546001600160a01b031681565b601a6020526000908152604090205481565b60006109738383613683565b600061192584846001600160a01b0385166136cd565b90505b9392505050565b6000813f7fc5d2460186f7233c927e7db2dcc703c0e500b653ca82273b7bfad8045d85a470818114801590611741575050151592915050565b60006109738383613764565b6000610976600283611968565b3390565b600081815260046020526040902080546001600160a01b0319166001600160a01b03841690811790915581906119ba82610be6565b6001600160a01b03167f8c5be1e5ebec7d5bd14f71427d1e84f3dd0314c0f7b2291e5b200ac8c7c3b92560405160405180910390a45050565b60006109768261377c565b6000611a0982611974565b611a255760405162461bcd60e51b81526004016106bd9061512f565b6000611a3083610be6565b9050806001600160a01b0316846001600160a01b03161480611a6b5750836001600160a01b0316611a6084610696565b6001600160a01b0316145b80611741575061174181856117ba565b826001600160a01b0316611a8e82610be6565b6001600160a01b031614611ab45760405162461bcd60e51b81526004016106bd90615429565b6001600160a01b038216611ada5760405162461bcd60e51b81526004016106bd9061507f565b611ae5838383610775565b611af0600082611985565b6001600160a01b0383166000908152600160205260409020611b129082613780565b506001600160a01b0382166000908152600160205260409020611b359082611903565b50611b426002828461190f565b5080826001600160a01b0316846001600160a01b03167fddf252ad1be2c89b69c2b068fc378daa952ba7f163c4a11628f55a4df523b3ef60405160405180910390a4505050565b6000610973838361378c565b6000808080611ba486866137be565b9097909650945050505050565b80516118de9060099060208401906143bf565b60008060008560c00151600081518110611bda57fe5b60200260200101511115611c1f578460c00151600081518110611bf957fe5b60200260200101514210611c1f5760405162461bcd60e51b81526004016106bd90614db6565b606085015115611c415760405162461bcd60e51b81526004016106bd9061562b565b6080850151611c579060005b60200201516108fb565b6001600160a01b031663d9caed12308760800151600060028110611c7757fe5b602002015160a0890151516040516001600160e01b031960e086901b168152611ca593929190600401614cf0565b600060405180830381600087803b158015611cbf57600080fd5b505af1158015611cd3573d6000803e3d6000fd5b5050845160009250611ce7915060016129f8565b60808701515185519192506001600160a01b0316908590600090611d0757fe5b60200260200101516001600160a01b0316148015611d5457506080860151600160200201516001600160a01b0316848281518110611d4157fe5b60200260200101516001600160a01b0316145b611d705760405162461bcd60e51b81526004016106bd906151ce565b6018600085600081518110611d8157fe5b6020908102919091018101516001600160a01b031682528101919091526040016000205460ff168015611de7575060186000858381518110611dbf57fe5b6020908102919091018101516001600160a01b031682528101919091526040016000205460ff165b611e035760405162461bcd60e51b81526004016106bd9061504f565b6000856001600160a01b031663d06ca61f8860a00151600060038110611e2557fe5b6020020151876040518363ffffffff1660e01b8152600401611e48929190615831565b60006040518083038186803b158015611e6057600080fd5b505afa158015611e74573d6000803e3d6000fd5b505050506040513d6000823e601f3d908101601f19168201604052611e9c91908101906149b3565b8281518110611ea757fe5b6020908102919091010151600d54604051634b38706f60e11b81529192506000916001600160a01b0390911690639670e0de90611ee8908590600401615828565b60206040518083038186803b158015611f0057600080fd5b505afa158015611f14573d6000803e3d6000fd5b505050506040513d601f19601f82011682018060405250810190611f389190614ae0565b60808901515160a08a01515160405163095ea7b360e01b81529293506001600160a01b039091169163095ea7b391611f75918b9190600401614d14565b602060405180830381600087803b158015611f8f57600080fd5b505af1158015611fa3573d6000803e3d6000fd5b505050506040513d601f19601f82011682018060405250810190611fc79190614a42565b506000876001600160a01b03166338ed17398a60a00151600060038110611fea57fe5b6020020151848a30611ffd42603c61381a565b6040518663ffffffff1660e01b815260040161201d95949392919061584a565b600060405180830381600087803b15801561203757600080fd5b505af115801561204b573d6000803e3d6000fd5b505050506040513d6000823e601f3d908101601f1916820160405261207391908101906149b3565b848151811061207e57fe5b60200260200101519050600061209e8a60800151600160028110611c4d57fe5b90506000816001600160a01b0316635017f9fb866040518263ffffffff1660e01b81526004016120ce9190615828565b60206040518083038186803b1580156120e657600080fd5b505afa1580156120fa573d6000803e3d6000fd5b505050506040513d601f19601f8201168201806040525081019061211e9190614ae0565b90506121c2600d60009054906101000a90046001600160a01b03166001600160a01b0316633aaa36e66040518163ffffffff1660e01b815260040160206040518083038186803b15801561217157600080fd5b505afa158015612185573d6000803e3d6000fd5b505050506040513d601f19601f820116820180604052508101906121a99190614777565b60808d0151602001516001600160a01b0316908361383f565b6121cc85826129f8565b600e8c60400151815481106121dd57fe5b90600052602060002090600a02016006016001600381106121fa57fe5b015560808b0151600160200201516001600160a01b031663095ea7b383600e8e604001518154811061222857fe5b90600052602060002090600a020160060160016003811061224557fe5b01546040518363ffffffff1660e01b8152600401612264929190614d14565b602060405180830381600087803b15801561227e57600080fd5b505af1158015612292573d6000803e3d6000fd5b505050506040513d601f19601f820116820180604052508101906122b69190614a42565b50816001600160a01b0316638340f549308d608001516001600281106122d857fe5b6020020151600e8f60400151815481106122ee57fe5b90600052602060002090600a020160060160016003811061230b57fe5b01546040518463ffffffff1660e01b815260040161232b93929190614cf0565b600060405180830381600087803b15801561234557600080fd5b505af1158015612359573d6000803e3d6000fd5b5050505061236a8b60400151613895565b50919a909950975050505050505050565b600061192584848461399b565b612393848484611a7b565b61239f848484846139fa565b6112465760405162461bcd60e51b81526004016106bd90614eba565b6060816123e057506040805180820190915260018152600360fc1b60208201526105fb565b8160005b81156123f857600101600a820491506123e4565b6060816001600160401b038111801561241057600080fd5b506040519080825280601f01601f19166020018201604052801561243b576020820181803683370190505b50859350905060001982015b831561248c57600a840660300160f81b8282806001900393508151811061246a57fe5b60200101906001600160f81b031916908160001a905350600a84049350612447565b50949350505050565b6000600c54600b54106124ba5760405162461bcd60e51b81526004016106bd906156be565b601a6000856000815181106124cb57fe5b60200260200101516001600160a01b03166001600160a01b03168152602001908152602001600020548360008151811061250157fe5b602002602001015110156125275760405162461bcd60e51b81526004016106bd90614f89565b612532848484613b34565b60008460008151811061254157fe5b602002602001015190506000816001600160a01b03166370a08231306040518263ffffffff1660e01b81526004016125799190614ca9565b60206040518083038186803b15801561259157600080fd5b505afa1580156125a5573d6000803e3d6000fd5b505050506040513d601f19601f820116820180604052508101906125c99190614ae0565b90506125ff8730876000815181106125dd57fe5b6020026020010151856001600160a01b0316613bd7909392919063ffffffff16565b8460008151811061260c57fe5b602002602001015161269a82846001600160a01b03166370a08231306040518263ffffffff1660e01b81526004016126449190614ca9565b60206040518083038186803b15801561265c57600080fd5b505afa158015612670573d6000803e3d6000fd5b505050506040513d601f19601f820116820180604052508101906126949190614ae0565b906129f8565b146126b75760405162461bcd60e51b81526004016106bd906153f4565b600060196000886000815181106126ca57fe5b60200260200101516001600160a01b03166001600160a01b0316815260200190815260200160002060009054906101000a90046001600160a01b031690506000816001600160a01b031663423c485a8860008151811061272657fe5b60200260200101516040518263ffffffff1660e01b815260040161274a9190615828565b60206040518083038186803b15801561276257600080fd5b505afa158015612776573d6000803e3d6000fd5b505050506040513d601f19601f8201168201806040525081019061279a9190614ae0565b9050801561284e57600d5460408051631d551b7360e11b8152905161284e926001600160a01b031691633aaa36e6916004808301926020929190829003018186803b1580156127e857600080fd5b505afa1580156127fc573d6000803e3d6000fd5b505050506040513d601f19601f820116820180604052508101906128209190614777565b828a60008151811061282e57fe5b60200260200101516001600160a01b031661383f9092919063ffffffff16565b6000612877828960008151811061286157fe5b60200260200101516129f890919063ffffffff16565b90508060156000600b54815260200190815260200160002060008b60008151811061289e57fe5b60200260200101516001600160a01b03166001600160a01b0316815260200190815260200160002081905550886000815181106128d757fe5b60200260200101516001600160a01b031663095ea7b384836040518363ffffffff1660e01b815260040161290c929190614d14565b602060405180830381600087803b15801561292657600080fd5b505af115801561293a573d6000803e3d6000fd5b505050506040513d601f19601f8201168201806040525081019061295e9190614a42565b50826001600160a01b0316638340f549308b60008151811061297c57fe5b6020026020010151846040518463ffffffff1660e01b81526004016129a393929190614cf0565b600060405180830381600087803b1580156129bd57600080fd5b505af11580156129d1573d6000803e3d6000fd5b5050600b8054600181019091556129eb92508c9150613bf8565b9998505050505050505050565b600061097383836040518060400160405280601e81526020017f536166654d6174683a207375627472616374696f6e206f766572666c6f770000815250613c12565b600061097383836040518060400160405280601a81526020017f536166654d6174683a206469766973696f6e206279207a65726f000000000000815250613c3e565b600080600080876001600160a01b031663313ce5676040518163ffffffff1660e01b815260040160206040518083038186803b158015612abb57600080fd5b505afa158015612acf573d6000803e3d6000fd5b505050506040513d601f19601f82011682018060405250810190612af39190614b19565b90506000876001600160a01b031663313ce5676040518163ffffffff1660e01b815260040160206040518083038186803b158015612b3057600080fd5b505afa158015612b44573d6000803e3d6000fd5b505050506040513d601f19601f82011682018060405250810190612b689190614b19565b90508160ff168160ff1610612b8557818103935060019250612b8f565b8082039350600092505b6000612bad87612ba78a670de0b6b3a7640000613c75565b90612a3a565b905083612bc957612bc48160ff8716600a0a612a3a565b612bd9565b612bd98160ff8716600a0a613c75565b9a9950505050505050505050565b602083015183516000916001600160a01b0391821691161415612c1c5760405162461bcd60e51b81526004016106bd90614e77565b83516001600160a01b031660009081526018602052604090205460ff168015612c6257506020808501516001600160a01b031660009081526018909152604090205460ff165b612c7e5760405162461bcd60e51b81526004016106bd9061504f565b600f8054600e8054600090815260166020526040812083905590546001830184559290527f8d1108e10bcb7c27dddfc02ed9d693a074039d026cf4ea4240b40f7d581ac8020155601054861415612d24576040805160208101909152600e5481526010805460018181018355600092909252612d1e927f1b6847dc741a1b0cd08d278845f9d819d87b734759afb55fe2de5cb82a9ae6729091019161443d565b50612eb3565b60108681548110612d3157fe5b600091825260209091200154612d77576040805160208101909152600e5481526010805488908110612d5f57fe5b90600052602060002001906001612d1e92919061443d565b6060612d9d600160108981548110612d8b57fe5b6000918252602090912001549061381a565b6001600160401b0381118015612db257600080fd5b50604051908082528060200260200182016040528015612ddc578160200160208202803683370190505b50905060005b60108881548110612def57fe5b600091825260209091200154811015612e4e5760108881548110612e0f57fe5b906000526020600020018181548110612e2457fe5b9060005260206000200154828281518110612e3b57fe5b6020908102919091010152600101612de2565b50600e805490508160108981548110612e6357fe5b60009182526020909120015481518110612e7957fe5b6020026020010181815250508060108881548110612e9357fe5b906000526020600020019080519060200190612eb092919061443d565b50505b600086815260136020526040902054851415612f15576040805160208082018352600e54825260008981526012825283812089825290915291909120612efa91600161443d565b50600086815260136020526040902080546001019055613052565b6000868152601260209081526040808320888452909152902054606090612f3d90600161381a565b6001600160401b0381118015612f5257600080fd5b50604051908082528060200260200182016040528015612f7c578160200160208202803683370190505b50905060005b60008881526012602090815260408083208a8452909152902054811015612ff25760008881526012602090815260408083208a84529091529020805482908110612fc857fe5b9060005260206000200154828281518110612fdf57fe5b6020908102919091010152600101612f82565b50600e5460008881526012602090815260408083208a84529091529020548251839190811061301d57fe5b602090810291909101810191909152600088815260128252604080822089835283529020825161304f9284019061443d565b50505b6000868152601160209081526040808320888452909152902080546001908101909155601480546130a39291908990811061308957fe5b6000918252602090912060016003909202010154906129f8565b600087815260116020908152604080832089845290915290205411156130db5760405162461bcd60e51b81526004016106bd90614fd3565b6040805160e08101825287815260208101878152600e8054938301848152600060608501818152608086018b815260a087018b905260c087018a9052600188018555939091528451600a9096027fbb7b4a454dc3493923482f07822329ed19e8244eff582cc204f8554c3620c3fd810196875593517fbb7b4a454dc3493923482f07822329ed19e8244eff582cc204f8554c3620c3fe85015590517fbb7b4a454dc3493923482f07822329ed19e8244eff582cc204f8554c3620c3ff840155517fbb7b4a454dc3493923482f07822329ed19e8244eff582cc204f8554c3620c400830155519192916131f1917fbb7b4a454dc3493923482f07822329ed19e8244eff582cc204f8554c3620c40101906002614477565b5060a082015161320790600683019060036144cb565b5060c0820151805161322391600984019160209091019061443d565b5050600e54613234915060016129f8565b9695505050505050565b816001600160a01b031661325182610be6565b6001600160a01b0316146132775760405162461bcd60e51b81526004016106bd90614e27565b61327f614387565b6014828154811061328c57fe5b9060005260206000209060030201604051806060016040529081600082018054806020026020016040519081016040528092919081815260200182805480156132fe57602002820191906000526020600020905b81546001600160a01b031681526001909101906020018083116132e0575b505050505081526020016001820180548060200260200160405190810160405280929190818152602001828054801561335657602002820191906000526020600020905b815481526020019060010190808311613342575b50505050508152602001600282018054806020026020016040519081016040528092919081815260200182805480156133ae57602002820191906000526020600020905b81548152602001906001019080831161339a575b505050505081525050905060005b81515181101561358557600083815260156020526040812083518051839190859081106133e557fe5b60200260200101516001600160a01b03166001600160a01b0316815260200190815260200160002054111561357d57601960008360000151838151811061342857fe5b60200260200101516001600160a01b03166001600160a01b0316815260200190815260200160002060009054906101000a90046001600160a01b03166001600160a01b031663d9caed12858460000151848151811061348357fe5b6020026020010151601560008881526020019081526020016000206000876000015187815181106134b057fe5b60200260200101516001600160a01b03166001600160a01b03168152602001908152602001600020546040518463ffffffff1660e01b81526004016134f793929190614cf0565b600060405180830381600087803b15801561351157600080fd5b505af1158015613525573d6000803e3d6000fd5b5050505060006015600085815260200190815260200160002060008460000151848151811061355057fe5b60200260200101516001600160a01b03166001600160a01b03168152602001908152602001600020819055505b6001016133bc565b5060606010838154811061359557fe5b906000526020600020018054806020026020016040519081016040528092919081815260200182805480156135e957602002820191906000526020600020905b8154815260200190600101908083116135d5575b5050505050905060005b81518110156136565761361882828151811061360b57fe5b6020026020010151613caf565b6001600e83838151811061362857fe5b60200260200101518154811061363a57fe5b600091825260209091206003600a9092020101556001016135f3565b506010838154811061366457fe5b90600052602060002001600061367a91906144f8565b61124683613d81565b600061368f8383613764565b6136c557508154600181810184556000848152602080822090930184905584548482528286019093526040902091909155610976565b506000610976565b600082815260018401602052604081205480613732575050604080518082018252838152602080820184815286546001818101895560008981528481209551600290930290950191825591519082015586548684528188019092529290912055611928565b8285600001600183038154811061374557fe5b9060005260206000209060020201600101819055506000915050611928565b60009081526001919091016020526040902054151590565b5490565b60006109738383613e4e565b815460009082106137af5760405162461bcd60e51b81526004016106bd90614de5565b82600001828154811061102357fe5b8154600090819083106137e35760405162461bcd60e51b81526004016106bd906152bb565b60008460000184815481106137f457fe5b906000526020600020906002020190508060000154816001015492509250509250929050565b6000828201838110156109735760405162461bcd60e51b81526004016106bd90615018565b6107758363a9059cbb60e01b848460405160240161385e929190614d14565b60408051601f198184030181529190526020810180516001600160e01b03166001600160e01b031990931692909217909152613f14565b61389d61433e565b6138a6826107be565b60a08101516020908101518251600090815260158352604080822060808601518501516001600160a01b0316835290935291909120549192506138e9919061381a565b815160009081526015602081815260408084206080870180518401516001600160a01b0390811687529184528286209690965560a0870151518751865293835281852095515116845293905291902054613942916129f8565b815160009081526015602090815260408083206080860151516001600160a01b03168452909152902055600e80544291908490811061397d57fe5b90600052602060002090600a0201600301819055506118de82613ff9565b600082815260018401602052604081205482816139cb5760405162461bcd60e51b81526004016106bd9190614da3565b508460000160018203815481106139de57fe5b9060005260206000209060020201600101549150509392505050565b6000613a0e846001600160a01b031661192f565b613a1a57506001611741565b600060606001600160a01b038616630a85bd0160e11b613a38611981565b898888604051602401613a4e9493929190614cbd565b60408051601f198184030181529181526020820180516001600160e01b03166001600160e01b0319909416939093179092529051613a8c9190614c0c565b6000604051808303816000865af19150503d8060008114613ac9576040519150601f19603f3d011682016040523d82523d6000602084013e613ace565b606091505b509150915081613b0057805115613ae85780518082602001fd5b60405162461bcd60e51b81526004016106bd90614eba565b600081806020019051810190613b169190614a7a565b6001600160e01b031916630a85bd0160e11b14935061174192505050565b6040805160608101825284815260208082018590529181018390526014805460018101825560009190915281518051929360039092027fce6d7b5282bd9a3661ae061feed1dbda4e52ab073b1f9285be6e155d9c38d4ec0192613b9a9284920190614516565b506020828101518051613bb3926001850192019061443d565b5060408201518051613bcf91600284019160209091019061443d565b505050505050565b611246846323b872dd60e01b85858560405160240161385e93929190614cf0565b6118de828260405180602001604052806000815250614021565b60008184841115613c365760405162461bcd60e51b81526004016106bd9190614da3565b505050900390565b60008183613c5f5760405162461bcd60e51b81526004016106bd9190614da3565b506000838581613c6b57fe5b0495945050505050565b600082613c8457506000610976565b82820282848281613c9157fe5b04146109735760405162461bcd60e51b81526004016106bd90615332565b600f8054613cbe9060016129f8565b81548110613cc857fe5b9060005260206000200154600f601660008481526020019081526020016000205481548110613cf357fe5b60009182526020808320909101929092558281526016918290526040812054600f805491939291613d259060016129f8565b81548110613d2f57fe5b9060005260206000200154815260200190815260200160002081905550600f805480613d5757fe5b60008281526020808220830160001990810183905590920190925591815260169091526040812055565b6000613d8c82610be6565b9050613d9a81600084610775565b613da5600083611985565b6000828152600860205260409020546002600019610100600184161502019091160415613de3576000828152600860205260408120613de39161456a565b6001600160a01b0381166000908152600160205260409020613e059083613780565b50613e11600283614054565b5060405182906000906001600160a01b038416907fddf252ad1be2c89b69c2b068fc378daa952ba7f163c4a11628f55a4df523b3ef908390a45050565b60008181526001830160205260408120548015613f0a5783546000198083019190810190600090879083908110613e8157fe5b9060005260206000200154905080876000018481548110613e9e57fe5b600091825260208083209091019290925582815260018981019092526040902090840190558654879080613ece57fe5b60019003818190600052602060002001600090559055866001016000878152602001908152602001600020600090556001945050505050610976565b6000915050610976565b613f26826001600160a01b031661192f565b613f425760405162461bcd60e51b81526004016106bd90615708565b60006060836001600160a01b031683604051613f5e9190614c0c565b6000604051808303816000865af19150503d8060008114613f9b576040519150601f19603f3d011682016040523d82523d6000602084013e613fa0565b606091505b509150915081613fc25760405162461bcd60e51b81526004016106bd906150fa565b8051156112465780806020019051810190613fdd9190614a42565b6112465760405162461bcd60e51b81526004016106bd90615674565b61400161433e565b61400a826107be565b905061401582613caf565b80516118de9083614060565b61402b83836141a6565b61403860008484846139fa565b6107755760405162461bcd60e51b81526004016106bd90614eba565b6000610973838361426a565b606061408660016010858154811061407457fe5b600091825260209091200154906129f8565b6001600160401b038111801561409b57600080fd5b506040519080825280602002602001820160405280156140c5578160200160208202803683370190505b5090506000805b601085815481106140d957fe5b6000918252602090912001548110156141735783601086815481106140fa57fe5b90600052602060002001828154811061410f57fe5b90600052602060002001541461416b576010858154811061412c57fe5b90600052602060002001818154811061414157fe5b906000526020600020015483838060010194508151811061415e57fe5b6020026020010181815250505b6001016140cc565b50816010858154811061418257fe5b90600052602060002001908051906020019061419f92919061443d565b5050505050565b6001600160a01b0382166141cc5760405162461bcd60e51b81526004016106bd906152fd565b6141d581611974565b156141f25760405162461bcd60e51b81526004016106bd90614f52565b6141fe60008383610775565b6001600160a01b03821660009081526001602052604090206142209082611903565b5061422d6002828461190f565b5060405181906001600160a01b038416906000907fddf252ad1be2c89b69c2b068fc378daa952ba7f163c4a11628f55a4df523b3ef908290a45050565b60008181526001830160205260408120548015613f0a578354600019808301919081019060009087908390811061429d57fe5b90600052602060002090600202019050808760000184815481106142bd57fe5b6000918252602080832084546002909302019182556001938401549184019190915583548252898301905260409020908401905586548790806142fc57fe5b60008281526020808220600260001990940193840201828155600190810183905592909355888152898201909252604082209190915594506109769350505050565b6040518060e001604052806000815260200160008152602001600081526020016000815260200161436d6145ae565b815260200161437a6145cc565b8152602001606081525090565b60405180606001604052806060815260200160608152602001606081525090565b604080518082019091526000808252602082015290565b828054600181600116156101000203166002900490600052602060002090601f016020900481019282601f1061440057805160ff191683800117855561442d565b8280016001018555821561442d579182015b8281111561442d578251825591602001919060010190614412565b506144399291506145ea565b5090565b82805482825590600052602060002090810192821561442d579160200282018281111561442d578251825591602001919060010190614412565b82600281019282156144bf579160200282015b828111156144bf57825182546001600160a01b0319166001600160a01b0390911617825560209092019160019091019061448a565b506144399291506145ff565b826003810192821561442d579160200282018281111561442d578251825591602001919060010190614412565b5080546000825590600052602060002090810190610a1291906145ea565b8280548282559060005260206000209081019282156144bf57916020028201828111156144bf57825182546001600160a01b0319166001600160a01b0390911617825560209092019160019091019061448a565b50805460018160011615610100020316600290046000825580601f106145905750610a12565b601f016020900490600052602060002090810190610a1291906145ea565b60405180604001604052806002906020820280368337509192915050565b60405180606001604052806003906020820280368337509192915050565b5b8082111561443957600081556001016145eb565b5b808211156144395780546001600160a01b0319168155600101614600565b600082601f83011261462e578081fd5b813561464161463c826158ac565b615886565b81815291506020808301908481018184028601820187101561466257600080fd5b60005b8481101561468a578135614678816158f7565b84529282019290820190600101614665565b505050505092915050565b600082601f8301126146a5578081fd5b81356146b361463c826158ac565b8181529150602080830190848101818402860182018710156146d457600080fd5b60005b8481101561468a578135845292820192908201906001016146d7565b600082601f830112614703578081fd5b81356001600160401b03811115614718578182fd5b61472b601f8201601f1916602001615886565b915080825283602082850101111561474257600080fd5b8060208401602084013760009082016020015292915050565b60006020828403121561476c578081fd5b8135610973816158f7565b600060208284031215614788578081fd5b8151610973816158f7565b600080604083850312156147a5578081fd5b82356147b0816158f7565b915060208301356147c0816158f7565b809150509250929050565b6000806000606084860312156147df578081fd5b83356147ea816158f7565b925060208401356147fa816158f7565b929592945050506040919091013590565b60008060008060808587031215614820578081fd5b843561482b816158f7565b9350602085013561483b816158f7565b92506040850135915060608501356001600160401b0381111561485c578182fd5b614868878288016146f3565b91505092959194509250565b60008060008060808587031215614889578384fd5b8435614894816158f7565b935060208501356001600160401b03808211156148af578485fd5b6148bb8883890161461e565b945060408701359150808211156148d0578384fd5b6148dc88838901614695565b935060608701359150808211156148f1578283fd5b5061486887828801614695565b60008060408385031215614910578182fd5b823561491b816158f7565b915060208301356147c08161590c565b6000806040838503121561493d578182fd5b8235614948816158f7565b946020939093013593505050565b6000806000806080858703121561496b578182fd5b8435614976816158f7565b935060208501359250604085013561498d816158f7565b915060608501356001600160401b038111156149a7578182fd5b6148688782880161461e565b600060208083850312156149c5578182fd5b82516001600160401b038111156149da578283fd5b8301601f810185136149ea578283fd5b80516149f861463c826158ac565b8181528381019083850185840285018601891015614a14578687fd5b8694505b83851015614a36578051835260019490940193918501918501614a18565b50979650505050505050565b600060208284031215614a53578081fd5b81516109738161590c565b600060208284031215614a6f578081fd5b81356109738161591a565b600060208284031215614a8b578081fd5b81516109738161591a565b600060208284031215614aa7578081fd5b81356001600160401b03811115614abc578182fd5b611741848285016146f3565b600060208284031215614ad9578081fd5b5035919050565b600060208284031215614af1578081fd5b5051919050565b60008060408385031215614b0a578182fd5b50508035926020909101359150565b600060208284031215614b2a578081fd5b815160ff81168114610973578182fd5b6001600160a01b0316815260200190565b6000815180845260208085019450808401835b83811015614b835781516001600160a01b031687529582019590820190600101614b5e565b509495945050505050565b8060005b6003811015611246578151845260209384019390910190600101614b92565b6000815180845260208085019450808401835b83811015614b8357815187529582019590820190600101614bc4565b60008151808452614bf88160208601602086016158cb565b601f01601f19169290920160200192915050565b60008251614c1e8184602087016158cb565b9190910192915050565b6000808454600180821660008114614c475760018114614c5e57614c8d565b60ff198316865260028304607f1686019350614c8d565b600283048886526020808720875b83811015614c855781548a820152908501908201614c6c565b505050860193505b5050508351614ca08183602088016158cb565b01949350505050565b6001600160a01b0391909116815260200190565b6001600160a01b038581168252841660208201526040810183905260806060820181905260009061323490830184614be0565b6001600160a01b039384168152919092166020820152604081019190915260600190565b6001600160a01b03929092168252602082015260400190565b602080825282518282018190526000919060409081850190868401855b82811015614d7857815180516001600160a01b03168552860151868501529284019290850190600101614d4a565b5091979650505050505050565b6000602082526109736020830184614bb1565b901515815260200190565b6000602082526109736020830184614be0565b60208082526015908201527421b7b93723349d1022bc3834b932b21027b93232b960591b604082015260600190565b60208082526022908201527f456e756d657261626c655365743a20696e646578206f7574206f6620626f756e604082015261647360f01b606082015260800190565b60208082526030908201527f436f726e4669205661756c7420426173653a2043616c6c6572206973204e6f7460408201526f103a3432902a37b5b2b71027bbb732b960811b606082015260800190565b60208082526023908201527f436f726e4669205661756c7420426173653a204964656e746963616c20546f6b604082015262656e7360e81b606082015260800190565b60208082526032908201527f4552433732313a207472616e7366657220746f206e6f6e20455243373231526560408201527131b2b4bb32b91034b6b83632b6b2b73a32b960711b606082015260800190565b60208082526026908201527f4f776e61626c653a206e6577206f776e657220697320746865207a65726f206160408201526564647265737360d01b606082015260800190565b6020808252601c908201527f4552433732313a20746f6b656e20616c7265616479206d696e74656400000000604082015260600190565b6020808252602a908201527f436f726e4669205661756c7420426173653a204d696e696d756d204465706f736040820152691a5d08139bdd0813595d60b21b606082015260800190565b60208082526025908201527f436f726e4669205661756c7420426173653a205472616465204c656e6774682060408201526422b93937b960d91b606082015260800190565b6020808252601b908201527f536166654d6174683a206164646974696f6e206f766572666c6f770000000000604082015260600190565b602080825260169082015275436f726e46693a20496e76616c696420546f6b656e7360501b604082015260600190565b60208082526024908201527f4552433732313a207472616e7366657220746f20746865207a65726f206164646040820152637265737360e01b606082015260800190565b60208082526019908201527f4552433732313a20617070726f766520746f2063616c6c657200000000000000604082015260600190565b6020808252818101527f5361666545524332303a206c6f772d6c6576656c2063616c6c206661696c6564604082015260600190565b6020808252602c908201527f4552433732313a206f70657261746f7220717565727920666f72206e6f6e657860408201526b34b9ba32b73a103a37b5b2b760a11b606082015260800190565b60208082526033908201527f436f726e4669204c696d6974204f72646572205661756c743a20496e737566666040820152721a58d95b9d0813dd5d1c1d5d08105b5bdd5b9d606a1b606082015260800190565b60208082526026908201527f436f726e4669204c696d6974204f72646572205661756c743a20496e76616c696040820152650c840a0c2e8d60d31b606082015260800190565b60208082526038908201527f4552433732313a20617070726f76652063616c6c6572206973206e6f74206f7760408201527f6e6572206e6f7220617070726f76656420666f7220616c6c0000000000000000606082015260800190565b6020808252602a908201527f4552433732313a2062616c616e636520717565727920666f7220746865207a65604082015269726f206164647265737360b01b606082015260800190565b60208082526022908201527f456e756d657261626c654d61703a20696e646578206f7574206f6620626f756e604082015261647360f01b606082015260800190565b6020808252818101527f4552433732313a206d696e7420746f20746865207a65726f2061646472657373604082015260600190565b60208082526021908201527f536166654d6174683a206d756c7469706c69636174696f6e206f766572666c6f6040820152607760f81b606082015260800190565b6020808252602c908201527f4552433732313a20617070726f76656420717565727920666f72206e6f6e657860408201526b34b9ba32b73a103a37b5b2b760a11b606082015260800190565b6020808252818101527f4f776e61626c653a2063616c6c6572206973206e6f7420746865206f776e6572604082015260600190565b6020808252818101527f436f726e4669205661756c7420426173653a204465706f736974204572726f72604082015260600190565b60208082526029908201527f4552433732313a207472616e73666572206f6620746f6b656e2074686174206960408201526839903737ba1037bbb760b91b606082015260800190565b6020808252602f908201527f4552433732314d657461646174613a2055524920717565727920666f72206e6f60408201526e3732bc34b9ba32b73a103a37b5b2b760891b606082015260800190565b60208082526029908201527f436f726e4669205661756c7420426173653a20496e76616c696420416d6f756e6040820152680e8e64098cadccee8d60bb1b606082015260800190565b60208082526029908201527f436f726e4669205661756c7420426173653a205374726174656779206973206160408201526864647265737328302960b81b606082015260800190565b60208082526026908201527f436f726e4669205661757420426173653a20546f6b656e20416c72656164792060408201526513585c1c195960d21b606082015260800190565b60208082526021908201527f4552433732313a20617070726f76616c20746f2063757272656e74206f776e656040820152603960f91b606082015260800190565b60208082526031908201527f4552433732313a207472616e736665722063616c6c6572206973206e6f74206f6040820152701ddb995c881b9bdc88185c1c1c9bdd9959607a1b606082015260800190565b60208082526029908201527f436f726e466920416363756d44697374205661756c743a204f7264657220697360408201526820496e61637469766560b81b606082015260800190565b6020808252602a908201527f5361666545524332303a204552433230206f7065726174696f6e20646964206e6040820152691bdd081cdd58d8d9595960b21b606082015260800190565b6020808252602a908201527f436f726e466920416363756d44697374205661756c743a204d617820546f6b656040820152691b9cc814995858da195960b21b606082015260800190565b6020808252601f908201527f5361666545524332303a2063616c6c20746f206e6f6e2d636f6e747261637400604082015260600190565b600060208083528351818401528084015160408401526040840151606084015260608401516080840152608084015160a08401835b600281101561579657615788828451614b3a565b928401929150600101615774565b5050505060a08301516157ac60e0840182614b8e565b5060c083015161014083810152611741610160840182614bb1565b6000602082528251606060208401526157e36080840182614b4b565b90506020840151601f19808584030160408601526158018383614bb1565b925060408601519150808584030160608601525061581f8282614bb1565b95945050505050565b90815260200190565b6000838252604060208301526119256040830184614b4b565b600086825285602083015260a0604083015261586960a0830186614b4b565b6001600160a01b0394909416606083015250608001529392505050565b6040518181016001600160401b03811182821017156158a457600080fd5b604052919050565b60006001600160401b038211156158c1578081fd5b5060209081020190565b60005b838110156158e65781810151838201526020016158ce565b838111156112465750506000910152565b6001600160a01b0381168114610a1257600080fd5b8015158114610a1257600080fd5b6001600160e01b031981168114610a1257600080fdfe4552433732313a206f776e657220717565727920666f72206e6f6e6578697374656e7420746f6b656ea2646970667358221220fe1e377ee1f5649c0fbf4550401f873f9a74c6d0cf6d9b3f237021e1702d02f764736f6c634300060c00338be0079c531659141344cd1fd0a4f28419497f9722a3daafe3b4186f6b6457e0","bytecodeSha1":"255a097aaa2065f229bcb8ab13df6f355e1e9eca","compiler":{"evm_version":"istanbul","optimizer":{"enabled":true,"runs":200},"version":"0.6.12+commit.27d51765"},"contractName":"LimitOrderVault","language":"Solidity","natspec":{"author":"C.W.B.","kind":"dev","methods":{"approve(address,uint256)":{"details":"Approves another address to transfer the given token ID The zero address indicates there is no approved address. There can only be one approved address per token at a given time. Can only be called by the token owner or an approved operator.","params":{"to":"address to be approved for the given token ID","tokenId":"uint256 ID of the token to be approved"}},"balanceOf(address)":{"details":"Gets the balance of the specified address.","params":{"owner":"address to query the balance of"},"returns":{"_0":"uint256 representing the amount owned by the passed address"}},"baseURI()":{"details":"Returns the base URI set via {_setBaseURI}. This will be automatically added as a prefix in {tokenURI} to each token's URI, or to the token ID if no specific URI is set for that token ID."},"changeMinimumDeposit(address,uint256)":{"details":"This contract is owned by the Controller. Call 'changeMinimumDeposit' from the  Controller to use this function. Owner can change the minimum amount of '_token' that can be deposited when creating a trade.","params":{"_minDeposit":": Minimum amount of '_token' that can be deposited when creating a trade","_token":": ERC20 token address"}},"createTrade(address,address[],uint256[],uint256[])":{"details":"This contract is owned by the Controller. Call 'createTrade' from the Controller to use this function.","notice":"The number of sell prices determines how many orders to create. The amount  in for the sell orders is the total amount deposited divided by the number of sell  prices. Each sell order will have the same amount in. Example:     - amount in: 100 USDC     - to token: WMATIC     - sell price 1: 0.9 WMATIC / 1 USDC     - sell price 2: 0.7 WMATIC / 1 USDC     - sell price 3: 0.5 WMATIC / 1 USDC     - sell price 4: 0.4 WMATIC / 1 USDC     * amount out = amount in / sell price *     Sell order 1: 25 USDC --> 27.77 WMATIC     Sell order 2: 25 USDC --> 35.71 WMATIC     Sell order 3: 25 USDC --> 50 WMATIC     Sell order 4: 25 USDC --> 62.5 WMATIC","params":{"_amounts":":    [0] = {required} starting amount   [1] = {required} sell price (1) (token[0] / token[1]) * PRICE_MULTIPLIER()   [2] = {optional} sell price (2) (token[0] / token[1]) * PRICE_MULTIPLIER()   [3] = {optional} sell price (3) (token[0] / token[1]) * PRICE_MULTIPLIER()   [4] = {optional} sell price (4) (token[0] / token[1]) * PRICE_MULTIPLIER()","_from":": Controller contract will forward 'msg.sender'","_times":":   [0] = Expiration time in Unix. Orders will not be filled after this time.","_tokens":":   [0] = from token    [1] = to token"},"returns":{"_0":"Order IDs of the created orders. Limit Order vault creates all orders at the time of creating the trade. Number of order IDs returned is the number of sell prices inputted."}},"deactivateToken(address)":{"details":"This contract is owned by the Controller. Call 'deactivateToken' from the  Controller to use this function. Deactivating a token will restrict future users  from creating trades with the deactivated token. Once a token is deactivated, it  cannot be reactivated.","params":{"_token":": ERC20 token to deactivate"}},"fillOrder(address,uint256,address,address[])":{"details":"This contract is owned by the Controller. Call 'fillOrder' from the Controller to use this function.","params":{"_from":": Controller contract will forward 'msg.sender'","_orderId":": Order to fill","_path":": Path used to perform the swap","_router":": Router used to perform the swap (i.e. fill the order)"},"returns":{"_0":"Since Limit Order vault does not create any new orders after filling orders, '[]' is returned."}},"getApproved(uint256)":{"details":"Gets the approved address for a token ID, or zero if no address set Reverts if the token ID does not exist.","params":{"tokenId":"uint256 ID of the token to query the approval of"},"returns":{"_0":"address currently approved for the given token ID"}},"isApprovedForAll(address,address)":{"details":"Tells whether an operator is approved by a given owner.","params":{"operator":"operator address which you want to query the approval of","owner":"owner address which you want to query the approval of"},"returns":{"_0":"bool whether the given operator is approved by the given owner"}},"name()":{"details":"Gets the token name.","returns":{"_0":"string representing the token name"}},"openOrderId(uint256)":{"params":{"_index":": Element of 'openOrderIds'"},"returns":{"_0":"Order ID at the given index "}},"openOrdersLength()":{"returns":{"_0":"Number of all open orders within this vault"}},"order(uint256)":{"details":"Use to view any order that has been created within this vault","params":{"_orderId":": Order to view"},"returns":{"_0":"Order details of a given order"}},"ordersLength()":{"returns":{"_0":"Number of all orders created within this vault"}},"owner()":{"details":"Returns the address of the current owner."},"ownerOf(uint256)":{"details":"Gets the owner of the specified token ID.","params":{"tokenId":"uint256 ID of the token to query the owner of"},"returns":{"_0":"address currently marked as the owner of the given token ID"}},"renounceOwnership()":{"details":"Leaves the contract without owner. It will not be possible to call `onlyOwner` functions anymore. Can only be called by the current owner. NOTE: Renouncing ownership will leave the contract without an owner, thereby removing any functionality that is only available to the owner."},"safeTransferFrom(address,address,uint256)":{"details":"Safely transfers the ownership of a given token ID to another address If the target address is a contract, it must implement {IERC721Receiver-onERC721Received}, which is called upon a safe transfer, and return the magic value `bytes4(keccak256(\"onERC721Received(address,address,uint256,bytes)\"))`; otherwise, the transfer is reverted. Requires the msg.sender to be the owner, approved, or operator","params":{"from":"current owner of the token","to":"address to receive the ownership of the given token ID","tokenId":"uint256 ID of the token to be transferred"}},"safeTransferFrom(address,address,uint256,bytes)":{"details":"Safely transfers the ownership of a given token ID to another address If the target address is a contract, it must implement {IERC721Receiver-onERC721Received}, which is called upon a safe transfer, and return the magic value `bytes4(keccak256(\"onERC721Received(address,address,uint256,bytes)\"))`; otherwise, the transfer is reverted. Requires the _msgSender() to be the owner, approved, or operator","params":{"_data":"bytes data to send along with a safe transfer check","from":"current owner of the token","to":"address to receive the ownership of the given token ID","tokenId":"uint256 ID of the token to be transferred"}},"setApprovalForAll(address,bool)":{"details":"Sets or unsets the approval of a given operator An operator is allowed to transfer all tokens of the sender on their behalf.","params":{"approved":"representing the status of the approval to be set","operator":"operator address to set the approval"}},"setBaseURI(string)":{"details":"This contract is owned by the Controller. Call 'setBaseURI' from the Controller to use this function. Sets URI for all vault tokens.","params":{"baseURI_":": Vault URI"}},"setStrategy(address,address,uint256)":{"details":"This contract is owned by the Controller. Call 'setStrategy' from the Controller to use this function. Maps an ERC20 to a holding strategy. Once an ERC20 token is mapped to a holding strategy, the mapping is immutable.","params":{"_minDeposit":": Minimum amount of '_token' that can be deposited when creating a trade","_strategy":": Holding strategy contract","_token":": ERC20 token address"}},"strategy(address)":{"params":{"_token":": ERC20 token address"},"returns":{"_0":"Holding strategy contract mapped to '_token'"}},"supportsInterface(bytes4)":{"details":"See {IERC165-supportsInterface}. Time complexity O(1), guaranteed to always use less than 30 000 gas."},"symbol()":{"details":"Gets the token symbol.","returns":{"_0":"string representing the token symbol"}},"tokenByIndex(uint256)":{"details":"Gets the token ID at a given index of all the tokens in this contract Reverts if the index is greater or equal to the total number of tokens.","params":{"index":"uint256 representing the index to be accessed of the tokens list"},"returns":{"_0":"uint256 token ID at the given index of the tokens list"}},"tokenOfOwnerByIndex(address,uint256)":{"details":"Gets the token ID at a given index of the tokens list of the requested owner.","params":{"index":"uint256 representing the index to be accessed of the requested tokens list","owner":"address owning the tokens list to be accessed"},"returns":{"_0":"uint256 token ID at the given index of the tokens list owned by the requested address"}},"tokenOpenOrderId(uint256,uint256)":{"details":"After the order IDs are returned, use 'order()' to view the actual order.","params":{"_index":": Element of an open order IDs array for a given vault token","_tokenId":": Vault token"},"returns":{"_0":"Order ID at the given index of open order IDs for a vault token"}},"tokenOpenOrdersLength(uint256)":{"params":{"_tokenId":": Vault token"},"returns":{"_0":"Number of open orders for a given vault token"}},"tokenURI(uint256)":{"details":"Returns the URI for a given token ID. May return an empty string. If a base URI is set (via {_setBaseURI}), it is added as a prefix to the token's own URI (via {_setTokenURI}). If there is a base URI but no token URI, the token's ID will be used as its URI when appending it to the base URI. This pattern for autogenerated token URIs can lead to large gas savings. .Examples |=== |`_setBaseURI()` |`_setTokenURI()` |`tokenURI()` | \"\" | \"\" | \"\" | \"\" | \"token.uri/123\" | \"token.uri/123\" | \"token.uri/\" | \"123\" | \"token.uri/123\" | \"token.uri/\" | \"\" | \"token.uri/<tokenId>\" |=== Requirements: - `tokenId` must exist."},"tokensLength()":{"returns":{"_0":"Length of all tokens added to this vault. Includes tokens that have been deactivated."}},"totalSupply()":{"details":"Gets the total amount of tokens stored by the contract.","returns":{"_0":"uint256 representing the total amount of tokens"}},"trade(uint256,uint256)":{"details":"Only used for informational purposes. Use to get all of the orders within a given trade. After the order IDs are returned, use 'order()' to view the actual order.","params":{"_tokenId":": Vault token","_tradeId":": Trade owned by '_tokenId'"},"returns":{"_0":"IDs of the orders within the trade"}},"transferFrom(address,address,uint256)":{"details":"Transfers the ownership of a given token ID to another address. Usage of this method is discouraged, use {safeTransferFrom} whenever possible. Requires the msg.sender to be the owner, approved, or operator.","params":{"from":"current owner of the token","to":"address to receive the ownership of the given token ID","tokenId":"uint256 ID of the token to be transferred"}},"transferOwnership(address)":{"details":"Transfers ownership of the contract to a new account (`newOwner`). Can only be called by the current owner."},"viewStrategy(uint256)":{"params":{"_tokenId":": Vault token"},"returns":{"_0":"Trade details specific to a given vault token"}},"viewTokenAmounts(uint256)":{"params":{"_tokenId":": Vault token"},"returns":{"_0":"Array of ERC20 tokens and the respective amount owned by a given vault token"}},"withdraw(address,uint256)":{"details":"This contract is owned by the Controller. Call 'withdraw' from the Controller to use this function.","notice":"After calling this function, all orders associated with '_tokenId' are closed and their tokens are returned to the token owner. The token is then burnt and cannot be used again.","params":{"_from":": Controller contract will forward 'msg.sender'","_tokenId":": Vault token to withdraw"}}},"title":"Corn Finance Limit Order Vault","version":1},"opcodes":"PUSH1 0x80 PUSH1 0x40 MSTORE CALLVALUE DUP1 ISZERO PUSH2 0x10 JUMPI PUSH1 0x0 DUP1 REVERT JUMPDEST POP PUSH1 0x4 CALLDATASIZE LT PUSH2 0x28A JUMPI PUSH1 0x0 CALLDATALOAD PUSH1 0xE0 SHR DUP1 PUSH4 0x7F8FAA6A GT PUSH2 0x15C JUMPI DUP1 PUSH4 0xBE8ACD3F GT PUSH2 0xCE JUMPI DUP1 PUSH4 0xE8315742 GT PUSH2 0x87 JUMPI DUP1 PUSH4 0xE8315742 EQ PUSH2 0x581 JUMPI DUP1 PUSH4 0xE985E9C5 EQ PUSH2 0x589 JUMPI DUP1 PUSH4 0xF2FDE38B EQ PUSH2 0x59C JUMPI DUP1 PUSH4 0xF3FEF3A3 EQ PUSH2 0x5AF JUMPI DUP1 PUSH4 0xF77C4791 EQ PUSH2 0x5C2 JUMPI DUP1 PUSH4 0xFCAB2E14 EQ PUSH2 0x5CA JUMPI PUSH2 0x28A JUMP JUMPDEST DUP1 PUSH4 0xBE8ACD3F EQ PUSH2 0x523 JUMPI DUP1 PUSH4 0xC87B56DD EQ PUSH2 0x52B JUMPI DUP1 PUSH4 0xD082E381 EQ PUSH2 0x53E JUMPI DUP1 PUSH4 0xD92FC67B EQ PUSH2 0x546 JUMPI DUP1 PUSH4 0xDBB03711 EQ PUSH2 0x54E JUMPI DUP1 PUSH4 0xE20BE69A EQ PUSH2 0x56E JUMPI PUSH2 0x28A JUMP JUMPDEST DUP1 PUSH4 0x9FD19D92 GT PUSH2 0x120 JUMPI DUP1 PUSH4 0x9FD19D92 EQ PUSH2 0x4A4 JUMPI DUP1 PUSH4 0xA22CB465 EQ PUSH2 0x4B7 JUMPI DUP1 PUSH4 0xA5F40303 EQ PUSH2 0x4CA JUMPI DUP1 PUSH4 0xAEA4E5BA EQ PUSH2 0x4DD JUMPI DUP1 PUSH4 0xB88D4FDE EQ PUSH2 0x4F0 JUMPI DUP1 PUSH4 0xB8DC7414 EQ PUSH2 0x503 JUMPI PUSH2 0x28A JUMP JUMPDEST DUP1 PUSH4 0x7F8FAA6A EQ PUSH2 0x44E JUMPI DUP1 PUSH4 0x8DA5CB5B EQ PUSH2 0x46E JUMPI DUP1 PUSH4 0x90A83DC2 EQ PUSH2 0x476 JUMPI DUP1 PUSH4 0x915B9859 EQ PUSH2 0x489 JUMPI DUP1 PUSH4 0x95D89B41 EQ PUSH2 0x49C JUMPI PUSH2 0x28A JUMP JUMPDEST DUP1 PUSH4 0x2F745C59 GT PUSH2 0x200 JUMPI DUP1 PUSH4 0x5ACF6903 GT PUSH2 0x1B9 JUMPI DUP1 PUSH4 0x5ACF6903 EQ PUSH2 0x3F2 JUMPI DUP1 PUSH4 0x6352211E EQ PUSH2 0x405 JUMPI DUP1 PUSH4 0x68173BCF EQ PUSH2 0x418 JUMPI DUP1 PUSH4 0x6C0360EB EQ PUSH2 0x42B JUMPI DUP1 PUSH4 0x70A08231 EQ PUSH2 0x433 JUMPI DUP1 PUSH4 0x715018A6 EQ PUSH2 0x446 JUMPI PUSH2 0x28A JUMP JUMPDEST DUP1 PUSH4 0x2F745C59 EQ PUSH2 0x380 JUMPI DUP1 PUSH4 0x42842E0E EQ PUSH2 0x393 JUMPI DUP1 PUSH4 0x4F64B2BE EQ PUSH2 0x3A6 JUMPI DUP1 PUSH4 0x4F6CCCE7 EQ PUSH2 0x3B9 JUMPI DUP1 PUSH4 0x55F804B3 EQ PUSH2 0x3CC JUMPI DUP1 PUSH4 0x594A2B3E EQ PUSH2 0x3DF JUMPI PUSH2 0x28A JUMP JUMPDEST DUP1 PUSH4 0x18160DDD GT PUSH2 0x252 JUMPI DUP1 PUSH4 0x18160DDD EQ PUSH2 0x317 JUMPI DUP1 PUSH4 0x198E4CE6 EQ PUSH2 0x31F JUMPI DUP1 PUSH4 0x1BF744DB EQ PUSH2 0x327 JUMPI DUP1 PUSH4 0x21603F43 EQ PUSH2 0x33A JUMPI DUP1 PUSH4 0x228BFD9F EQ PUSH2 0x35A JUMPI DUP1 PUSH4 0x23B872DD EQ PUSH2 0x36D JUMPI PUSH2 0x28A JUMP JUMPDEST DUP1 PUSH4 0x1FFC9A7 EQ PUSH2 0x28F JUMPI DUP1 PUSH4 0x6FDDE03 EQ PUSH2 0x2B8 JUMPI DUP1 PUSH4 0x81812FC EQ PUSH2 0x2CD JUMPI DUP1 PUSH4 0x95EA7B3 EQ PUSH2 0x2ED JUMPI DUP1 PUSH4 0x113990B8 EQ PUSH2 0x302 JUMPI JUMPDEST PUSH1 0x0 DUP1 REVERT JUMPDEST PUSH2 0x2A2 PUSH2 0x29D CALLDATASIZE PUSH1 0x4 PUSH2 0x4A5E JUMP JUMPDEST PUSH2 0x5DD JUMP JUMPDEST PUSH1 0x40 MLOAD PUSH2 0x2AF SWAP2 SWAP1 PUSH2 0x4D98 JUMP JUMPDEST PUSH1 0x40 MLOAD DUP1 SWAP2 SUB SWAP1 RETURN JUMPDEST PUSH2 0x2C0 PUSH2 0x600 JUMP JUMPDEST PUSH1 0x40 MLOAD PUSH2 0x2AF SWAP2 SWAP1 PUSH2 0x4DA3 JUMP JUMPDEST PUSH2 0x2E0 PUSH2 0x2DB CALLDATASIZE PUSH1 0x4 PUSH2 0x4AC8 JUMP JUMPDEST PUSH2 0x696 JUMP JUMPDEST PUSH1 0x40 MLOAD PUSH2 0x2AF SWAP2 SWAP1 PUSH2 0x4CA9 JUMP JUMPDEST PUSH2 0x300 PUSH2 0x2FB CALLDATASIZE PUSH1 0x4 PUSH2 0x492B JUMP JUMPDEST PUSH2 0x6E2 JUMP JUMPDEST STOP JUMPDEST PUSH2 0x30A PUSH2 0x77A JUMP JUMPDEST PUSH1 0x40 MLOAD PUSH2 0x2AF SWAP2 SWAP1 PUSH2 0x5828 JUMP JUMPDEST PUSH2 0x30A PUSH2 0x786 JUMP JUMPDEST PUSH2 0x30A PUSH2 0x797 JUMP JUMPDEST PUSH2 0x30A PUSH2 0x335 CALLDATASIZE PUSH1 0x4 PUSH2 0x4AC8 JUMP JUMPDEST PUSH2 0x79D JUMP JUMPDEST PUSH2 0x34D PUSH2 0x348 CALLDATASIZE PUSH1 0x4 PUSH2 0x4AC8 JUMP JUMPDEST PUSH2 0x7BE JUMP JUMPDEST PUSH1 0x40 MLOAD PUSH2 0x2AF SWAP2 SWAP1 PUSH2 0x573F JUMP JUMPDEST PUSH2 0x2E0 PUSH2 0x368 CALLDATASIZE PUSH1 0x4 PUSH2 0x475B JUMP JUMPDEST PUSH2 0x8FB JUMP JUMPDEST PUSH2 0x300 PUSH2 0x37B CALLDATASIZE PUSH1 0x4 PUSH2 0x47CB JUMP JUMPDEST PUSH2 0x919 JUMP JUMPDEST PUSH2 0x30A PUSH2 0x38E CALLDATASIZE PUSH1 0x4 PUSH2 0x492B JUMP JUMPDEST PUSH2 0x951 JUMP JUMPDEST PUSH2 0x300 PUSH2 0x3A1 CALLDATASIZE PUSH1 0x4 PUSH2 0x47CB JUMP JUMPDEST PUSH2 0x97C JUMP JUMPDEST PUSH2 0x2E0 PUSH2 0x3B4 CALLDATASIZE PUSH1 0x4 PUSH2 0x4AC8 JUMP JUMPDEST PUSH2 0x997 JUMP JUMPDEST PUSH2 0x30A PUSH2 0x3C7 CALLDATASIZE PUSH1 0x4 PUSH2 0x4AC8 JUMP JUMPDEST PUSH2 0x9BE JUMP JUMPDEST PUSH2 0x300 PUSH2 0x3DA CALLDATASIZE PUSH1 0x4 PUSH2 0x4A96 JUMP JUMPDEST PUSH2 0x9D4 JUMP JUMPDEST PUSH2 0x34D PUSH2 0x3ED CALLDATASIZE PUSH1 0x4 PUSH2 0x4956 JUMP JUMPDEST PUSH2 0xA15 JUMP JUMPDEST PUSH2 0x2A2 PUSH2 0x400 CALLDATASIZE PUSH1 0x4 PUSH2 0x475B JUMP JUMPDEST PUSH2 0xBD1 JUMP JUMPDEST PUSH2 0x2E0 PUSH2 0x413 CALLDATASIZE PUSH1 0x4 PUSH2 0x4AC8 JUMP JUMPDEST PUSH2 0xBE6 JUMP JUMPDEST PUSH2 0x300 PUSH2 0x426 CALLDATASIZE PUSH1 0x4 PUSH2 0x475B JUMP JUMPDEST PUSH2 0xC0E JUMP JUMPDEST PUSH2 0x2C0 PUSH2 0xC64 JUMP JUMPDEST PUSH2 0x30A PUSH2 0x441 CALLDATASIZE PUSH1 0x4 PUSH2 0x475B JUMP JUMPDEST PUSH2 0xCC5 JUMP JUMPDEST PUSH2 0x300 PUSH2 0xD0E JUMP JUMPDEST PUSH2 0x461 PUSH2 0x45C CALLDATASIZE PUSH1 0x4 PUSH2 0x4AC8 JUMP JUMPDEST PUSH2 0xD8D JUMP JUMPDEST PUSH1 0x40 MLOAD PUSH2 0x2AF SWAP2 SWAP1 PUSH2 0x57C7 JUMP JUMPDEST PUSH2 0x2E0 PUSH2 0xED2 JUMP JUMPDEST PUSH2 0x300 PUSH2 0x484 CALLDATASIZE PUSH1 0x4 PUSH2 0x47CB JUMP JUMPDEST PUSH2 0xEE1 JUMP JUMPDEST PUSH2 0x30A PUSH2 0x497 CALLDATASIZE PUSH1 0x4 PUSH2 0x4AF8 JUMP JUMPDEST PUSH2 0xFFF JUMP JUMPDEST PUSH2 0x2C0 PUSH2 0x1036 JUMP JUMPDEST PUSH2 0x30A PUSH2 0x4B2 CALLDATASIZE PUSH1 0x4 PUSH2 0x4AC8 JUMP JUMPDEST PUSH2 0x1097 JUMP JUMPDEST PUSH2 0x300 PUSH2 0x4C5 CALLDATASIZE PUSH1 0x4 PUSH2 0x48FE JUMP JUMPDEST PUSH2 0x10A9 JUMP JUMPDEST PUSH2 0x30A PUSH2 0x4D8 CALLDATASIZE PUSH1 0x4 PUSH2 0x4AC8 JUMP JUMPDEST PUSH2 0x1177 JUMP JUMPDEST PUSH2 0x300 PUSH2 0x4EB CALLDATASIZE PUSH1 0x4 PUSH2 0x492B JUMP JUMPDEST PUSH2 0x1198 JUMP JUMPDEST PUSH2 0x300 PUSH2 0x4FE CALLDATASIZE PUSH1 0x4 PUSH2 0x480B JUMP JUMPDEST PUSH2 0x120D JUMP JUMPDEST PUSH2 0x516 PUSH2 0x511 CALLDATASIZE PUSH1 0x4 PUSH2 0x4AC8 JUMP JUMPDEST PUSH2 0x124C JUMP JUMPDEST PUSH1 0x40 MLOAD PUSH2 0x2AF SWAP2 SWAP1 PUSH2 0x4D2D JUMP JUMPDEST PUSH2 0x30A PUSH2 0x13C0 JUMP JUMPDEST PUSH2 0x2C0 PUSH2 0x539 CALLDATASIZE PUSH1 0x4 PUSH2 0x4AC8 JUMP JUMPDEST PUSH2 0x13C6 JUMP JUMPDEST PUSH2 0x30A PUSH2 0x1510 JUMP JUMPDEST PUSH2 0x30A PUSH2 0x1516 JUMP JUMPDEST PUSH2 0x561 PUSH2 0x55C CALLDATASIZE PUSH1 0x4 PUSH2 0x4874 JUMP JUMPDEST PUSH2 0x151C JUMP JUMPDEST PUSH1 0x40 MLOAD PUSH2 0x2AF SWAP2 SWAP1 PUSH2 0x4D85 JUMP JUMPDEST PUSH2 0x561 PUSH2 0x57C CALLDATASIZE PUSH1 0x4 PUSH2 0x4AF8 JUMP JUMPDEST PUSH2 0x1749 JUMP JUMPDEST PUSH2 0x30A PUSH2 0x17B4 JUMP JUMPDEST PUSH2 0x2A2 PUSH2 0x597 CALLDATASIZE PUSH1 0x4 PUSH2 0x4793 JUMP JUMPDEST PUSH2 0x17BA JUMP JUMPDEST PUSH2 0x300 PUSH2 0x5AA CALLDATASIZE PUSH1 0x4 PUSH2 0x475B JUMP JUMPDEST PUSH2 0x17E8 JUMP JUMPDEST PUSH2 0x300 PUSH2 0x5BD CALLDATASIZE PUSH1 0x4 PUSH2 0x492B JUMP JUMPDEST PUSH2 0x189F JUMP JUMPDEST PUSH2 0x2E0 PUSH2 0x18E2 JUMP JUMPDEST PUSH2 0x30A PUSH2 0x5D8 CALLDATASIZE PUSH1 0x4 PUSH2 0x475B JUMP JUMPDEST PUSH2 0x18F1 JUMP JUMPDEST PUSH1 0x1 PUSH1 0x1 PUSH1 0xE0 SHL SUB NOT DUP2 AND PUSH1 0x0 SWAP1 DUP2 MSTORE PUSH1 0x20 DUP2 SWAP1 MSTORE PUSH1 0x40 SWAP1 KECCAK256 SLOAD PUSH1 0xFF AND JUMPDEST SWAP2 SWAP1 POP JUMP JUMPDEST PUSH1 0x6 DUP1 SLOAD PUSH1 0x40 DUP1 MLOAD PUSH1 0x20 PUSH1 0x1F PUSH1 0x2 PUSH1 0x0 NOT PUSH2 0x100 PUSH1 0x1 DUP9 AND ISZERO MUL ADD SWAP1 SWAP6 AND SWAP5 SWAP1 SWAP5 DIV SWAP4 DUP5 ADD DUP2 SWAP1 DIV DUP2 MUL DUP3 ADD DUP2 ADD SWAP1 SWAP3 MSTORE DUP3 DUP2 MSTORE PUSH1 0x60 SWAP4 SWAP1 SWAP3 SWAP1 SWAP2 DUP4 ADD DUP3 DUP3 DUP1 ISZERO PUSH2 0x68C JUMPI DUP1 PUSH1 0x1F LT PUSH2 0x661 JUMPI PUSH2 0x100 DUP1 DUP4 SLOAD DIV MUL DUP4 MSTORE SWAP2 PUSH1 0x20 ADD SWAP2 PUSH2 0x68C JUMP JUMPDEST DUP3 ADD SWAP2 SWAP1 PUSH1 0x0 MSTORE PUSH1 0x20 PUSH1 0x0 KECCAK256 SWAP1 JUMPDEST DUP2 SLOAD DUP2 MSTORE SWAP1 PUSH1 0x1 ADD SWAP1 PUSH1 0x20 ADD DUP1 DUP4 GT PUSH2 0x66F JUMPI DUP3 SWAP1 SUB PUSH1 0x1F AND DUP3 ADD SWAP2 JUMPDEST POP POP POP POP POP SWAP1 POP SWAP1 JUMP JUMPDEST PUSH1 0x0 PUSH2 0x6A1 DUP3 PUSH2 0x1974 JUMP JUMPDEST PUSH2 0x6C6 JUMPI PUSH1 0x40 MLOAD PUSH3 0x461BCD PUSH1 0xE5 SHL DUP2 MSTORE PUSH1 0x4 ADD PUSH2 0x6BD SWAP1 PUSH2 0x5373 JUMP JUMPDEST PUSH1 0x40 MLOAD DUP1 SWAP2 SUB SWAP1 REVERT JUMPDEST POP PUSH1 0x0 SWAP1 DUP2 MSTORE PUSH1 0x4 PUSH1 0x20 MSTORE PUSH1 0x40 SWAP1 KECCAK256 SLOAD PUSH1 0x1 PUSH1 0x1 PUSH1 0xA0 SHL SUB AND SWAP1 JUMP JUMPDEST PUSH1 0x0 PUSH2 0x6ED DUP3 PUSH2 0xBE6 JUMP JUMPDEST SWAP1 POP DUP1 PUSH1 0x1 PUSH1 0x1 PUSH1 0xA0 SHL SUB AND DUP4 PUSH1 0x1 PUSH1 0x1 PUSH1 0xA0 SHL SUB AND EQ ISZERO PUSH2 0x721 JUMPI PUSH1 0x40 MLOAD PUSH3 0x461BCD PUSH1 0xE5 SHL DUP2 MSTORE PUSH1 0x4 ADD PUSH2 0x6BD SWAP1 PUSH2 0x5599 JUMP JUMPDEST DUP1 PUSH1 0x1 PUSH1 0x1 PUSH1 0xA0 SHL SUB AND PUSH2 0x733 PUSH2 0x1981 JUMP JUMPDEST PUSH1 0x1 PUSH1 0x1 PUSH1 0xA0 SHL SUB AND EQ DUP1 PUSH2 0x74F JUMPI POP PUSH2 0x74F DUP2 PUSH2 0x597 PUSH2 0x1981 JUMP JUMPDEST PUSH2 0x76B JUMPI PUSH1 0x40 MLOAD PUSH3 0x461BCD PUSH1 0xE5 SHL DUP2 MSTORE PUSH1 0x4 ADD PUSH2 0x6BD SWAP1 PUSH2 0x5214 JUMP JUMPDEST PUSH2 0x775 DUP4 DUP4 PUSH2 0x1985 JUMP JUMPDEST POP POP POP JUMP JUMPDEST PUSH8 0xDE0B6B3A7640000 DUP2 JUMP JUMPDEST PUSH1 0x0 PUSH2 0x792 PUSH1 0x2 PUSH2 0x19F3 JUMP JUMPDEST SWAP1 POP SWAP1 JUMP JUMPDEST PUSH1 0xF SLOAD SWAP1 JUMP JUMPDEST PUSH1 0x0 PUSH1 0x10 DUP3 DUP2 SLOAD DUP2 LT PUSH2 0x7AC JUMPI INVALID JUMPDEST PUSH1 0x0 SWAP2 DUP3 MSTORE PUSH1 0x20 SWAP1 SWAP2 KECCAK256 ADD SLOAD SWAP3 SWAP2 POP POP JUMP JUMPDEST PUSH2 0x7C6 PUSH2 0x433E JUMP JUMPDEST PUSH1 0xE DUP3 DUP2 SLOAD DUP2 LT PUSH2 0x7D3 JUMPI INVALID JUMPDEST SWAP1 PUSH1 0x0 MSTORE PUSH1 0x20 PUSH1 0x0 KECCAK256 SWAP1 PUSH1 0xA MUL ADD PUSH1 0x40 MLOAD DUP1 PUSH1 0xE0 ADD PUSH1 0x40 MSTORE SWAP1 DUP2 PUSH1 0x0 DUP3 ADD SLOAD DUP2 MSTORE PUSH1 0x20 ADD PUSH1 0x1 DUP3 ADD SLOAD DUP2 MSTORE PUSH1 0x20 ADD PUSH1 0x2 DUP3 ADD SLOAD DUP2 MSTORE PUSH1 0x20 ADD PUSH1 0x3 DUP3 ADD SLOAD DUP2 MSTORE PUSH1 0x20 ADD PUSH1 0x4 DUP3 ADD PUSH1 0x2 DUP1 PUSH1 0x20 MUL PUSH1 0x40 MLOAD SWAP1 DUP2 ADD PUSH1 0x40 MSTORE DUP1 SWAP3 SWAP2 SWAP1 DUP3 PUSH1 0x2 DUP1 ISZERO PUSH2 0x85A JUMPI PUSH1 0x20 MUL DUP3 ADD SWAP2 JUMPDEST DUP2 SLOAD PUSH1 0x1 PUSH1 0x1 PUSH1 0xA0 SHL SUB AND DUP2 MSTORE PUSH1 0x1 SWAP1 SWAP2 ADD SWAP1 PUSH1 0x20 ADD DUP1 DUP4 GT PUSH2 0x83C JUMPI JUMPDEST POP POP POP SWAP2 DUP4 MSTORE POP POP PUSH1 0x40 DUP1 MLOAD PUSH1 0x60 DUP2 ADD SWAP2 DUP3 SWAP1 MSTORE PUSH1 0x20 SWAP1 SWAP3 ADD SWAP2 SWAP1 PUSH1 0x6 DUP5 ADD SWAP1 PUSH1 0x3 SWAP1 DUP3 DUP5 JUMPDEST DUP2 SLOAD DUP2 MSTORE PUSH1 0x20 ADD SWAP1 PUSH1 0x1 ADD SWAP1 DUP1 DUP4 GT PUSH2 0x880 JUMPI POP POP POP POP POP DUP2 MSTORE PUSH1 0x20 ADD PUSH1 0x9 DUP3 ADD DUP1 SLOAD DUP1 PUSH1 0x20 MUL PUSH1 0x20 ADD PUSH1 0x40 MLOAD SWAP1 DUP2 ADD PUSH1 0x40 MSTORE DUP1 SWAP3 SWAP2 SWAP1 DUP2 DUP2 MSTORE PUSH1 0x20 ADD DUP3 DUP1 SLOAD DUP1 ISZERO PUSH2 0x8EB JUMPI PUSH1 0x20 MUL DUP3 ADD SWAP2 SWAP1 PUSH1 0x0 MSTORE PUSH1 0x20 PUSH1 0x0 KECCAK256 SWAP1 JUMPDEST DUP2 SLOAD DUP2 MSTORE PUSH1 0x20 ADD SWAP1 PUSH1 0x1 ADD SWAP1 DUP1 DUP4 GT PUSH2 0x8D7 JUMPI JUMPDEST POP POP POP POP POP DUP2 MSTORE POP POP SWAP1 POP SWAP2 SWAP1 POP JUMP JUMPDEST PUSH1 0x1 PUSH1 0x1 PUSH1 0xA0 SHL SUB SWAP1 DUP2 AND PUSH1 0x0 SWAP1 DUP2 MSTORE PUSH1 0x19 PUSH1 0x20 MSTORE PUSH1 0x40 SWAP1 KECCAK256 SLOAD AND SWAP1 JUMP JUMPDEST PUSH2 0x92A PUSH2 0x924 PUSH2 0x1981 JUMP JUMPDEST DUP3 PUSH2 0x19FE JUMP JUMPDEST PUSH2 0x946 JUMPI PUSH1 0x40 MLOAD PUSH3 0x461BCD PUSH1 0xE5 SHL DUP2 MSTORE PUSH1 0x4 ADD PUSH2 0x6BD SWAP1 PUSH2 0x55DA JUMP JUMPDEST PUSH2 0x775 DUP4 DUP4 DUP4 PUSH2 0x1A7B JUMP JUMPDEST PUSH1 0x1 PUSH1 0x1 PUSH1 0xA0 SHL SUB DUP3 AND PUSH1 0x0 SWAP1 DUP2 MSTORE PUSH1 0x1 PUSH1 0x20 MSTORE PUSH1 0x40 DUP2 KECCAK256 PUSH2 0x973 SWAP1 DUP4 PUSH2 0x1B89 JUMP JUMPDEST SWAP1 POP JUMPDEST SWAP3 SWAP2 POP POP JUMP JUMPDEST PUSH2 0x775 DUP4 DUP4 DUP4 PUSH1 0x40 MLOAD DUP1 PUSH1 0x20 ADD PUSH1 0x40 MSTORE DUP1 PUSH1 0x0 DUP2 MSTORE POP PUSH2 0x120D JUMP JUMPDEST PUSH1 0x17 DUP2 DUP2 SLOAD DUP2 LT PUSH2 0x9A4 JUMPI INVALID JUMPDEST PUSH1 0x0 SWAP2 DUP3 MSTORE PUSH1 0x20 SWAP1 SWAP2 KECCAK256 ADD SLOAD PUSH1 0x1 PUSH1 0x1 PUSH1 0xA0 SHL SUB AND SWAP1 POP DUP2 JUMP JUMPDEST PUSH1 0x0 DUP1 PUSH2 0x9CC PUSH1 0x2 DUP5 PUSH2 0x1B95 JUMP JUMPDEST POP SWAP4 SWAP3 POP POP POP JUMP JUMPDEST PUSH2 0x9DC PUSH2 0x1981 JUMP JUMPDEST PUSH1 0xA SLOAD PUSH1 0x1 PUSH1 0x1 PUSH1 0xA0 SHL SUB SWAP1 DUP2 AND SWAP2 AND EQ PUSH2 0xA09 JUMPI PUSH1 0x40 MLOAD PUSH3 0x461BCD PUSH1 0xE5 SHL DUP2 MSTORE PUSH1 0x4 ADD PUSH2 0x6BD SWAP1 PUSH2 0x53BF JUMP JUMPDEST PUSH2 0xA12 DUP2 PUSH2 0x1BB1 JUMP JUMPDEST POP JUMP JUMPDEST PUSH2 0xA1D PUSH2 0x433E JUMP JUMPDEST PUSH2 0xA25 PUSH2 0x1981 JUMP JUMPDEST PUSH1 0xA SLOAD PUSH1 0x1 PUSH1 0x1 PUSH1 0xA0 SHL SUB SWAP1 DUP2 AND SWAP2 AND EQ PUSH2 0xA52 JUMPI PUSH1 0x40 MLOAD PUSH3 0x461BCD PUSH1 0xE5 SHL DUP2 MSTORE PUSH1 0x4 ADD PUSH2 0x6BD SWAP1 PUSH2 0x53BF JUMP JUMPDEST PUSH2 0xA5A PUSH2 0x433E JUMP JUMPDEST PUSH1 0xE DUP6 DUP2 SLOAD DUP2 LT PUSH2 0xA67 JUMPI INVALID JUMPDEST SWAP1 PUSH1 0x0 MSTORE PUSH1 0x20 PUSH1 0x0 KECCAK256 SWAP1 PUSH1 0xA MUL ADD PUSH1 0x40 MLOAD DUP1 PUSH1 0xE0 ADD PUSH1 0x40 MSTORE SWAP1 DUP2 PUSH1 0x0 DUP3 ADD SLOAD DUP2 MSTORE PUSH1 0x20 ADD PUSH1 0x1 DUP3 ADD SLOAD DUP2 MSTORE PUSH1 0x20 ADD PUSH1 0x2 DUP3 ADD SLOAD DUP2 MSTORE PUSH1 0x20 ADD PUSH1 0x3 DUP3 ADD SLOAD DUP2 MSTORE PUSH1 0x20 ADD PUSH1 0x4 DUP3 ADD PUSH1 0x2 DUP1 PUSH1 0x20 MUL PUSH1 0x40 MLOAD SWAP1 DUP2 ADD PUSH1 0x40 MSTORE DUP1 SWAP3 SWAP2 SWAP1 DUP3 PUSH1 0x2 DUP1 ISZERO PUSH2 0xAEE JUMPI PUSH1 0x20 MUL DUP3 ADD SWAP2 JUMPDEST DUP2 SLOAD PUSH1 0x1 PUSH1 0x1 PUSH1 0xA0 SHL SUB AND DUP2 MSTORE PUSH1 0x1 SWAP1 SWAP2 ADD SWAP1 PUSH1 0x20 ADD DUP1 DUP4 GT PUSH2 0xAD0 JUMPI JUMPDEST POP POP POP SWAP2 DUP4 MSTORE POP POP PUSH1 0x40 DUP1 MLOAD PUSH1 0x60 DUP2 ADD SWAP2 DUP3 SWAP1 MSTORE PUSH1 0x20 SWAP1 SWAP3 ADD SWAP2 SWAP1 PUSH1 0x6 DUP5 ADD SWAP1 PUSH1 0x3 SWAP1 DUP3 DUP5 JUMPDEST DUP2 SLOAD DUP2 MSTORE PUSH1 0x20 ADD SWAP1 PUSH1 0x1 ADD SWAP1 DUP1 DUP4 GT PUSH2 0xB14 JUMPI POP POP POP POP POP DUP2 MSTORE PUSH1 0x20 ADD PUSH1 0x9 DUP3 ADD DUP1 SLOAD DUP1 PUSH1 0x20 MUL PUSH1 0x20 ADD PUSH1 0x40 MLOAD SWAP1 DUP2 ADD PUSH1 0x40 MSTORE DUP1 SWAP3 SWAP2 SWAP1 DUP2 DUP2 MSTORE PUSH1 0x20 ADD DUP3 DUP1 SLOAD DUP1 ISZERO PUSH2 0xB7F JUMPI PUSH1 0x20 MUL DUP3 ADD SWAP2 SWAP1 PUSH1 0x0 MSTORE PUSH1 0x20 PUSH1 0x0 KECCAK256 SWAP1 JUMPDEST DUP2 SLOAD DUP2 MSTORE PUSH1 0x20 ADD SWAP1 PUSH1 0x1 ADD SWAP1 DUP1 DUP4 GT PUSH2 0xB6B JUMPI JUMPDEST POP POP POP POP POP DUP2 MSTORE POP POP SWAP1 POP PUSH1 0x0 DUP1 PUSH2 0xB99 DUP9 DUP5 DUP9 DUP9 PUSH2 0x1BC4 JUMP JUMPDEST PUSH1 0xA0 DUP6 ADD MLOAD PUSH1 0x20 ADD MLOAD SWAP2 SWAP4 POP SWAP2 POP DUP3 LT ISZERO PUSH2 0xBC6 JUMPI PUSH1 0x40 MLOAD PUSH3 0x461BCD PUSH1 0xE5 SHL DUP2 MSTORE PUSH1 0x4 ADD PUSH2 0x6BD SWAP1 PUSH2 0x517B JUMP JUMPDEST POP POP POP SWAP5 SWAP4 POP POP POP POP JUMP JUMPDEST PUSH1 0x18 PUSH1 0x20 MSTORE PUSH1 0x0 SWAP1 DUP2 MSTORE PUSH1 0x40 SWAP1 KECCAK256 SLOAD PUSH1 0xFF AND DUP2 JUMP JUMPDEST PUSH1 0x0 PUSH2 0x976 DUP3 PUSH1 0x40 MLOAD DUP1 PUSH1 0x60 ADD PUSH1 0x40 MSTORE DUP1 PUSH1 0x29 DUP2 MSTORE PUSH1 0x20 ADD PUSH2 0x5931 PUSH1 0x29 SWAP2 CODECOPY PUSH1 0x2 SWAP2 SWAP1 PUSH2 0x237B JUMP JUMPDEST PUSH2 0xC16 PUSH2 0x1981 JUMP JUMPDEST PUSH1 0xA SLOAD PUSH1 0x1 PUSH1 0x1 PUSH1 0xA0 SHL SUB SWAP1 DUP2 AND SWAP2 AND EQ PUSH2 0xC43 JUMPI PUSH1 0x40 MLOAD PUSH3 0x461BCD PUSH1 0xE5 SHL DUP2 MSTORE PUSH1 0x4 ADD PUSH2 0x6BD SWAP1 PUSH2 0x53BF JUMP JUMPDEST PUSH1 0x1 PUSH1 0x1 PUSH1 0xA0 SHL SUB AND PUSH1 0x0 SWAP1 DUP2 MSTORE PUSH1 0x18 PUSH1 0x20 MSTORE PUSH1 0x40 SWAP1 KECCAK256 DUP1 SLOAD PUSH1 0xFF NOT AND SWAP1 SSTORE JUMP JUMPDEST PUSH1 0x9 DUP1 SLOAD PUSH1 0x40 DUP1 MLOAD PUSH1 0x20 PUSH1 0x1F PUSH1 0x2 PUSH1 0x0 NOT PUSH2 0x100 PUSH1 0x1 DUP9 AND ISZERO MUL ADD SWAP1 SWAP6 AND SWAP5 SWAP1 SWAP5 DIV SWAP4 DUP5 ADD DUP2 SWAP1 DIV DUP2 MUL DUP3 ADD DUP2 ADD SWAP1 SWAP3 MSTORE DUP3 DUP2 MSTORE PUSH1 0x60 SWAP4 SWAP1 SWAP3 SWAP1 SWAP2 DUP4 ADD DUP3 DUP3 DUP1 ISZERO PUSH2 0x68C JUMPI DUP1 PUSH1 0x1F LT PUSH2 0x661 JUMPI PUSH2 0x100 DUP1 DUP4 SLOAD DIV MUL DUP4 MSTORE SWAP2 PUSH1 0x20 ADD SWAP2 PUSH2 0x68C JUMP JUMPDEST PUSH1 0x0 PUSH1 0x1 PUSH1 0x1 PUSH1 0xA0 SHL SUB DUP3 AND PUSH2 0xCED JUMPI PUSH1 0x40 MLOAD PUSH3 0x461BCD PUSH1 0xE5 SHL DUP2 MSTORE PUSH1 0x4 ADD PUSH2 0x6BD SWAP1 PUSH2 0x5271 JUMP JUMPDEST PUSH1 0x1 PUSH1 0x1 PUSH1 0xA0 SHL SUB DUP3 AND PUSH1 0x0 SWAP1 DUP2 MSTORE PUSH1 0x1 PUSH1 0x20 MSTORE PUSH1 0x40 SWAP1 KECCAK256 PUSH2 0x976 SWAP1 PUSH2 0x19F3 JUMP JUMPDEST PUSH2 0xD16 PUSH2 0x1981 JUMP JUMPDEST PUSH1 0xA SLOAD PUSH1 0x1 PUSH1 0x1 PUSH1 0xA0 SHL SUB SWAP1 DUP2 AND SWAP2 AND EQ PUSH2 0xD43 JUMPI PUSH1 0x40 MLOAD PUSH3 0x461BCD PUSH1 0xE5 SHL DUP2 MSTORE PUSH1 0x4 ADD PUSH2 0x6BD SWAP1 PUSH2 0x53BF JUMP JUMPDEST PUSH1 0xA SLOAD PUSH1 0x40 MLOAD PUSH1 0x0 SWAP2 PUSH1 0x1 PUSH1 0x1 PUSH1 0xA0 SHL SUB AND SWAP1 PUSH32 0x8BE0079C531659141344CD1FD0A4F28419497F9722A3DAAFE3B4186F6B6457E0 SWAP1 DUP4 SWAP1 LOG3 PUSH1 0xA DUP1 SLOAD PUSH1 0x1 PUSH1 0x1 PUSH1 0xA0 SHL SUB NOT AND SWAP1 SSTORE JUMP JUMPDEST PUSH2 0xD95 PUSH2 0x4387 JUMP JUMPDEST PUSH1 0x14 DUP3 DUP2 SLOAD DUP2 LT PUSH2 0xDA2 JUMPI INVALID JUMPDEST SWAP1 PUSH1 0x0 MSTORE PUSH1 0x20 PUSH1 0x0 KECCAK256 SWAP1 PUSH1 0x3 MUL ADD PUSH1 0x40 MLOAD DUP1 PUSH1 0x60 ADD PUSH1 0x40 MSTORE SWAP1 DUP2 PUSH1 0x0 DUP3 ADD DUP1 SLOAD DUP1 PUSH1 0x20 MUL PUSH1 0x20 ADD PUSH1 0x40 MLOAD SWAP1 DUP2 ADD PUSH1 0x40 MSTORE DUP1 SWAP3 SWAP2 SWAP1 DUP2 DUP2 MSTORE PUSH1 0x20 ADD DUP3 DUP1 SLOAD DUP1 ISZERO PUSH2 0xE14 JUMPI PUSH1 0x20 MUL DUP3 ADD SWAP2 SWAP1 PUSH1 0x0 MSTORE PUSH1 0x20 PUSH1 0x0 KECCAK256 SWAP1 JUMPDEST DUP2 SLOAD PUSH1 0x1 PUSH1 0x1 PUSH1 0xA0 SHL SUB AND DUP2 MSTORE PUSH1 0x1 SWAP1 SWAP2 ADD SWAP1 PUSH1 0x20 ADD DUP1 DUP4 GT PUSH2 0xDF6 JUMPI JUMPDEST POP POP POP POP POP DUP2 MSTORE PUSH1 0x20 ADD PUSH1 0x1 DUP3 ADD DUP1 SLOAD DUP1 PUSH1 0x20 MUL PUSH1 0x20 ADD PUSH1 0x40 MLOAD SWAP1 DUP2 ADD PUSH1 0x40 MSTORE DUP1 SWAP3 SWAP2 SWAP1 DUP2 DUP2 MSTORE PUSH1 0x20 ADD DUP3 DUP1 SLOAD DUP1 ISZERO PUSH2 0xE6C JUMPI PUSH1 0x20 MUL DUP3 ADD SWAP2 SWAP1 PUSH1 0x0 MSTORE PUSH1 0x20 PUSH1 0x0 KECCAK256 SWAP1 JUMPDEST DUP2 SLOAD DUP2 MSTORE PUSH1 0x20 ADD SWAP1 PUSH1 0x1 ADD SWAP1 DUP1 DUP4 GT PUSH2 0xE58 JUMPI JUMPDEST POP POP POP POP POP DUP2 MSTORE PUSH1 0x20 ADD PUSH1 0x2 DUP3 ADD DUP1 SLOAD DUP1 PUSH1 0x20 MUL PUSH1 0x20 ADD PUSH1 0x40 MLOAD SWAP1 DUP2 ADD PUSH1 0x40 MSTORE DUP1 SWAP3 SWAP2 SWAP1 DUP2 DUP2 MSTORE PUSH1 0x20 ADD DUP3 DUP1 SLOAD DUP1 ISZERO PUSH2 0x8EB JUMPI PUSH1 0x20 MUL DUP3 ADD SWAP2 SWAP1 PUSH1 0x0 MSTORE PUSH1 0x20 PUSH1 0x0 KECCAK256 SWAP1 DUP2 SLOAD DUP2 MSTORE PUSH1 0x20 ADD SWAP1 PUSH1 0x1 ADD SWAP1 DUP1 DUP4 GT PUSH2 0x8D7 JUMPI POP POP POP POP POP DUP2 MSTORE POP POP SWAP1 POP SWAP2 SWAP1 POP JUMP JUMPDEST PUSH1 0xA SLOAD PUSH1 0x1 PUSH1 0x1 PUSH1 0xA0 SHL SUB AND SWAP1 JUMP JUMPDEST PUSH2 0xEE9 PUSH2 0x1981 JUMP JUMPDEST PUSH1 0xA SLOAD PUSH1 0x1 PUSH1 0x1 PUSH1 0xA0 SHL SUB SWAP1 DUP2 AND SWAP2 AND EQ PUSH2 0xF16 JUMPI PUSH1 0x40 MLOAD PUSH3 0x461BCD PUSH1 0xE5 SHL DUP2 MSTORE PUSH1 0x4 ADD PUSH2 0x6BD SWAP1 PUSH2 0x53BF JUMP JUMPDEST PUSH1 0x1 PUSH1 0x1 PUSH1 0xA0 SHL SUB DUP4 DUP2 AND PUSH1 0x0 SWAP1 DUP2 MSTORE PUSH1 0x19 PUSH1 0x20 MSTORE PUSH1 0x40 SWAP1 KECCAK256 SLOAD AND ISZERO PUSH2 0xF4E JUMPI PUSH1 0x40 MLOAD PUSH3 0x461BCD PUSH1 0xE5 SHL DUP2 MSTORE PUSH1 0x4 ADD PUSH2 0x6BD SWAP1 PUSH2 0x5553 JUMP JUMPDEST PUSH1 0x1 PUSH1 0x1 PUSH1 0xA0 SHL SUB DUP3 AND PUSH2 0xF74 JUMPI PUSH1 0x40 MLOAD PUSH3 0x461BCD PUSH1 0xE5 SHL DUP2 MSTORE PUSH1 0x4 ADD PUSH2 0x6BD SWAP1 PUSH2 0x550A JUMP JUMPDEST PUSH1 0x1 PUSH1 0x1 PUSH1 0xA0 SHL SUB SWAP3 DUP4 AND PUSH1 0x0 DUP2 DUP2 MSTORE PUSH1 0x19 PUSH1 0x20 SWAP1 DUP2 MSTORE PUSH1 0x40 DUP1 DUP4 KECCAK256 DUP1 SLOAD SWAP8 SWAP1 SWAP7 AND PUSH1 0x1 PUSH1 0x1 PUSH1 0xA0 SHL SUB NOT SWAP8 DUP9 AND OR SWAP1 SWAP6 SSTORE PUSH1 0x1A DUP2 MSTORE DUP5 DUP3 KECCAK256 SWAP4 SWAP1 SWAP4 SSTORE PUSH1 0x17 DUP1 SLOAD PUSH1 0x1 DUP2 DUP2 ADD SWAP1 SWAP3 SSTORE PUSH32 0xC624B66CC0138B8FABC209247F72D758E1CF3343756D543BADBF24212BED8C15 ADD DUP1 SLOAD SWAP1 SWAP7 AND DUP4 OR SWAP1 SWAP6 SSTORE SWAP1 DUP2 MSTORE PUSH1 0x18 SWAP1 SWAP2 MSTORE KECCAK256 DUP1 SLOAD PUSH1 0xFF NOT AND SWAP1 SWAP2 OR SWAP1 SSTORE JUMP JUMPDEST PUSH1 0x0 PUSH1 0x10 DUP4 DUP2 SLOAD DUP2 LT PUSH2 0x100E JUMPI INVALID JUMPDEST SWAP1 PUSH1 0x0 MSTORE PUSH1 0x20 PUSH1 0x0 KECCAK256 ADD DUP3 DUP2 SLOAD DUP2 LT PUSH2 0x1023 JUMPI INVALID JUMPDEST SWAP1 PUSH1 0x0 MSTORE PUSH1 0x20 PUSH1 0x0 KECCAK256 ADD SLOAD SWAP1 POP SWAP3 SWAP2 POP POP JUMP JUMPDEST PUSH1 0x7 DUP1 SLOAD PUSH1 0x40 DUP1 MLOAD PUSH1 0x20 PUSH1 0x1F PUSH1 0x2 PUSH1 0x0 NOT PUSH2 0x100 PUSH1 0x1 DUP9 AND ISZERO MUL ADD SWAP1 SWAP6 AND SWAP5 SWAP1 SWAP5 DIV SWAP4 DUP5 ADD DUP2 SWAP1 DIV DUP2 MUL DUP3 ADD DUP2 ADD SWAP1 SWAP3 MSTORE DUP3 DUP2 MSTORE PUSH1 0x60 SWAP4 SWAP1 SWAP3 SWAP1 SWAP2 DUP4 ADD DUP3 DUP3 DUP1 ISZERO PUSH2 0x68C JUMPI DUP1 PUSH1 0x1F LT PUSH2 0x661 JUMPI PUSH2 0x100 DUP1 DUP4 SLOAD DIV MUL DUP4 MSTORE SWAP2 PUSH1 0x20 ADD SWAP2 PUSH2 0x68C JUMP JUMPDEST PUSH1 0x13 PUSH1 0x20 MSTORE PUSH1 0x0 SWAP1 DUP2 MSTORE PUSH1 0x40 SWAP1 KECCAK256 SLOAD DUP2 JUMP JUMPDEST PUSH2 0x10B1 PUSH2 0x1981 JUMP JUMPDEST PUSH1 0x1 PUSH1 0x1 PUSH1 0xA0 SHL SUB AND DUP3 PUSH1 0x1 PUSH1 0x1 PUSH1 0xA0 SHL SUB AND EQ ISZERO PUSH2 0x10E2 JUMPI PUSH1 0x40 MLOAD PUSH3 0x461BCD PUSH1 0xE5 SHL DUP2 MSTORE PUSH1 0x4 ADD PUSH2 0x6BD SWAP1 PUSH2 0x50C3 JUMP JUMPDEST DUP1 PUSH1 0x5 PUSH1 0x0 PUSH2 0x10EF PUSH2 0x1981 JUMP JUMPDEST PUSH1 0x1 PUSH1 0x1 PUSH1 0xA0 SHL SUB SWAP1 DUP2 AND DUP3 MSTORE PUSH1 0x20 DUP1 DUP4 ADD SWAP4 SWAP1 SWAP4 MSTORE PUSH1 0x40 SWAP2 DUP3 ADD PUSH1 0x0 SWAP1 DUP2 KECCAK256 SWAP2 DUP8 AND DUP1 DUP3 MSTORE SWAP2 SWAP1 SWAP4 MSTORE SWAP2 KECCAK256 DUP1 SLOAD PUSH1 0xFF NOT AND SWAP3 ISZERO ISZERO SWAP3 SWAP1 SWAP3 OR SWAP1 SWAP2 SSTORE PUSH2 0x1133 PUSH2 0x1981 JUMP JUMPDEST PUSH1 0x1 PUSH1 0x1 PUSH1 0xA0 SHL SUB AND PUSH32 0x17307EAB39AB6107E8899845AD3D59BD9653F200F220920489CA2B5937696C31 DUP4 PUSH1 0x40 MLOAD PUSH2 0x116B SWAP2 SWAP1 PUSH2 0x4D98 JUMP JUMPDEST PUSH1 0x40 MLOAD DUP1 SWAP2 SUB SWAP1 LOG3 POP POP JUMP JUMPDEST PUSH1 0x0 PUSH1 0xF DUP3 DUP2 SLOAD DUP2 LT PUSH2 0x1186 JUMPI INVALID JUMPDEST SWAP1 PUSH1 0x0 MSTORE PUSH1 0x20 PUSH1 0x0 KECCAK256 ADD SLOAD SWAP1 POP SWAP2 SWAP1 POP JUMP JUMPDEST PUSH2 0x11A0 PUSH2 0x1981 JUMP JUMPDEST PUSH1 0xA SLOAD PUSH1 0x1 PUSH1 0x1 PUSH1 0xA0 SHL SUB SWAP1 DUP2 AND SWAP2 AND EQ PUSH2 0x11CD JUMPI PUSH1 0x40 MLOAD PUSH3 0x461BCD PUSH1 0xE5 SHL DUP2 MSTORE PUSH1 0x4 ADD PUSH2 0x6BD SWAP1 PUSH2 0x53BF JUMP JUMPDEST PUSH1 0x1 PUSH1 0x1 PUSH1 0xA0 SHL SUB DUP3 DUP2 AND PUSH1 0x0 SWAP1 DUP2 MSTORE PUSH1 0x19 PUSH1 0x20 MSTORE PUSH1 0x40 SWAP1 KECCAK256 SLOAD AND PUSH2 0x11F1 JUMPI PUSH1 0x0 DUP1 REVERT JUMPDEST PUSH1 0x1 PUSH1 0x1 PUSH1 0xA0 SHL SUB SWAP1 SWAP2 AND PUSH1 0x0 SWAP1 DUP2 MSTORE PUSH1 0x1A PUSH1 0x20 MSTORE PUSH1 0x40 SWAP1 KECCAK256 SSTORE JUMP JUMPDEST PUSH2 0x121E PUSH2 0x1218 PUSH2 0x1981 JUMP JUMPDEST DUP4 PUSH2 0x19FE JUMP JUMPDEST PUSH2 0x123A JUMPI PUSH1 0x40 MLOAD PUSH3 0x461BCD PUSH1 0xE5 SHL DUP2 MSTORE PUSH1 0x4 ADD PUSH2 0x6BD SWAP1 PUSH2 0x55DA JUMP JUMPDEST PUSH2 0x1246 DUP5 DUP5 DUP5 DUP5 PUSH2 0x2388 JUMP JUMPDEST POP POP POP POP JUMP JUMPDEST PUSH1 0x60 PUSH1 0x0 PUSH1 0x14 DUP4 DUP2 SLOAD DUP2 LT PUSH2 0x125D JUMPI INVALID JUMPDEST PUSH1 0x0 SWAP2 DUP3 MSTORE PUSH1 0x20 SWAP1 SWAP2 KECCAK256 PUSH1 0x3 SWAP1 SWAP2 MUL ADD SLOAD SWAP1 POP PUSH1 0x60 DUP2 PUSH1 0x1 PUSH1 0x1 PUSH1 0x40 SHL SUB DUP2 GT DUP1 ISZERO PUSH2 0x1288 JUMPI PUSH1 0x0 DUP1 REVERT JUMPDEST POP PUSH1 0x40 MLOAD SWAP1 DUP1 DUP3 MSTORE DUP1 PUSH1 0x20 MUL PUSH1 0x20 ADD DUP3 ADD PUSH1 0x40 MSTORE DUP1 ISZERO PUSH2 0x12C2 JUMPI DUP2 PUSH1 0x20 ADD JUMPDEST PUSH2 0x12AF PUSH2 0x43A8 JUMP JUMPDEST DUP2 MSTORE PUSH1 0x20 ADD SWAP1 PUSH1 0x1 SWAP1 SUB SWAP1 DUP2 PUSH2 0x12A7 JUMPI SWAP1 POP JUMPDEST POP SWAP1 POP PUSH1 0x0 JUMPDEST PUSH1 0x14 DUP6 DUP2 SLOAD DUP2 LT PUSH2 0x12D5 JUMPI INVALID JUMPDEST PUSH1 0x0 SWAP2 DUP3 MSTORE PUSH1 0x20 SWAP1 SWAP2 KECCAK256 PUSH1 0x3 SWAP1 SWAP2 MUL ADD SLOAD DUP2 LT ISZERO PUSH2 0x9CC JUMPI PUSH1 0x40 MLOAD DUP1 PUSH1 0x40 ADD PUSH1 0x40 MSTORE DUP1 PUSH1 0x14 DUP8 DUP2 SLOAD DUP2 LT PUSH2 0x1305 JUMPI INVALID JUMPDEST SWAP1 PUSH1 0x0 MSTORE PUSH1 0x20 PUSH1 0x0 KECCAK256 SWAP1 PUSH1 0x3 MUL ADD PUSH1 0x0 ADD DUP4 DUP2 SLOAD DUP2 LT PUSH2 0x1321 JUMPI INVALID JUMPDEST PUSH1 0x0 SWAP2 DUP3 MSTORE PUSH1 0x20 DUP1 DUP4 KECCAK256 SWAP1 SWAP2 ADD SLOAD PUSH1 0x1 PUSH1 0x1 PUSH1 0xA0 SHL SUB AND DUP4 MSTORE DUP9 DUP3 MSTORE PUSH1 0x15 DUP2 MSTORE PUSH1 0x40 DUP3 KECCAK256 PUSH1 0x14 DUP1 SLOAD SWAP5 SWAP1 SWAP3 ADD SWAP4 SWAP1 SWAP3 SWAP2 SWAP1 DUP11 SWAP1 DUP2 LT PUSH2 0x135C JUMPI INVALID JUMPDEST SWAP1 PUSH1 0x0 MSTORE PUSH1 0x20 PUSH1 0x0 KECCAK256 SWAP1 PUSH1 0x3 MUL ADD PUSH1 0x0 ADD DUP6 DUP2 SLOAD DUP2 LT PUSH2 0x1378 JUMPI INVALID JUMPDEST PUSH1 0x0 SWAP2 DUP3 MSTORE PUSH1 0x20 DUP1 DUP4 KECCAK256 SWAP1 SWAP2 ADD SLOAD PUSH1 0x1 PUSH1 0x1 PUSH1 0xA0 SHL SUB AND DUP4 MSTORE DUP3 ADD SWAP3 SWAP1 SWAP3 MSTORE PUSH1 0x40 ADD SWAP1 KECCAK256 SLOAD SWAP1 MSTORE DUP3 MLOAD DUP4 SWAP1 DUP4 SWAP1 DUP2 LT PUSH2 0x13AD JUMPI INVALID JUMPDEST PUSH1 0x20 SWAP1 DUP2 MUL SWAP2 SWAP1 SWAP2 ADD ADD MSTORE PUSH1 0x1 ADD PUSH2 0x12C8 JUMP JUMPDEST PUSH1 0xE SLOAD SWAP1 JUMP JUMPDEST PUSH1 0x60 PUSH2 0x13D1 DUP3 PUSH2 0x1974 JUMP JUMPDEST PUSH2 0x13ED JUMPI PUSH1 0x40 MLOAD PUSH3 0x461BCD PUSH1 0xE5 SHL DUP2 MSTORE PUSH1 0x4 ADD PUSH2 0x6BD SWAP1 PUSH2 0x5472 JUMP JUMPDEST PUSH1 0x0 DUP3 DUP2 MSTORE PUSH1 0x8 PUSH1 0x20 SWAP1 DUP2 MSTORE PUSH1 0x40 SWAP2 DUP3 SWAP1 KECCAK256 DUP1 SLOAD DUP4 MLOAD PUSH1 0x1F PUSH1 0x2 PUSH1 0x0 NOT PUSH2 0x100 PUSH1 0x1 DUP7 AND ISZERO MUL ADD SWAP1 SWAP4 AND SWAP3 SWAP1 SWAP3 DIV SWAP2 DUP3 ADD DUP5 SWAP1 DIV DUP5 MUL DUP2 ADD DUP5 ADD SWAP1 SWAP5 MSTORE DUP1 DUP5 MSTORE PUSH1 0x60 SWAP4 SWAP3 DUP4 ADD DUP3 DUP3 DUP1 ISZERO PUSH2 0x1482 JUMPI DUP1 PUSH1 0x1F LT PUSH2 0x1457 JUMPI PUSH2 0x100 DUP1 DUP4 SLOAD DIV MUL DUP4 MSTORE SWAP2 PUSH1 0x20 ADD SWAP2 PUSH2 0x1482 JUMP JUMPDEST DUP3 ADD SWAP2 SWAP1 PUSH1 0x0 MSTORE PUSH1 0x20 PUSH1 0x0 KECCAK256 SWAP1 JUMPDEST DUP2 SLOAD DUP2 MSTORE SWAP1 PUSH1 0x1 ADD SWAP1 PUSH1 0x20 ADD DUP1 DUP4 GT PUSH2 0x1465 JUMPI DUP3 SWAP1 SUB PUSH1 0x1F AND DUP3 ADD SWAP2 JUMPDEST POP POP PUSH1 0x9 SLOAD SWAP4 SWAP5 POP POP POP POP PUSH1 0x2 PUSH1 0x0 NOT PUSH2 0x100 PUSH1 0x1 DUP5 AND ISZERO MUL ADD SWAP1 SWAP2 AND DIV PUSH2 0x14AB JUMPI SWAP1 POP PUSH2 0x5FB JUMP JUMPDEST DUP1 MLOAD ISZERO PUSH2 0x14DD JUMPI PUSH1 0x9 DUP2 PUSH1 0x40 MLOAD PUSH1 0x20 ADD PUSH2 0x14C6 SWAP3 SWAP2 SWAP1 PUSH2 0x4C28 JUMP JUMPDEST PUSH1 0x40 MLOAD PUSH1 0x20 DUP2 DUP4 SUB SUB DUP2 MSTORE SWAP1 PUSH1 0x40 MSTORE SWAP2 POP POP PUSH2 0x5FB JUMP JUMPDEST PUSH1 0x9 PUSH2 0x14E8 DUP5 PUSH2 0x23BB JUMP JUMPDEST PUSH1 0x40 MLOAD PUSH1 0x20 ADD PUSH2 0x14F9 SWAP3 SWAP2 SWAP1 PUSH2 0x4C28 JUMP JUMPDEST PUSH1 0x40 MLOAD PUSH1 0x20 DUP2 DUP4 SUB SUB DUP2 MSTORE SWAP1 PUSH1 0x40 MSTORE SWAP2 POP POP SWAP2 SWAP1 POP JUMP JUMPDEST PUSH1 0xB SLOAD DUP2 JUMP JUMPDEST PUSH1 0x17 SLOAD SWAP1 JUMP JUMPDEST PUSH1 0x60 PUSH2 0x1526 PUSH2 0x1981 JUMP JUMPDEST PUSH1 0xA SLOAD PUSH1 0x1 PUSH1 0x1 PUSH1 0xA0 SHL SUB SWAP1 DUP2 AND SWAP2 AND EQ PUSH2 0x1553 JUMPI PUSH1 0x40 MLOAD PUSH3 0x461BCD PUSH1 0xE5 SHL DUP2 MSTORE PUSH1 0x4 ADD PUSH2 0x6BD SWAP1 PUSH2 0x53BF JUMP JUMPDEST DUP2 MLOAD PUSH1 0x1 EQ PUSH2 0x1561 JUMPI PUSH1 0x0 DUP1 REVERT JUMPDEST DUP4 MLOAD PUSH1 0x2 EQ PUSH2 0x156F JUMPI PUSH1 0x0 DUP1 REVERT JUMPDEST PUSH1 0x2 DUP4 MLOAD LT ISZERO DUP1 ISZERO PUSH2 0x1583 JUMPI POP PUSH1 0x5 DUP4 MLOAD GT ISZERO JUMPDEST PUSH2 0x159F JUMPI PUSH1 0x40 MLOAD PUSH3 0x461BCD PUSH1 0xE5 SHL DUP2 MSTORE PUSH1 0x4 ADD PUSH2 0x6BD SWAP1 PUSH2 0x54C1 JUMP JUMPDEST PUSH1 0x0 PUSH2 0x15AD DUP7 DUP7 DUP7 DUP7 PUSH2 0x2495 JUMP JUMPDEST SWAP1 POP PUSH1 0x0 PUSH2 0x15D0 PUSH2 0x15C9 PUSH1 0x1 DUP8 MLOAD PUSH2 0x29F8 SWAP1 SWAP2 SWAP1 PUSH4 0xFFFFFFFF AND JUMP JUMPDEST DUP4 SWAP1 PUSH2 0x2A3A JUMP JUMPDEST SWAP1 POP PUSH1 0x60 PUSH2 0x15E9 PUSH1 0x1 DUP8 MLOAD PUSH2 0x29F8 SWAP1 SWAP2 SWAP1 PUSH4 0xFFFFFFFF AND JUMP JUMPDEST PUSH1 0x1 PUSH1 0x1 PUSH1 0x40 SHL SUB DUP2 GT DUP1 ISZERO PUSH2 0x15FE JUMPI PUSH1 0x0 DUP1 REVERT JUMPDEST POP PUSH1 0x40 MLOAD SWAP1 DUP1 DUP3 MSTORE DUP1 PUSH1 0x20 MUL PUSH1 0x20 ADD DUP3 ADD PUSH1 0x40 MSTORE DUP1 ISZERO PUSH2 0x1628 JUMPI DUP2 PUSH1 0x20 ADD PUSH1 0x20 DUP3 MUL DUP1 CALLDATASIZE DUP4 CALLDATACOPY ADD SWAP1 POP JUMPDEST POP SWAP1 POP DUP6 DUP8 PUSH1 0x1 JUMPDEST DUP3 MLOAD DUP2 LT ISZERO PUSH2 0x1738 JUMPI PUSH1 0xB SLOAD PUSH2 0x1716 SWAP1 PUSH2 0x164B SWAP1 PUSH1 0x1 PUSH2 0x29F8 JUMP JUMPDEST PUSH1 0x0 PUSH1 0x40 MLOAD DUP1 PUSH1 0x40 ADD PUSH1 0x40 MSTORE DUP1 DUP7 PUSH1 0x0 DUP2 MLOAD DUP2 LT PUSH2 0x1665 JUMPI INVALID JUMPDEST PUSH1 0x20 MUL PUSH1 0x20 ADD ADD MLOAD PUSH1 0x1 PUSH1 0x1 PUSH1 0xA0 SHL SUB AND PUSH1 0x1 PUSH1 0x1 PUSH1 0xA0 SHL SUB AND DUP2 MSTORE PUSH1 0x20 ADD DUP7 PUSH1 0x1 DUP2 MLOAD DUP2 LT PUSH2 0x1691 JUMPI INVALID JUMPDEST PUSH1 0x20 MUL PUSH1 0x20 ADD ADD MLOAD PUSH1 0x1 PUSH1 0x1 PUSH1 0xA0 SHL SUB AND PUSH1 0x1 PUSH1 0x1 PUSH1 0xA0 SHL SUB AND DUP2 MSTORE POP PUSH1 0x40 MLOAD DUP1 PUSH1 0x60 ADD PUSH1 0x40 MSTORE DUP1 DUP11 DUP2 MSTORE PUSH1 0x20 ADD PUSH2 0x1706 DUP9 PUSH1 0x0 DUP2 MLOAD DUP2 LT PUSH2 0x16CF JUMPI INVALID JUMPDEST PUSH1 0x20 MUL PUSH1 0x20 ADD ADD MLOAD DUP10 PUSH1 0x1 DUP2 MLOAD DUP2 LT PUSH2 0x16E4 JUMPI INVALID JUMPDEST PUSH1 0x20 MUL PUSH1 0x20 ADD ADD MLOAD DUP14 DUP13 DUP12 DUP2 MLOAD DUP2 LT PUSH2 0x16F9 JUMPI INVALID JUMPDEST PUSH1 0x20 MUL PUSH1 0x20 ADD ADD MLOAD PUSH2 0x2A7C JUMP JUMPDEST DUP2 MSTORE PUSH1 0x20 ADD PUSH1 0x0 DUP2 MSTORE POP DUP13 PUSH2 0x2BE7 JUMP JUMPDEST DUP5 PUSH1 0x1 DUP4 SUB DUP2 MLOAD DUP2 LT PUSH2 0x1725 JUMPI INVALID JUMPDEST PUSH1 0x20 SWAP1 DUP2 MUL SWAP2 SWAP1 SWAP2 ADD ADD MSTORE PUSH1 0x1 ADD PUSH2 0x1630 JUMP JUMPDEST POP SWAP2 SWAP5 POP POP POP POP POP JUMPDEST SWAP5 SWAP4 POP POP POP POP JUMP JUMPDEST PUSH1 0x0 DUP3 DUP2 MSTORE PUSH1 0x12 PUSH1 0x20 SWAP1 DUP2 MSTORE PUSH1 0x40 DUP1 DUP4 KECCAK256 DUP5 DUP5 MSTORE DUP3 MSTORE SWAP2 DUP3 SWAP1 KECCAK256 DUP1 SLOAD DUP4 MLOAD DUP2 DUP5 MUL DUP2 ADD DUP5 ADD SWAP1 SWAP5 MSTORE DUP1 DUP5 MSTORE PUSH1 0x60 SWAP4 SWAP3 DUP4 ADD DUP3 DUP3 DUP1 ISZERO PUSH2 0x17A7 JUMPI PUSH1 0x20 MUL DUP3 ADD SWAP2 SWAP1 PUSH1 0x0 MSTORE PUSH1 0x20 PUSH1 0x0 KECCAK256 SWAP1 JUMPDEST DUP2 SLOAD DUP2 MSTORE PUSH1 0x20 ADD SWAP1 PUSH1 0x1 ADD SWAP1 DUP1 DUP4 GT PUSH2 0x1793 JUMPI JUMPDEST POP POP POP POP POP SWAP1 POP SWAP3 SWAP2 POP POP JUMP JUMPDEST PUSH1 0xC SLOAD DUP2 JUMP JUMPDEST PUSH1 0x1 PUSH1 0x1 PUSH1 0xA0 SHL SUB SWAP2 DUP3 AND PUSH1 0x0 SWAP1 DUP2 MSTORE PUSH1 0x5 PUSH1 0x20 SWAP1 DUP2 MSTORE PUSH1 0x40 DUP1 DUP4 KECCAK256 SWAP4 SWAP1 SWAP5 AND DUP3 MSTORE SWAP2 SWAP1 SWAP2 MSTORE KECCAK256 SLOAD PUSH1 0xFF AND SWAP1 JUMP JUMPDEST PUSH2 0x17F0 PUSH2 0x1981 JUMP JUMPDEST PUSH1 0xA SLOAD PUSH1 0x1 PUSH1 0x1 PUSH1 0xA0 SHL SUB SWAP1 DUP2 AND SWAP2 AND EQ PUSH2 0x181D JUMPI PUSH1 0x40 MLOAD PUSH3 0x461BCD PUSH1 0xE5 SHL DUP2 MSTORE PUSH1 0x4 ADD PUSH2 0x6BD SWAP1 PUSH2 0x53BF JUMP JUMPDEST PUSH1 0x1 PUSH1 0x1 PUSH1 0xA0 SHL SUB DUP2 AND PUSH2 0x1843 JUMPI PUSH1 0x40 MLOAD PUSH3 0x461BCD PUSH1 0xE5 SHL DUP2 MSTORE PUSH1 0x4 ADD PUSH2 0x6BD SWAP1 PUSH2 0x4F0C JUMP JUMPDEST PUSH1 0xA SLOAD PUSH1 0x40 MLOAD PUSH1 0x1 PUSH1 0x1 PUSH1 0xA0 SHL SUB DUP1 DUP5 AND SWAP3 AND SWAP1 PUSH32 0x8BE0079C531659141344CD1FD0A4F28419497F9722A3DAAFE3B4186F6B6457E0 SWAP1 PUSH1 0x0 SWAP1 LOG3 PUSH1 0xA DUP1 SLOAD PUSH1 0x1 PUSH1 0x1 PUSH1 0xA0 SHL SUB NOT AND PUSH1 0x1 PUSH1 0x1 PUSH1 0xA0 SHL SUB SWAP3 SWAP1 SWAP3 AND SWAP2 SWAP1 SWAP2 OR SWAP1 SSTORE JUMP JUMPDEST PUSH2 0x18A7 PUSH2 0x1981 JUMP JUMPDEST PUSH1 0xA SLOAD PUSH1 0x1 PUSH1 0x1 PUSH1 0xA0 SHL SUB SWAP1 DUP2 AND SWAP2 AND EQ PUSH2 0x18D4 JUMPI PUSH1 0x40 MLOAD PUSH3 0x461BCD PUSH1 0xE5 SHL DUP2 MSTORE PUSH1 0x4 ADD PUSH2 0x6BD SWAP1 PUSH2 0x53BF JUMP JUMPDEST PUSH2 0x18DE DUP3 DUP3 PUSH2 0x323E JUMP JUMPDEST POP POP JUMP JUMPDEST PUSH1 0xD SLOAD PUSH1 0x1 PUSH1 0x1 PUSH1 0xA0 SHL SUB AND DUP2 JUMP JUMPDEST PUSH1 0x1A PUSH1 0x20 MSTORE PUSH1 0x0 SWAP1 DUP2 MSTORE PUSH1 0x40 SWAP1 KECCAK256 SLOAD DUP2 JUMP JUMPDEST PUSH1 0x0 PUSH2 0x973 DUP4 DUP4 PUSH2 0x3683 JUMP JUMPDEST PUSH1 0x0 PUSH2 0x1925 DUP5 DUP5 PUSH1 0x1 PUSH1 0x1 PUSH1 0xA0 SHL SUB DUP6 AND PUSH2 0x36CD JUMP JUMPDEST SWAP1 POP JUMPDEST SWAP4 SWAP3 POP POP POP JUMP JUMPDEST PUSH1 0x0 DUP2 EXTCODEHASH PUSH32 0xC5D2460186F7233C927E7DB2DCC703C0E500B653CA82273B7BFAD8045D85A470 DUP2 DUP2 EQ DUP1 ISZERO SWAP1 PUSH2 0x1741 JUMPI POP POP ISZERO ISZERO SWAP3 SWAP2 POP POP JUMP JUMPDEST PUSH1 0x0 PUSH2 0x973 DUP4 DUP4 PUSH2 0x3764 JUMP JUMPDEST PUSH1 0x0 PUSH2 0x976 PUSH1 0x2 DUP4 PUSH2 0x1968 JUMP JUMPDEST CALLER SWAP1 JUMP JUMPDEST PUSH1 0x0 DUP2 DUP2 MSTORE PUSH1 0x4 PUSH1 0x20 MSTORE PUSH1 0x40 SWAP1 KECCAK256 DUP1 SLOAD PUSH1 0x1 PUSH1 0x1 PUSH1 0xA0 SHL SUB NOT AND PUSH1 0x1 PUSH1 0x1 PUSH1 0xA0 SHL SUB DUP5 AND SWAP1 DUP2 OR SWAP1 SWAP2 SSTORE DUP2 SWAP1 PUSH2 0x19BA DUP3 PUSH2 0xBE6 JUMP JUMPDEST PUSH1 0x1 PUSH1 0x1 PUSH1 0xA0 SHL SUB AND PUSH32 0x8C5BE1E5EBEC7D5BD14F71427D1E84F3DD0314C0F7B2291E5B200AC8C7C3B925 PUSH1 0x40 MLOAD PUSH1 0x40 MLOAD DUP1 SWAP2 SUB SWAP1 LOG4 POP POP JUMP JUMPDEST PUSH1 0x0 PUSH2 0x976 DUP3 PUSH2 0x377C JUMP JUMPDEST PUSH1 0x0 PUSH2 0x1A09 DUP3 PUSH2 0x1974 JUMP JUMPDEST PUSH2 0x1A25 JUMPI PUSH1 0x40 MLOAD PUSH3 0x461BCD PUSH1 0xE5 SHL DUP2 MSTORE PUSH1 0x4 ADD PUSH2 0x6BD SWAP1 PUSH2 0x512F JUMP JUMPDEST PUSH1 0x0 PUSH2 0x1A30 DUP4 PUSH2 0xBE6 JUMP JUMPDEST SWAP1 POP DUP1 PUSH1 0x1 PUSH1 0x1 PUSH1 0xA0 SHL SUB AND DUP5 PUSH1 0x1 PUSH1 0x1 PUSH1 0xA0 SHL SUB AND EQ DUP1 PUSH2 0x1A6B JUMPI POP DUP4 PUSH1 0x1 PUSH1 0x1 PUSH1 0xA0 SHL SUB AND PUSH2 0x1A60 DUP5 PUSH2 0x696 JUMP JUMPDEST PUSH1 0x1 PUSH1 0x1 PUSH1 0xA0 SHL SUB AND EQ JUMPDEST DUP1 PUSH2 0x1741 JUMPI POP PUSH2 0x1741 DUP2 DUP6 PUSH2 0x17BA JUMP JUMPDEST DUP3 PUSH1 0x1 PUSH1 0x1 PUSH1 0xA0 SHL SUB AND PUSH2 0x1A8E DUP3 PUSH2 0xBE6 JUMP JUMPDEST PUSH1 0x1 PUSH1 0x1 PUSH1 0xA0 SHL SUB AND EQ PUSH2 0x1AB4 JUMPI PUSH1 0x40 MLOAD PUSH3 0x461BCD PUSH1 0xE5 SHL DUP2 MSTORE PUSH1 0x4 ADD PUSH2 0x6BD SWAP1 PUSH2 0x5429 JUMP JUMPDEST PUSH1 0x1 PUSH1 0x1 PUSH1 0xA0 SHL SUB DUP3 AND PUSH2 0x1ADA JUMPI PUSH1 0x40 MLOAD PUSH3 0x461BCD PUSH1 0xE5 SHL DUP2 MSTORE PUSH1 0x4 ADD PUSH2 0x6BD SWAP1 PUSH2 0x507F JUMP JUMPDEST PUSH2 0x1AE5 DUP4 DUP4 DUP4 PUSH2 0x775 JUMP JUMPDEST PUSH2 0x1AF0 PUSH1 0x0 DUP3 PUSH2 0x1985 JUMP JUMPDEST PUSH1 0x1 PUSH1 0x1 PUSH1 0xA0 SHL SUB DUP4 AND PUSH1 0x0 SWAP1 DUP2 MSTORE PUSH1 0x1 PUSH1 0x20 MSTORE PUSH1 0x40 SWAP1 KECCAK256 PUSH2 0x1B12 SWAP1 DUP3 PUSH2 0x3780 JUMP JUMPDEST POP PUSH1 0x1 PUSH1 0x1 PUSH1 0xA0 SHL SUB DUP3 AND PUSH1 0x0 SWAP1 DUP2 MSTORE PUSH1 0x1 PUSH1 0x20 MSTORE PUSH1 0x40 SWAP1 KECCAK256 PUSH2 0x1B35 SWAP1 DUP3 PUSH2 0x1903 JUMP JUMPDEST POP PUSH2 0x1B42 PUSH1 0x2 DUP3 DUP5 PUSH2 0x190F JUMP JUMPDEST POP DUP1 DUP3 PUSH1 0x1 PUSH1 0x1 PUSH1 0xA0 SHL SUB AND DUP5 PUSH1 0x1 PUSH1 0x1 PUSH1 0xA0 SHL SUB AND PUSH32 0xDDF252AD1BE2C89B69C2B068FC378DAA952BA7F163C4A11628F55A4DF523B3EF PUSH1 0x40 MLOAD PUSH1 0x40 MLOAD DUP1 SWAP2 SUB SWAP1 LOG4 POP POP POP JUMP JUMPDEST PUSH1 0x0 PUSH2 0x973 DUP4 DUP4 PUSH2 0x378C JUMP JUMPDEST PUSH1 0x0 DUP1 DUP1 DUP1 PUSH2 0x1BA4 DUP7 DUP7 PUSH2 0x37BE JUMP JUMPDEST SWAP1 SWAP8 SWAP1 SWAP7 POP SWAP5 POP POP POP POP POP JUMP JUMPDEST DUP1 MLOAD PUSH2 0x18DE SWAP1 PUSH1 0x9 SWAP1 PUSH1 0x20 DUP5 ADD SWAP1 PUSH2 0x43BF JUMP JUMPDEST PUSH1 0x0 DUP1 PUSH1 0x0 DUP6 PUSH1 0xC0 ADD MLOAD PUSH1 0x0 DUP2 MLOAD DUP2 LT PUSH2 0x1BDA JUMPI INVALID JUMPDEST PUSH1 0x20 MUL PUSH1 0x20 ADD ADD MLOAD GT ISZERO PUSH2 0x1C1F JUMPI DUP5 PUSH1 0xC0 ADD MLOAD PUSH1 0x0 DUP2 MLOAD DUP2 LT PUSH2 0x1BF9 JUMPI INVALID JUMPDEST PUSH1 0x20 MUL PUSH1 0x20 ADD ADD MLOAD TIMESTAMP LT PUSH2 0x1C1F JUMPI PUSH1 0x40 MLOAD PUSH3 0x461BCD PUSH1 0xE5 SHL DUP2 MSTORE PUSH1 0x4 ADD PUSH2 0x6BD SWAP1 PUSH2 0x4DB6 JUMP JUMPDEST PUSH1 0x60 DUP6 ADD MLOAD ISZERO PUSH2 0x1C41 JUMPI PUSH1 0x40 MLOAD PUSH3 0x461BCD PUSH1 0xE5 SHL DUP2 MSTORE PUSH1 0x4 ADD PUSH2 0x6BD SWAP1 PUSH2 0x562B JUMP JUMPDEST PUSH1 0x80 DUP6 ADD MLOAD PUSH2 0x1C57 SWAP1 PUSH1 0x0 JUMPDEST PUSH1 0x20 MUL ADD MLOAD PUSH2 0x8FB JUMP JUMPDEST PUSH1 0x1 PUSH1 0x1 PUSH1 0xA0 SHL SUB AND PUSH4 0xD9CAED12 ADDRESS DUP8 PUSH1 0x80 ADD MLOAD PUSH1 0x0 PUSH1 0x2 DUP2 LT PUSH2 0x1C77 JUMPI INVALID JUMPDEST PUSH1 0x20 MUL ADD MLOAD PUSH1 0xA0 DUP10 ADD MLOAD MLOAD PUSH1 0x40 MLOAD PUSH1 0x1 PUSH1 0x1 PUSH1 0xE0 SHL SUB NOT PUSH1 0xE0 DUP7 SWAP1 SHL AND DUP2 MSTORE PUSH2 0x1CA5 SWAP4 SWAP3 SWAP2 SWAP1 PUSH1 0x4 ADD PUSH2 0x4CF0 JUMP JUMPDEST PUSH1 0x0 PUSH1 0x40 MLOAD DUP1 DUP4 SUB DUP2 PUSH1 0x0 DUP8 DUP1 EXTCODESIZE ISZERO DUP1 ISZERO PUSH2 0x1CBF JUMPI PUSH1 0x0 DUP1 REVERT JUMPDEST POP GAS CALL ISZERO DUP1 ISZERO PUSH2 0x1CD3 JUMPI RETURNDATASIZE PUSH1 0x0 DUP1 RETURNDATACOPY RETURNDATASIZE PUSH1 0x0 REVERT JUMPDEST POP POP DUP5 MLOAD PUSH1 0x0 SWAP3 POP PUSH2 0x1CE7 SWAP2 POP PUSH1 0x1 PUSH2 0x29F8 JUMP JUMPDEST PUSH1 0x80 DUP8 ADD MLOAD MLOAD DUP6 MLOAD SWAP2 SWAP3 POP PUSH1 0x1 PUSH1 0x1 PUSH1 0xA0 SHL SUB AND SWAP1 DUP6 SWAP1 PUSH1 0x0 SWAP1 PUSH2 0x1D07 JUMPI INVALID JUMPDEST PUSH1 0x20 MUL PUSH1 0x20 ADD ADD MLOAD PUSH1 0x1 PUSH1 0x1 PUSH1 0xA0 SHL SUB AND EQ DUP1 ISZERO PUSH2 0x1D54 JUMPI POP PUSH1 0x80 DUP7 ADD MLOAD PUSH1 0x1 PUSH1 0x20 MUL ADD MLOAD PUSH1 0x1 PUSH1 0x1 PUSH1 0xA0 SHL SUB AND DUP5 DUP3 DUP2 MLOAD DUP2 LT PUSH2 0x1D41 JUMPI INVALID JUMPDEST PUSH1 0x20 MUL PUSH1 0x20 ADD ADD MLOAD PUSH1 0x1 PUSH1 0x1 PUSH1 0xA0 SHL SUB AND EQ JUMPDEST PUSH2 0x1D70 JUMPI PUSH1 0x40 MLOAD PUSH3 0x461BCD PUSH1 0xE5 SHL DUP2 MSTORE PUSH1 0x4 ADD PUSH2 0x6BD SWAP1 PUSH2 0x51CE JUMP JUMPDEST PUSH1 0x18 PUSH1 0x0 DUP6 PUSH1 0x0 DUP2 MLOAD DUP2 LT PUSH2 0x1D81 JUMPI INVALID JUMPDEST PUSH1 0x20 SWAP1 DUP2 MUL SWAP2 SWAP1 SWAP2 ADD DUP2 ADD MLOAD PUSH1 0x1 PUSH1 0x1 PUSH1 0xA0 SHL SUB AND DUP3 MSTORE DUP2 ADD SWAP2 SWAP1 SWAP2 MSTORE PUSH1 0x40 ADD PUSH1 0x0 KECCAK256 SLOAD PUSH1 0xFF AND DUP1 ISZERO PUSH2 0x1DE7 JUMPI POP PUSH1 0x18 PUSH1 0x0 DUP6 DUP4 DUP2 MLOAD DUP2 LT PUSH2 0x1DBF JUMPI INVALID JUMPDEST PUSH1 0x20 SWAP1 DUP2 MUL SWAP2 SWAP1 SWAP2 ADD DUP2 ADD MLOAD PUSH1 0x1 PUSH1 0x1 PUSH1 0xA0 SHL SUB AND DUP3 MSTORE DUP2 ADD SWAP2 SWAP1 SWAP2 MSTORE PUSH1 0x40 ADD PUSH1 0x0 KECCAK256 SLOAD PUSH1 0xFF AND JUMPDEST PUSH2 0x1E03 JUMPI PUSH1 0x40 MLOAD PUSH3 0x461BCD PUSH1 0xE5 SHL DUP2 MSTORE PUSH1 0x4 ADD PUSH2 0x6BD SWAP1 PUSH2 0x504F JUMP JUMPDEST PUSH1 0x0 DUP6 PUSH1 0x1 PUSH1 0x1 PUSH1 0xA0 SHL SUB AND PUSH4 0xD06CA61F DUP9 PUSH1 0xA0 ADD MLOAD PUSH1 0x0 PUSH1 0x3 DUP2 LT PUSH2 0x1E25 JUMPI INVALID JUMPDEST PUSH1 0x20 MUL ADD MLOAD DUP8 PUSH1 0x40 MLOAD DUP4 PUSH4 0xFFFFFFFF AND PUSH1 0xE0 SHL DUP2 MSTORE PUSH1 0x4 ADD PUSH2 0x1E48 SWAP3 SWAP2 SWAP1 PUSH2 0x5831 JUMP JUMPDEST PUSH1 0x0 PUSH1 0x40 MLOAD DUP1 DUP4 SUB DUP2 DUP7 DUP1 EXTCODESIZE ISZERO DUP1 ISZERO PUSH2 0x1E60 JUMPI PUSH1 0x0 DUP1 REVERT JUMPDEST POP GAS STATICCALL ISZERO DUP1 ISZERO PUSH2 0x1E74 JUMPI RETURNDATASIZE PUSH1 0x0 DUP1 RETURNDATACOPY RETURNDATASIZE PUSH1 0x0 REVERT JUMPDEST POP POP POP POP PUSH1 0x40 MLOAD RETURNDATASIZE PUSH1 0x0 DUP3 RETURNDATACOPY PUSH1 0x1F RETURNDATASIZE SWAP1 DUP2 ADD PUSH1 0x1F NOT AND DUP3 ADD PUSH1 0x40 MSTORE PUSH2 0x1E9C SWAP2 SWAP1 DUP2 ADD SWAP1 PUSH2 0x49B3 JUMP JUMPDEST DUP3 DUP2 MLOAD DUP2 LT PUSH2 0x1EA7 JUMPI INVALID JUMPDEST PUSH1 0x20 SWAP1 DUP2 MUL SWAP2 SWAP1 SWAP2 ADD ADD MLOAD PUSH1 0xD SLOAD PUSH1 0x40 MLOAD PUSH4 0x4B38706F PUSH1 0xE1 SHL DUP2 MSTORE SWAP2 SWAP3 POP PUSH1 0x0 SWAP2 PUSH1 0x1 PUSH1 0x1 PUSH1 0xA0 SHL SUB SWAP1 SWAP2 AND SWAP1 PUSH4 0x9670E0DE SWAP1 PUSH2 0x1EE8 SWAP1 DUP6 SWAP1 PUSH1 0x4 ADD PUSH2 0x5828 JUMP JUMPDEST PUSH1 0x20 PUSH1 0x40 MLOAD DUP1 DUP4 SUB DUP2 DUP7 DUP1 EXTCODESIZE ISZERO DUP1 ISZERO PUSH2 0x1F00 JUMPI PUSH1 0x0 DUP1 REVERT JUMPDEST POP GAS STATICCALL ISZERO DUP1 ISZERO PUSH2 0x1F14 JUMPI RETURNDATASIZE PUSH1 0x0 DUP1 RETURNDATACOPY RETURNDATASIZE PUSH1 0x0 REVERT JUMPDEST POP POP POP POP PUSH1 0x40 MLOAD RETURNDATASIZE PUSH1 0x1F NOT PUSH1 0x1F DUP3 ADD AND DUP3 ADD DUP1 PUSH1 0x40 MSTORE POP DUP2 ADD SWAP1 PUSH2 0x1F38 SWAP2 SWAP1 PUSH2 0x4AE0 JUMP JUMPDEST PUSH1 0x80 DUP10 ADD MLOAD MLOAD PUSH1 0xA0 DUP11 ADD MLOAD MLOAD PUSH1 0x40 MLOAD PUSH4 0x95EA7B3 PUSH1 0xE0 SHL DUP2 MSTORE SWAP3 SWAP4 POP PUSH1 0x1 PUSH1 0x1 PUSH1 0xA0 SHL SUB SWAP1 SWAP2 AND SWAP2 PUSH4 0x95EA7B3 SWAP2 PUSH2 0x1F75 SWAP2 DUP12 SWAP2 SWAP1 PUSH1 0x4 ADD PUSH2 0x4D14 JUMP JUMPDEST PUSH1 0x20 PUSH1 0x40 MLOAD DUP1 DUP4 SUB DUP2 PUSH1 0x0 DUP8 DUP1 EXTCODESIZE ISZERO DUP1 ISZERO PUSH2 0x1F8F JUMPI PUSH1 0x0 DUP1 REVERT JUMPDEST POP GAS CALL ISZERO DUP1 ISZERO PUSH2 0x1FA3 JUMPI RETURNDATASIZE PUSH1 0x0 DUP1 RETURNDATACOPY RETURNDATASIZE PUSH1 0x0 REVERT JUMPDEST POP POP POP POP PUSH1 0x40 MLOAD RETURNDATASIZE PUSH1 0x1F NOT PUSH1 0x1F DUP3 ADD AND DUP3 ADD DUP1 PUSH1 0x40 MSTORE POP DUP2 ADD SWAP1 PUSH2 0x1FC7 SWAP2 SWAP1 PUSH2 0x4A42 JUMP JUMPDEST POP PUSH1 0x0 DUP8 PUSH1 0x1 PUSH1 0x1 PUSH1 0xA0 SHL SUB AND PUSH4 0x38ED1739 DUP11 PUSH1 0xA0 ADD MLOAD PUSH1 0x0 PUSH1 0x3 DUP2 LT PUSH2 0x1FEA JUMPI INVALID JUMPDEST PUSH1 0x20 MUL ADD MLOAD DUP5 DUP11 ADDRESS PUSH2 0x1FFD TIMESTAMP PUSH1 0x3C PUSH2 0x381A JUMP JUMPDEST PUSH1 0x40 MLOAD DUP7 PUSH4 0xFFFFFFFF AND PUSH1 0xE0 SHL DUP2 MSTORE PUSH1 0x4 ADD PUSH2 0x201D SWAP6 SWAP5 SWAP4 SWAP3 SWAP2 SWAP1 PUSH2 0x584A JUMP JUMPDEST PUSH1 0x0 PUSH1 0x40 MLOAD DUP1 DUP4 SUB DUP2 PUSH1 0x0 DUP8 DUP1 EXTCODESIZE ISZERO DUP1 ISZERO PUSH2 0x2037 JUMPI PUSH1 0x0 DUP1 REVERT JUMPDEST POP GAS CALL ISZERO DUP1 ISZERO PUSH2 0x204B JUMPI RETURNDATASIZE PUSH1 0x0 DUP1 RETURNDATACOPY RETURNDATASIZE PUSH1 0x0 REVERT JUMPDEST POP POP POP POP PUSH1 0x40 MLOAD RETURNDATASIZE PUSH1 0x0 DUP3 RETURNDATACOPY PUSH1 0x1F RETURNDATASIZE SWAP1 DUP2 ADD PUSH1 0x1F NOT AND DUP3 ADD PUSH1 0x40 MSTORE PUSH2 0x2073 SWAP2 SWAP1 DUP2 ADD SWAP1 PUSH2 0x49B3 JUMP JUMPDEST DUP5 DUP2 MLOAD DUP2 LT PUSH2 0x207E JUMPI INVALID JUMPDEST PUSH1 0x20 MUL PUSH1 0x20 ADD ADD MLOAD SWAP1 POP PUSH1 0x0 PUSH2 0x209E DUP11 PUSH1 0x80 ADD MLOAD PUSH1 0x1 PUSH1 0x2 DUP2 LT PUSH2 0x1C4D JUMPI INVALID JUMPDEST SWAP1 POP PUSH1 0x0 DUP2 PUSH1 0x1 PUSH1 0x1 PUSH1 0xA0 SHL SUB AND PUSH4 0x5017F9FB DUP7 PUSH1 0x40 MLOAD DUP3 PUSH4 0xFFFFFFFF AND PUSH1 0xE0 SHL DUP2 MSTORE PUSH1 0x4 ADD PUSH2 0x20CE SWAP2 SWAP1 PUSH2 0x5828 JUMP JUMPDEST PUSH1 0x20 PUSH1 0x40 MLOAD DUP1 DUP4 SUB DUP2 DUP7 DUP1 EXTCODESIZE ISZERO DUP1 ISZERO PUSH2 0x20E6 JUMPI PUSH1 0x0 DUP1 REVERT JUMPDEST POP GAS STATICCALL ISZERO DUP1 ISZERO PUSH2 0x20FA JUMPI RETURNDATASIZE PUSH1 0x0 DUP1 RETURNDATACOPY RETURNDATASIZE PUSH1 0x0 REVERT JUMPDEST POP POP POP POP PUSH1 0x40 MLOAD RETURNDATASIZE PUSH1 0x1F NOT PUSH1 0x1F DUP3 ADD AND DUP3 ADD DUP1 PUSH1 0x40 MSTORE POP DUP2 ADD SWAP1 PUSH2 0x211E SWAP2 SWAP1 PUSH2 0x4AE0 JUMP JUMPDEST SWAP1 POP PUSH2 0x21C2 PUSH1 0xD PUSH1 0x0 SWAP1 SLOAD SWAP1 PUSH2 0x100 EXP SWAP1 DIV PUSH1 0x1 PUSH1 0x1 PUSH1 0xA0 SHL SUB AND PUSH1 0x1 PUSH1 0x1 PUSH1 0xA0 SHL SUB AND PUSH4 0x3AAA36E6 PUSH1 0x40 MLOAD DUP2 PUSH4 0xFFFFFFFF AND PUSH1 0xE0 SHL DUP2 MSTORE PUSH1 0x4 ADD PUSH1 0x20 PUSH1 0x40 MLOAD DUP1 DUP4 SUB DUP2 DUP7 DUP1 EXTCODESIZE ISZERO DUP1 ISZERO PUSH2 0x2171 JUMPI PUSH1 0x0 DUP1 REVERT JUMPDEST POP GAS STATICCALL ISZERO DUP1 ISZERO PUSH2 0x2185 JUMPI RETURNDATASIZE PUSH1 0x0 DUP1 RETURNDATACOPY RETURNDATASIZE PUSH1 0x0 REVERT JUMPDEST POP POP POP POP PUSH1 0x40 MLOAD RETURNDATASIZE PUSH1 0x1F NOT PUSH1 0x1F DUP3 ADD AND DUP3 ADD DUP1 PUSH1 0x40 MSTORE POP DUP2 ADD SWAP1 PUSH2 0x21A9 SWAP2 SWAP1 PUSH2 0x4777 JUMP JUMPDEST PUSH1 0x80 DUP14 ADD MLOAD PUSH1 0x20 ADD MLOAD PUSH1 0x1 PUSH1 0x1 PUSH1 0xA0 SHL SUB AND SWAP1 DUP4 PUSH2 0x383F JUMP JUMPDEST PUSH2 0x21CC DUP6 DUP3 PUSH2 0x29F8 JUMP JUMPDEST PUSH1 0xE DUP13 PUSH1 0x40 ADD MLOAD DUP2 SLOAD DUP2 LT PUSH2 0x21DD JUMPI INVALID JUMPDEST SWAP1 PUSH1 0x0 MSTORE PUSH1 0x20 PUSH1 0x0 KECCAK256 SWAP1 PUSH1 0xA MUL ADD PUSH1 0x6 ADD PUSH1 0x1 PUSH1 0x3 DUP2 LT PUSH2 0x21FA JUMPI INVALID JUMPDEST ADD SSTORE PUSH1 0x80 DUP12 ADD MLOAD PUSH1 0x1 PUSH1 0x20 MUL ADD MLOAD PUSH1 0x1 PUSH1 0x1 PUSH1 0xA0 SHL SUB AND PUSH4 0x95EA7B3 DUP4 PUSH1 0xE DUP15 PUSH1 0x40 ADD MLOAD DUP2 SLOAD DUP2 LT PUSH2 0x2228 JUMPI INVALID JUMPDEST SWAP1 PUSH1 0x0 MSTORE PUSH1 0x20 PUSH1 0x0 KECCAK256 SWAP1 PUSH1 0xA MUL ADD PUSH1 0x6 ADD PUSH1 0x1 PUSH1 0x3 DUP2 LT PUSH2 0x2245 JUMPI INVALID JUMPDEST ADD SLOAD PUSH1 0x40 MLOAD DUP4 PUSH4 0xFFFFFFFF AND PUSH1 0xE0 SHL DUP2 MSTORE PUSH1 0x4 ADD PUSH2 0x2264 SWAP3 SWAP2 SWAP1 PUSH2 0x4D14 JUMP JUMPDEST PUSH1 0x20 PUSH1 0x40 MLOAD DUP1 DUP4 SUB DUP2 PUSH1 0x0 DUP8 DUP1 EXTCODESIZE ISZERO DUP1 ISZERO PUSH2 0x227E JUMPI PUSH1 0x0 DUP1 REVERT JUMPDEST POP GAS CALL ISZERO DUP1 ISZERO PUSH2 0x2292 JUMPI RETURNDATASIZE PUSH1 0x0 DUP1 RETURNDATACOPY RETURNDATASIZE PUSH1 0x0 REVERT JUMPDEST POP POP POP POP PUSH1 0x40 MLOAD RETURNDATASIZE PUSH1 0x1F NOT PUSH1 0x1F DUP3 ADD AND DUP3 ADD DUP1 PUSH1 0x40 MSTORE POP DUP2 ADD SWAP1 PUSH2 0x22B6 SWAP2 SWAP1 PUSH2 0x4A42 JUMP JUMPDEST POP DUP2 PUSH1 0x1 PUSH1 0x1 PUSH1 0xA0 SHL SUB AND PUSH4 0x8340F549 ADDRESS DUP14 PUSH1 0x80 ADD MLOAD PUSH1 0x1 PUSH1 0x2 DUP2 LT PUSH2 0x22D8 JUMPI INVALID JUMPDEST PUSH1 0x20 MUL ADD MLOAD PUSH1 0xE DUP16 PUSH1 0x40 ADD MLOAD DUP2 SLOAD DUP2 LT PUSH2 0x22EE JUMPI INVALID JUMPDEST SWAP1 PUSH1 0x0 MSTORE PUSH1 0x20 PUSH1 0x0 KECCAK256 SWAP1 PUSH1 0xA MUL ADD PUSH1 0x6 ADD PUSH1 0x1 PUSH1 0x3 DUP2 LT PUSH2 0x230B JUMPI INVALID JUMPDEST ADD SLOAD PUSH1 0x40 MLOAD DUP5 PUSH4 0xFFFFFFFF AND PUSH1 0xE0 SHL DUP2 MSTORE PUSH1 0x4 ADD PUSH2 0x232B SWAP4 SWAP3 SWAP2 SWAP1 PUSH2 0x4CF0 JUMP JUMPDEST PUSH1 0x0 PUSH1 0x40 MLOAD DUP1 DUP4 SUB DUP2 PUSH1 0x0 DUP8 DUP1 EXTCODESIZE ISZERO DUP1 ISZERO PUSH2 0x2345 JUMPI PUSH1 0x0 DUP1 REVERT JUMPDEST POP GAS CALL ISZERO DUP1 ISZERO PUSH2 0x2359 JUMPI RETURNDATASIZE PUSH1 0x0 DUP1 RETURNDATACOPY RETURNDATASIZE PUSH1 0x0 REVERT JUMPDEST POP POP POP POP PUSH2 0x236A DUP12 PUSH1 0x40 ADD MLOAD PUSH2 0x3895 JUMP JUMPDEST POP SWAP2 SWAP11 SWAP1 SWAP10 POP SWAP8 POP POP POP POP POP POP POP POP JUMP JUMPDEST PUSH1 0x0 PUSH2 0x1925 DUP5 DUP5 DUP5 PUSH2 0x399B JUMP JUMPDEST PUSH2 0x2393 DUP5 DUP5 DUP5 PUSH2 0x1A7B JUMP JUMPDEST PUSH2 0x239F DUP5 DUP5 DUP5 DUP5 PUSH2 0x39FA JUMP JUMPDEST PUSH2 0x1246 JUMPI PUSH1 0x40 MLOAD PUSH3 0x461BCD PUSH1 0xE5 SHL DUP2 MSTORE PUSH1 0x4 ADD PUSH2 0x6BD SWAP1 PUSH2 0x4EBA JUMP JUMPDEST PUSH1 0x60 DUP2 PUSH2 0x23E0 JUMPI POP PUSH1 0x40 DUP1 MLOAD DUP1 DUP3 ADD SWAP1 SWAP2 MSTORE PUSH1 0x1 DUP2 MSTORE PUSH1 0x3 PUSH1 0xFC SHL PUSH1 0x20 DUP3 ADD MSTORE PUSH2 0x5FB JUMP JUMPDEST DUP2 PUSH1 0x0 JUMPDEST DUP2 ISZERO PUSH2 0x23F8 JUMPI PUSH1 0x1 ADD PUSH1 0xA DUP3 DIV SWAP2 POP PUSH2 0x23E4 JUMP JUMPDEST PUSH1 0x60 DUP2 PUSH1 0x1 PUSH1 0x1 PUSH1 0x40 SHL SUB DUP2 GT DUP1 ISZERO PUSH2 0x2410 JUMPI PUSH1 0x0 DUP1 REVERT JUMPDEST POP PUSH1 0x40 MLOAD SWAP1 DUP1 DUP3 MSTORE DUP1 PUSH1 0x1F ADD PUSH1 0x1F NOT AND PUSH1 0x20 ADD DUP3 ADD PUSH1 0x40 MSTORE DUP1 ISZERO PUSH2 0x243B JUMPI PUSH1 0x20 DUP3 ADD DUP2 DUP1 CALLDATASIZE DUP4 CALLDATACOPY ADD SWAP1 POP JUMPDEST POP DUP6 SWAP4 POP SWAP1 POP PUSH1 0x0 NOT DUP3 ADD JUMPDEST DUP4 ISZERO PUSH2 0x248C JUMPI PUSH1 0xA DUP5 MOD PUSH1 0x30 ADD PUSH1 0xF8 SHL DUP3 DUP3 DUP1 PUSH1 0x1 SWAP1 SUB SWAP4 POP DUP2 MLOAD DUP2 LT PUSH2 0x246A JUMPI INVALID JUMPDEST PUSH1 0x20 ADD ADD SWAP1 PUSH1 0x1 PUSH1 0x1 PUSH1 0xF8 SHL SUB NOT AND SWAP1 DUP2 PUSH1 0x0 BYTE SWAP1 MSTORE8 POP PUSH1 0xA DUP5 DIV SWAP4 POP PUSH2 0x2447 JUMP JUMPDEST POP SWAP5 SWAP4 POP POP POP POP JUMP JUMPDEST PUSH1 0x0 PUSH1 0xC SLOAD PUSH1 0xB SLOAD LT PUSH2 0x24BA JUMPI PUSH1 0x40 MLOAD PUSH3 0x461BCD PUSH1 0xE5 SHL DUP2 MSTORE PUSH1 0x4 ADD PUSH2 0x6BD SWAP1 PUSH2 0x56BE JUMP JUMPDEST PUSH1 0x1A PUSH1 0x0 DUP6 PUSH1 0x0 DUP2 MLOAD DUP2 LT PUSH2 0x24CB JUMPI INVALID JUMPDEST PUSH1 0x20 MUL PUSH1 0x20 ADD ADD MLOAD PUSH1 0x1 PUSH1 0x1 PUSH1 0xA0 SHL SUB AND PUSH1 0x1 PUSH1 0x1 PUSH1 0xA0 SHL SUB AND DUP2 MSTORE PUSH1 0x20 ADD SWAP1 DUP2 MSTORE PUSH1 0x20 ADD PUSH1 0x0 KECCAK256 SLOAD DUP4 PUSH1 0x0 DUP2 MLOAD DUP2 LT PUSH2 0x2501 JUMPI INVALID JUMPDEST PUSH1 0x20 MUL PUSH1 0x20 ADD ADD MLOAD LT ISZERO PUSH2 0x2527 JUMPI PUSH1 0x40 MLOAD PUSH3 0x461BCD PUSH1 0xE5 SHL DUP2 MSTORE PUSH1 0x4 ADD PUSH2 0x6BD SWAP1 PUSH2 0x4F89 JUMP JUMPDEST PUSH2 0x2532 DUP5 DUP5 DUP5 PUSH2 0x3B34 JUMP JUMPDEST PUSH1 0x0 DUP5 PUSH1 0x0 DUP2 MLOAD DUP2 LT PUSH2 0x2541 JUMPI INVALID JUMPDEST PUSH1 0x20 MUL PUSH1 0x20 ADD ADD MLOAD SWAP1 POP PUSH1 0x0 DUP2 PUSH1 0x1 PUSH1 0x1 PUSH1 0xA0 SHL SUB AND PUSH4 0x70A08231 ADDRESS PUSH1 0x40 MLOAD DUP3 PUSH4 0xFFFFFFFF AND PUSH1 0xE0 SHL DUP2 MSTORE PUSH1 0x4 ADD PUSH2 0x2579 SWAP2 SWAP1 PUSH2 0x4CA9 JUMP JUMPDEST PUSH1 0x20 PUSH1 0x40 MLOAD DUP1 DUP4 SUB DUP2 DUP7 DUP1 EXTCODESIZE ISZERO DUP1 ISZERO PUSH2 0x2591 JUMPI PUSH1 0x0 DUP1 REVERT JUMPDEST POP GAS STATICCALL ISZERO DUP1 ISZERO PUSH2 0x25A5 JUMPI RETURNDATASIZE PUSH1 0x0 DUP1 RETURNDATACOPY RETURNDATASIZE PUSH1 0x0 REVERT JUMPDEST POP POP POP POP PUSH1 0x40 MLOAD RETURNDATASIZE PUSH1 0x1F NOT PUSH1 0x1F DUP3 ADD AND DUP3 ADD DUP1 PUSH1 0x40 MSTORE POP DUP2 ADD SWAP1 PUSH2 0x25C9 SWAP2 SWAP1 PUSH2 0x4AE0 JUMP JUMPDEST SWAP1 POP PUSH2 0x25FF DUP8 ADDRESS DUP8 PUSH1 0x0 DUP2 MLOAD DUP2 LT PUSH2 0x25DD JUMPI INVALID JUMPDEST PUSH1 0x20 MUL PUSH1 0x20 ADD ADD MLOAD DUP6 PUSH1 0x1 PUSH1 0x1 PUSH1 0xA0 SHL SUB AND PUSH2 0x3BD7 SWAP1 SWAP4 SWAP3 SWAP2 SWAP1 PUSH4 0xFFFFFFFF AND JUMP JUMPDEST DUP5 PUSH1 0x0 DUP2 MLOAD DUP2 LT PUSH2 0x260C JUMPI INVALID JUMPDEST PUSH1 0x20 MUL PUSH1 0x20 ADD ADD MLOAD PUSH2 0x269A DUP3 DUP5 PUSH1 0x1 PUSH1 0x1 PUSH1 0xA0 SHL SUB AND PUSH4 0x70A08231 ADDRESS PUSH1 0x40 MLOAD DUP3 PUSH4 0xFFFFFFFF AND PUSH1 0xE0 SHL DUP2 MSTORE PUSH1 0x4 ADD PUSH2 0x2644 SWAP2 SWAP1 PUSH2 0x4CA9 JUMP JUMPDEST PUSH1 0x20 PUSH1 0x40 MLOAD DUP1 DUP4 SUB DUP2 DUP7 DUP1 EXTCODESIZE ISZERO DUP1 ISZERO PUSH2 0x265C JUMPI PUSH1 0x0 DUP1 REVERT JUMPDEST POP GAS STATICCALL ISZERO DUP1 ISZERO PUSH2 0x2670 JUMPI RETURNDATASIZE PUSH1 0x0 DUP1 RETURNDATACOPY RETURNDATASIZE PUSH1 0x0 REVERT JUMPDEST POP POP POP POP PUSH1 0x40 MLOAD RETURNDATASIZE PUSH1 0x1F NOT PUSH1 0x1F DUP3 ADD AND DUP3 ADD DUP1 PUSH1 0x40 MSTORE POP DUP2 ADD SWAP1 PUSH2 0x2694 SWAP2 SWAP1 PUSH2 0x4AE0 JUMP JUMPDEST SWAP1 PUSH2 0x29F8 JUMP JUMPDEST EQ PUSH2 0x26B7 JUMPI PUSH1 0x40 MLOAD PUSH3 0x461BCD PUSH1 0xE5 SHL DUP2 MSTORE PUSH1 0x4 ADD PUSH2 0x6BD SWAP1 PUSH2 0x53F4 JUMP JUMPDEST PUSH1 0x0 PUSH1 0x19 PUSH1 0x0 DUP9 PUSH1 0x0 DUP2 MLOAD DUP2 LT PUSH2 0x26CA JUMPI INVALID JUMPDEST PUSH1 0x20 MUL PUSH1 0x20 ADD ADD MLOAD PUSH1 0x1 PUSH1 0x1 PUSH1 0xA0 SHL SUB AND PUSH1 0x1 PUSH1 0x1 PUSH1 0xA0 SHL SUB AND DUP2 MSTORE PUSH1 0x20 ADD SWAP1 DUP2 MSTORE PUSH1 0x20 ADD PUSH1 0x0 KECCAK256 PUSH1 0x0 SWAP1 SLOAD SWAP1 PUSH2 0x100 EXP SWAP1 DIV PUSH1 0x1 PUSH1 0x1 PUSH1 0xA0 SHL SUB AND SWAP1 POP PUSH1 0x0 DUP2 PUSH1 0x1 PUSH1 0x1 PUSH1 0xA0 SHL SUB AND PUSH4 0x423C485A DUP9 PUSH1 0x0 DUP2 MLOAD DUP2 LT PUSH2 0x2726 JUMPI INVALID JUMPDEST PUSH1 0x20 MUL PUSH1 0x20 ADD ADD MLOAD PUSH1 0x40 MLOAD DUP3 PUSH4 0xFFFFFFFF AND PUSH1 0xE0 SHL DUP2 MSTORE PUSH1 0x4 ADD PUSH2 0x274A SWAP2 SWAP1 PUSH2 0x5828 JUMP JUMPDEST PUSH1 0x20 PUSH1 0x40 MLOAD DUP1 DUP4 SUB DUP2 DUP7 DUP1 EXTCODESIZE ISZERO DUP1 ISZERO PUSH2 0x2762 JUMPI PUSH1 0x0 DUP1 REVERT JUMPDEST POP GAS STATICCALL ISZERO DUP1 ISZERO PUSH2 0x2776 JUMPI RETURNDATASIZE PUSH1 0x0 DUP1 RETURNDATACOPY RETURNDATASIZE PUSH1 0x0 REVERT JUMPDEST POP POP POP POP PUSH1 0x40 MLOAD RETURNDATASIZE PUSH1 0x1F NOT PUSH1 0x1F DUP3 ADD AND DUP3 ADD DUP1 PUSH1 0x40 MSTORE POP DUP2 ADD SWAP1 PUSH2 0x279A SWAP2 SWAP1 PUSH2 0x4AE0 JUMP JUMPDEST SWAP1 POP DUP1 ISZERO PUSH2 0x284E JUMPI PUSH1 0xD SLOAD PUSH1 0x40 DUP1 MLOAD PUSH4 0x1D551B73 PUSH1 0xE1 SHL DUP2 MSTORE SWAP1 MLOAD PUSH2 0x284E SWAP3 PUSH1 0x1 PUSH1 0x1 PUSH1 0xA0 SHL SUB AND SWAP2 PUSH4 0x3AAA36E6 SWAP2 PUSH1 0x4 DUP1 DUP4 ADD SWAP3 PUSH1 0x20 SWAP3 SWAP2 SWAP1 DUP3 SWAP1 SUB ADD DUP2 DUP7 DUP1 EXTCODESIZE ISZERO DUP1 ISZERO PUSH2 0x27E8 JUMPI PUSH1 0x0 DUP1 REVERT JUMPDEST POP GAS STATICCALL ISZERO DUP1 ISZERO PUSH2 0x27FC JUMPI RETURNDATASIZE PUSH1 0x0 DUP1 RETURNDATACOPY RETURNDATASIZE PUSH1 0x0 REVERT JUMPDEST POP POP POP POP PUSH1 0x40 MLOAD RETURNDATASIZE PUSH1 0x1F NOT PUSH1 0x1F DUP3 ADD AND DUP3 ADD DUP1 PUSH1 0x40 MSTORE POP DUP2 ADD SWAP1 PUSH2 0x2820 SWAP2 SWAP1 PUSH2 0x4777 JUMP JUMPDEST DUP3 DUP11 PUSH1 0x0 DUP2 MLOAD DUP2 LT PUSH2 0x282E JUMPI INVALID JUMPDEST PUSH1 0x20 MUL PUSH1 0x20 ADD ADD MLOAD PUSH1 0x1 PUSH1 0x1 PUSH1 0xA0 SHL SUB AND PUSH2 0x383F SWAP1 SWAP3 SWAP2 SWAP1 PUSH4 0xFFFFFFFF AND JUMP JUMPDEST PUSH1 0x0 PUSH2 0x2877 DUP3 DUP10 PUSH1 0x0 DUP2 MLOAD DUP2 LT PUSH2 0x2861 JUMPI INVALID JUMPDEST PUSH1 0x20 MUL PUSH1 0x20 ADD ADD MLOAD PUSH2 0x29F8 SWAP1 SWAP2 SWAP1 PUSH4 0xFFFFFFFF AND JUMP JUMPDEST SWAP1 POP DUP1 PUSH1 0x15 PUSH1 0x0 PUSH1 0xB SLOAD DUP2 MSTORE PUSH1 0x20 ADD SWAP1 DUP2 MSTORE PUSH1 0x20 ADD PUSH1 0x0 KECCAK256 PUSH1 0x0 DUP12 PUSH1 0x0 DUP2 MLOAD DUP2 LT PUSH2 0x289E JUMPI INVALID JUMPDEST PUSH1 0x20 MUL PUSH1 0x20 ADD ADD MLOAD PUSH1 0x1 PUSH1 0x1 PUSH1 0xA0 SHL SUB AND PUSH1 0x1 PUSH1 0x1 PUSH1 0xA0 SHL SUB AND DUP2 MSTORE PUSH1 0x20 ADD SWAP1 DUP2 MSTORE PUSH1 0x20 ADD PUSH1 0x0 KECCAK256 DUP2 SWAP1 SSTORE POP DUP9 PUSH1 0x0 DUP2 MLOAD DUP2 LT PUSH2 0x28D7 JUMPI INVALID JUMPDEST PUSH1 0x20 MUL PUSH1 0x20 ADD ADD MLOAD PUSH1 0x1 PUSH1 0x1 PUSH1 0xA0 SHL SUB AND PUSH4 0x95EA7B3 DUP5 DUP4 PUSH1 0x40 MLOAD DUP4 PUSH4 0xFFFFFFFF AND PUSH1 0xE0 SHL DUP2 MSTORE PUSH1 0x4 ADD PUSH2 0x290C SWAP3 SWAP2 SWAP1 PUSH2 0x4D14 JUMP JUMPDEST PUSH1 0x20 PUSH1 0x40 MLOAD DUP1 DUP4 SUB DUP2 PUSH1 0x0 DUP8 DUP1 EXTCODESIZE ISZERO DUP1 ISZERO PUSH2 0x2926 JUMPI PUSH1 0x0 DUP1 REVERT JUMPDEST POP GAS CALL ISZERO DUP1 ISZERO PUSH2 0x293A JUMPI RETURNDATASIZE PUSH1 0x0 DUP1 RETURNDATACOPY RETURNDATASIZE PUSH1 0x0 REVERT JUMPDEST POP POP POP POP PUSH1 0x40 MLOAD RETURNDATASIZE PUSH1 0x1F NOT PUSH1 0x1F DUP3 ADD AND DUP3 ADD DUP1 PUSH1 0x40 MSTORE POP DUP2 ADD SWAP1 PUSH2 0x295E SWAP2 SWAP1 PUSH2 0x4A42 JUMP JUMPDEST POP DUP3 PUSH1 0x1 PUSH1 0x1 PUSH1 0xA0 SHL SUB AND PUSH4 0x8340F549 ADDRESS DUP12 PUSH1 0x0 DUP2 MLOAD DUP2 LT PUSH2 0x297C JUMPI INVALID JUMPDEST PUSH1 0x20 MUL PUSH1 0x20 ADD ADD MLOAD DUP5 PUSH1 0x40 MLOAD DUP5 PUSH4 0xFFFFFFFF AND PUSH1 0xE0 SHL DUP2 MSTORE PUSH1 0x4 ADD PUSH2 0x29A3 SWAP4 SWAP3 SWAP2 SWAP1 PUSH2 0x4CF0 JUMP JUMPDEST PUSH1 0x0 PUSH1 0x40 MLOAD DUP1 DUP4 SUB DUP2 PUSH1 0x0 DUP8 DUP1 EXTCODESIZE ISZERO DUP1 ISZERO PUSH2 0x29BD JUMPI PUSH1 0x0 DUP1 REVERT JUMPDEST POP GAS CALL ISZERO DUP1 ISZERO PUSH2 0x29D1 JUMPI RETURNDATASIZE PUSH1 0x0 DUP1 RETURNDATACOPY RETURNDATASIZE PUSH1 0x0 REVERT JUMPDEST POP POP PUSH1 0xB DUP1 SLOAD PUSH1 0x1 DUP2 ADD SWAP1 SWAP2 SSTORE PUSH2 0x29EB SWAP3 POP DUP13 SWAP2 POP PUSH2 0x3BF8 JUMP JUMPDEST SWAP10 SWAP9 POP POP POP POP POP POP POP POP POP JUMP JUMPDEST PUSH1 0x0 PUSH2 0x973 DUP4 DUP4 PUSH1 0x40 MLOAD DUP1 PUSH1 0x40 ADD PUSH1 0x40 MSTORE DUP1 PUSH1 0x1E DUP2 MSTORE PUSH1 0x20 ADD PUSH32 0x536166654D6174683A207375627472616374696F6E206F766572666C6F770000 DUP2 MSTORE POP PUSH2 0x3C12 JUMP JUMPDEST PUSH1 0x0 PUSH2 0x973 DUP4 DUP4 PUSH1 0x40 MLOAD DUP1 PUSH1 0x40 ADD PUSH1 0x40 MSTORE DUP1 PUSH1 0x1A DUP2 MSTORE PUSH1 0x20 ADD PUSH32 0x536166654D6174683A206469766973696F6E206279207A65726F000000000000 DUP2 MSTORE POP PUSH2 0x3C3E JUMP JUMPDEST PUSH1 0x0 DUP1 PUSH1 0x0 DUP1 DUP8 PUSH1 0x1 PUSH1 0x1 PUSH1 0xA0 SHL SUB AND PUSH4 0x313CE567 PUSH1 0x40 MLOAD DUP2 PUSH4 0xFFFFFFFF AND PUSH1 0xE0 SHL DUP2 MSTORE PUSH1 0x4 ADD PUSH1 0x20 PUSH1 0x40 MLOAD DUP1 DUP4 SUB DUP2 DUP7 DUP1 EXTCODESIZE ISZERO DUP1 ISZERO PUSH2 0x2ABB JUMPI PUSH1 0x0 DUP1 REVERT JUMPDEST POP GAS STATICCALL ISZERO DUP1 ISZERO PUSH2 0x2ACF JUMPI RETURNDATASIZE PUSH1 0x0 DUP1 RETURNDATACOPY RETURNDATASIZE PUSH1 0x0 REVERT JUMPDEST POP POP POP POP PUSH1 0x40 MLOAD RETURNDATASIZE PUSH1 0x1F NOT PUSH1 0x1F DUP3 ADD AND DUP3 ADD DUP1 PUSH1 0x40 MSTORE POP DUP2 ADD SWAP1 PUSH2 0x2AF3 SWAP2 SWAP1 PUSH2 0x4B19 JUMP JUMPDEST SWAP1 POP PUSH1 0x0 DUP8 PUSH1 0x1 PUSH1 0x1 PUSH1 0xA0 SHL SUB AND PUSH4 0x313CE567 PUSH1 0x40 MLOAD DUP2 PUSH4 0xFFFFFFFF AND PUSH1 0xE0 SHL DUP2 MSTORE PUSH1 0x4 ADD PUSH1 0x20 PUSH1 0x40 MLOAD DUP1 DUP4 SUB DUP2 DUP7 DUP1 EXTCODESIZE ISZERO DUP1 ISZERO PUSH2 0x2B30 JUMPI PUSH1 0x0 DUP1 REVERT JUMPDEST POP GAS STATICCALL ISZERO DUP1 ISZERO PUSH2 0x2B44 JUMPI RETURNDATASIZE PUSH1 0x0 DUP1 RETURNDATACOPY RETURNDATASIZE PUSH1 0x0 REVERT JUMPDEST POP POP POP POP PUSH1 0x40 MLOAD RETURNDATASIZE PUSH1 0x1F NOT PUSH1 0x1F DUP3 ADD AND DUP3 ADD DUP1 PUSH1 0x40 MSTORE POP DUP2 ADD SWAP1 PUSH2 0x2B68 SWAP2 SWAP1 PUSH2 0x4B19 JUMP JUMPDEST SWAP1 POP DUP2 PUSH1 0xFF AND DUP2 PUSH1 0xFF AND LT PUSH2 0x2B85 JUMPI DUP2 DUP2 SUB SWAP4 POP PUSH1 0x1 SWAP3 POP PUSH2 0x2B8F JUMP JUMPDEST DUP1 DUP3 SUB SWAP4 POP PUSH1 0x0 SWAP3 POP JUMPDEST PUSH1 0x0 PUSH2 0x2BAD DUP8 PUSH2 0x2BA7 DUP11 PUSH8 0xDE0B6B3A7640000 PUSH2 0x3C75 JUMP JUMPDEST SWAP1 PUSH2 0x2A3A JUMP JUMPDEST SWAP1 POP DUP4 PUSH2 0x2BC9 JUMPI PUSH2 0x2BC4 DUP2 PUSH1 0xFF DUP8 AND PUSH1 0xA EXP PUSH2 0x2A3A JUMP JUMPDEST PUSH2 0x2BD9 JUMP JUMPDEST PUSH2 0x2BD9 DUP2 PUSH1 0xFF DUP8 AND PUSH1 0xA EXP PUSH2 0x3C75 JUMP JUMPDEST SWAP11 SWAP10 POP POP POP POP POP POP POP POP POP POP JUMP JUMPDEST PUSH1 0x20 DUP4 ADD MLOAD DUP4 MLOAD PUSH1 0x0 SWAP2 PUSH1 0x1 PUSH1 0x1 PUSH1 0xA0 SHL SUB SWAP2 DUP3 AND SWAP2 AND EQ ISZERO PUSH2 0x2C1C JUMPI PUSH1 0x40 MLOAD PUSH3 0x461BCD PUSH1 0xE5 SHL DUP2 MSTORE PUSH1 0x4 ADD PUSH2 0x6BD SWAP1 PUSH2 0x4E77 JUMP JUMPDEST DUP4 MLOAD PUSH1 0x1 PUSH1 0x1 PUSH1 0xA0 SHL SUB AND PUSH1 0x0 SWAP1 DUP2 MSTORE PUSH1 0x18 PUSH1 0x20 MSTORE PUSH1 0x40 SWAP1 KECCAK256 SLOAD PUSH1 0xFF AND DUP1 ISZERO PUSH2 0x2C62 JUMPI POP PUSH1 0x20 DUP1 DUP6 ADD MLOAD PUSH1 0x1 PUSH1 0x1 PUSH1 0xA0 SHL SUB AND PUSH1 0x0 SWAP1 DUP2 MSTORE PUSH1 0x18 SWAP1 SWAP2 MSTORE PUSH1 0x40 SWAP1 KECCAK256 SLOAD PUSH1 0xFF AND JUMPDEST PUSH2 0x2C7E JUMPI PUSH1 0x40 MLOAD PUSH3 0x461BCD PUSH1 0xE5 SHL DUP2 MSTORE PUSH1 0x4 ADD PUSH2 0x6BD SWAP1 PUSH2 0x504F JUMP JUMPDEST PUSH1 0xF DUP1 SLOAD PUSH1 0xE DUP1 SLOAD PUSH1 0x0 SWAP1 DUP2 MSTORE PUSH1 0x16 PUSH1 0x20 MSTORE PUSH1 0x40 DUP2 KECCAK256 DUP4 SWAP1 SSTORE SWAP1 SLOAD PUSH1 0x1 DUP4 ADD DUP5 SSTORE SWAP3 SWAP1 MSTORE PUSH32 0x8D1108E10BCB7C27DDDFC02ED9D693A074039D026CF4EA4240B40F7D581AC802 ADD SSTORE PUSH1 0x10 SLOAD DUP7 EQ ISZERO PUSH2 0x2D24 JUMPI PUSH1 0x40 DUP1 MLOAD PUSH1 0x20 DUP2 ADD SWAP1 SWAP2 MSTORE PUSH1 0xE SLOAD DUP2 MSTORE PUSH1 0x10 DUP1 SLOAD PUSH1 0x1 DUP2 DUP2 ADD DUP4 SSTORE PUSH1 0x0 SWAP3 SWAP1 SWAP3 MSTORE PUSH2 0x2D1E SWAP3 PUSH32 0x1B6847DC741A1B0CD08D278845F9D819D87B734759AFB55FE2DE5CB82A9AE672 SWAP1 SWAP2 ADD SWAP2 PUSH2 0x443D JUMP JUMPDEST POP PUSH2 0x2EB3 JUMP JUMPDEST PUSH1 0x10 DUP7 DUP2 SLOAD DUP2 LT PUSH2 0x2D31 JUMPI INVALID JUMPDEST PUSH1 0x0 SWAP2 DUP3 MSTORE PUSH1 0x20 SWAP1 SWAP2 KECCAK256 ADD SLOAD PUSH2 0x2D77 JUMPI PUSH1 0x40 DUP1 MLOAD PUSH1 0x20 DUP2 ADD SWAP1 SWAP2 MSTORE PUSH1 0xE SLOAD DUP2 MSTORE PUSH1 0x10 DUP1 SLOAD DUP9 SWAP1 DUP2 LT PUSH2 0x2D5F JUMPI INVALID JUMPDEST SWAP1 PUSH1 0x0 MSTORE PUSH1 0x20 PUSH1 0x0 KECCAK256 ADD SWAP1 PUSH1 0x1 PUSH2 0x2D1E SWAP3 SWAP2 SWAP1 PUSH2 0x443D JUMP JUMPDEST PUSH1 0x60 PUSH2 0x2D9D PUSH1 0x1 PUSH1 0x10 DUP10 DUP2 SLOAD DUP2 LT PUSH2 0x2D8B JUMPI INVALID JUMPDEST PUSH1 0x0 SWAP2 DUP3 MSTORE PUSH1 0x20 SWAP1 SWAP2 KECCAK256 ADD SLOAD SWAP1 PUSH2 0x381A JUMP JUMPDEST PUSH1 0x1 PUSH1 0x1 PUSH1 0x40 SHL SUB DUP2 GT DUP1 ISZERO PUSH2 0x2DB2 JUMPI PUSH1 0x0 DUP1 REVERT JUMPDEST POP PUSH1 0x40 MLOAD SWAP1 DUP1 DUP3 MSTORE DUP1 PUSH1 0x20 MUL PUSH1 0x20 ADD DUP3 ADD PUSH1 0x40 MSTORE DUP1 ISZERO PUSH2 0x2DDC JUMPI DUP2 PUSH1 0x20 ADD PUSH1 0x20 DUP3 MUL DUP1 CALLDATASIZE DUP4 CALLDATACOPY ADD SWAP1 POP JUMPDEST POP SWAP1 POP PUSH1 0x0 JUMPDEST PUSH1 0x10 DUP9 DUP2 SLOAD DUP2 LT PUSH2 0x2DEF JUMPI INVALID JUMPDEST PUSH1 0x0 SWAP2 DUP3 MSTORE PUSH1 0x20 SWAP1 SWAP2 KECCAK256 ADD SLOAD DUP2 LT ISZERO PUSH2 0x2E4E JUMPI PUSH1 0x10 DUP9 DUP2 SLOAD DUP2 LT PUSH2 0x2E0F JUMPI INVALID JUMPDEST SWAP1 PUSH1 0x0 MSTORE PUSH1 0x20 PUSH1 0x0 KECCAK256 ADD DUP2 DUP2 SLOAD DUP2 LT PUSH2 0x2E24 JUMPI INVALID JUMPDEST SWAP1 PUSH1 0x0 MSTORE PUSH1 0x20 PUSH1 0x0 KECCAK256 ADD SLOAD DUP3 DUP3 DUP2 MLOAD DUP2 LT PUSH2 0x2E3B JUMPI INVALID JUMPDEST PUSH1 0x20 SWAP1 DUP2 MUL SWAP2 SWAP1 SWAP2 ADD ADD MSTORE PUSH1 0x1 ADD PUSH2 0x2DE2 JUMP JUMPDEST POP PUSH1 0xE DUP1 SLOAD SWAP1 POP DUP2 PUSH1 0x10 DUP10 DUP2 SLOAD DUP2 LT PUSH2 0x2E63 JUMPI INVALID JUMPDEST PUSH1 0x0 SWAP2 DUP3 MSTORE PUSH1 0x20 SWAP1 SWAP2 KECCAK256 ADD SLOAD DUP2 MLOAD DUP2 LT PUSH2 0x2E79 JUMPI INVALID JUMPDEST PUSH1 0x20 MUL PUSH1 0x20 ADD ADD DUP2 DUP2 MSTORE POP POP DUP1 PUSH1 0x10 DUP9 DUP2 SLOAD DUP2 LT PUSH2 0x2E93 JUMPI INVALID JUMPDEST SWAP1 PUSH1 0x0 MSTORE PUSH1 0x20 PUSH1 0x0 KECCAK256 ADD SWAP1 DUP1 MLOAD SWAP1 PUSH1 0x20 ADD SWAP1 PUSH2 0x2EB0 SWAP3 SWAP2 SWAP1 PUSH2 0x443D JUMP JUMPDEST POP POP JUMPDEST PUSH1 0x0 DUP7 DUP2 MSTORE PUSH1 0x13 PUSH1 0x20 MSTORE PUSH1 0x40 SWAP1 KECCAK256 SLOAD DUP6 EQ ISZERO PUSH2 0x2F15 JUMPI PUSH1 0x40 DUP1 MLOAD PUSH1 0x20 DUP1 DUP3 ADD DUP4 MSTORE PUSH1 0xE SLOAD DUP3 MSTORE PUSH1 0x0 DUP10 DUP2 MSTORE PUSH1 0x12 DUP3 MSTORE DUP4 DUP2 KECCAK256 DUP10 DUP3 MSTORE SWAP1 SWAP2 MSTORE SWAP2 SWAP1 SWAP2 KECCAK256 PUSH2 0x2EFA SWAP2 PUSH1 0x1 PUSH2 0x443D JUMP JUMPDEST POP PUSH1 0x0 DUP7 DUP2 MSTORE PUSH1 0x13 PUSH1 0x20 MSTORE PUSH1 0x40 SWAP1 KECCAK256 DUP1 SLOAD PUSH1 0x1 ADD SWAP1 SSTORE PUSH2 0x3052 JUMP JUMPDEST PUSH1 0x0 DUP7 DUP2 MSTORE PUSH1 0x12 PUSH1 0x20 SWAP1 DUP2 MSTORE PUSH1 0x40 DUP1 DUP4 KECCAK256 DUP9 DUP5 MSTORE SWAP1 SWAP2 MSTORE SWAP1 KECCAK256 SLOAD PUSH1 0x60 SWAP1 PUSH2 0x2F3D SWAP1 PUSH1 0x1 PUSH2 0x381A JUMP JUMPDEST PUSH1 0x1 PUSH1 0x1 PUSH1 0x40 SHL SUB DUP2 GT DUP1 ISZERO PUSH2 0x2F52 JUMPI PUSH1 0x0 DUP1 REVERT JUMPDEST POP PUSH1 0x40 MLOAD SWAP1 DUP1 DUP3 MSTORE DUP1 PUSH1 0x20 MUL PUSH1 0x20 ADD DUP3 ADD PUSH1 0x40 MSTORE DUP1 ISZERO PUSH2 0x2F7C JUMPI DUP2 PUSH1 0x20 ADD PUSH1 0x20 DUP3 MUL DUP1 CALLDATASIZE DUP4 CALLDATACOPY ADD SWAP1 POP JUMPDEST POP SWAP1 POP PUSH1 0x0 JUMPDEST PUSH1 0x0 DUP9 DUP2 MSTORE PUSH1 0x12 PUSH1 0x20 SWAP1 DUP2 MSTORE PUSH1 0x40 DUP1 DUP4 KECCAK256 DUP11 DUP5 MSTORE SWAP1 SWAP2 MSTORE SWAP1 KECCAK256 SLOAD DUP2 LT ISZERO PUSH2 0x2FF2 JUMPI PUSH1 0x0 DUP9 DUP2 MSTORE PUSH1 0x12 PUSH1 0x20 SWAP1 DUP2 MSTORE PUSH1 0x40 DUP1 DUP4 KECCAK256 DUP11 DUP5 MSTORE SWAP1 SWAP2 MSTORE SWAP1 KECCAK256 DUP1 SLOAD DUP3 SWAP1 DUP2 LT PUSH2 0x2FC8 JUMPI INVALID JUMPDEST SWAP1 PUSH1 0x0 MSTORE PUSH1 0x20 PUSH1 0x0 KECCAK256 ADD SLOAD DUP3 DUP3 DUP2 MLOAD DUP2 LT PUSH2 0x2FDF JUMPI INVALID JUMPDEST PUSH1 0x20 SWAP1 DUP2 MUL SWAP2 SWAP1 SWAP2 ADD ADD MSTORE PUSH1 0x1 ADD PUSH2 0x2F82 JUMP JUMPDEST POP PUSH1 0xE SLOAD PUSH1 0x0 DUP9 DUP2 MSTORE PUSH1 0x12 PUSH1 0x20 SWAP1 DUP2 MSTORE PUSH1 0x40 DUP1 DUP4 KECCAK256 DUP11 DUP5 MSTORE SWAP1 SWAP2 MSTORE SWAP1 KECCAK256 SLOAD DUP3 MLOAD DUP4 SWAP2 SWAP1 DUP2 LT PUSH2 0x301D JUMPI INVALID JUMPDEST PUSH1 0x20 SWAP1 DUP2 MUL SWAP2 SWAP1 SWAP2 ADD DUP2 ADD SWAP2 SWAP1 SWAP2 MSTORE PUSH1 0x0 DUP9 DUP2 MSTORE PUSH1 0x12 DUP3 MSTORE PUSH1 0x40 DUP1 DUP3 KECCAK256 DUP10 DUP4 MSTORE DUP4 MSTORE SWAP1 KECCAK256 DUP3 MLOAD PUSH2 0x304F SWAP3 DUP5 ADD SWAP1 PUSH2 0x443D JUMP JUMPDEST POP POP JUMPDEST PUSH1 0x0 DUP7 DUP2 MSTORE PUSH1 0x11 PUSH1 0x20 SWAP1 DUP2 MSTORE PUSH1 0x40 DUP1 DUP4 KECCAK256 DUP9 DUP5 MSTORE SWAP1 SWAP2 MSTORE SWAP1 KECCAK256 DUP1 SLOAD PUSH1 0x1 SWAP1 DUP2 ADD SWAP1 SWAP2 SSTORE PUSH1 0x14 DUP1 SLOAD PUSH2 0x30A3 SWAP3 SWAP2 SWAP1 DUP10 SWAP1 DUP2 LT PUSH2 0x3089 JUMPI INVALID JUMPDEST PUSH1 0x0 SWAP2 DUP3 MSTORE PUSH1 0x20 SWAP1 SWAP2 KECCAK256 PUSH1 0x1 PUSH1 0x3 SWAP1 SWAP3 MUL ADD ADD SLOAD SWAP1 PUSH2 0x29F8 JUMP JUMPDEST PUSH1 0x0 DUP8 DUP2 MSTORE PUSH1 0x11 PUSH1 0x20 SWAP1 DUP2 MSTORE PUSH1 0x40 DUP1 DUP4 KECCAK256 DUP10 DUP5 MSTORE SWAP1 SWAP2 MSTORE SWAP1 KECCAK256 SLOAD GT ISZERO PUSH2 0x30DB JUMPI PUSH1 0x40 MLOAD PUSH3 0x461BCD PUSH1 0xE5 SHL DUP2 MSTORE PUSH1 0x4 ADD PUSH2 0x6BD SWAP1 PUSH2 0x4FD3 JUMP JUMPDEST PUSH1 0x40 DUP1 MLOAD PUSH1 0xE0 DUP2 ADD DUP3 MSTORE DUP8 DUP2 MSTORE PUSH1 0x20 DUP2 ADD DUP8 DUP2 MSTORE PUSH1 0xE DUP1 SLOAD SWAP4 DUP4 ADD DUP5 DUP2 MSTORE PUSH1 0x0 PUSH1 0x60 DUP6 ADD DUP2 DUP2 MSTORE PUSH1 0x80 DUP7 ADD DUP12 DUP2 MSTORE PUSH1 0xA0 DUP8 ADD DUP12 SWAP1 MSTORE PUSH1 0xC0 DUP8 ADD DUP11 SWAP1 MSTORE PUSH1 0x1 DUP9 ADD DUP6 SSTORE SWAP4 SWAP1 SWAP2 MSTORE DUP5 MLOAD PUSH1 0xA SWAP1 SWAP7 MUL PUSH32 0xBB7B4A454DC3493923482F07822329ED19E8244EFF582CC204F8554C3620C3FD DUP2 ADD SWAP7 DUP8 SSTORE SWAP4 MLOAD PUSH32 0xBB7B4A454DC3493923482F07822329ED19E8244EFF582CC204F8554C3620C3FE DUP6 ADD SSTORE SWAP1 MLOAD PUSH32 0xBB7B4A454DC3493923482F07822329ED19E8244EFF582CC204F8554C3620C3FF DUP5 ADD SSTORE MLOAD PUSH32 0xBB7B4A454DC3493923482F07822329ED19E8244EFF582CC204F8554C3620C400 DUP4 ADD SSTORE MLOAD SWAP2 SWAP3 SWAP2 PUSH2 0x31F1 SWAP2 PUSH32 0xBB7B4A454DC3493923482F07822329ED19E8244EFF582CC204F8554C3620C401 ADD SWAP1 PUSH1 0x2 PUSH2 0x4477 JUMP JUMPDEST POP PUSH1 0xA0 DUP3 ADD MLOAD PUSH2 0x3207 SWAP1 PUSH1 0x6 DUP4 ADD SWAP1 PUSH1 0x3 PUSH2 0x44CB JUMP JUMPDEST POP PUSH1 0xC0 DUP3 ADD MLOAD DUP1 MLOAD PUSH2 0x3223 SWAP2 PUSH1 0x9 DUP5 ADD SWAP2 PUSH1 0x20 SWAP1 SWAP2 ADD SWAP1 PUSH2 0x443D JUMP JUMPDEST POP POP PUSH1 0xE SLOAD PUSH2 0x3234 SWAP2 POP PUSH1 0x1 PUSH2 0x29F8 JUMP JUMPDEST SWAP7 SWAP6 POP POP POP POP POP POP JUMP JUMPDEST DUP2 PUSH1 0x1 PUSH1 0x1 PUSH1 0xA0 SHL SUB AND PUSH2 0x3251 DUP3 PUSH2 0xBE6 JUMP JUMPDEST PUSH1 0x1 PUSH1 0x1 PUSH1 0xA0 SHL SUB AND EQ PUSH2 0x3277 JUMPI PUSH1 0x40 MLOAD PUSH3 0x461BCD PUSH1 0xE5 SHL DUP2 MSTORE PUSH1 0x4 ADD PUSH2 0x6BD SWAP1 PUSH2 0x4E27 JUMP JUMPDEST PUSH2 0x327F PUSH2 0x4387 JUMP JUMPDEST PUSH1 0x14 DUP3 DUP2 SLOAD DUP2 LT PUSH2 0x328C JUMPI INVALID JUMPDEST SWAP1 PUSH1 0x0 MSTORE PUSH1 0x20 PUSH1 0x0 KECCAK256 SWAP1 PUSH1 0x3 MUL ADD PUSH1 0x40 MLOAD DUP1 PUSH1 0x60 ADD PUSH1 0x40 MSTORE SWAP1 DUP2 PUSH1 0x0 DUP3 ADD DUP1 SLOAD DUP1 PUSH1 0x20 MUL PUSH1 0x20 ADD PUSH1 0x40 MLOAD SWAP1 DUP2 ADD PUSH1 0x40 MSTORE DUP1 SWAP3 SWAP2 SWAP1 DUP2 DUP2 MSTORE PUSH1 0x20 ADD DUP3 DUP1 SLOAD DUP1 ISZERO PUSH2 0x32FE JUMPI PUSH1 0x20 MUL DUP3 ADD SWAP2 SWAP1 PUSH1 0x0 MSTORE PUSH1 0x20 PUSH1 0x0 KECCAK256 SWAP1 JUMPDEST DUP2 SLOAD PUSH1 0x1 PUSH1 0x1 PUSH1 0xA0 SHL SUB AND DUP2 MSTORE PUSH1 0x1 SWAP1 SWAP2 ADD SWAP1 PUSH1 0x20 ADD DUP1 DUP4 GT PUSH2 0x32E0 JUMPI JUMPDEST POP POP POP POP POP DUP2 MSTORE PUSH1 0x20 ADD PUSH1 0x1 DUP3 ADD DUP1 SLOAD DUP1 PUSH1 0x20 MUL PUSH1 0x20 ADD PUSH1 0x40 MLOAD SWAP1 DUP2 ADD PUSH1 0x40 MSTORE DUP1 SWAP3 SWAP2 SWAP1 DUP2 DUP2 MSTORE PUSH1 0x20 ADD DUP3 DUP1 SLOAD DUP1 ISZERO PUSH2 0x3356 JUMPI PUSH1 0x20 MUL DUP3 ADD SWAP2 SWAP1 PUSH1 0x0 MSTORE PUSH1 0x20 PUSH1 0x0 KECCAK256 SWAP1 JUMPDEST DUP2 SLOAD DUP2 MSTORE PUSH1 0x20 ADD SWAP1 PUSH1 0x1 ADD SWAP1 DUP1 DUP4 GT PUSH2 0x3342 JUMPI JUMPDEST POP POP POP POP POP DUP2 MSTORE PUSH1 0x20 ADD PUSH1 0x2 DUP3 ADD DUP1 SLOAD DUP1 PUSH1 0x20 MUL PUSH1 0x20 ADD PUSH1 0x40 MLOAD SWAP1 DUP2 ADD PUSH1 0x40 MSTORE DUP1 SWAP3 SWAP2 SWAP1 DUP2 DUP2 MSTORE PUSH1 0x20 ADD DUP3 DUP1 SLOAD DUP1 ISZERO PUSH2 0x33AE JUMPI PUSH1 0x20 MUL DUP3 ADD SWAP2 SWAP1 PUSH1 0x0 MSTORE PUSH1 0x20 PUSH1 0x0 KECCAK256 SWAP1 JUMPDEST DUP2 SLOAD DUP2 MSTORE PUSH1 0x20 ADD SWAP1 PUSH1 0x1 ADD SWAP1 DUP1 DUP4 GT PUSH2 0x339A JUMPI JUMPDEST POP POP POP POP POP DUP2 MSTORE POP POP SWAP1 POP PUSH1 0x0 JUMPDEST DUP2 MLOAD MLOAD DUP2 LT ISZERO PUSH2 0x3585 JUMPI PUSH1 0x0 DUP4 DUP2 MSTORE PUSH1 0x15 PUSH1 0x20 MSTORE PUSH1 0x40 DUP2 KECCAK256 DUP4 MLOAD DUP1 MLOAD DUP4 SWAP2 SWAP1 DUP6 SWAP1 DUP2 LT PUSH2 0x33E5 JUMPI INVALID JUMPDEST PUSH1 0x20 MUL PUSH1 0x20 ADD ADD MLOAD PUSH1 0x1 PUSH1 0x1 PUSH1 0xA0 SHL SUB AND PUSH1 0x1 PUSH1 0x1 PUSH1 0xA0 SHL SUB AND DUP2 MSTORE PUSH1 0x20 ADD SWAP1 DUP2 MSTORE PUSH1 0x20 ADD PUSH1 0x0 KECCAK256 SLOAD GT ISZERO PUSH2 0x357D JUMPI PUSH1 0x19 PUSH1 0x0 DUP4 PUSH1 0x0 ADD MLOAD DUP4 DUP2 MLOAD DUP2 LT PUSH2 0x3428 JUMPI INVALID JUMPDEST PUSH1 0x20 MUL PUSH1 0x20 ADD ADD MLOAD PUSH1 0x1 PUSH1 0x1 PUSH1 0xA0 SHL SUB AND PUSH1 0x1 PUSH1 0x1 PUSH1 0xA0 SHL SUB AND DUP2 MSTORE PUSH1 0x20 ADD SWAP1 DUP2 MSTORE PUSH1 0x20 ADD PUSH1 0x0 KECCAK256 PUSH1 0x0 SWAP1 SLOAD SWAP1 PUSH2 0x100 EXP SWAP1 DIV PUSH1 0x1 PUSH1 0x1 PUSH1 0xA0 SHL SUB AND PUSH1 0x1 PUSH1 0x1 PUSH1 0xA0 SHL SUB AND PUSH4 0xD9CAED12 DUP6 DUP5 PUSH1 0x0 ADD MLOAD DUP5 DUP2 MLOAD DUP2 LT PUSH2 0x3483 JUMPI INVALID JUMPDEST PUSH1 0x20 MUL PUSH1 0x20 ADD ADD MLOAD PUSH1 0x15 PUSH1 0x0 DUP9 DUP2 MSTORE PUSH1 0x20 ADD SWAP1 DUP2 MSTORE PUSH1 0x20 ADD PUSH1 0x0 KECCAK256 PUSH1 0x0 DUP8 PUSH1 0x0 ADD MLOAD DUP8 DUP2 MLOAD DUP2 LT PUSH2 0x34B0 JUMPI INVALID JUMPDEST PUSH1 0x20 MUL PUSH1 0x20 ADD ADD MLOAD PUSH1 0x1 PUSH1 0x1 PUSH1 0xA0 SHL SUB AND PUSH1 0x1 PUSH1 0x1 PUSH1 0xA0 SHL SUB AND DUP2 MSTORE PUSH1 0x20 ADD SWAP1 DUP2 MSTORE PUSH1 0x20 ADD PUSH1 0x0 KECCAK256 SLOAD PUSH1 0x40 MLOAD DUP5 PUSH4 0xFFFFFFFF AND PUSH1 0xE0 SHL DUP2 MSTORE PUSH1 0x4 ADD PUSH2 0x34F7 SWAP4 SWAP3 SWAP2 SWAP1 PUSH2 0x4CF0 JUMP JUMPDEST PUSH1 0x0 PUSH1 0x40 MLOAD DUP1 DUP4 SUB DUP2 PUSH1 0x0 DUP8 DUP1 EXTCODESIZE ISZERO DUP1 ISZERO PUSH2 0x3511 JUMPI PUSH1 0x0 DUP1 REVERT JUMPDEST POP GAS CALL ISZERO DUP1 ISZERO PUSH2 0x3525 JUMPI RETURNDATASIZE PUSH1 0x0 DUP1 RETURNDATACOPY RETURNDATASIZE PUSH1 0x0 REVERT JUMPDEST POP POP POP POP PUSH1 0x0 PUSH1 0x15 PUSH1 0x0 DUP6 DUP2 MSTORE PUSH1 0x20 ADD SWAP1 DUP2 MSTORE PUSH1 0x20 ADD PUSH1 0x0 KECCAK256 PUSH1 0x0 DUP5 PUSH1 0x0 ADD MLOAD DUP5 DUP2 MLOAD DUP2 LT PUSH2 0x3550 JUMPI INVALID JUMPDEST PUSH1 0x20 MUL PUSH1 0x20 ADD ADD MLOAD PUSH1 0x1 PUSH1 0x1 PUSH1 0xA0 SHL SUB AND PUSH1 0x1 PUSH1 0x1 PUSH1 0xA0 SHL SUB AND DUP2 MSTORE PUSH1 0x20 ADD SWAP1 DUP2 MSTORE PUSH1 0x20 ADD PUSH1 0x0 KECCAK256 DUP2 SWAP1 SSTORE POP JUMPDEST PUSH1 0x1 ADD PUSH2 0x33BC JUMP JUMPDEST POP PUSH1 0x60 PUSH1 0x10 DUP4 DUP2 SLOAD DUP2 LT PUSH2 0x3595 JUMPI INVALID JUMPDEST SWAP1 PUSH1 0x0 MSTORE PUSH1 0x20 PUSH1 0x0 KECCAK256 ADD DUP1 SLOAD DUP1 PUSH1 0x20 MUL PUSH1 0x20 ADD PUSH1 0x40 MLOAD SWAP1 DUP2 ADD PUSH1 0x40 MSTORE DUP1 SWAP3 SWAP2 SWAP1 DUP2 DUP2 MSTORE PUSH1 0x20 ADD DUP3 DUP1 SLOAD DUP1 ISZERO PUSH2 0x35E9 JUMPI PUSH1 0x20 MUL DUP3 ADD SWAP2 SWAP1 PUSH1 0x0 MSTORE PUSH1 0x20 PUSH1 0x0 KECCAK256 SWAP1 JUMPDEST DUP2 SLOAD DUP2 MSTORE PUSH1 0x20 ADD SWAP1 PUSH1 0x1 ADD SWAP1 DUP1 DUP4 GT PUSH2 0x35D5 JUMPI JUMPDEST POP POP POP POP POP SWAP1 POP PUSH1 0x0 JUMPDEST DUP2 MLOAD DUP2 LT ISZERO PUSH2 0x3656 JUMPI PUSH2 0x3618 DUP3 DUP3 DUP2 MLOAD DUP2 LT PUSH2 0x360B JUMPI INVALID JUMPDEST PUSH1 0x20 MUL PUSH1 0x20 ADD ADD MLOAD PUSH2 0x3CAF JUMP JUMPDEST PUSH1 0x1 PUSH1 0xE DUP4 DUP4 DUP2 MLOAD DUP2 LT PUSH2 0x3628 JUMPI INVALID JUMPDEST PUSH1 0x20 MUL PUSH1 0x20 ADD ADD MLOAD DUP2 SLOAD DUP2 LT PUSH2 0x363A JUMPI INVALID JUMPDEST PUSH1 0x0 SWAP2 DUP3 MSTORE PUSH1 0x20 SWAP1 SWAP2 KECCAK256 PUSH1 0x3 PUSH1 0xA SWAP1 SWAP3 MUL ADD ADD SSTORE PUSH1 0x1 ADD PUSH2 0x35F3 JUMP JUMPDEST POP PUSH1 0x10 DUP4 DUP2 SLOAD DUP2 LT PUSH2 0x3664 JUMPI INVALID JUMPDEST SWAP1 PUSH1 0x0 MSTORE PUSH1 0x20 PUSH1 0x0 KECCAK256 ADD PUSH1 0x0 PUSH2 0x367A SWAP2 SWAP1 PUSH2 0x44F8 JUMP JUMPDEST PUSH2 0x1246 DUP4 PUSH2 0x3D81 JUMP JUMPDEST PUSH1 0x0 PUSH2 0x368F DUP4 DUP4 PUSH2 0x3764 JUMP JUMPDEST PUSH2 0x36C5 JUMPI POP DUP2 SLOAD PUSH1 0x1 DUP2 DUP2 ADD DUP5 SSTORE PUSH1 0x0 DUP5 DUP2 MSTORE PUSH1 0x20 DUP1 DUP3 KECCAK256 SWAP1 SWAP4 ADD DUP5 SWAP1 SSTORE DUP5 SLOAD DUP5 DUP3 MSTORE DUP3 DUP7 ADD SWAP1 SWAP4 MSTORE PUSH1 0x40 SWAP1 KECCAK256 SWAP2 SWAP1 SWAP2 SSTORE PUSH2 0x976 JUMP JUMPDEST POP PUSH1 0x0 PUSH2 0x976 JUMP JUMPDEST PUSH1 0x0 DUP3 DUP2 MSTORE PUSH1 0x1 DUP5 ADD PUSH1 0x20 MSTORE PUSH1 0x40 DUP2 KECCAK256 SLOAD DUP1 PUSH2 0x3732 JUMPI POP POP PUSH1 0x40 DUP1 MLOAD DUP1 DUP3 ADD DUP3 MSTORE DUP4 DUP2 MSTORE PUSH1 0x20 DUP1 DUP3 ADD DUP5 DUP2 MSTORE DUP7 SLOAD PUSH1 0x1 DUP2 DUP2 ADD DUP10 SSTORE PUSH1 0x0 DUP10 DUP2 MSTORE DUP5 DUP2 KECCAK256 SWAP6 MLOAD PUSH1 0x2 SWAP1 SWAP4 MUL SWAP1 SWAP6 ADD SWAP2 DUP3 SSTORE SWAP2 MLOAD SWAP1 DUP3 ADD SSTORE DUP7 SLOAD DUP7 DUP5 MSTORE DUP2 DUP9 ADD SWAP1 SWAP3 MSTORE SWAP3 SWAP1 SWAP2 KECCAK256 SSTORE PUSH2 0x1928 JUMP JUMPDEST DUP3 DUP6 PUSH1 0x0 ADD PUSH1 0x1 DUP4 SUB DUP2 SLOAD DUP2 LT PUSH2 0x3745 JUMPI INVALID JUMPDEST SWAP1 PUSH1 0x0 MSTORE PUSH1 0x20 PUSH1 0x0 KECCAK256 SWAP1 PUSH1 0x2 MUL ADD PUSH1 0x1 ADD DUP2 SWAP1 SSTORE POP PUSH1 0x0 SWAP2 POP POP PUSH2 0x1928 JUMP JUMPDEST PUSH1 0x0 SWAP1 DUP2 MSTORE PUSH1 0x1 SWAP2 SWAP1 SWAP2 ADD PUSH1 0x20 MSTORE PUSH1 0x40 SWAP1 KECCAK256 SLOAD ISZERO ISZERO SWAP1 JUMP JUMPDEST SLOAD SWAP1 JUMP JUMPDEST PUSH1 0x0 PUSH2 0x973 DUP4 DUP4 PUSH2 0x3E4E JUMP JUMPDEST DUP2 SLOAD PUSH1 0x0 SWAP1 DUP3 LT PUSH2 0x37AF JUMPI PUSH1 0x40 MLOAD PUSH3 0x461BCD PUSH1 0xE5 SHL DUP2 MSTORE PUSH1 0x4 ADD PUSH2 0x6BD SWAP1 PUSH2 0x4DE5 JUMP JUMPDEST DUP3 PUSH1 0x0 ADD DUP3 DUP2 SLOAD DUP2 LT PUSH2 0x1023 JUMPI INVALID JUMPDEST DUP2 SLOAD PUSH1 0x0 SWAP1 DUP2 SWAP1 DUP4 LT PUSH2 0x37E3 JUMPI PUSH1 0x40 MLOAD PUSH3 0x461BCD PUSH1 0xE5 SHL DUP2 MSTORE PUSH1 0x4 ADD PUSH2 0x6BD SWAP1 PUSH2 0x52BB JUMP JUMPDEST PUSH1 0x0 DUP5 PUSH1 0x0 ADD DUP5 DUP2 SLOAD DUP2 LT PUSH2 0x37F4 JUMPI INVALID JUMPDEST SWAP1 PUSH1 0x0 MSTORE PUSH1 0x20 PUSH1 0x0 KECCAK256 SWAP1 PUSH1 0x2 MUL ADD SWAP1 POP DUP1 PUSH1 0x0 ADD SLOAD DUP2 PUSH1 0x1 ADD SLOAD SWAP3 POP SWAP3 POP POP SWAP3 POP SWAP3 SWAP1 POP JUMP JUMPDEST PUSH1 0x0 DUP3 DUP3 ADD DUP4 DUP2 LT ISZERO PUSH2 0x973 JUMPI PUSH1 0x40 MLOAD PUSH3 0x461BCD PUSH1 0xE5 SHL DUP2 MSTORE PUSH1 0x4 ADD PUSH2 0x6BD SWAP1 PUSH2 0x5018 JUMP JUMPDEST PUSH2 0x775 DUP4 PUSH4 0xA9059CBB PUSH1 0xE0 SHL DUP5 DUP5 PUSH1 0x40 MLOAD PUSH1 0x24 ADD PUSH2 0x385E SWAP3 SWAP2 SWAP1 PUSH2 0x4D14 JUMP JUMPDEST PUSH1 0x40 DUP1 MLOAD PUSH1 0x1F NOT DUP2 DUP5 SUB ADD DUP2 MSTORE SWAP2 SWAP1 MSTORE PUSH1 0x20 DUP2 ADD DUP1 MLOAD PUSH1 0x1 PUSH1 0x1 PUSH1 0xE0 SHL SUB AND PUSH1 0x1 PUSH1 0x1 PUSH1 0xE0 SHL SUB NOT SWAP1 SWAP4 AND SWAP3 SWAP1 SWAP3 OR SWAP1 SWAP2 MSTORE PUSH2 0x3F14 JUMP JUMPDEST PUSH2 0x389D PUSH2 0x433E JUMP JUMPDEST PUSH2 0x38A6 DUP3 PUSH2 0x7BE JUMP JUMPDEST PUSH1 0xA0 DUP2 ADD MLOAD PUSH1 0x20 SWAP1 DUP2 ADD MLOAD DUP3 MLOAD PUSH1 0x0 SWAP1 DUP2 MSTORE PUSH1 0x15 DUP4 MSTORE PUSH1 0x40 DUP1 DUP3 KECCAK256 PUSH1 0x80 DUP7 ADD MLOAD DUP6 ADD MLOAD PUSH1 0x1 PUSH1 0x1 PUSH1 0xA0 SHL SUB AND DUP4 MSTORE SWAP1 SWAP4 MSTORE SWAP2 SWAP1 SWAP2 KECCAK256 SLOAD SWAP2 SWAP3 POP PUSH2 0x38E9 SWAP2 SWAP1 PUSH2 0x381A JUMP JUMPDEST DUP2 MLOAD PUSH1 0x0 SWAP1 DUP2 MSTORE PUSH1 0x15 PUSH1 0x20 DUP2 DUP2 MSTORE PUSH1 0x40 DUP1 DUP5 KECCAK256 PUSH1 0x80 DUP8 ADD DUP1 MLOAD DUP5 ADD MLOAD PUSH1 0x1 PUSH1 0x1 PUSH1 0xA0 SHL SUB SWAP1 DUP2 AND DUP8 MSTORE SWAP2 DUP5 MSTORE DUP3 DUP7 KECCAK256 SWAP7 SWAP1 SWAP7 SSTORE PUSH1 0xA0 DUP8 ADD MLOAD MLOAD DUP8 MLOAD DUP7 MSTORE SWAP4 DUP4 MSTORE DUP2 DUP6 KECCAK256 SWAP6 MLOAD MLOAD AND DUP5 MSTORE SWAP4 SWAP1 MSTORE SWAP2 SWAP1 KECCAK256 SLOAD PUSH2 0x3942 SWAP2 PUSH2 0x29F8 JUMP JUMPDEST DUP2 MLOAD PUSH1 0x0 SWAP1 DUP2 MSTORE PUSH1 0x15 PUSH1 0x20 SWAP1 DUP2 MSTORE PUSH1 0x40 DUP1 DUP4 KECCAK256 PUSH1 0x80 DUP7 ADD MLOAD MLOAD PUSH1 0x1 PUSH1 0x1 PUSH1 0xA0 SHL SUB AND DUP5 MSTORE SWAP1 SWAP2 MSTORE SWAP1 KECCAK256 SSTORE PUSH1 0xE DUP1 SLOAD TIMESTAMP SWAP2 SWAP1 DUP5 SWAP1 DUP2 LT PUSH2 0x397D JUMPI INVALID JUMPDEST SWAP1 PUSH1 0x0 MSTORE PUSH1 0x20 PUSH1 0x0 KECCAK256 SWAP1 PUSH1 0xA MUL ADD PUSH1 0x3 ADD DUP2 SWAP1 SSTORE POP PUSH2 0x18DE DUP3 PUSH2 0x3FF9 JUMP JUMPDEST PUSH1 0x0 DUP3 DUP2 MSTORE PUSH1 0x1 DUP5 ADD PUSH1 0x20 MSTORE PUSH1 0x40 DUP2 KECCAK256 SLOAD DUP3 DUP2 PUSH2 0x39CB JUMPI PUSH1 0x40 MLOAD PUSH3 0x461BCD PUSH1 0xE5 SHL DUP2 MSTORE PUSH1 0x4 ADD PUSH2 0x6BD SWAP2 SWAP1 PUSH2 0x4DA3 JUMP JUMPDEST POP DUP5 PUSH1 0x0 ADD PUSH1 0x1 DUP3 SUB DUP2 SLOAD DUP2 LT PUSH2 0x39DE JUMPI INVALID JUMPDEST SWAP1 PUSH1 0x0 MSTORE PUSH1 0x20 PUSH1 0x0 KECCAK256 SWAP1 PUSH1 0x2 MUL ADD PUSH1 0x1 ADD SLOAD SWAP2 POP POP SWAP4 SWAP3 POP POP POP JUMP JUMPDEST PUSH1 0x0 PUSH2 0x3A0E DUP5 PUSH1 0x1 PUSH1 0x1 PUSH1 0xA0 SHL SUB AND PUSH2 0x192F JUMP JUMPDEST PUSH2 0x3A1A JUMPI POP PUSH1 0x1 PUSH2 0x1741 JUMP JUMPDEST PUSH1 0x0 PUSH1 0x60 PUSH1 0x1 PUSH1 0x1 PUSH1 0xA0 SHL SUB DUP7 AND PUSH4 0xA85BD01 PUSH1 0xE1 SHL PUSH2 0x3A38 PUSH2 0x1981 JUMP JUMPDEST DUP10 DUP9 DUP9 PUSH1 0x40 MLOAD PUSH1 0x24 ADD PUSH2 0x3A4E SWAP5 SWAP4 SWAP3 SWAP2 SWAP1 PUSH2 0x4CBD JUMP JUMPDEST PUSH1 0x40 DUP1 MLOAD PUSH1 0x1F NOT DUP2 DUP5 SUB ADD DUP2 MSTORE SWAP2 DUP2 MSTORE PUSH1 0x20 DUP3 ADD DUP1 MLOAD PUSH1 0x1 PUSH1 0x1 PUSH1 0xE0 SHL SUB AND PUSH1 0x1 PUSH1 0x1 PUSH1 0xE0 SHL SUB NOT SWAP1 SWAP5 AND SWAP4 SWAP1 SWAP4 OR SWAP1 SWAP3 MSTORE SWAP1 MLOAD PUSH2 0x3A8C SWAP2 SWAP1 PUSH2 0x4C0C JUMP JUMPDEST PUSH1 0x0 PUSH1 0x40 MLOAD DUP1 DUP4 SUB DUP2 PUSH1 0x0 DUP7 GAS CALL SWAP2 POP POP RETURNDATASIZE DUP1 PUSH1 0x0 DUP2 EQ PUSH2 0x3AC9 JUMPI PUSH1 0x40 MLOAD SWAP2 POP PUSH1 0x1F NOT PUSH1 0x3F RETURNDATASIZE ADD AND DUP3 ADD PUSH1 0x40 MSTORE RETURNDATASIZE DUP3 MSTORE RETURNDATASIZE PUSH1 0x0 PUSH1 0x20 DUP5 ADD RETURNDATACOPY PUSH2 0x3ACE JUMP JUMPDEST PUSH1 0x60 SWAP2 POP JUMPDEST POP SWAP2 POP SWAP2 POP DUP2 PUSH2 0x3B00 JUMPI DUP1 MLOAD ISZERO PUSH2 0x3AE8 JUMPI DUP1 MLOAD DUP1 DUP3 PUSH1 0x20 ADD REVERT JUMPDEST PUSH1 0x40 MLOAD PUSH3 0x461BCD PUSH1 0xE5 SHL DUP2 MSTORE PUSH1 0x4 ADD PUSH2 0x6BD SWAP1 PUSH2 0x4EBA JUMP JUMPDEST PUSH1 0x0 DUP2 DUP1 PUSH1 0x20 ADD SWAP1 MLOAD DUP2 ADD SWAP1 PUSH2 0x3B16 SWAP2 SWAP1 PUSH2 0x4A7A JUMP JUMPDEST PUSH1 0x1 PUSH1 0x1 PUSH1 0xE0 SHL SUB NOT AND PUSH4 0xA85BD01 PUSH1 0xE1 SHL EQ SWAP4 POP PUSH2 0x1741 SWAP3 POP POP POP JUMP JUMPDEST PUSH1 0x40 DUP1 MLOAD PUSH1 0x60 DUP2 ADD DUP3 MSTORE DUP5 DUP2 MSTORE PUSH1 0x20 DUP1 DUP3 ADD DUP6 SWAP1 MSTORE SWAP2 DUP2 ADD DUP4 SWAP1 MSTORE PUSH1 0x14 DUP1 SLOAD PUSH1 0x1 DUP2 ADD DUP3 SSTORE PUSH1 0x0 SWAP2 SWAP1 SWAP2 MSTORE DUP2 MLOAD DUP1 MLOAD SWAP3 SWAP4 PUSH1 0x3 SWAP1 SWAP3 MUL PUSH32 0xCE6D7B5282BD9A3661AE061FEED1DBDA4E52AB073B1F9285BE6E155D9C38D4EC ADD SWAP3 PUSH2 0x3B9A SWAP3 DUP5 SWAP3 ADD SWAP1 PUSH2 0x4516 JUMP JUMPDEST POP PUSH1 0x20 DUP3 DUP2 ADD MLOAD DUP1 MLOAD PUSH2 0x3BB3 SWAP3 PUSH1 0x1 DUP6 ADD SWAP3 ADD SWAP1 PUSH2 0x443D JUMP JUMPDEST POP PUSH1 0x40 DUP3 ADD MLOAD DUP1 MLOAD PUSH2 0x3BCF SWAP2 PUSH1 0x2 DUP5 ADD SWAP2 PUSH1 0x20 SWAP1 SWAP2 ADD SWAP1 PUSH2 0x443D JUMP JUMPDEST POP POP POP POP POP POP JUMP JUMPDEST PUSH2 0x1246 DUP5 PUSH4 0x23B872DD PUSH1 0xE0 SHL DUP6 DUP6 DUP6 PUSH1 0x40 MLOAD PUSH1 0x24 ADD PUSH2 0x385E SWAP4 SWAP3 SWAP2 SWAP1 PUSH2 0x4CF0 JUMP JUMPDEST PUSH2 0x18DE DUP3 DUP3 PUSH1 0x40 MLOAD DUP1 PUSH1 0x20 ADD PUSH1 0x40 MSTORE DUP1 PUSH1 0x0 DUP2 MSTORE POP PUSH2 0x4021 JUMP JUMPDEST PUSH1 0x0 DUP2 DUP5 DUP5 GT ISZERO PUSH2 0x3C36 JUMPI PUSH1 0x40 MLOAD PUSH3 0x461BCD PUSH1 0xE5 SHL DUP2 MSTORE PUSH1 0x4 ADD PUSH2 0x6BD SWAP2 SWAP1 PUSH2 0x4DA3 JUMP JUMPDEST POP POP POP SWAP1 SUB SWAP1 JUMP JUMPDEST PUSH1 0x0 DUP2 DUP4 PUSH2 0x3C5F JUMPI PUSH1 0x40 MLOAD PUSH3 0x461BCD PUSH1 0xE5 SHL DUP2 MSTORE PUSH1 0x4 ADD PUSH2 0x6BD SWAP2 SWAP1 PUSH2 0x4DA3 JUMP JUMPDEST POP PUSH1 0x0 DUP4 DUP6 DUP2 PUSH2 0x3C6B JUMPI INVALID JUMPDEST DIV SWAP6 SWAP5 POP POP POP POP POP JUMP JUMPDEST PUSH1 0x0 DUP3 PUSH2 0x3C84 JUMPI POP PUSH1 0x0 PUSH2 0x976 JUMP JUMPDEST DUP3 DUP3 MUL DUP3 DUP5 DUP3 DUP2 PUSH2 0x3C91 JUMPI INVALID JUMPDEST DIV EQ PUSH2 0x973 JUMPI PUSH1 0x40 MLOAD PUSH3 0x461BCD PUSH1 0xE5 SHL DUP2 MSTORE PUSH1 0x4 ADD PUSH2 0x6BD SWAP1 PUSH2 0x5332 JUMP JUMPDEST PUSH1 0xF DUP1 SLOAD PUSH2 0x3CBE SWAP1 PUSH1 0x1 PUSH2 0x29F8 JUMP JUMPDEST DUP2 SLOAD DUP2 LT PUSH2 0x3CC8 JUMPI INVALID JUMPDEST SWAP1 PUSH1 0x0 MSTORE PUSH1 0x20 PUSH1 0x0 KECCAK256 ADD SLOAD PUSH1 0xF PUSH1 0x16 PUSH1 0x0 DUP5 DUP2 MSTORE PUSH1 0x20 ADD SWAP1 DUP2 MSTORE PUSH1 0x20 ADD PUSH1 0x0 KECCAK256 SLOAD DUP2 SLOAD DUP2 LT PUSH2 0x3CF3 JUMPI INVALID JUMPDEST PUSH1 0x0 SWAP2 DUP3 MSTORE PUSH1 0x20 DUP1 DUP4 KECCAK256 SWAP1 SWAP2 ADD SWAP3 SWAP1 SWAP3 SSTORE DUP3 DUP2 MSTORE PUSH1 0x16 SWAP2 DUP3 SWAP1 MSTORE PUSH1 0x40 DUP2 KECCAK256 SLOAD PUSH1 0xF DUP1 SLOAD SWAP2 SWAP4 SWAP3 SWAP2 PUSH2 0x3D25 SWAP1 PUSH1 0x1 PUSH2 0x29F8 JUMP JUMPDEST DUP2 SLOAD DUP2 LT PUSH2 0x3D2F JUMPI INVALID JUMPDEST SWAP1 PUSH1 0x0 MSTORE PUSH1 0x20 PUSH1 0x0 KECCAK256 ADD SLOAD DUP2 MSTORE PUSH1 0x20 ADD SWAP1 DUP2 MSTORE PUSH1 0x20 ADD PUSH1 0x0 KECCAK256 DUP2 SWAP1 SSTORE POP PUSH1 0xF DUP1 SLOAD DUP1 PUSH2 0x3D57 JUMPI INVALID JUMPDEST PUSH1 0x0 DUP3 DUP2 MSTORE PUSH1 0x20 DUP1 DUP3 KECCAK256 DUP4 ADD PUSH1 0x0 NOT SWAP1 DUP2 ADD DUP4 SWAP1 SSTORE SWAP1 SWAP3 ADD SWAP1 SWAP3 SSTORE SWAP2 DUP2 MSTORE PUSH1 0x16 SWAP1 SWAP2 MSTORE PUSH1 0x40 DUP2 KECCAK256 SSTORE JUMP JUMPDEST PUSH1 0x0 PUSH2 0x3D8C DUP3 PUSH2 0xBE6 JUMP JUMPDEST SWAP1 POP PUSH2 0x3D9A DUP2 PUSH1 0x0 DUP5 PUSH2 0x775 JUMP JUMPDEST PUSH2 0x3DA5 PUSH1 0x0 DUP4 PUSH2 0x1985 JUMP JUMPDEST PUSH1 0x0 DUP3 DUP2 MSTORE PUSH1 0x8 PUSH1 0x20 MSTORE PUSH1 0x40 SWAP1 KECCAK256 SLOAD PUSH1 0x2 PUSH1 0x0 NOT PUSH2 0x100 PUSH1 0x1 DUP5 AND ISZERO MUL ADD SWAP1 SWAP2 AND DIV ISZERO PUSH2 0x3DE3 JUMPI PUSH1 0x0 DUP3 DUP2 MSTORE PUSH1 0x8 PUSH1 0x20 MSTORE PUSH1 0x40 DUP2 KECCAK256 PUSH2 0x3DE3 SWAP2 PUSH2 0x456A JUMP JUMPDEST PUSH1 0x1 PUSH1 0x1 PUSH1 0xA0 SHL SUB DUP2 AND PUSH1 0x0 SWAP1 DUP2 MSTORE PUSH1 0x1 PUSH1 0x20 MSTORE PUSH1 0x40 SWAP1 KECCAK256 PUSH2 0x3E05 SWAP1 DUP4 PUSH2 0x3780 JUMP JUMPDEST POP PUSH2 0x3E11 PUSH1 0x2 DUP4 PUSH2 0x4054 JUMP JUMPDEST POP PUSH1 0x40 MLOAD DUP3 SWAP1 PUSH1 0x0 SWAP1 PUSH1 0x1 PUSH1 0x1 PUSH1 0xA0 SHL SUB DUP5 AND SWAP1 PUSH32 0xDDF252AD1BE2C89B69C2B068FC378DAA952BA7F163C4A11628F55A4DF523B3EF SWAP1 DUP4 SWAP1 LOG4 POP POP JUMP JUMPDEST PUSH1 0x0 DUP2 DUP2 MSTORE PUSH1 0x1 DUP4 ADD PUSH1 0x20 MSTORE PUSH1 0x40 DUP2 KECCAK256 SLOAD DUP1 ISZERO PUSH2 0x3F0A JUMPI DUP4 SLOAD PUSH1 0x0 NOT DUP1 DUP4 ADD SWAP2 SWAP1 DUP2 ADD SWAP1 PUSH1 0x0 SWAP1 DUP8 SWAP1 DUP4 SWAP1 DUP2 LT PUSH2 0x3E81 JUMPI INVALID JUMPDEST SWAP1 PUSH1 0x0 MSTORE PUSH1 0x20 PUSH1 0x0 KECCAK256 ADD SLOAD SWAP1 POP DUP1 DUP8 PUSH1 0x0 ADD DUP5 DUP2 SLOAD DUP2 LT PUSH2 0x3E9E JUMPI INVALID JUMPDEST PUSH1 0x0 SWAP2 DUP3 MSTORE PUSH1 0x20 DUP1 DUP4 KECCAK256 SWAP1 SWAP2 ADD SWAP3 SWAP1 SWAP3 SSTORE DUP3 DUP2 MSTORE PUSH1 0x1 DUP10 DUP2 ADD SWAP1 SWAP3 MSTORE PUSH1 0x40 SWAP1 KECCAK256 SWAP1 DUP5 ADD SWAP1 SSTORE DUP7 SLOAD DUP8 SWAP1 DUP1 PUSH2 0x3ECE JUMPI INVALID JUMPDEST PUSH1 0x1 SWAP1 SUB DUP2 DUP2 SWAP1 PUSH1 0x0 MSTORE PUSH1 0x20 PUSH1 0x0 KECCAK256 ADD PUSH1 0x0 SWAP1 SSTORE SWAP1 SSTORE DUP7 PUSH1 0x1 ADD PUSH1 0x0 DUP8 DUP2 MSTORE PUSH1 0x20 ADD SWAP1 DUP2 MSTORE PUSH1 0x20 ADD PUSH1 0x0 KECCAK256 PUSH1 0x0 SWAP1 SSTORE PUSH1 0x1 SWAP5 POP POP POP POP POP PUSH2 0x976 JUMP JUMPDEST PUSH1 0x0 SWAP2 POP POP PUSH2 0x976 JUMP JUMPDEST PUSH2 0x3F26 DUP3 PUSH1 0x1 PUSH1 0x1 PUSH1 0xA0 SHL SUB AND PUSH2 0x192F JUMP JUMPDEST PUSH2 0x3F42 JUMPI PUSH1 0x40 MLOAD PUSH3 0x461BCD PUSH1 0xE5 SHL DUP2 MSTORE PUSH1 0x4 ADD PUSH2 0x6BD SWAP1 PUSH2 0x5708 JUMP JUMPDEST PUSH1 0x0 PUSH1 0x60 DUP4 PUSH1 0x1 PUSH1 0x1 PUSH1 0xA0 SHL SUB AND DUP4 PUSH1 0x40 MLOAD PUSH2 0x3F5E SWAP2 SWAP1 PUSH2 0x4C0C JUMP JUMPDEST PUSH1 0x0 PUSH1 0x40 MLOAD DUP1 DUP4 SUB DUP2 PUSH1 0x0 DUP7 GAS CALL SWAP2 POP POP RETURNDATASIZE DUP1 PUSH1 0x0 DUP2 EQ PUSH2 0x3F9B JUMPI PUSH1 0x40 MLOAD SWAP2 POP PUSH1 0x1F NOT PUSH1 0x3F RETURNDATASIZE ADD AND DUP3 ADD PUSH1 0x40 MSTORE RETURNDATASIZE DUP3 MSTORE RETURNDATASIZE PUSH1 0x0 PUSH1 0x20 DUP5 ADD RETURNDATACOPY PUSH2 0x3FA0 JUMP JUMPDEST PUSH1 0x60 SWAP2 POP JUMPDEST POP SWAP2 POP SWAP2 POP DUP2 PUSH2 0x3FC2 JUMPI PUSH1 0x40 MLOAD PUSH3 0x461BCD PUSH1 0xE5 SHL DUP2 MSTORE PUSH1 0x4 ADD PUSH2 0x6BD SWAP1 PUSH2 0x50FA JUMP JUMPDEST DUP1 MLOAD ISZERO PUSH2 0x1246 JUMPI DUP1 DUP1 PUSH1 0x20 ADD SWAP1 MLOAD DUP2 ADD SWAP1 PUSH2 0x3FDD SWAP2 SWAP1 PUSH2 0x4A42 JUMP JUMPDEST PUSH2 0x1246 JUMPI PUSH1 0x40 MLOAD PUSH3 0x461BCD PUSH1 0xE5 SHL DUP2 MSTORE PUSH1 0x4 ADD PUSH2 0x6BD SWAP1 PUSH2 0x5674 JUMP JUMPDEST PUSH2 0x4001 PUSH2 0x433E JUMP JUMPDEST PUSH2 0x400A DUP3 PUSH2 0x7BE JUMP JUMPDEST SWAP1 POP PUSH2 0x4015 DUP3 PUSH2 0x3CAF JUMP JUMPDEST DUP1 MLOAD PUSH2 0x18DE SWAP1 DUP4 PUSH2 0x4060 JUMP JUMPDEST PUSH2 0x402B DUP4 DUP4 PUSH2 0x41A6 JUMP JUMPDEST PUSH2 0x4038 PUSH1 0x0 DUP5 DUP5 DUP5 PUSH2 0x39FA JUMP JUMPDEST PUSH2 0x775 JUMPI PUSH1 0x40 MLOAD PUSH3 0x461BCD PUSH1 0xE5 SHL DUP2 MSTORE PUSH1 0x4 ADD PUSH2 0x6BD SWAP1 PUSH2 0x4EBA JUMP JUMPDEST PUSH1 0x0 PUSH2 0x973 DUP4 DUP4 PUSH2 0x426A JUMP JUMPDEST PUSH1 0x60 PUSH2 0x4086 PUSH1 0x1 PUSH1 0x10 DUP6 DUP2 SLOAD DUP2 LT PUSH2 0x4074 JUMPI INVALID JUMPDEST PUSH1 0x0 SWAP2 DUP3 MSTORE PUSH1 0x20 SWAP1 SWAP2 KECCAK256 ADD SLOAD SWAP1 PUSH2 0x29F8 JUMP JUMPDEST PUSH1 0x1 PUSH1 0x1 PUSH1 0x40 SHL SUB DUP2 GT DUP1 ISZERO PUSH2 0x409B JUMPI PUSH1 0x0 DUP1 REVERT JUMPDEST POP PUSH1 0x40 MLOAD SWAP1 DUP1 DUP3 MSTORE DUP1 PUSH1 0x20 MUL PUSH1 0x20 ADD DUP3 ADD PUSH1 0x40 MSTORE DUP1 ISZERO PUSH2 0x40C5 JUMPI DUP2 PUSH1 0x20 ADD PUSH1 0x20 DUP3 MUL DUP1 CALLDATASIZE DUP4 CALLDATACOPY ADD SWAP1 POP JUMPDEST POP SWAP1 POP PUSH1 0x0 DUP1 JUMPDEST PUSH1 0x10 DUP6 DUP2 SLOAD DUP2 LT PUSH2 0x40D9 JUMPI INVALID JUMPDEST PUSH1 0x0 SWAP2 DUP3 MSTORE PUSH1 0x20 SWAP1 SWAP2 KECCAK256 ADD SLOAD DUP2 LT ISZERO PUSH2 0x4173 JUMPI DUP4 PUSH1 0x10 DUP7 DUP2 SLOAD DUP2 LT PUSH2 0x40FA JUMPI INVALID JUMPDEST SWAP1 PUSH1 0x0 MSTORE PUSH1 0x20 PUSH1 0x0 KECCAK256 ADD DUP3 DUP2 SLOAD DUP2 LT PUSH2 0x410F JUMPI INVALID JUMPDEST SWAP1 PUSH1 0x0 MSTORE PUSH1 0x20 PUSH1 0x0 KECCAK256 ADD SLOAD EQ PUSH2 0x416B JUMPI PUSH1 0x10 DUP6 DUP2 SLOAD DUP2 LT PUSH2 0x412C JUMPI INVALID JUMPDEST SWAP1 PUSH1 0x0 MSTORE PUSH1 0x20 PUSH1 0x0 KECCAK256 ADD DUP2 DUP2 SLOAD DUP2 LT PUSH2 0x4141 JUMPI INVALID JUMPDEST SWAP1 PUSH1 0x0 MSTORE PUSH1 0x20 PUSH1 0x0 KECCAK256 ADD SLOAD DUP4 DUP4 DUP1 PUSH1 0x1 ADD SWAP5 POP DUP2 MLOAD DUP2 LT PUSH2 0x415E JUMPI INVALID JUMPDEST PUSH1 0x20 MUL PUSH1 0x20 ADD ADD DUP2 DUP2 MSTORE POP POP JUMPDEST PUSH1 0x1 ADD PUSH2 0x40CC JUMP JUMPDEST POP DUP2 PUSH1 0x10 DUP6 DUP2 SLOAD DUP2 LT PUSH2 0x4182 JUMPI INVALID JUMPDEST SWAP1 PUSH1 0x0 MSTORE PUSH1 0x20 PUSH1 0x0 KECCAK256 ADD SWAP1 DUP1 MLOAD SWAP1 PUSH1 0x20 ADD SWAP1 PUSH2 0x419F SWAP3 SWAP2 SWAP1 PUSH2 0x443D JUMP JUMPDEST POP POP POP POP POP JUMP JUMPDEST PUSH1 0x1 PUSH1 0x1 PUSH1 0xA0 SHL SUB DUP3 AND PUSH2 0x41CC JUMPI PUSH1 0x40 MLOAD PUSH3 0x461BCD PUSH1 0xE5 SHL DUP2 MSTORE PUSH1 0x4 ADD PUSH2 0x6BD SWAP1 PUSH2 0x52FD JUMP JUMPDEST PUSH2 0x41D5 DUP2 PUSH2 0x1974 JUMP JUMPDEST ISZERO PUSH2 0x41F2 JUMPI PUSH1 0x40 MLOAD PUSH3 0x461BCD PUSH1 0xE5 SHL DUP2 MSTORE PUSH1 0x4 ADD PUSH2 0x6BD SWAP1 PUSH2 0x4F52 JUMP JUMPDEST PUSH2 0x41FE PUSH1 0x0 DUP4 DUP4 PUSH2 0x775 JUMP JUMPDEST PUSH1 0x1 PUSH1 0x1 PUSH1 0xA0 SHL SUB DUP3 AND PUSH1 0x0 SWAP1 DUP2 MSTORE PUSH1 0x1 PUSH1 0x20 MSTORE PUSH1 0x40 SWAP1 KECCAK256 PUSH2 0x4220 SWAP1 DUP3 PUSH2 0x1903 JUMP JUMPDEST POP PUSH2 0x422D PUSH1 0x2 DUP3 DUP5 PUSH2 0x190F JUMP JUMPDEST POP PUSH1 0x40 MLOAD DUP2 SWAP1 PUSH1 0x1 PUSH1 0x1 PUSH1 0xA0 SHL SUB DUP5 AND SWAP1 PUSH1 0x0 SWAP1 PUSH32 0xDDF252AD1BE2C89B69C2B068FC378DAA952BA7F163C4A11628F55A4DF523B3EF SWAP1 DUP3 SWAP1 LOG4 POP POP JUMP JUMPDEST PUSH1 0x0 DUP2 DUP2 MSTORE PUSH1 0x1 DUP4 ADD PUSH1 0x20 MSTORE PUSH1 0x40 DUP2 KECCAK256 SLOAD DUP1 ISZERO PUSH2 0x3F0A JUMPI DUP4 SLOAD PUSH1 0x0 NOT DUP1 DUP4 ADD SWAP2 SWAP1 DUP2 ADD SWAP1 PUSH1 0x0 SWAP1 DUP8 SWAP1 DUP4 SWAP1 DUP2 LT PUSH2 0x429D JUMPI INVALID JUMPDEST SWAP1 PUSH1 0x0 MSTORE PUSH1 0x20 PUSH1 0x0 KECCAK256 SWAP1 PUSH1 0x2 MUL ADD SWAP1 POP DUP1 DUP8 PUSH1 0x0 ADD DUP5 DUP2 SLOAD DUP2 LT PUSH2 0x42BD JUMPI INVALID JUMPDEST PUSH1 0x0 SWAP2 DUP3 MSTORE PUSH1 0x20 DUP1 DUP4 KECCAK256 DUP5 SLOAD PUSH1 0x2 SWAP1 SWAP4 MUL ADD SWAP2 DUP3 SSTORE PUSH1 0x1 SWAP4 DUP5 ADD SLOAD SWAP2 DUP5 ADD SWAP2 SWAP1 SWAP2 SSTORE DUP4 SLOAD DUP3 MSTORE DUP10 DUP4 ADD SWAP1 MSTORE PUSH1 0x40 SWAP1 KECCAK256 SWAP1 DUP5 ADD SWAP1 SSTORE DUP7 SLOAD DUP8 SWAP1 DUP1 PUSH2 0x42FC JUMPI INVALID JUMPDEST PUSH1 0x0 DUP3 DUP2 MSTORE PUSH1 0x20 DUP1 DUP3 KECCAK256 PUSH1 0x2 PUSH1 0x0 NOT SWAP1 SWAP5 ADD SWAP4 DUP5 MUL ADD DUP3 DUP2 SSTORE PUSH1 0x1 SWAP1 DUP2 ADD DUP4 SWAP1 SSTORE SWAP3 SWAP1 SWAP4 SSTORE DUP9 DUP2 MSTORE DUP10 DUP3 ADD SWAP1 SWAP3 MSTORE PUSH1 0x40 DUP3 KECCAK256 SWAP2 SWAP1 SWAP2 SSTORE SWAP5 POP PUSH2 0x976 SWAP4 POP POP POP POP JUMP JUMPDEST PUSH1 0x40 MLOAD DUP1 PUSH1 0xE0 ADD PUSH1 0x40 MSTORE DUP1 PUSH1 0x0 DUP2 MSTORE PUSH1 0x20 ADD PUSH1 0x0 DUP2 MSTORE PUSH1 0x20 ADD PUSH1 0x0 DUP2 MSTORE PUSH1 0x20 ADD PUSH1 0x0 DUP2 MSTORE PUSH1 0x20 ADD PUSH2 0x436D PUSH2 0x45AE JUMP JUMPDEST DUP2 MSTORE PUSH1 0x20 ADD PUSH2 0x437A PUSH2 0x45CC JUMP JUMPDEST DUP2 MSTORE PUSH1 0x20 ADD PUSH1 0x60 DUP2 MSTORE POP SWAP1 JUMP JUMPDEST PUSH1 0x40 MLOAD DUP1 PUSH1 0x60 ADD PUSH1 0x40 MSTORE DUP1 PUSH1 0x60 DUP2 MSTORE PUSH1 0x20 ADD PUSH1 0x60 DUP2 MSTORE PUSH1 0x20 ADD PUSH1 0x60 DUP2 MSTORE POP SWAP1 JUMP JUMPDEST PUSH1 0x40 DUP1 MLOAD DUP1 DUP3 ADD SWAP1 SWAP2 MSTORE PUSH1 0x0 DUP1 DUP3 MSTORE PUSH1 0x20 DUP3 ADD MSTORE SWAP1 JUMP JUMPDEST DUP3 DUP1 SLOAD PUSH1 0x1 DUP2 PUSH1 0x1 AND ISZERO PUSH2 0x100 MUL SUB AND PUSH1 0x2 SWAP1 DIV SWAP1 PUSH1 0x0 MSTORE PUSH1 0x20 PUSH1 0x0 KECCAK256 SWAP1 PUSH1 0x1F ADD PUSH1 0x20 SWAP1 DIV DUP2 ADD SWAP3 DUP3 PUSH1 0x1F LT PUSH2 0x4400 JUMPI DUP1 MLOAD PUSH1 0xFF NOT AND DUP4 DUP1 ADD OR DUP6 SSTORE PUSH2 0x442D JUMP JUMPDEST DUP3 DUP1 ADD PUSH1 0x1 ADD DUP6 SSTORE DUP3 ISZERO PUSH2 0x442D JUMPI SWAP2 DUP3 ADD JUMPDEST DUP3 DUP2 GT ISZERO PUSH2 0x442D JUMPI DUP3 MLOAD DUP3 SSTORE SWAP2 PUSH1 0x20 ADD SWAP2 SWAP1 PUSH1 0x1 ADD SWAP1 PUSH2 0x4412 JUMP JUMPDEST POP PUSH2 0x4439 SWAP3 SWAP2 POP PUSH2 0x45EA JUMP JUMPDEST POP SWAP1 JUMP JUMPDEST DUP3 DUP1 SLOAD DUP3 DUP3 SSTORE SWAP1 PUSH1 0x0 MSTORE PUSH1 0x20 PUSH1 0x0 KECCAK256 SWAP1 DUP2 ADD SWAP3 DUP3 ISZERO PUSH2 0x442D JUMPI SWAP2 PUSH1 0x20 MUL DUP3 ADD DUP3 DUP2 GT ISZERO PUSH2 0x442D JUMPI DUP3 MLOAD DUP3 SSTORE SWAP2 PUSH1 0x20 ADD SWAP2 SWAP1 PUSH1 0x1 ADD SWAP1 PUSH2 0x4412 JUMP JUMPDEST DUP3 PUSH1 0x2 DUP2 ADD SWAP3 DUP3 ISZERO PUSH2 0x44BF JUMPI SWAP2 PUSH1 0x20 MUL DUP3 ADD JUMPDEST DUP3 DUP2 GT ISZERO PUSH2 0x44BF JUMPI DUP3 MLOAD DUP3 SLOAD PUSH1 0x1 PUSH1 0x1 PUSH1 0xA0 SHL SUB NOT AND PUSH1 0x1 PUSH1 0x1 PUSH1 0xA0 SHL SUB SWAP1 SWAP2 AND OR DUP3 SSTORE PUSH1 0x20 SWAP1 SWAP3 ADD SWAP2 PUSH1 0x1 SWAP1 SWAP2 ADD SWAP1 PUSH2 0x448A JUMP JUMPDEST POP PUSH2 0x4439 SWAP3 SWAP2 POP PUSH2 0x45FF JUMP JUMPDEST DUP3 PUSH1 0x3 DUP2 ADD SWAP3 DUP3 ISZERO PUSH2 0x442D JUMPI SWAP2 PUSH1 0x20 MUL DUP3 ADD DUP3 DUP2 GT ISZERO PUSH2 0x442D JUMPI DUP3 MLOAD DUP3 SSTORE SWAP2 PUSH1 0x20 ADD SWAP2 SWAP1 PUSH1 0x1 ADD SWAP1 PUSH2 0x4412 JUMP JUMPDEST POP DUP1 SLOAD PUSH1 0x0 DUP3 SSTORE SWAP1 PUSH1 0x0 MSTORE PUSH1 0x20 PUSH1 0x0 KECCAK256 SWAP1 DUP2 ADD SWAP1 PUSH2 0xA12 SWAP2 SWAP1 PUSH2 0x45EA JUMP JUMPDEST DUP3 DUP1 SLOAD DUP3 DUP3 SSTORE SWAP1 PUSH1 0x0 MSTORE PUSH1 0x20 PUSH1 0x0 KECCAK256 SWAP1 DUP2 ADD SWAP3 DUP3 ISZERO PUSH2 0x44BF JUMPI SWAP2 PUSH1 0x20 MUL DUP3 ADD DUP3 DUP2 GT ISZERO PUSH2 0x44BF JUMPI DUP3 MLOAD DUP3 SLOAD PUSH1 0x1 PUSH1 0x1 PUSH1 0xA0 SHL SUB NOT AND PUSH1 0x1 PUSH1 0x1 PUSH1 0xA0 SHL SUB SWAP1 SWAP2 AND OR DUP3 SSTORE PUSH1 0x20 SWAP1 SWAP3 ADD SWAP2 PUSH1 0x1 SWAP1 SWAP2 ADD SWAP1 PUSH2 0x448A JUMP JUMPDEST POP DUP1 SLOAD PUSH1 0x1 DUP2 PUSH1 0x1 AND ISZERO PUSH2 0x100 MUL SUB AND PUSH1 0x2 SWAP1 DIV PUSH1 0x0 DUP3 SSTORE DUP1 PUSH1 0x1F LT PUSH2 0x4590 JUMPI POP PUSH2 0xA12 JUMP JUMPDEST PUSH1 0x1F ADD PUSH1 0x20 SWAP1 DIV SWAP1 PUSH1 0x0 MSTORE PUSH1 0x20 PUSH1 0x0 KECCAK256 SWAP1 DUP2 ADD SWAP1 PUSH2 0xA12 SWAP2 SWAP1 PUSH2 0x45EA JUMP JUMPDEST PUSH1 0x40 MLOAD DUP1 PUSH1 0x40 ADD PUSH1 0x40 MSTORE DUP1 PUSH1 0x2 SWAP1 PUSH1 0x20 DUP3 MUL DUP1 CALLDATASIZE DUP4 CALLDATACOPY POP SWAP2 SWAP3 SWAP2 POP POP JUMP JUMPDEST PUSH1 0x40 MLOAD DUP1 PUSH1 0x60 ADD PUSH1 0x40 MSTORE DUP1 PUSH1 0x3 SWAP1 PUSH1 0x20 DUP3 MUL DUP1 CALLDATASIZE DUP4 CALLDATACOPY POP SWAP2 SWAP3 SWAP2 POP POP JUMP JUMPDEST JUMPDEST DUP1 DUP3 GT ISZERO PUSH2 0x4439 JUMPI PUSH1 0x0 DUP2 SSTORE PUSH1 0x1 ADD PUSH2 0x45EB JUMP JUMPDEST JUMPDEST DUP1 DUP3 GT ISZERO PUSH2 0x4439 JUMPI DUP1 SLOAD PUSH1 0x1 PUSH1 0x1 PUSH1 0xA0 SHL SUB NOT AND DUP2 SSTORE PUSH1 0x1 ADD PUSH2 0x4600 JUMP JUMPDEST PUSH1 0x0 DUP3 PUSH1 0x1F DUP4 ADD SLT PUSH2 0x462E JUMPI DUP1 DUP2 REVERT JUMPDEST DUP2 CALLDATALOAD PUSH2 0x4641 PUSH2 0x463C DUP3 PUSH2 0x58AC JUMP JUMPDEST PUSH2 0x5886 JUMP JUMPDEST DUP2 DUP2 MSTORE SWAP2 POP PUSH1 0x20 DUP1 DUP4 ADD SWAP1 DUP5 DUP2 ADD DUP2 DUP5 MUL DUP7 ADD DUP3 ADD DUP8 LT ISZERO PUSH2 0x4662 JUMPI PUSH1 0x0 DUP1 REVERT JUMPDEST PUSH1 0x0 JUMPDEST DUP5 DUP2 LT ISZERO PUSH2 0x468A JUMPI DUP2 CALLDATALOAD PUSH2 0x4678 DUP2 PUSH2 0x58F7 JUMP JUMPDEST DUP5 MSTORE SWAP3 DUP3 ADD SWAP3 SWAP1 DUP3 ADD SWAP1 PUSH1 0x1 ADD PUSH2 0x4665 JUMP JUMPDEST POP POP POP POP POP SWAP3 SWAP2 POP POP JUMP JUMPDEST PUSH1 0x0 DUP3 PUSH1 0x1F DUP4 ADD SLT PUSH2 0x46A5 JUMPI DUP1 DUP2 REVERT JUMPDEST DUP2 CALLDATALOAD PUSH2 0x46B3 PUSH2 0x463C DUP3 PUSH2 0x58AC JUMP JUMPDEST DUP2 DUP2 MSTORE SWAP2 POP PUSH1 0x20 DUP1 DUP4 ADD SWAP1 DUP5 DUP2 ADD DUP2 DUP5 MUL DUP7 ADD DUP3 ADD DUP8 LT ISZERO PUSH2 0x46D4 JUMPI PUSH1 0x0 DUP1 REVERT JUMPDEST PUSH1 0x0 JUMPDEST DUP5 DUP2 LT ISZERO PUSH2 0x468A JUMPI DUP2 CALLDATALOAD DUP5 MSTORE SWAP3 DUP3 ADD SWAP3 SWAP1 DUP3 ADD SWAP1 PUSH1 0x1 ADD PUSH2 0x46D7 JUMP JUMPDEST PUSH1 0x0 DUP3 PUSH1 0x1F DUP4 ADD SLT PUSH2 0x4703 JUMPI DUP1 DUP2 REVERT JUMPDEST DUP2 CALLDATALOAD PUSH1 0x1 PUSH1 0x1 PUSH1 0x40 SHL SUB DUP2 GT ISZERO PUSH2 0x4718 JUMPI DUP2 DUP3 REVERT JUMPDEST PUSH2 0x472B PUSH1 0x1F DUP3 ADD PUSH1 0x1F NOT AND PUSH1 0x20 ADD PUSH2 0x5886 JUMP JUMPDEST SWAP2 POP DUP1 DUP3 MSTORE DUP4 PUSH1 0x20 DUP3 DUP6 ADD ADD GT ISZERO PUSH2 0x4742 JUMPI PUSH1 0x0 DUP1 REVERT JUMPDEST DUP1 PUSH1 0x20 DUP5 ADD PUSH1 0x20 DUP5 ADD CALLDATACOPY PUSH1 0x0 SWAP1 DUP3 ADD PUSH1 0x20 ADD MSTORE SWAP3 SWAP2 POP POP JUMP JUMPDEST PUSH1 0x0 PUSH1 0x20 DUP3 DUP5 SUB SLT ISZERO PUSH2 0x476C JUMPI DUP1 DUP2 REVERT JUMPDEST DUP2 CALLDATALOAD PUSH2 0x973 DUP2 PUSH2 0x58F7 JUMP JUMPDEST PUSH1 0x0 PUSH1 0x20 DUP3 DUP5 SUB SLT ISZERO PUSH2 0x4788 JUMPI DUP1 DUP2 REVERT JUMPDEST DUP2 MLOAD PUSH2 0x973 DUP2 PUSH2 0x58F7 JUMP JUMPDEST PUSH1 0x0 DUP1 PUSH1 0x40 DUP4 DUP6 SUB SLT ISZERO PUSH2 0x47A5 JUMPI DUP1 DUP2 REVERT JUMPDEST DUP3 CALLDATALOAD PUSH2 0x47B0 DUP2 PUSH2 0x58F7 JUMP JUMPDEST SWAP2 POP PUSH1 0x20 DUP4 ADD CALLDATALOAD PUSH2 0x47C0 DUP2 PUSH2 0x58F7 JUMP JUMPDEST DUP1 SWAP2 POP POP SWAP3 POP SWAP3 SWAP1 POP JUMP JUMPDEST PUSH1 0x0 DUP1 PUSH1 0x0 PUSH1 0x60 DUP5 DUP7 SUB SLT ISZERO PUSH2 0x47DF JUMPI DUP1 DUP2 REVERT JUMPDEST DUP4 CALLDATALOAD PUSH2 0x47EA DUP2 PUSH2 0x58F7 JUMP JUMPDEST SWAP3 POP PUSH1 0x20 DUP5 ADD CALLDATALOAD PUSH2 0x47FA DUP2 PUSH2 0x58F7 JUMP JUMPDEST SWAP3 SWAP6 SWAP3 SWAP5 POP POP POP PUSH1 0x40 SWAP2 SWAP1 SWAP2 ADD CALLDATALOAD SWAP1 JUMP JUMPDEST PUSH1 0x0 DUP1 PUSH1 0x0 DUP1 PUSH1 0x80 DUP6 DUP8 SUB SLT ISZERO PUSH2 0x4820 JUMPI DUP1 DUP2 REVERT JUMPDEST DUP5 CALLDATALOAD PUSH2 0x482B DUP2 PUSH2 0x58F7 JUMP JUMPDEST SWAP4 POP PUSH1 0x20 DUP6 ADD CALLDATALOAD PUSH2 0x483B DUP2 PUSH2 0x58F7 JUMP JUMPDEST SWAP3 POP PUSH1 0x40 DUP6 ADD CALLDATALOAD SWAP2 POP PUSH1 0x60 DUP6 ADD CALLDATALOAD PUSH1 0x1 PUSH1 0x1 PUSH1 0x40 SHL SUB DUP2 GT ISZERO PUSH2 0x485C JUMPI DUP2 DUP3 REVERT JUMPDEST PUSH2 0x4868 DUP8 DUP3 DUP9 ADD PUSH2 0x46F3 JUMP JUMPDEST SWAP2 POP POP SWAP3 SWAP6 SWAP2 SWAP5 POP SWAP3 POP JUMP JUMPDEST PUSH1 0x0 DUP1 PUSH1 0x0 DUP1 PUSH1 0x80 DUP6 DUP8 SUB SLT ISZERO PUSH2 0x4889 JUMPI DUP4 DUP5 REVERT JUMPDEST DUP5 CALLDATALOAD PUSH2 0x4894 DUP2 PUSH2 0x58F7 JUMP JUMPDEST SWAP4 POP PUSH1 0x20 DUP6 ADD CALLDATALOAD PUSH1 0x1 PUSH1 0x1 PUSH1 0x40 SHL SUB DUP1 DUP3 GT ISZERO PUSH2 0x48AF JUMPI DUP5 DUP6 REVERT JUMPDEST PUSH2 0x48BB DUP9 DUP4 DUP10 ADD PUSH2 0x461E JUMP JUMPDEST SWAP5 POP PUSH1 0x40 DUP8 ADD CALLDATALOAD SWAP2 POP DUP1 DUP3 GT ISZERO PUSH2 0x48D0 JUMPI DUP4 DUP5 REVERT JUMPDEST PUSH2 0x48DC DUP9 DUP4 DUP10 ADD PUSH2 0x4695 JUMP JUMPDEST SWAP4 POP PUSH1 0x60 DUP8 ADD CALLDATALOAD SWAP2 POP DUP1 DUP3 GT ISZERO PUSH2 0x48F1 JUMPI DUP3 DUP4 REVERT JUMPDEST POP PUSH2 0x4868 DUP8 DUP3 DUP9 ADD PUSH2 0x4695 JUMP JUMPDEST PUSH1 0x0 DUP1 PUSH1 0x40 DUP4 DUP6 SUB SLT ISZERO PUSH2 0x4910 JUMPI DUP2 DUP3 REVERT JUMPDEST DUP3 CALLDATALOAD PUSH2 0x491B DUP2 PUSH2 0x58F7 JUMP JUMPDEST SWAP2 POP PUSH1 0x20 DUP4 ADD CALLDATALOAD PUSH2 0x47C0 DUP2 PUSH2 0x590C JUMP JUMPDEST PUSH1 0x0 DUP1 PUSH1 0x40 DUP4 DUP6 SUB SLT ISZERO PUSH2 0x493D JUMPI DUP2 DUP3 REVERT JUMPDEST DUP3 CALLDATALOAD PUSH2 0x4948 DUP2 PUSH2 0x58F7 JUMP JUMPDEST SWAP5 PUSH1 0x20 SWAP4 SWAP1 SWAP4 ADD CALLDATALOAD SWAP4 POP POP POP JUMP JUMPDEST PUSH1 0x0 DUP1 PUSH1 0x0 DUP1 PUSH1 0x80 DUP6 DUP8 SUB SLT ISZERO PUSH2 0x496B JUMPI DUP2 DUP3 REVERT JUMPDEST DUP5 CALLDATALOAD PUSH2 0x4976 DUP2 PUSH2 0x58F7 JUMP JUMPDEST SWAP4 POP PUSH1 0x20 DUP6 ADD CALLDATALOAD SWAP3 POP PUSH1 0x40 DUP6 ADD CALLDATALOAD PUSH2 0x498D DUP2 PUSH2 0x58F7 JUMP JUMPDEST SWAP2 POP PUSH1 0x60 DUP6 ADD CALLDATALOAD PUSH1 0x1 PUSH1 0x1 PUSH1 0x40 SHL SUB DUP2 GT ISZERO PUSH2 0x49A7 JUMPI DUP2 DUP3 REVERT JUMPDEST PUSH2 0x4868 DUP8 DUP3 DUP9 ADD PUSH2 0x461E JUMP JUMPDEST PUSH1 0x0 PUSH1 0x20 DUP1 DUP4 DUP6 SUB SLT ISZERO PUSH2 0x49C5 JUMPI DUP2 DUP3 REVERT JUMPDEST DUP3 MLOAD PUSH1 0x1 PUSH1 0x1 PUSH1 0x40 SHL SUB DUP2 GT ISZERO PUSH2 0x49DA JUMPI DUP3 DUP4 REVERT JUMPDEST DUP4 ADD PUSH1 0x1F DUP2 ADD DUP6 SGT PUSH2 0x49EA JUMPI DUP3 DUP4 REVERT JUMPDEST DUP1 MLOAD PUSH2 0x49F8 PUSH2 0x463C DUP3 PUSH2 0x58AC JUMP JUMPDEST DUP2 DUP2 MSTORE DUP4 DUP2 ADD SWAP1 DUP4 DUP6 ADD DUP6 DUP5 MUL DUP6 ADD DUP7 ADD DUP10 LT ISZERO PUSH2 0x4A14 JUMPI DUP7 DUP8 REVERT JUMPDEST DUP7 SWAP5 POP JUMPDEST DUP4 DUP6 LT ISZERO PUSH2 0x4A36 JUMPI DUP1 MLOAD DUP4 MSTORE PUSH1 0x1 SWAP5 SWAP1 SWAP5 ADD SWAP4 SWAP2 DUP6 ADD SWAP2 DUP6 ADD PUSH2 0x4A18 JUMP JUMPDEST POP SWAP8 SWAP7 POP POP POP POP POP POP POP JUMP JUMPDEST PUSH1 0x0 PUSH1 0x20 DUP3 DUP5 SUB SLT ISZERO PUSH2 0x4A53 JUMPI DUP1 DUP2 REVERT JUMPDEST DUP2 MLOAD PUSH2 0x973 DUP2 PUSH2 0x590C JUMP JUMPDEST PUSH1 0x0 PUSH1 0x20 DUP3 DUP5 SUB SLT ISZERO PUSH2 0x4A6F JUMPI DUP1 DUP2 REVERT JUMPDEST DUP2 CALLDATALOAD PUSH2 0x973 DUP2 PUSH2 0x591A JUMP JUMPDEST PUSH1 0x0 PUSH1 0x20 DUP3 DUP5 SUB SLT ISZERO PUSH2 0x4A8B JUMPI DUP1 DUP2 REVERT JUMPDEST DUP2 MLOAD PUSH2 0x973 DUP2 PUSH2 0x591A JUMP JUMPDEST PUSH1 0x0 PUSH1 0x20 DUP3 DUP5 SUB SLT ISZERO PUSH2 0x4AA7 JUMPI DUP1 DUP2 REVERT JUMPDEST DUP2 CALLDATALOAD PUSH1 0x1 PUSH1 0x1 PUSH1 0x40 SHL SUB DUP2 GT ISZERO PUSH2 0x4ABC JUMPI DUP2 DUP3 REVERT JUMPDEST PUSH2 0x1741 DUP5 DUP3 DUP6 ADD PUSH2 0x46F3 JUMP JUMPDEST PUSH1 0x0 PUSH1 0x20 DUP3 DUP5 SUB SLT ISZERO PUSH2 0x4AD9 JUMPI DUP1 DUP2 REVERT JUMPDEST POP CALLDATALOAD SWAP2 SWAP1 POP JUMP JUMPDEST PUSH1 0x0 PUSH1 0x20 DUP3 DUP5 SUB SLT ISZERO PUSH2 0x4AF1 JUMPI DUP1 DUP2 REVERT JUMPDEST POP MLOAD SWAP2 SWAP1 POP JUMP JUMPDEST PUSH1 0x0 DUP1 PUSH1 0x40 DUP4 DUP6 SUB SLT ISZERO PUSH2 0x4B0A JUMPI DUP2 DUP3 REVERT JUMPDEST POP POP DUP1 CALLDATALOAD SWAP3 PUSH1 0x20 SWAP1 SWAP2 ADD CALLDATALOAD SWAP2 POP JUMP JUMPDEST PUSH1 0x0 PUSH1 0x20 DUP3 DUP5 SUB SLT ISZERO PUSH2 0x4B2A JUMPI DUP1 DUP2 REVERT JUMPDEST DUP2 MLOAD PUSH1 0xFF DUP2 AND DUP2 EQ PUSH2 0x973 JUMPI DUP2 DUP3 REVERT JUMPDEST PUSH1 0x1 PUSH1 0x1 PUSH1 0xA0 SHL SUB AND DUP2 MSTORE PUSH1 0x20 ADD SWAP1 JUMP JUMPDEST PUSH1 0x0 DUP2 MLOAD DUP1 DUP5 MSTORE PUSH1 0x20 DUP1 DUP6 ADD SWAP5 POP DUP1 DUP5 ADD DUP4 JUMPDEST DUP4 DUP2 LT ISZERO PUSH2 0x4B83 JUMPI DUP2 MLOAD PUSH1 0x1 PUSH1 0x1 PUSH1 0xA0 SHL SUB AND DUP8 MSTORE SWAP6 DUP3 ADD SWAP6 SWAP1 DUP3 ADD SWAP1 PUSH1 0x1 ADD PUSH2 0x4B5E JUMP JUMPDEST POP SWAP5 SWAP6 SWAP5 POP POP POP POP POP JUMP JUMPDEST DUP1 PUSH1 0x0 JUMPDEST PUSH1 0x3 DUP2 LT ISZERO PUSH2 0x1246 JUMPI DUP2 MLOAD DUP5 MSTORE PUSH1 0x20 SWAP4 DUP5 ADD SWAP4 SWAP1 SWAP2 ADD SWAP1 PUSH1 0x1 ADD PUSH2 0x4B92 JUMP JUMPDEST PUSH1 0x0 DUP2 MLOAD DUP1 DUP5 MSTORE PUSH1 0x20 DUP1 DUP6 ADD SWAP5 POP DUP1 DUP5 ADD DUP4 JUMPDEST DUP4 DUP2 LT ISZERO PUSH2 0x4B83 JUMPI DUP2 MLOAD DUP8 MSTORE SWAP6 DUP3 ADD SWAP6 SWAP1 DUP3 ADD SWAP1 PUSH1 0x1 ADD PUSH2 0x4BC4 JUMP JUMPDEST PUSH1 0x0 DUP2 MLOAD DUP1 DUP5 MSTORE PUSH2 0x4BF8 DUP2 PUSH1 0x20 DUP7 ADD PUSH1 0x20 DUP7 ADD PUSH2 0x58CB JUMP JUMPDEST PUSH1 0x1F ADD PUSH1 0x1F NOT AND SWAP3 SWAP1 SWAP3 ADD PUSH1 0x20 ADD SWAP3 SWAP2 POP POP JUMP JUMPDEST PUSH1 0x0 DUP3 MLOAD PUSH2 0x4C1E DUP2 DUP5 PUSH1 0x20 DUP8 ADD PUSH2 0x58CB JUMP JUMPDEST SWAP2 SWAP1 SWAP2 ADD SWAP3 SWAP2 POP POP JUMP JUMPDEST PUSH1 0x0 DUP1 DUP5 SLOAD PUSH1 0x1 DUP1 DUP3 AND PUSH1 0x0 DUP2 EQ PUSH2 0x4C47 JUMPI PUSH1 0x1 DUP2 EQ PUSH2 0x4C5E JUMPI PUSH2 0x4C8D JUMP JUMPDEST PUSH1 0xFF NOT DUP4 AND DUP7 MSTORE PUSH1 0x2 DUP4 DIV PUSH1 0x7F AND DUP7 ADD SWAP4 POP PUSH2 0x4C8D JUMP JUMPDEST PUSH1 0x2 DUP4 DIV DUP9 DUP7 MSTORE PUSH1 0x20 DUP1 DUP8 KECCAK256 DUP8 JUMPDEST DUP4 DUP2 LT ISZERO PUSH2 0x4C85 JUMPI DUP2 SLOAD DUP11 DUP3 ADD MSTORE SWAP1 DUP6 ADD SWAP1 DUP3 ADD PUSH2 0x4C6C JUMP JUMPDEST POP POP POP DUP7 ADD SWAP4 POP JUMPDEST POP POP POP DUP4 MLOAD PUSH2 0x4CA0 DUP2 DUP4 PUSH1 0x20 DUP9 ADD PUSH2 0x58CB JUMP JUMPDEST ADD SWAP5 SWAP4 POP POP POP POP JUMP JUMPDEST PUSH1 0x1 PUSH1 0x1 PUSH1 0xA0 SHL SUB SWAP2 SWAP1 SWAP2 AND DUP2 MSTORE PUSH1 0x20 ADD SWAP1 JUMP JUMPDEST PUSH1 0x1 PUSH1 0x1 PUSH1 0xA0 SHL SUB DUP6 DUP2 AND DUP3 MSTORE DUP5 AND PUSH1 0x20 DUP3 ADD MSTORE PUSH1 0x40 DUP2 ADD DUP4 SWAP1 MSTORE PUSH1 0x80 PUSH1 0x60 DUP3 ADD DUP2 SWAP1 MSTORE PUSH1 0x0 SWAP1 PUSH2 0x3234 SWAP1 DUP4 ADD DUP5 PUSH2 0x4BE0 JUMP JUMPDEST PUSH1 0x1 PUSH1 0x1 PUSH1 0xA0 SHL SUB SWAP4 DUP5 AND DUP2 MSTORE SWAP2 SWAP1 SWAP3 AND PUSH1 0x20 DUP3 ADD MSTORE PUSH1 0x40 DUP2 ADD SWAP2 SWAP1 SWAP2 MSTORE PUSH1 0x60 ADD SWAP1 JUMP JUMPDEST PUSH1 0x1 PUSH1 0x1 PUSH1 0xA0 SHL SUB SWAP3 SWAP1 SWAP3 AND DUP3 MSTORE PUSH1 0x20 DUP3 ADD MSTORE PUSH1 0x40 ADD SWAP1 JUMP JUMPDEST PUSH1 0x20 DUP1 DUP3 MSTORE DUP3 MLOAD DUP3 DUP3 ADD DUP2 SWAP1 MSTORE PUSH1 0x0 SWAP2 SWAP1 PUSH1 0x40 SWAP1 DUP2 DUP6 ADD SWAP1 DUP7 DUP5 ADD DUP6 JUMPDEST DUP3 DUP2 LT ISZERO PUSH2 0x4D78 JUMPI DUP2 MLOAD DUP1 MLOAD PUSH1 0x1 PUSH1 0x1 PUSH1 0xA0 SHL SUB AND DUP6 MSTORE DUP7 ADD MLOAD DUP7 DUP6 ADD MSTORE SWAP3 DUP5 ADD SWAP3 SWAP1 DUP6 ADD SWAP1 PUSH1 0x1 ADD PUSH2 0x4D4A JUMP JUMPDEST POP SWAP2 SWAP8 SWAP7 POP POP POP POP POP POP POP JUMP JUMPDEST PUSH1 0x0 PUSH1 0x20 DUP3 MSTORE PUSH2 0x973 PUSH1 0x20 DUP4 ADD DUP5 PUSH2 0x4BB1 JUMP JUMPDEST SWAP1 ISZERO ISZERO DUP2 MSTORE PUSH1 0x20 ADD SWAP1 JUMP JUMPDEST PUSH1 0x0 PUSH1 0x20 DUP3 MSTORE PUSH2 0x973 PUSH1 0x20 DUP4 ADD DUP5 PUSH2 0x4BE0 JUMP JUMPDEST PUSH1 0x20 DUP1 DUP3 MSTORE PUSH1 0x15 SWAP1 DUP3 ADD MSTORE PUSH21 0x21B7B93723349D1022BC3834B932B21027B93232B9 PUSH1 0x59 SHL PUSH1 0x40 DUP3 ADD MSTORE PUSH1 0x60 ADD SWAP1 JUMP JUMPDEST PUSH1 0x20 DUP1 DUP3 MSTORE PUSH1 0x22 SWAP1 DUP3 ADD MSTORE PUSH32 0x456E756D657261626C655365743A20696E646578206F7574206F6620626F756E PUSH1 0x40 DUP3 ADD MSTORE PUSH2 0x6473 PUSH1 0xF0 SHL PUSH1 0x60 DUP3 ADD MSTORE PUSH1 0x80 ADD SWAP1 JUMP JUMPDEST PUSH1 0x20 DUP1 DUP3 MSTORE PUSH1 0x30 SWAP1 DUP3 ADD MSTORE PUSH32 0x436F726E4669205661756C7420426173653A2043616C6C6572206973204E6F74 PUSH1 0x40 DUP3 ADD MSTORE PUSH16 0x103A3432902A37B5B2B71027BBB732B9 PUSH1 0x81 SHL PUSH1 0x60 DUP3 ADD MSTORE PUSH1 0x80 ADD SWAP1 JUMP JUMPDEST PUSH1 0x20 DUP1 DUP3 MSTORE PUSH1 0x23 SWAP1 DUP3 ADD MSTORE PUSH32 0x436F726E4669205661756C7420426173653A204964656E746963616C20546F6B PUSH1 0x40 DUP3 ADD MSTORE PUSH3 0x656E73 PUSH1 0xE8 SHL PUSH1 0x60 DUP3 ADD MSTORE PUSH1 0x80 ADD SWAP1 JUMP JUMPDEST PUSH1 0x20 DUP1 DUP3 MSTORE PUSH1 0x32 SWAP1 DUP3 ADD MSTORE PUSH32 0x4552433732313A207472616E7366657220746F206E6F6E204552433732315265 PUSH1 0x40 DUP3 ADD MSTORE PUSH18 0x31B2B4BB32B91034B6B83632B6B2B73A32B9 PUSH1 0x71 SHL PUSH1 0x60 DUP3 ADD MSTORE PUSH1 0x80 ADD SWAP1 JUMP JUMPDEST PUSH1 0x20 DUP1 DUP3 MSTORE PUSH1 0x26 SWAP1 DUP3 ADD MSTORE PUSH32 0x4F776E61626C653A206E6577206F776E657220697320746865207A65726F2061 PUSH1 0x40 DUP3 ADD MSTORE PUSH6 0x646472657373 PUSH1 0xD0 SHL PUSH1 0x60 DUP3 ADD MSTORE PUSH1 0x80 ADD SWAP1 JUMP JUMPDEST PUSH1 0x20 DUP1 DUP3 MSTORE PUSH1 0x1C SWAP1 DUP3 ADD MSTORE PUSH32 0x4552433732313A20746F6B656E20616C7265616479206D696E74656400000000 PUSH1 0x40 DUP3 ADD MSTORE PUSH1 0x60 ADD SWAP1 JUMP JUMPDEST PUSH1 0x20 DUP1 DUP3 MSTORE PUSH1 0x2A SWAP1 DUP3 ADD MSTORE PUSH32 0x436F726E4669205661756C7420426173653A204D696E696D756D204465706F73 PUSH1 0x40 DUP3 ADD MSTORE PUSH10 0x1A5D08139BDD0813595D PUSH1 0xB2 SHL PUSH1 0x60 DUP3 ADD MSTORE PUSH1 0x80 ADD SWAP1 JUMP JUMPDEST PUSH1 0x20 DUP1 DUP3 MSTORE PUSH1 0x25 SWAP1 DUP3 ADD MSTORE PUSH32 0x436F726E4669205661756C7420426173653A205472616465204C656E67746820 PUSH1 0x40 DUP3 ADD MSTORE PUSH5 0x22B93937B9 PUSH1 0xD9 SHL PUSH1 0x60 DUP3 ADD MSTORE PUSH1 0x80 ADD SWAP1 JUMP JUMPDEST PUSH1 0x20 DUP1 DUP3 MSTORE PUSH1 0x1B SWAP1 DUP3 ADD MSTORE PUSH32 0x536166654D6174683A206164646974696F6E206F766572666C6F770000000000 PUSH1 0x40 DUP3 ADD MSTORE PUSH1 0x60 ADD SWAP1 JUMP JUMPDEST PUSH1 0x20 DUP1 DUP3 MSTORE PUSH1 0x16 SWAP1 DUP3 ADD MSTORE PUSH22 0x436F726E46693A20496E76616C696420546F6B656E73 PUSH1 0x50 SHL PUSH1 0x40 DUP3 ADD MSTORE PUSH1 0x60 ADD SWAP1 JUMP JUMPDEST PUSH1 0x20 DUP1 DUP3 MSTORE PUSH1 0x24 SWAP1 DUP3 ADD MSTORE PUSH32 0x4552433732313A207472616E7366657220746F20746865207A65726F20616464 PUSH1 0x40 DUP3 ADD MSTORE PUSH4 0x72657373 PUSH1 0xE0 SHL PUSH1 0x60 DUP3 ADD MSTORE PUSH1 0x80 ADD SWAP1 JUMP JUMPDEST PUSH1 0x20 DUP1 DUP3 MSTORE PUSH1 0x19 SWAP1 DUP3 ADD MSTORE PUSH32 0x4552433732313A20617070726F766520746F2063616C6C657200000000000000 PUSH1 0x40 DUP3 ADD MSTORE PUSH1 0x60 ADD SWAP1 JUMP JUMPDEST PUSH1 0x20 DUP1 DUP3 MSTORE DUP2 DUP2 ADD MSTORE PUSH32 0x5361666545524332303A206C6F772D6C6576656C2063616C6C206661696C6564 PUSH1 0x40 DUP3 ADD MSTORE PUSH1 0x60 ADD SWAP1 JUMP JUMPDEST PUSH1 0x20 DUP1 DUP3 MSTORE PUSH1 0x2C SWAP1 DUP3 ADD MSTORE PUSH32 0x4552433732313A206F70657261746F7220717565727920666F72206E6F6E6578 PUSH1 0x40 DUP3 ADD MSTORE PUSH12 0x34B9BA32B73A103A37B5B2B7 PUSH1 0xA1 SHL PUSH1 0x60 DUP3 ADD MSTORE PUSH1 0x80 ADD SWAP1 JUMP JUMPDEST PUSH1 0x20 DUP1 DUP3 MSTORE PUSH1 0x33 SWAP1 DUP3 ADD MSTORE PUSH32 0x436F726E4669204C696D6974204F72646572205661756C743A20496E73756666 PUSH1 0x40 DUP3 ADD MSTORE PUSH19 0x1A58D95B9D0813DD5D1C1D5D08105B5BDD5B9D PUSH1 0x6A SHL PUSH1 0x60 DUP3 ADD MSTORE PUSH1 0x80 ADD SWAP1 JUMP JUMPDEST PUSH1 0x20 DUP1 DUP3 MSTORE PUSH1 0x26 SWAP1 DUP3 ADD MSTORE PUSH32 0x436F726E4669204C696D6974204F72646572205661756C743A20496E76616C69 PUSH1 0x40 DUP3 ADD MSTORE PUSH6 0xC840A0C2E8D PUSH1 0xD3 SHL PUSH1 0x60 DUP3 ADD MSTORE PUSH1 0x80 ADD SWAP1 JUMP JUMPDEST PUSH1 0x20 DUP1 DUP3 MSTORE PUSH1 0x38 SWAP1 DUP3 ADD MSTORE PUSH32 0x4552433732313A20617070726F76652063616C6C6572206973206E6F74206F77 PUSH1 0x40 DUP3 ADD MSTORE PUSH32 0x6E6572206E6F7220617070726F76656420666F7220616C6C0000000000000000 PUSH1 0x60 DUP3 ADD MSTORE PUSH1 0x80 ADD SWAP1 JUMP JUMPDEST PUSH1 0x20 DUP1 DUP3 MSTORE PUSH1 0x2A SWAP1 DUP3 ADD MSTORE PUSH32 0x4552433732313A2062616C616E636520717565727920666F7220746865207A65 PUSH1 0x40 DUP3 ADD MSTORE PUSH10 0x726F2061646472657373 PUSH1 0xB0 SHL PUSH1 0x60 DUP3 ADD MSTORE PUSH1 0x80 ADD SWAP1 JUMP JUMPDEST PUSH1 0x20 DUP1 DUP3 MSTORE PUSH1 0x22 SWAP1 DUP3 ADD MSTORE PUSH32 0x456E756D657261626C654D61703A20696E646578206F7574206F6620626F756E PUSH1 0x40 DUP3 ADD MSTORE PUSH2 0x6473 PUSH1 0xF0 SHL PUSH1 0x60 DUP3 ADD MSTORE PUSH1 0x80 ADD SWAP1 JUMP JUMPDEST PUSH1 0x20 DUP1 DUP3 MSTORE DUP2 DUP2 ADD MSTORE PUSH32 0x4552433732313A206D696E7420746F20746865207A65726F2061646472657373 PUSH1 0x40 DUP3 ADD MSTORE PUSH1 0x60 ADD SWAP1 JUMP JUMPDEST PUSH1 0x20 DUP1 DUP3 MSTORE PUSH1 0x21 SWAP1 DUP3 ADD MSTORE PUSH32 0x536166654D6174683A206D756C7469706C69636174696F6E206F766572666C6F PUSH1 0x40 DUP3 ADD MSTORE PUSH1 0x77 PUSH1 0xF8 SHL PUSH1 0x60 DUP3 ADD MSTORE PUSH1 0x80 ADD SWAP1 JUMP JUMPDEST PUSH1 0x20 DUP1 DUP3 MSTORE PUSH1 0x2C SWAP1 DUP3 ADD MSTORE PUSH32 0x4552433732313A20617070726F76656420717565727920666F72206E6F6E6578 PUSH1 0x40 DUP3 ADD MSTORE PUSH12 0x34B9BA32B73A103A37B5B2B7 PUSH1 0xA1 SHL PUSH1 0x60 DUP3 ADD MSTORE PUSH1 0x80 ADD SWAP1 JUMP JUMPDEST PUSH1 0x20 DUP1 DUP3 MSTORE DUP2 DUP2 ADD MSTORE PUSH32 0x4F776E61626C653A2063616C6C6572206973206E6F7420746865206F776E6572 PUSH1 0x40 DUP3 ADD MSTORE PUSH1 0x60 ADD SWAP1 JUMP JUMPDEST PUSH1 0x20 DUP1 DUP3 MSTORE DUP2 DUP2 ADD MSTORE PUSH32 0x436F726E4669205661756C7420426173653A204465706F736974204572726F72 PUSH1 0x40 DUP3 ADD MSTORE PUSH1 0x60 ADD SWAP1 JUMP JUMPDEST PUSH1 0x20 DUP1 DUP3 MSTORE PUSH1 0x29 SWAP1 DUP3 ADD MSTORE PUSH32 0x4552433732313A207472616E73666572206F6620746F6B656E20746861742069 PUSH1 0x40 DUP3 ADD MSTORE PUSH9 0x39903737BA1037BBB7 PUSH1 0xB9 SHL PUSH1 0x60 DUP3 ADD MSTORE PUSH1 0x80 ADD SWAP1 JUMP JUMPDEST PUSH1 0x20 DUP1 DUP3 MSTORE PUSH1 0x2F SWAP1 DUP3 ADD MSTORE PUSH32 0x4552433732314D657461646174613A2055524920717565727920666F72206E6F PUSH1 0x40 DUP3 ADD MSTORE PUSH15 0x3732BC34B9BA32B73A103A37B5B2B7 PUSH1 0x89 SHL PUSH1 0x60 DUP3 ADD MSTORE PUSH1 0x80 ADD SWAP1 JUMP JUMPDEST PUSH1 0x20 DUP1 DUP3 MSTORE PUSH1 0x29 SWAP1 DUP3 ADD MSTORE PUSH32 0x436F726E4669205661756C7420426173653A20496E76616C696420416D6F756E PUSH1 0x40 DUP3 ADD MSTORE PUSH9 0xE8E64098CADCCEE8D PUSH1 0xBB SHL PUSH1 0x60 DUP3 ADD MSTORE PUSH1 0x80 ADD SWAP1 JUMP JUMPDEST PUSH1 0x20 DUP1 DUP3 MSTORE PUSH1 0x29 SWAP1 DUP3 ADD MSTORE PUSH32 0x436F726E4669205661756C7420426173653A2053747261746567792069732061 PUSH1 0x40 DUP3 ADD MSTORE PUSH9 0x646472657373283029 PUSH1 0xB8 SHL PUSH1 0x60 DUP3 ADD MSTORE PUSH1 0x80 ADD SWAP1 JUMP JUMPDEST PUSH1 0x20 DUP1 DUP3 MSTORE PUSH1 0x26 SWAP1 DUP3 ADD MSTORE PUSH32 0x436F726E4669205661757420426173653A20546F6B656E20416C726561647920 PUSH1 0x40 DUP3 ADD MSTORE PUSH6 0x13585C1C1959 PUSH1 0xD2 SHL PUSH1 0x60 DUP3 ADD MSTORE PUSH1 0x80 ADD SWAP1 JUMP JUMPDEST PUSH1 0x20 DUP1 DUP3 MSTORE PUSH1 0x21 SWAP1 DUP3 ADD MSTORE PUSH32 0x4552433732313A20617070726F76616C20746F2063757272656E74206F776E65 PUSH1 0x40 DUP3 ADD MSTORE PUSH1 0x39 PUSH1 0xF9 SHL PUSH1 0x60 DUP3 ADD MSTORE PUSH1 0x80 ADD SWAP1 JUMP JUMPDEST PUSH1 0x20 DUP1 DUP3 MSTORE PUSH1 0x31 SWAP1 DUP3 ADD MSTORE PUSH32 0x4552433732313A207472616E736665722063616C6C6572206973206E6F74206F PUSH1 0x40 DUP3 ADD MSTORE PUSH17 0x1DDB995C881B9BDC88185C1C1C9BDD9959 PUSH1 0x7A SHL PUSH1 0x60 DUP3 ADD MSTORE PUSH1 0x80 ADD SWAP1 JUMP JUMPDEST PUSH1 0x20 DUP1 DUP3 MSTORE PUSH1 0x29 SWAP1 DUP3 ADD MSTORE PUSH32 0x436F726E466920416363756D44697374205661756C743A204F72646572206973 PUSH1 0x40 DUP3 ADD MSTORE PUSH9 0x20496E616374697665 PUSH1 0xB8 SHL PUSH1 0x60 DUP3 ADD MSTORE PUSH1 0x80 ADD SWAP1 JUMP JUMPDEST PUSH1 0x20 DUP1 DUP3 MSTORE PUSH1 0x2A SWAP1 DUP3 ADD MSTORE PUSH32 0x5361666545524332303A204552433230206F7065726174696F6E20646964206E PUSH1 0x40 DUP3 ADD MSTORE PUSH10 0x1BDD081CDD58D8D95959 PUSH1 0xB2 SHL PUSH1 0x60 DUP3 ADD MSTORE PUSH1 0x80 ADD SWAP1 JUMP JUMPDEST PUSH1 0x20 DUP1 DUP3 MSTORE PUSH1 0x2A SWAP1 DUP3 ADD MSTORE PUSH32 0x436F726E466920416363756D44697374205661756C743A204D617820546F6B65 PUSH1 0x40 DUP3 ADD MSTORE PUSH10 0x1B9CC814995858DA1959 PUSH1 0xB2 SHL PUSH1 0x60 DUP3 ADD MSTORE PUSH1 0x80 ADD SWAP1 JUMP JUMPDEST PUSH1 0x20 DUP1 DUP3 MSTORE PUSH1 0x1F SWAP1 DUP3 ADD MSTORE PUSH32 0x5361666545524332303A2063616C6C20746F206E6F6E2D636F6E747261637400 PUSH1 0x40 DUP3 ADD MSTORE PUSH1 0x60 ADD SWAP1 JUMP JUMPDEST PUSH1 0x0 PUSH1 0x20 DUP1 DUP4 MSTORE DUP4 MLOAD DUP2 DUP5 ADD MSTORE DUP1 DUP5 ADD MLOAD PUSH1 0x40 DUP5 ADD MSTORE PUSH1 0x40 DUP5 ADD MLOAD PUSH1 0x60 DUP5 ADD MSTORE PUSH1 0x60 DUP5 ADD MLOAD PUSH1 0x80 DUP5 ADD MSTORE PUSH1 0x80 DUP5 ADD MLOAD PUSH1 0xA0 DUP5 ADD DUP4 JUMPDEST PUSH1 0x2 DUP2 LT ISZERO PUSH2 0x5796 JUMPI PUSH2 0x5788 DUP3 DUP5 MLOAD PUSH2 0x4B3A JUMP JUMPDEST SWAP3 DUP5 ADD SWAP3 SWAP2 POP PUSH1 0x1 ADD PUSH2 0x5774 JUMP JUMPDEST POP POP POP POP PUSH1 0xA0 DUP4 ADD MLOAD PUSH2 0x57AC PUSH1 0xE0 DUP5 ADD DUP3 PUSH2 0x4B8E JUMP JUMPDEST POP PUSH1 0xC0 DUP4 ADD MLOAD PUSH2 0x140 DUP4 DUP2 ADD MSTORE PUSH2 0x1741 PUSH2 0x160 DUP5 ADD DUP3 PUSH2 0x4BB1 JUMP JUMPDEST PUSH1 0x0 PUSH1 0x20 DUP3 MSTORE DUP3 MLOAD PUSH1 0x60 PUSH1 0x20 DUP5 ADD MSTORE PUSH2 0x57E3 PUSH1 0x80 DUP5 ADD DUP3 PUSH2 0x4B4B JUMP JUMPDEST SWAP1 POP PUSH1 0x20 DUP5 ADD MLOAD PUSH1 0x1F NOT DUP1 DUP6 DUP5 SUB ADD PUSH1 0x40 DUP7 ADD MSTORE PUSH2 0x5801 DUP4 DUP4 PUSH2 0x4BB1 JUMP JUMPDEST SWAP3 POP PUSH1 0x40 DUP7 ADD MLOAD SWAP2 POP DUP1 DUP6 DUP5 SUB ADD PUSH1 0x60 DUP7 ADD MSTORE POP PUSH2 0x581F DUP3 DUP3 PUSH2 0x4BB1 JUMP JUMPDEST SWAP6 SWAP5 POP POP POP POP POP JUMP JUMPDEST SWAP1 DUP2 MSTORE PUSH1 0x20 ADD SWAP1 JUMP JUMPDEST PUSH1 0x0 DUP4 DUP3 MSTORE PUSH1 0x40 PUSH1 0x20 DUP4 ADD MSTORE PUSH2 0x1925 PUSH1 0x40 DUP4 ADD DUP5 PUSH2 0x4B4B JUMP JUMPDEST PUSH1 0x0 DUP7 DUP3 MSTORE DUP6 PUSH1 0x20 DUP4 ADD MSTORE PUSH1 0xA0 PUSH1 0x40 DUP4 ADD MSTORE PUSH2 0x5869 PUSH1 0xA0 DUP4 ADD DUP7 PUSH2 0x4B4B JUMP JUMPDEST PUSH1 0x1 PUSH1 0x1 PUSH1 0xA0 SHL SUB SWAP5 SWAP1 SWAP5 AND PUSH1 0x60 DUP4 ADD MSTORE POP PUSH1 0x80 ADD MSTORE SWAP4 SWAP3 POP POP POP JUMP JUMPDEST PUSH1 0x40 MLOAD DUP2 DUP2 ADD PUSH1 0x1 PUSH1 0x1 PUSH1 0x40 SHL SUB DUP2 GT DUP3 DUP3 LT OR ISZERO PUSH2 0x58A4 JUMPI PUSH1 0x0 DUP1 REVERT JUMPDEST PUSH1 0x40 MSTORE SWAP2 SWAP1 POP JUMP JUMPDEST PUSH1 0x0 PUSH1 0x1 PUSH1 0x1 PUSH1 0x40 SHL SUB DUP3 GT ISZERO PUSH2 0x58C1 JUMPI DUP1 DUP2 REVERT JUMPDEST POP PUSH1 0x20 SWAP1 DUP2 MUL ADD SWAP1 JUMP JUMPDEST PUSH1 0x0 JUMPDEST DUP4 DUP2 LT ISZERO PUSH2 0x58E6 JUMPI DUP2 DUP2 ADD MLOAD DUP4 DUP3 ADD MSTORE PUSH1 0x20 ADD PUSH2 0x58CE JUMP JUMPDEST DUP4 DUP2 GT ISZERO PUSH2 0x1246 JUMPI POP POP PUSH1 0x0 SWAP2 ADD MSTORE JUMP JUMPDEST PUSH1 0x1 PUSH1 0x1 PUSH1 0xA0 SHL SUB DUP2 AND DUP2 EQ PUSH2 0xA12 JUMPI PUSH1 0x0 DUP1 REVERT JUMPDEST DUP1 ISZERO ISZERO DUP2 EQ PUSH2 0xA12 JUMPI PUSH1 0x0 DUP1 REVERT JUMPDEST PUSH1 0x1 PUSH1 0x1 PUSH1 0xE0 SHL SUB NOT DUP2 AND DUP2 EQ PUSH2 0xA12 JUMPI PUSH1 0x0 DUP1 REVERT INVALID GASLIMIT MSTORE NUMBER CALLDATACOPY ORIGIN BALANCE GASPRICE KECCAK256 PUSH16 0x776E657220717565727920666F72206E PUSH16 0x6E6578697374656E7420746F6B656EA2 PUSH5 0x6970667358 0x22 SLT KECCAK256 INVALID 0x1E CALLDATACOPY PUSH31 0xE1F5649C0FBF4550401F873F9A74C6D0CF6D9B3F237021E1702D02F764736F PUSH13 0x634300060C0033000000000000 ","sha1":"a30cfbe2722a45aa7e5770fc12437e6f3c58a0e9","source":"// SPDX-License-Identifier: MIT\npragma solidity 0.6.12;\n\nimport \"./VaultBase.sol\";\nimport \"../../interfaces/IUniswapV2Router02.sol\";\n\n\npragma experimental ABIEncoderV2;\n\n/**\n* @title Corn Finance Limit Order Vault\n* @author C.W.B.\n*/\ncontract LimitOrderVault is VaultBase {\n    constructor(\n        address _controller, \n        uint256 _maxTokens, \n        string memory _name, \n        string memory _symbol, \n        string memory _URI\n    ) public VaultBase(_controller, _maxTokens, _name, _symbol, _URI) {}\n\n    /**\n    * @dev This contract is owned by the Controller. Call 'createTrade' from the Controller\n    * to use this function.\n    * @notice The number of sell prices determines how many orders to create. The amount \n    * in for the sell orders is the total amount deposited divided by the number of sell \n    * prices. Each sell order will have the same amount in.\n    * Example:\n    *     - amount in: 100 USDC\n    *     - to token: WMATIC\n    *     - sell price 1: 0.9 WMATIC / 1 USDC\n    *     - sell price 2: 0.7 WMATIC / 1 USDC\n    *     - sell price 3: 0.5 WMATIC / 1 USDC\n    *     - sell price 4: 0.4 WMATIC / 1 USDC\n    *\n    *     * amount out = amount in / sell price *\n    *\n    *     Sell order 1: 25 USDC --> 27.77 WMATIC\n    *     Sell order 2: 25 USDC --> 35.71 WMATIC\n    *     Sell order 3: 25 USDC --> 50 WMATIC\n    *     Sell order 4: 25 USDC --> 62.5 WMATIC\n    * @param _from: Controller contract will forward 'msg.sender'\n    * @param _tokens:\n    *   [0] = from token \n    *   [1] = to token\n    * @param _amounts: \n    *   [0] = {required} starting amount\n    *   [1] = {required} sell price (1) (token[0] / token[1]) * PRICE_MULTIPLIER()\n    *   [2] = {optional} sell price (2) (token[0] / token[1]) * PRICE_MULTIPLIER()\n    *   [3] = {optional} sell price (3) (token[0] / token[1]) * PRICE_MULTIPLIER()\n    *   [4] = {optional} sell price (4) (token[0] / token[1]) * PRICE_MULTIPLIER()\n    * @param _times:\n    *   [0] = Expiration time in Unix. Orders will not be filled after this time.\n    * @return Order IDs of the created orders. Limit Order vault creates all orders\n    * at the time of creating the trade. Number of order IDs returned is the\n    * number of sell prices inputted.\n    */\n    function createTrade(\n        address _from, \n        address[] memory _tokens, \n        uint256[] memory _amounts, \n        uint[] memory _times\n    ) external onlyOwner returns (uint256[] memory) {\n        // Only one expiration time allowed\n        require(_times.length == 1);\n\n        // Trade consists of only two tokens\n        require(_tokens.length == 2);\n\n        // Limit limit orders to 4. Deposit amount occupies the first element\n        require(\n            _amounts.length >= 2 && _amounts.length <= 5, \n            \"CornFi Vault Base: Invalid Amounts Length\"\n        );\n\n        // Create the trade\n        uint256 amountInWithFee = _createTrade(_from, _tokens, _amounts, _times);\n\n        // Calculate the amount in for the orders\n        uint256 orderAmountIn = amountInWithFee.div(_amounts.length.sub(1));\n\n        // Order IDs of the created orders\n        uint256[] memory orderIds = new uint256[](_amounts.length.sub(1));\n\n        // Avoid stack too deep error\n        uint256[] memory amounts = _amounts;\n        address[] memory tokens = _tokens;\n\n        // Create all of the limit orders\n        for(uint i = 1; i < amounts.length; i++) {\n            orderIds[i-1] = _createOrder(\n                // Token counter is incremented in '_createTrade()'. Need to subtract\n                // '1' to get the correct token ID.\n                tokenCounter.sub(1),\n\n                // Trade ID is '0' since this is the first trade\n                0, \n\n                // ['from' token, 'to' token]\n                [\n                    tokens[0], \n                    tokens[1]\n                ], \n\n                // [amount in, amount out needed, (Not used in this vault. Enter '0')]\n                [\n                    orderAmountIn, \n                    _getAmountOut(tokens[0], tokens[1], orderAmountIn, amounts[i]), \n                    0\n                ], \n\n                // Expiration time for this order\n                _times\n            );\n        }\n        \n        // Return the order IDs of the created orders\n        return orderIds;\n    }\n\n    // --------------------------------------------------------------------------------\n\n    /**\n    * @dev This contract is owned by the Controller. Call 'fillOrder' from the Controller\n    * to use this function.\n    * @param _from: Controller contract will forward 'msg.sender'\n    * @param _orderId: Order to fill\n    * @param _router: Router used to perform the swap (i.e. fill the order)\n    * @param _path: Path used to perform the swap\n    * @return Since Limit Order vault does not create any new orders after filling orders,\n    * '[]' is returned.\n    */\n    function fillOrder(\n        address _from, \n        uint256 _orderId, \n        IUniswapV2Router02 _router, \n        address[] memory _path\n    ) external onlyOwner returns (Order memory) {\n        Order memory order = orders[_orderId];\n        \n        // // Withdraw tokens from holding strategy\n        // strategy(order.tokens[0]).withdraw(address(this), order.tokens[0], order.amounts[0]);\n\n        // Fill order\n        (uint256 minAmountOut , uint256 amountOut) = _swap(_from, order, _router, _path);\n\n        // Revert if swap amount out is too low\n        require(\n            minAmountOut >= order.amounts[1], \n            \"CornFi Limit Order Vault: Insufficent Output Amount\"\n        );\n\n        // IStrategy strat = strategy(order.tokens[1]);\n\n        // // Handle fees\n        // uint256 txFee = strat.txFee(order.amounts[1]);\n        // uint256 remainder = amountOut.sub(order.amounts[1]);\n        // if(txFee.add(remainder) > 0) {\n        //     IERC20(order.tokens[1]).safeTransfer(controller.Fees(), remainder.add(txFee));\n        // }\n\n        // // Adjust order amount out to reflect fee\n        // orders[_orderId].amounts[1] = order.amounts[1].sub(txFee);\n\n        // // Deposit swapped tokens into respective holding strategy\n        // IERC20(order.tokens[1]).approve(address(strat), orders[order.orderId].amounts[1]);\n        // strat.deposit(address(this), order.tokens[1], orders[order.orderId].amounts[1]);\n\n        // // Close order\n        // _closeOrderHelper(order.orderId);\n    }\n    \n    // --------------------------------------------------------------------------------\n\n    /**\n    * @dev This contract is owned by the Controller. Call 'withdraw' from the Controller\n    * to use this function.\n    * @notice After calling this function, all orders associated with '_tokenId' are\n    * closed and their tokens are returned to the token owner. The token is then\n    * burnt and cannot be used again.\n    * @param _from: Controller contract will forward 'msg.sender'\n    * @param _tokenId: Vault token to withdraw\n    */\n    function withdraw(address _from, uint256 _tokenId) external onlyOwner {\n        _withdraw(_from, _tokenId);\n    }\n\n}","sourcePath":"contracts/Vaults/LimitOrderVault.sol","type":"contract","deployment":{"address":"0xD7c32710Ff3d2Ea038f56DA7Fd019A157263F412","chainid":"137","blockHeight":24053753}}