{
  "abi": [
    {
      "inputs": [
        {
          "internalType": "address",
          "name": "_controller",
          "type": "address"
        },
        {
          "internalType": "uint256",
          "name": "_maxTokens",
          "type": "uint256"
        },
        {
          "internalType": "string",
          "name": "_name",
          "type": "string"
        },
        {
          "internalType": "string",
          "name": "_symbol",
          "type": "string"
        },
        {
          "internalType": "string",
          "name": "_URI",
          "type": "string"
        }
      ],
      "stateMutability": "nonpayable",
      "type": "constructor"
    },
    {
      "anonymous": false,
      "inputs": [
        {
          "indexed": true,
          "internalType": "address",
          "name": "owner",
          "type": "address"
        },
        {
          "indexed": true,
          "internalType": "address",
          "name": "approved",
          "type": "address"
        },
        {
          "indexed": true,
          "internalType": "uint256",
          "name": "tokenId",
          "type": "uint256"
        }
      ],
      "name": "Approval",
      "type": "event"
    },
    {
      "anonymous": false,
      "inputs": [
        {
          "indexed": true,
          "internalType": "address",
          "name": "owner",
          "type": "address"
        },
        {
          "indexed": true,
          "internalType": "address",
          "name": "operator",
          "type": "address"
        },
        {
          "indexed": false,
          "internalType": "bool",
          "name": "approved",
          "type": "bool"
        }
      ],
      "name": "ApprovalForAll",
      "type": "event"
    },
    {
      "anonymous": false,
      "inputs": [
        {
          "indexed": true,
          "internalType": "address",
          "name": "previousOwner",
          "type": "address"
        },
        {
          "indexed": true,
          "internalType": "address",
          "name": "newOwner",
          "type": "address"
        }
      ],
      "name": "OwnershipTransferred",
      "type": "event"
    },
    {
      "anonymous": false,
      "inputs": [
        {
          "indexed": true,
          "internalType": "address",
          "name": "from",
          "type": "address"
        },
        {
          "indexed": true,
          "internalType": "address",
          "name": "to",
          "type": "address"
        },
        {
          "indexed": true,
          "internalType": "uint256",
          "name": "tokenId",
          "type": "uint256"
        }
      ],
      "name": "Transfer",
      "type": "event"
    },
    {
      "inputs": [],
      "name": "PRICE_MULTIPLIER",
      "outputs": [
        {
          "internalType": "uint256",
          "name": "",
          "type": "uint256"
        }
      ],
      "stateMutability": "view",
      "type": "function"
    },
    {
      "inputs": [
        {
          "internalType": "uint256",
          "name": "",
          "type": "uint256"
        }
      ],
      "name": "_tokenTradeLength",
      "outputs": [
        {
          "internalType": "uint256",
          "name": "",
          "type": "uint256"
        }
      ],
      "stateMutability": "view",
      "type": "function"
    },
    {
      "inputs": [
        {
          "internalType": "address",
          "name": "",
          "type": "address"
        }
      ],
      "name": "activeTokens",
      "outputs": [
        {
          "internalType": "bool",
          "name": "",
          "type": "bool"
        }
      ],
      "stateMutability": "view",
      "type": "function"
    },
    {
      "inputs": [
        {
          "internalType": "address",
          "name": "to",
          "type": "address"
        },
        {
          "internalType": "uint256",
          "name": "tokenId",
          "type": "uint256"
        }
      ],
      "name": "approve",
      "outputs": [],
      "stateMutability": "nonpayable",
      "type": "function"
    },
    {
      "inputs": [
        {
          "internalType": "address",
          "name": "owner",
          "type": "address"
        }
      ],
      "name": "balanceOf",
      "outputs": [
        {
          "internalType": "uint256",
          "name": "",
          "type": "uint256"
        }
      ],
      "stateMutability": "view",
      "type": "function"
    },
    {
      "inputs": [],
      "name": "baseURI",
      "outputs": [
        {
          "internalType": "string",
          "name": "",
          "type": "string"
        }
      ],
      "stateMutability": "view",
      "type": "function"
    },
    {
      "inputs": [
        {
          "internalType": "address",
          "name": "_token",
          "type": "address"
        },
        {
          "internalType": "uint256",
          "name": "_minDeposit",
          "type": "uint256"
        }
      ],
      "name": "changeMinimumDeposit",
      "outputs": [],
      "stateMutability": "nonpayable",
      "type": "function"
    },
    {
      "inputs": [],
      "name": "controller",
      "outputs": [
        {
          "internalType": "contract IController",
          "name": "",
          "type": "address"
        }
      ],
      "stateMutability": "view",
      "type": "function"
    },
    {
      "inputs": [
        {
          "internalType": "address",
          "name": "_from",
          "type": "address"
        },
        {
          "internalType": "address[]",
          "name": "_tokens",
          "type": "address[]"
        },
        {
          "internalType": "uint256[]",
          "name": "_amounts",
          "type": "uint256[]"
        },
        {
          "internalType": "uint256[]",
          "name": "_times",
          "type": "uint256[]"
        }
      ],
      "name": "createTrade",
      "outputs": [
        {
          "internalType": "uint256[]",
          "name": "",
          "type": "uint256[]"
        }
      ],
      "stateMutability": "nonpayable",
      "type": "function"
    },
    {
      "inputs": [
        {
          "internalType": "address",
          "name": "_token",
          "type": "address"
        }
      ],
      "name": "deactivateToken",
      "outputs": [],
      "stateMutability": "nonpayable",
      "type": "function"
    },
    {
      "inputs": [
        {
          "internalType": "address",
          "name": "_from",
          "type": "address"
        },
        {
          "internalType": "uint256",
          "name": "_orderId",
          "type": "uint256"
        },
        {
          "internalType": "contract IUniswapV2Router02",
          "name": "_router",
          "type": "address"
        },
        {
          "internalType": "address[]",
          "name": "_path",
          "type": "address[]"
        }
      ],
      "name": "fillOrder",
      "outputs": [
        {
          "components": [
            {
              "internalType": "uint256",
              "name": "tokenId",
              "type": "uint256"
            },
            {
              "internalType": "uint256",
              "name": "tradeId",
              "type": "uint256"
            },
            {
              "internalType": "uint256",
              "name": "orderId",
              "type": "uint256"
            },
            {
              "internalType": "uint256",
              "name": "timestamp",
              "type": "uint256"
            },
            {
              "internalType": "address[2]",
              "name": "tokens",
              "type": "address[2]"
            },
            {
              "internalType": "uint256[3]",
              "name": "amounts",
              "type": "uint256[3]"
            },
            {
              "internalType": "uint256[]",
              "name": "times",
              "type": "uint256[]"
            }
          ],
          "internalType": "struct VaultBase.Order",
          "name": "",
          "type": "tuple"
        }
      ],
      "stateMutability": "nonpayable",
      "type": "function"
    },
    {
      "inputs": [
        {
          "internalType": "uint256",
          "name": "tokenId",
          "type": "uint256"
        }
      ],
      "name": "getApproved",
      "outputs": [
        {
          "internalType": "address",
          "name": "",
          "type": "address"
        }
      ],
      "stateMutability": "view",
      "type": "function"
    },
    {
      "inputs": [
        {
          "internalType": "address",
          "name": "owner",
          "type": "address"
        },
        {
          "internalType": "address",
          "name": "operator",
          "type": "address"
        }
      ],
      "name": "isApprovedForAll",
      "outputs": [
        {
          "internalType": "bool",
          "name": "",
          "type": "bool"
        }
      ],
      "stateMutability": "view",
      "type": "function"
    },
    {
      "inputs": [],
      "name": "maxTokens",
      "outputs": [
        {
          "internalType": "uint256",
          "name": "",
          "type": "uint256"
        }
      ],
      "stateMutability": "view",
      "type": "function"
    },
    {
      "inputs": [
        {
          "internalType": "address",
          "name": "",
          "type": "address"
        }
      ],
      "name": "minimumDeposit",
      "outputs": [
        {
          "internalType": "uint256",
          "name": "",
          "type": "uint256"
        }
      ],
      "stateMutability": "view",
      "type": "function"
    },
    {
      "inputs": [],
      "name": "name",
      "outputs": [
        {
          "internalType": "string",
          "name": "",
          "type": "string"
        }
      ],
      "stateMutability": "view",
      "type": "function"
    },
    {
      "inputs": [
        {
          "internalType": "uint256",
          "name": "_index",
          "type": "uint256"
        }
      ],
      "name": "openOrderId",
      "outputs": [
        {
          "internalType": "uint256",
          "name": "",
          "type": "uint256"
        }
      ],
      "stateMutability": "view",
      "type": "function"
    },
    {
      "inputs": [],
      "name": "openOrdersLength",
      "outputs": [
        {
          "internalType": "uint256",
          "name": "",
          "type": "uint256"
        }
      ],
      "stateMutability": "view",
      "type": "function"
    },
    {
      "inputs": [
        {
          "internalType": "uint256",
          "name": "_orderId",
          "type": "uint256"
        }
      ],
      "name": "order",
      "outputs": [
        {
          "components": [
            {
              "internalType": "uint256",
              "name": "tokenId",
              "type": "uint256"
            },
            {
              "internalType": "uint256",
              "name": "tradeId",
              "type": "uint256"
            },
            {
              "internalType": "uint256",
              "name": "orderId",
              "type": "uint256"
            },
            {
              "internalType": "uint256",
              "name": "timestamp",
              "type": "uint256"
            },
            {
              "internalType": "address[2]",
              "name": "tokens",
              "type": "address[2]"
            },
            {
              "internalType": "uint256[3]",
              "name": "amounts",
              "type": "uint256[3]"
            },
            {
              "internalType": "uint256[]",
              "name": "times",
              "type": "uint256[]"
            }
          ],
          "internalType": "struct VaultBase.Order",
          "name": "",
          "type": "tuple"
        }
      ],
      "stateMutability": "view",
      "type": "function"
    },
    {
      "inputs": [],
      "name": "ordersLength",
      "outputs": [
        {
          "internalType": "uint256",
          "name": "",
          "type": "uint256"
        }
      ],
      "stateMutability": "view",
      "type": "function"
    },
    {
      "inputs": [],
      "name": "owner",
      "outputs": [
        {
          "internalType": "address",
          "name": "",
          "type": "address"
        }
      ],
      "stateMutability": "view",
      "type": "function"
    },
    {
      "inputs": [
        {
          "internalType": "uint256",
          "name": "tokenId",
          "type": "uint256"
        }
      ],
      "name": "ownerOf",
      "outputs": [
        {
          "internalType": "address",
          "name": "",
          "type": "address"
        }
      ],
      "stateMutability": "view",
      "type": "function"
    },
    {
      "inputs": [],
      "name": "renounceOwnership",
      "outputs": [],
      "stateMutability": "nonpayable",
      "type": "function"
    },
    {
      "inputs": [
        {
          "internalType": "address",
          "name": "from",
          "type": "address"
        },
        {
          "internalType": "address",
          "name": "to",
          "type": "address"
        },
        {
          "internalType": "uint256",
          "name": "tokenId",
          "type": "uint256"
        }
      ],
      "name": "safeTransferFrom",
      "outputs": [],
      "stateMutability": "nonpayable",
      "type": "function"
    },
    {
      "inputs": [
        {
          "internalType": "address",
          "name": "from",
          "type": "address"
        },
        {
          "internalType": "address",
          "name": "to",
          "type": "address"
        },
        {
          "internalType": "uint256",
          "name": "tokenId",
          "type": "uint256"
        },
        {
          "internalType": "bytes",
          "name": "_data",
          "type": "bytes"
        }
      ],
      "name": "safeTransferFrom",
      "outputs": [],
      "stateMutability": "nonpayable",
      "type": "function"
    },
    {
      "inputs": [
        {
          "internalType": "address",
          "name": "operator",
          "type": "address"
        },
        {
          "internalType": "bool",
          "name": "approved",
          "type": "bool"
        }
      ],
      "name": "setApprovalForAll",
      "outputs": [],
      "stateMutability": "nonpayable",
      "type": "function"
    },
    {
      "inputs": [
        {
          "internalType": "string",
          "name": "baseURI_",
          "type": "string"
        }
      ],
      "name": "setBaseURI",
      "outputs": [],
      "stateMutability": "nonpayable",
      "type": "function"
    },
    {
      "inputs": [
        {
          "internalType": "address",
          "name": "_token",
          "type": "address"
        },
        {
          "internalType": "address",
          "name": "_strategy",
          "type": "address"
        },
        {
          "internalType": "uint256",
          "name": "_minDeposit",
          "type": "uint256"
        }
      ],
      "name": "setStrategy",
      "outputs": [],
      "stateMutability": "nonpayable",
      "type": "function"
    },
    {
      "inputs": [
        {
          "internalType": "address",
          "name": "_token",
          "type": "address"
        }
      ],
      "name": "strategy",
      "outputs": [
        {
          "internalType": "contract IStrategy",
          "name": "",
          "type": "address"
        }
      ],
      "stateMutability": "view",
      "type": "function"
    },
    {
      "inputs": [
        {
          "internalType": "bytes4",
          "name": "interfaceId",
          "type": "bytes4"
        }
      ],
      "name": "supportsInterface",
      "outputs": [
        {
          "internalType": "bool",
          "name": "",
          "type": "bool"
        }
      ],
      "stateMutability": "view",
      "type": "function"
    },
    {
      "inputs": [],
      "name": "symbol",
      "outputs": [
        {
          "internalType": "string",
          "name": "",
          "type": "string"
        }
      ],
      "stateMutability": "view",
      "type": "function"
    },
    {
      "inputs": [
        {
          "internalType": "uint256",
          "name": "index",
          "type": "uint256"
        }
      ],
      "name": "tokenByIndex",
      "outputs": [
        {
          "internalType": "uint256",
          "name": "",
          "type": "uint256"
        }
      ],
      "stateMutability": "view",
      "type": "function"
    },
    {
      "inputs": [],
      "name": "tokenCounter",
      "outputs": [
        {
          "internalType": "uint256",
          "name": "",
          "type": "uint256"
        }
      ],
      "stateMutability": "view",
      "type": "function"
    },
    {
      "inputs": [
        {
          "internalType": "address",
          "name": "owner",
          "type": "address"
        },
        {
          "internalType": "uint256",
          "name": "index",
          "type": "uint256"
        }
      ],
      "name": "tokenOfOwnerByIndex",
      "outputs": [
        {
          "internalType": "uint256",
          "name": "",
          "type": "uint256"
        }
      ],
      "stateMutability": "view",
      "type": "function"
    },
    {
      "inputs": [
        {
          "internalType": "uint256",
          "name": "_tokenId",
          "type": "uint256"
        },
        {
          "internalType": "uint256",
          "name": "_index",
          "type": "uint256"
        }
      ],
      "name": "tokenOpenOrderId",
      "outputs": [
        {
          "internalType": "uint256",
          "name": "",
          "type": "uint256"
        }
      ],
      "stateMutability": "view",
      "type": "function"
    },
    {
      "inputs": [
        {
          "internalType": "uint256",
          "name": "_tokenId",
          "type": "uint256"
        }
      ],
      "name": "tokenOpenOrdersLength",
      "outputs": [
        {
          "internalType": "uint256",
          "name": "",
          "type": "uint256"
        }
      ],
      "stateMutability": "view",
      "type": "function"
    },
    {
      "inputs": [
        {
          "internalType": "uint256",
          "name": "tokenId",
          "type": "uint256"
        }
      ],
      "name": "tokenURI",
      "outputs": [
        {
          "internalType": "string",
          "name": "",
          "type": "string"
        }
      ],
      "stateMutability": "view",
      "type": "function"
    },
    {
      "inputs": [
        {
          "internalType": "uint256",
          "name": "",
          "type": "uint256"
        }
      ],
      "name": "tokens",
      "outputs": [
        {
          "internalType": "address",
          "name": "",
          "type": "address"
        }
      ],
      "stateMutability": "view",
      "type": "function"
    },
    {
      "inputs": [],
      "name": "tokensLength",
      "outputs": [
        {
          "internalType": "uint256",
          "name": "",
          "type": "uint256"
        }
      ],
      "stateMutability": "view",
      "type": "function"
    },
    {
      "inputs": [],
      "name": "totalSupply",
      "outputs": [
        {
          "internalType": "uint256",
          "name": "",
          "type": "uint256"
        }
      ],
      "stateMutability": "view",
      "type": "function"
    },
    {
      "inputs": [
        {
          "internalType": "uint256",
          "name": "_tokenId",
          "type": "uint256"
        },
        {
          "internalType": "uint256",
          "name": "_tradeId",
          "type": "uint256"
        }
      ],
      "name": "trade",
      "outputs": [
        {
          "internalType": "uint256[]",
          "name": "",
          "type": "uint256[]"
        }
      ],
      "stateMutability": "view",
      "type": "function"
    },
    {
      "inputs": [
        {
          "internalType": "address",
          "name": "from",
          "type": "address"
        },
        {
          "internalType": "address",
          "name": "to",
          "type": "address"
        },
        {
          "internalType": "uint256",
          "name": "tokenId",
          "type": "uint256"
        }
      ],
      "name": "transferFrom",
      "outputs": [],
      "stateMutability": "nonpayable",
      "type": "function"
    },
    {
      "inputs": [
        {
          "internalType": "address",
          "name": "newOwner",
          "type": "address"
        }
      ],
      "name": "transferOwnership",
      "outputs": [],
      "stateMutability": "nonpayable",
      "type": "function"
    },
    {
      "inputs": [
        {
          "internalType": "uint256",
          "name": "_tokenId",
          "type": "uint256"
        }
      ],
      "name": "viewStrategy",
      "outputs": [
        {
          "components": [
            {
              "internalType": "address[]",
              "name": "tokens",
              "type": "address[]"
            },
            {
              "internalType": "uint256[]",
              "name": "amounts",
              "type": "uint256[]"
            },
            {
              "internalType": "uint256[]",
              "name": "times",
              "type": "uint256[]"
            }
          ],
          "internalType": "struct VaultBase.Strategy",
          "name": "",
          "type": "tuple"
        }
      ],
      "stateMutability": "view",
      "type": "function"
    },
    {
      "inputs": [
        {
          "internalType": "uint256",
          "name": "_tokenId",
          "type": "uint256"
        }
      ],
      "name": "viewTokenAmounts",
      "outputs": [
        {
          "components": [
            {
              "internalType": "address",
              "name": "token",
              "type": "address"
            },
            {
              "internalType": "uint256",
              "name": "amount",
              "type": "uint256"
            }
          ],
          "internalType": "struct VaultBase.Token[]",
          "name": "",
          "type": "tuple[]"
        }
      ],
      "stateMutability": "view",
      "type": "function"
    },
    {
      "inputs": [
        {
          "internalType": "address",
          "name": "_from",
          "type": "address"
        },
        {
          "internalType": "uint256",
          "name": "_tokenId",
          "type": "uint256"
        }
      ],
      "name": "withdraw",
      "outputs": [],
      "stateMutability": "nonpayable",
      "type": "function"
    }
  ],
  "bytecode": "60806040523480156200001157600080fd5b5060405162006a7238038062006a72833981016040819052620000349162000832565b848484848482826200004d6301ffc9a760e01b620001af565b81516200006290600690602085019062000715565b5080516200007890600790602084019062000715565b506200008b6380ac58cd60e01b620001af565b6200009d635b5e139f60e01b620001af565b620000af63780e9d6360e01b620001af565b5060009050620000be62000201565b600a80546001600160a01b0319166001600160a01b0383169081179091556040519192509060009060008051602062006a52833981519152908290a350600d80546001600160a01b0319166001600160a01b038716179055620001218162000205565b600184116200014d5760405162461bcd60e51b8152600401620001449062000af7565b60405180910390fd5b600c849055600e80546001908101909155601480549091018155600052600b546200017a9030906200021e565b6010805460019081018255600091909152600b805490910190556200019f8562000240565b5050505050505050505062000b87565b6001600160e01b03198082161415620001dc5760405162461bcd60e51b8152600401620001449062000a1f565b6001600160e01b0319166000908152602081905260409020805460ff19166001179055565b3390565b80516200021a90600990602084019062000715565b5050565b6200021a828260405180602001604052806000815250620002ee60201b60201c565b6200024a62000201565b600a546001600160a01b039081169116146200027a5760405162461bcd60e51b8152600401620001449062000ac2565b6001600160a01b038116620002a35760405162461bcd60e51b81526004016200014490620009d9565b600a546040516001600160a01b0380841692169060008051602062006a5283398151915290600090a3600a80546001600160a01b0319166001600160a01b0392909216919091179055565b620002fa83836200032d565b6200030960008484846200041b565b620003285760405162461bcd60e51b8152600401620001449062000987565b505050565b6001600160a01b038216620003565760405162461bcd60e51b8152600401620001449062000a8d565b62000361816200057b565b15620003815760405162461bcd60e51b8152600401620001449062000a56565b6200038f6000838362000328565b6001600160a01b0382166000908152600160209081526040909120620003c0918390620019f36200059e821b17901c565b50620003de81836002620005b360201b620019ff179092919060201c565b5060405181906001600160a01b038416906000907fddf252ad1be2c89b69c2b068fc378daa952ba7f163c4a11628f55a4df523b3ef908290a45050565b60006200043c846001600160a01b0316620005cb60201b62001a1f1760201c565b6200044a5750600162000573565b600060606001600160a01b038616630a85bd0160e11b6200046a62000201565b89888860405160240162000482949392919062000931565b60408051601f198184030181529181526020820180516001600160e01b03166001600160e01b0319909416939093179092529051620004c2919062000913565b6000604051808303816000865af19150503d806000811462000501576040519150601f19603f3d011682016040523d82523d6000602084013e62000506565b606091505b5091509150816200053c57805115620005225780518082602001fd5b60405162461bcd60e51b8152600401620001449062000987565b600081806020019051810190620005549190620008e9565b6001600160e01b031916630a85bd0160e11b1493506200057392505050565b949350505050565b6000620005988260026200060560201b62001a581790919060201c565b92915050565b6000620005ac838362000613565b9392505050565b60006200057384846001600160a01b03851662000662565b6000813f7fc5d2460186f7233c927e7db2dcc703c0e500b653ca82273b7bfad8045d85a47081811480159062000573575050151592915050565b6000620005ac8383620006fd565b6000620006218383620006fd565b620006595750815460018181018455600084815260208082209093018490558454848252828601909352604090209190915562000598565b50600062000598565b600082815260018401602052604081205480620006c9575050604080518082018252838152602080820184815286546001818101895560008981528481209551600290930290950191825591519082015586548684528188019092529290912055620005ac565b82856000016001830381548110620006dd57fe5b9060005260206000209060020201600101819055506000915050620005ac565b60009081526001919091016020526040902054151590565b828054600181600116156101000203166002900490600052602060002090601f016020900481019282601f106200075857805160ff191683800117855562000788565b8280016001018555821562000788579182015b82811115620007885782518255916020019190600101906200076b565b50620007969291506200079a565b5090565b5b808211156200079657600081556001016200079b565b600082601f830112620007c2578081fd5b81516001600160401b0380821115620007d9578283fd5b604051601f8301601f191681016020018281118282101715620007fa578485fd5b6040528281529250828483016020018610156200081657600080fd5b6200082983602083016020880162000b54565b50505092915050565b600080600080600060a086880312156200084a578081fd5b85516001600160a01b038116811462000861578182fd5b6020870151604088015191965094506001600160401b038082111562000885578283fd5b6200089389838a01620007b1565b94506060880151915080821115620008a9578283fd5b620008b789838a01620007b1565b93506080880151915080821115620008cd578283fd5b50620008dc88828901620007b1565b9150509295509295909350565b600060208284031215620008fb578081fd5b81516001600160e01b031981168114620005ac578182fd5b600082516200092781846020870162000b54565b9190910192915050565b600060018060a01b038087168352808616602084015250836040830152608060608301528251806080840152620009708160a085016020870162000b54565b601f01601f19169190910160a00195945050505050565b60208082526032908201527f4552433732313a207472616e7366657220746f206e6f6e20455243373231526560408201527131b2b4bb32b91034b6b83632b6b2b73a32b960711b606082015260800190565b60208082526026908201527f4f776e61626c653a206e6577206f776e657220697320746865207a65726f206160408201526564647265737360d01b606082015260800190565b6020808252601c908201527f4552433136353a20696e76616c696420696e7465726661636520696400000000604082015260600190565b6020808252601c908201527f4552433732313a20746f6b656e20616c7265616479206d696e74656400000000604082015260600190565b6020808252818101527f4552433732313a206d696e7420746f20746865207a65726f2061646472657373604082015260600190565b6020808252818101527f4f776e61626c653a2063616c6c6572206973206e6f7420746865206f776e6572604082015260600190565b60208082526038908201527f436f726e466920416363756d44697374205661756c743a204d617820546f6b6560408201527f6e732043616e6e6f74206265204c657373205468616e20310000000000000000606082015260800190565b60005b8381101562000b7157818101518382015260200162000b57565b8381111562000b81576000848401525b50505050565b615ebb8062000b976000396000f3fe608060405234801561001057600080fd5b506004361061028a5760003560e01c80637f8faa6a1161015c578063be8acd3f116100ce578063e831574211610087578063e831574214610581578063e985e9c514610589578063f2fde38b1461059c578063f3fef3a3146105af578063f77c4791146105c2578063fcab2e14146105ca5761028a565b8063be8acd3f14610523578063c87b56dd1461052b578063d082e3811461053e578063d92fc67b14610546578063dbb037111461054e578063e20be69a1461056e5761028a565b80639fd19d92116101205780639fd19d92146104a4578063a22cb465146104b7578063a5f40303146104ca578063aea4e5ba146104dd578063b88d4fde146104f0578063b8dc7414146105035761028a565b80637f8faa6a1461044e5780638da5cb5b1461046e57806390a83dc214610476578063915b98591461048957806395d89b411461049c5761028a565b80632f745c59116102005780635acf6903116101b95780635acf6903146103f25780636352211e1461040557806368173bcf146104185780636c0360eb1461042b57806370a0823114610433578063715018a6146104465761028a565b80632f745c591461038057806342842e0e146103935780634f64b2be146103a65780634f6ccce7146103b957806355f804b3146103cc578063594a2b3e146103df5761028a565b806318160ddd1161025257806318160ddd14610317578063198e4ce61461031f5780631bf744db1461032757806321603f431461033a578063228bfd9f1461035a57806323b872dd1461036d5761028a565b806301ffc9a71461028f57806306fdde03146102b8578063081812fc146102cd578063095ea7b3146102ed578063113990b814610302575b600080fd5b6102a261029d366004614e3f565b6105dd565b6040516102af9190615179565b60405180910390f35b6102c0610600565b6040516102af9190615184565b6102e06102db366004614ea9565b610696565b6040516102af919061508a565b6103006102fb366004614d0c565b6106e2565b005b61030a61077a565b6040516102af9190615d54565b61030a610786565b61030a610797565b61030a610335366004614ea9565b61079d565b61034d610348366004614ea9565b6107be565b6040516102af9190615c6b565b6102e0610368366004614b3c565b6108fb565b61030061037b366004614bac565b610919565b61030a61038e366004614d0c565b610951565b6103006103a1366004614bac565b61097c565b6102e06103b4366004614ea9565b610997565b61030a6103c7366004614ea9565b6109be565b6103006103da366004614e77565b6109d4565b61034d6103ed366004614d37565b610a15565b6102a2610400366004614b3c565b610be5565b6102e0610413366004614ea9565b610bfa565b610300610426366004614b3c565b610c22565b6102c0610c78565b61030a610441366004614b3c565b610cd9565b610300610d22565b61046161045c366004614ea9565b610da1565b6040516102af9190615cf3565b6102e0610ee6565b610300610484366004614bac565b610ef5565b61030a610497366004614ed9565b611013565b6102c061104a565b61030a6104b2366004614ea9565b6110ab565b6103006104c5366004614cdf565b6110bd565b61030a6104d8366004614ea9565b61118b565b6103006104eb366004614d0c565b6111ac565b6103006104fe366004614bec565b611221565b610516610511366004614ea9565b611260565b6040516102af919061510e565b61030a6113d4565b6102c0610539366004614ea9565b6113da565b61030a611524565b61030a61152a565b61056161055c366004614c55565b611530565b6040516102af9190615166565b61056161057c366004614ed9565b611839565b61030a6118a4565b6102a2610597366004614b74565b6118aa565b6103006105aa366004614b3c565b6118d8565b6103006105bd366004614d0c565b61198f565b6102e06119d2565b61030a6105d8366004614b3c565b6119e1565b6001600160e01b0319811660009081526020819052604090205460ff165b919050565b60068054604080516020601f600260001961010060018816150201909516949094049384018190048102820181019092528281526060939092909183018282801561068c5780601f106106615761010080835404028352916020019161068c565b820191906000526020600020905b81548152906001019060200180831161066f57829003601f168201915b5050505050905090565b60006106a182611a64565b6106c65760405162461bcd60e51b81526004016106bd9061574f565b60405180910390fd5b506000908152600460205260409020546001600160a01b031690565b60006106ed82610bfa565b9050806001600160a01b0316836001600160a01b031614156107215760405162461bcd60e51b81526004016106bd90615a19565b806001600160a01b0316610733611a71565b6001600160a01b0316148061074f575061074f81610597611a71565b61076b5760405162461bcd60e51b81526004016106bd906155f0565b6107758383611a75565b505050565b670de0b6b3a764000081565b60006107926002611ae3565b905090565b600f5490565b6000601082815481106107ac57fe5b60009182526020909120015492915050565b6107c661471f565b600e82815481106107d357fe5b90600052602060002090600a02016040518060e0016040529081600082015481526020016001820154815260200160028201548152602001600382015481526020016004820160028060200260405190810160405280929190826002801561085a576020028201915b81546001600160a01b0316815260019091019060200180831161083c575b505050918352505060408051606081019182905260209092019190600684019060039082845b8154815260200190600101908083116108805750505050508152602001600982018054806020026020016040519081016040528092919081815260200182805480156108eb57602002820191906000526020600020905b8154815260200190600101908083116108d7575b5050505050815250509050919050565b6001600160a01b039081166000908152601960205260409020541690565b61092a610924611a71565b82611aee565b6109465760405162461bcd60e51b81526004016106bd90615aa9565b610775838383611b6b565b6001600160a01b03821660009081526001602052604081206109739083611c79565b90505b92915050565b61077583838360405180602001604052806000815250611221565b601781815481106109a457fe5b6000918252602090912001546001600160a01b0316905081565b6000806109cc600284611c85565b509392505050565b6109dc611a71565b600a546001600160a01b03908116911614610a095760405162461bcd60e51b81526004016106bd9061583c565b610a1281611ca1565b50565b610a1d61471f565b610a25611a71565b600a546001600160a01b03908116911614610a525760405162461bcd60e51b81526004016106bd9061583c565b610a5a61471f565b610a63856107be565b9050600080610a7488848888611cb4565b60a0850151602001519193509150821015610aa15760405162461bcd60e51b81526004016106bd9061579b565b600e610aac8461246b565b81548110610ab657fe5b90600052602060002090600a02016040518060e00160405290816000820154815260200160018201548152602001600282015481526020016003820154815260200160048201600280602002604051908101604052809291908260028015610b3d576020028201915b81546001600160a01b03168152600190910190602001808311610b1f575b505050918352505060408051606081019182905260209092019190600684019060039082845b815481526020019060010190808311610b63575050505050815260200160098201805480602002602001604051908101604052809291908181526020018280548015610bce57602002820191906000526020600020905b815481526020019060010190808311610bba575b50505050508152505093505050505b949350505050565b60186020526000908152604090205460ff1681565b600061097682604051806060016040528060298152602001615e5d60299139600291906126a3565b610c2a611a71565b600a546001600160a01b03908116911614610c575760405162461bcd60e51b81526004016106bd9061583c565b6001600160a01b03166000908152601860205260409020805460ff19169055565b60098054604080516020601f600260001961010060018816150201909516949094049384018190048102820181019092528281526060939092909183018282801561068c5780601f106106615761010080835404028352916020019161068c565b60006001600160a01b038216610d015760405162461bcd60e51b81526004016106bd9061564d565b6001600160a01b038216600090815260016020526040902061097690611ae3565b610d2a611a71565b600a546001600160a01b03908116911614610d575760405162461bcd60e51b81526004016106bd9061583c565b600a546040516000916001600160a01b0316907f8be0079c531659141344cd1fd0a4f28419497f9722a3daafe3b4186f6b6457e0908390a3600a80546001600160a01b0319169055565b610da9614768565b60148281548110610db657fe5b906000526020600020906003020160405180606001604052908160008201805480602002602001604051908101604052809291908181526020018280548015610e2857602002820191906000526020600020905b81546001600160a01b03168152600190910190602001808311610e0a575b5050505050815260200160018201805480602002602001604051908101604052809291908181526020018280548015610e8057602002820191906000526020600020905b815481526020019060010190808311610e6c575b50505050508152602001600282018054806020026020016040519081016040528092919081815260200182805480156108eb57602002820191906000526020600020908154815260200190600101908083116108d7575050505050815250509050919050565b600a546001600160a01b031690565b610efd611a71565b600a546001600160a01b03908116911614610f2a5760405162461bcd60e51b81526004016106bd9061583c565b6001600160a01b038381166000908152601960205260409020541615610f625760405162461bcd60e51b81526004016106bd906159d3565b6001600160a01b038216610f885760405162461bcd60e51b81526004016106bd9061598a565b6001600160a01b0392831660008181526019602090815260408083208054979096166001600160a01b031997881617909555601a8152848220939093556017805460018181019092557fc624b66cc0138b8fabc209247f72d758e1cf3343756d543badbf24212bed8c150180549096168317909555908152601890915220805460ff19169091179055565b60006010838154811061102257fe5b90600052602060002001828154811061103757fe5b9060005260206000200154905092915050565b60078054604080516020601f600260001961010060018816150201909516949094049384018190048102820181019092528281526060939092909183018282801561068c5780601f106106615761010080835404028352916020019161068c565b60136020526000908152604090205481565b6110c5611a71565b6001600160a01b0316826001600160a01b031614156110f65760405162461bcd60e51b81526004016106bd906154f2565b8060056000611103611a71565b6001600160a01b03908116825260208083019390935260409182016000908120918716808252919093529120805460ff191692151592909217909155611147611a71565b6001600160a01b03167f17307eab39ab6107e8899845ad3d59bd9653f200f220920489ca2b5937696c318360405161117f9190615179565b60405180910390a35050565b6000600f828154811061119a57fe5b90600052602060002001549050919050565b6111b4611a71565b600a546001600160a01b039081169116146111e15760405162461bcd60e51b81526004016106bd9061583c565b6001600160a01b038281166000908152601960205260409020541661120557600080fd5b6001600160a01b039091166000908152601a6020526040902055565b61123261122c611a71565b83611aee565b61124e5760405162461bcd60e51b81526004016106bd90615aa9565b61125a848484846126b0565b50505050565b606060006014838154811061127157fe5b600091825260209091206003909102015490506060816001600160401b038111801561129c57600080fd5b506040519080825280602002602001820160405280156112d657816020015b6112c3614789565b8152602001906001900390816112bb5790505b50905060005b601485815481106112e957fe5b60009182526020909120600390910201548110156109cc5760405180604001604052806014878154811061131957fe5b9060005260206000209060030201600001838154811061133557fe5b60009182526020808320909101546001600160a01b031683528882526015815260408220601480549490920193909291908a90811061137057fe5b9060005260206000209060030201600001858154811061138c57fe5b60009182526020808320909101546001600160a01b03168352820192909252604001902054905282518390839081106113c157fe5b60209081029190910101526001016112dc565b600e5490565b60606113e582611a64565b6114015760405162461bcd60e51b81526004016106bd9061593b565b60008281526008602090815260409182902080548351601f60026000196101006001861615020190931692909204918201849004840281018401909452808452606093928301828280156114965780601f1061146b57610100808354040283529160200191611496565b820191906000526020600020905b81548152906001019060200180831161147957829003601f168201915b5050600954939450505050600260001961010060018416150201909116046114bf5790506105fb565b8051156114f1576009816040516020016114da929190615009565b6040516020818303038152906040529150506105fb565b60096114fc846126e3565b60405160200161150d929190615009565b604051602081830303815290604052915050919050565b600b5481565b60175490565b606061153a611a71565b600a546001600160a01b039081169116146115675760405162461bcd60e51b81526004016106bd9061583c565b81516001146115885760405162461bcd60e51b81526004016106bd90615a5a565b83516002146115a95760405162461bcd60e51b81526004016106bd906157ec565b60038351101580156115bd57506005835111155b6115d95760405162461bcd60e51b81526004016106bd90615208565b6115eb670de0b6b3a7640000806127bd565b611626846002815181106115fb57fe5b60200260200101518560018151811061161057fe5b60200260200101516127bd90919063ffffffff16565b106116435760405162461bcd60e51b81526004016106bd906158ef565b82516060906116539060026127f7565b6001600160401b038111801561166857600080fd5b50604051908082528060200260200182016040528015611692578160200160208202803683370190505b50905060005b81518110156116de57846116ad826002612839565b815181106116b757fe5b60200260200101518282815181106116cb57fe5b6020908102919091010152600101611698565b506116e88161285e565b6117045760405162461bcd60e51b81526004016106bd90615b8d565b6000611712878787876128b8565b60408051600180825281830190925291925060609190602080830190803683375050600b549192506118169161174a915060016127f7565b600060405180604001604052808b60008151811061176457fe5b60200260200101516001600160a01b03166001600160a01b031681526020018b60018151811061179057fe5b60200260200101516001600160a01b03166001600160a01b031681525060405180606001604052808781526020016118068d6000815181106117ce57fe5b60200260200101518e6001815181106117e357fe5b60200260200101518a8f6001815181106117f957fe5b6020026020010151612e1b565b8152602001600081525089612f86565b8160008151811061182357fe5b6020908102919091010152979650505050505050565b600082815260126020908152604080832084845282529182902080548351818402810184019094528084526060939283018282801561189757602002820191906000526020600020905b815481526020019060010190808311611883575b5050505050905092915050565b600c5481565b6001600160a01b03918216600090815260056020908152604080832093909416825291909152205460ff1690565b6118e0611a71565b600a546001600160a01b0390811691161461190d5760405162461bcd60e51b81526004016106bd9061583c565b6001600160a01b0381166119335760405162461bcd60e51b81526004016106bd9061533b565b600a546040516001600160a01b038084169216907f8be0079c531659141344cd1fd0a4f28419497f9722a3daafe3b4186f6b6457e090600090a3600a80546001600160a01b0319166001600160a01b0392909216919091179055565b611997611a71565b600a546001600160a01b039081169116146119c45760405162461bcd60e51b81526004016106bd9061583c565b6119ce82826135c3565b5050565b600d546001600160a01b031681565b601a6020526000908152604090205481565b60006109738383613a08565b6000611a1584846001600160a01b038516613a52565b90505b9392505050565b6000813f7fc5d2460186f7233c927e7db2dcc703c0e500b653ca82273b7bfad8045d85a470818114801590610bdd575050151592915050565b60006109738383613ae9565b6000610976600283611a58565b3390565b600081815260046020526040902080546001600160a01b0319166001600160a01b0384169081179091558190611aaa82610bfa565b6001600160a01b03167f8c5be1e5ebec7d5bd14f71427d1e84f3dd0314c0f7b2291e5b200ac8c7c3b92560405160405180910390a45050565b600061097682613b01565b6000611af982611a64565b611b155760405162461bcd60e51b81526004016106bd9061555e565b6000611b2083610bfa565b9050806001600160a01b0316846001600160a01b03161480611b5b5750836001600160a01b0316611b5084610696565b6001600160a01b0316145b80610bdd5750610bdd81856118aa565b826001600160a01b0316611b7e82610bfa565b6001600160a01b031614611ba45760405162461bcd60e51b81526004016106bd906158a6565b6001600160a01b038216611bca5760405162461bcd60e51b81526004016106bd906154ae565b611bd5838383610775565b611be0600082611a75565b6001600160a01b0383166000908152600160205260409020611c029082613b05565b506001600160a01b0382166000908152600160205260409020611c2590826119f3565b50611c32600282846119ff565b5080826001600160a01b0316846001600160a01b03167fddf252ad1be2c89b69c2b068fc378daa952ba7f163c4a11628f55a4df523b3ef60405160405180910390a4505050565b60006109738383613b11565b6000808080611c948686613b43565b9097909650945050505050565b80516119ce9060099060208401906147a0565b60008060008560c00151600081518110611cca57fe5b60200260200101511115611d0f578460c00151600081518110611ce957fe5b60200260200101514210611d0f5760405162461bcd60e51b81526004016106bd90615197565b606085015115611d315760405162461bcd60e51b81526004016106bd90615afa565b6080850151611d479060005b60200201516108fb565b6001600160a01b031663d9caed12308760800151600060028110611d6757fe5b602002015160a0890151516040516001600160e01b031960e086901b168152611d95939291906004016150d1565b600060405180830381600087803b158015611daf57600080fd5b505af1158015611dc3573d6000803e3d6000fd5b5050845160009250611dd7915060016127f7565b60808701515185519192506001600160a01b0316908590600090611df757fe5b60200260200101516001600160a01b0316148015611e4457506080860151600160200201516001600160a01b0316848281518110611e3157fe5b60200260200101516001600160a01b0316145b611e605760405162461bcd60e51b81526004016106bd906155aa565b6018600085600081518110611e7157fe5b6020908102919091018101516001600160a01b031682528101919091526040016000205460ff168015611ed7575060186000858381518110611eaf57fe5b6020908102919091018101516001600160a01b031682528101919091526040016000205460ff165b611ef35760405162461bcd60e51b81526004016106bd9061547e565b6000856001600160a01b031663d06ca61f8860a00151600060038110611f1557fe5b6020020151876040518363ffffffff1660e01b8152600401611f38929190615d5d565b60006040518083038186803b158015611f5057600080fd5b505afa158015611f64573d6000803e3d6000fd5b505050506040513d6000823e601f3d908101601f19168201604052611f8c9190810190614d94565b8281518110611f9757fe5b6020908102919091010151600d54604051634b38706f60e11b81529192506000916001600160a01b0390911690639670e0de90611fd8908590600401615d54565b60206040518083038186803b158015611ff057600080fd5b505afa158015612004573d6000803e3d6000fd5b505050506040513d601f19601f820116820180604052508101906120289190614ec1565b60808901515160a08a01515160405163095ea7b360e01b81529293506001600160a01b039091169163095ea7b391612065918b91906004016150f5565b602060405180830381600087803b15801561207f57600080fd5b505af1158015612093573d6000803e3d6000fd5b505050506040513d601f19601f820116820180604052508101906120b79190614e23565b506000876001600160a01b03166338ed17398a60a001516000600381106120da57fe5b6020020151848a306120ed42603c612839565b6040518663ffffffff1660e01b815260040161210d959493929190615d76565b600060405180830381600087803b15801561212757600080fd5b505af115801561213b573d6000803e3d6000fd5b505050506040513d6000823e601f3d908101601f191682016040526121639190810190614d94565b848151811061216e57fe5b60200260200101519050600061218e8a60800151600160028110611d3d57fe5b90506000816001600160a01b0316635017f9fb866040518263ffffffff1660e01b81526004016121be9190615d54565b60206040518083038186803b1580156121d657600080fd5b505afa1580156121ea573d6000803e3d6000fd5b505050506040513d601f19601f8201168201806040525081019061220e9190614ec1565b90506122b2600d60009054906101000a90046001600160a01b03166001600160a01b0316633aaa36e66040518163ffffffff1660e01b815260040160206040518083038186803b15801561226157600080fd5b505afa158015612275573d6000803e3d6000fd5b505050506040513d601f19601f820116820180604052508101906122999190614b58565b60808d0151602001516001600160a01b03169083613b9f565b6122bc85826127f7565b600e8c60400151815481106122cd57fe5b90600052602060002090600a02016006016001600381106122ea57fe5b015560808b0151600160200201516001600160a01b031663095ea7b383600e8e604001518154811061231857fe5b90600052602060002090600a020160060160016003811061233557fe5b01546040518363ffffffff1660e01b81526004016123549291906150f5565b602060405180830381600087803b15801561236e57600080fd5b505af1158015612382573d6000803e3d6000fd5b505050506040513d601f19601f820116820180604052508101906123a69190614e23565b50816001600160a01b0316638340f549308d608001516001600281106123c857fe5b6020020151600e8f60400151815481106123de57fe5b90600052602060002090600a02016006016001600381106123fb57fe5b01546040518463ffffffff1660e01b815260040161241b939291906150d1565b600060405180830381600087803b15801561243557600080fd5b505af1158015612449573d6000803e3d6000fd5b5050505061245a8b60400151613bf5565b50919a909950975050505050505050565b60008061249e6002601485600001518154811061248457fe5b6000918252602090912060016003909202010154906127f7565b83516000908152601160209081526040808320828801518452909152902054909150600114156125cf5782516020808501516080860151918201516125c7939260005b602002015161255e86600e601260008c60000151815260200190815260200160002060008c60200151815260200190815260200160002060008154811061252457fe5b90600052602060002001548154811061253957fe5b90600052602060002090600a020160060160016003811061255657fe5b015490613cfb565b601489600001518154811061256f57fe5b600091825260208083208c5184526011825260408085208e8401518652909252922054600160039092029092018101916125a891612839565b815481106125b257fe5b90600052602060002001548960c00151613d3d565b9150506105fb565b6125e56001601485600001518154811061248457fe5b83516000908152601160209081526040808320828801518452909152902054141561268857825160208401516125c79190612621906001612839565b60808601805160208082015191518951600090815260158352604080822095518401516001600160a01b031682529490925292902054885160148054939493909190811061266b57fe5b90600052602060002090600302016001016001815481106125b257fe5b82516020840151608085015180516125c793929160016124e1565b6000611a15848484613db6565b6126bb848484611b6b565b6126c784848484613e15565b61125a5760405162461bcd60e51b81526004016106bd906152e9565b60608161270857506040805180820190915260018152600360fc1b60208201526105fb565b8160005b811561272057600101600a8204915061270c565b6060816001600160401b038111801561273857600080fd5b506040519080825280601f01601f191660200182016040528015612763576020820181803683370190505b50859350905060001982015b83156127b457600a840660300160f81b8282806001900393508151811061279257fe5b60200101906001600160f81b031916908160001a905350600a8404935061276f565b50949350505050565b6000826127cc57506000610976565b828202828482816127d957fe5b04146109735760405162461bcd60e51b81526004016106bd9061570e565b600061097383836040518060400160405280601e81526020017f536166654d6174683a207375627472616374696f6e206f766572666c6f770000815250613f4f565b6000828201838110156109735760405162461bcd60e51b81526004016106bd90615447565b600060015b82518110156128af5782818151811061287857fe5b602002602001015183600183038151811061288f57fe5b602002602001015110156128a75760009150506105fb565b600101612863565b50600192915050565b6000600c54600b54106128dd5760405162461bcd60e51b81526004016106bd90615bea565b601a6000856000815181106128ee57fe5b60200260200101516001600160a01b03166001600160a01b03168152602001908152602001600020548360008151811061292457fe5b6020026020010151101561294a5760405162461bcd60e51b81526004016106bd906153b8565b612955848484613f7b565b60008460008151811061296457fe5b602002602001015190506000816001600160a01b03166370a08231306040518263ffffffff1660e01b815260040161299c919061508a565b60206040518083038186803b1580156129b457600080fd5b505afa1580156129c8573d6000803e3d6000fd5b505050506040513d601f19601f820116820180604052508101906129ec9190614ec1565b9050612a22873087600081518110612a0057fe5b6020026020010151856001600160a01b031661401e909392919063ffffffff16565b84600081518110612a2f57fe5b6020026020010151612abd82846001600160a01b03166370a08231306040518263ffffffff1660e01b8152600401612a67919061508a565b60206040518083038186803b158015612a7f57600080fd5b505afa158015612a93573d6000803e3d6000fd5b505050506040513d601f19601f82011682018060405250810190612ab79190614ec1565b906127f7565b14612ada5760405162461bcd60e51b81526004016106bd90615871565b60006019600088600081518110612aed57fe5b60200260200101516001600160a01b03166001600160a01b0316815260200190815260200160002060009054906101000a90046001600160a01b031690506000816001600160a01b031663423c485a88600081518110612b4957fe5b60200260200101516040518263ffffffff1660e01b8152600401612b6d9190615d54565b60206040518083038186803b158015612b8557600080fd5b505afa158015612b99573d6000803e3d6000fd5b505050506040513d601f19601f82011682018060405250810190612bbd9190614ec1565b90508015612c7157600d5460408051631d551b7360e11b81529051612c71926001600160a01b031691633aaa36e6916004808301926020929190829003018186803b158015612c0b57600080fd5b505afa158015612c1f573d6000803e3d6000fd5b505050506040513d601f19601f82011682018060405250810190612c439190614b58565b828a600081518110612c5157fe5b60200260200101516001600160a01b0316613b9f9092919063ffffffff16565b6000612c9a8289600081518110612c8457fe5b60200260200101516127f790919063ffffffff16565b90508060156000600b54815260200190815260200160002060008b600081518110612cc157fe5b60200260200101516001600160a01b03166001600160a01b031681526020019081526020016000208190555088600081518110612cfa57fe5b60200260200101516001600160a01b031663095ea7b384836040518363ffffffff1660e01b8152600401612d2f9291906150f5565b602060405180830381600087803b158015612d4957600080fd5b505af1158015612d5d573d6000803e3d6000fd5b505050506040513d601f19601f82011682018060405250810190612d819190614e23565b50826001600160a01b0316638340f549308b600081518110612d9f57fe5b6020026020010151846040518463ffffffff1660e01b8152600401612dc6939291906150d1565b600060405180830381600087803b158015612de057600080fd5b505af1158015612df4573d6000803e3d6000fd5b5050600b805460018101909155612e0e92508c915061403f565b9998505050505050505050565b600080600080876001600160a01b031663313ce5676040518163ffffffff1660e01b815260040160206040518083038186803b158015612e5a57600080fd5b505afa158015612e6e573d6000803e3d6000fd5b505050506040513d601f19601f82011682018060405250810190612e929190614efa565b90506000876001600160a01b031663313ce5676040518163ffffffff1660e01b815260040160206040518083038186803b158015612ecf57600080fd5b505afa158015612ee3573d6000803e3d6000fd5b505050506040513d601f19601f82011682018060405250810190612f079190614efa565b90508160ff168160ff1610612f2457818103935060019250612f2e565b8082039350600092505b6000612f4c87612f468a670de0b6b3a76400006127bd565b90613cfb565b905083612f6857612f638160ff8716600a0a613cfb565b612f78565b612f788160ff8716600a0a6127bd565b9a9950505050505050505050565b602083015183516000916001600160a01b0391821691161415612fbb5760405162461bcd60e51b81526004016106bd906152a6565b83516001600160a01b031660009081526018602052604090205460ff16801561300157506020808501516001600160a01b031660009081526018909152604090205460ff165b61301d5760405162461bcd60e51b81526004016106bd9061547e565b600f8054600e8054600090815260166020526040812083905590546001830184559290527f8d1108e10bcb7c27dddfc02ed9d693a074039d026cf4ea4240b40f7d581ac80201556010548614156130c3576040805160208101909152600e54815260108054600181810183556000929092526130bd927f1b6847dc741a1b0cd08d278845f9d819d87b734759afb55fe2de5cb82a9ae6729091019161481e565b50613252565b601086815481106130d057fe5b600091825260209091200154613116576040805160208101909152600e54815260108054889081106130fe57fe5b906000526020600020019060016130bd92919061481e565b606061313c60016010898154811061312a57fe5b60009182526020909120015490612839565b6001600160401b038111801561315157600080fd5b5060405190808252806020026020018201604052801561317b578160200160208202803683370190505b50905060005b6010888154811061318e57fe5b6000918252602090912001548110156131ed57601088815481106131ae57fe5b9060005260206000200181815481106131c357fe5b90600052602060002001548282815181106131da57fe5b6020908102919091010152600101613181565b50600e80549050816010898154811061320257fe5b6000918252602090912001548151811061321857fe5b602002602001018181525050806010888154811061323257fe5b90600052602060002001908051906020019061324f92919061481e565b50505b6000868152601360205260409020548514156132b4576040805160208082018352600e5482526000898152601282528381208982529091529190912061329991600161481e565b506000868152601360205260409020805460010190556133f1565b60008681526012602090815260408083208884529091529020546060906132dc906001612839565b6001600160401b03811180156132f157600080fd5b5060405190808252806020026020018201604052801561331b578160200160208202803683370190505b50905060005b60008881526012602090815260408083208a84529091529020548110156133915760008881526012602090815260408083208a8452909152902080548290811061336757fe5b906000526020600020015482828151811061337e57fe5b6020908102919091010152600101613321565b50600e5460008881526012602090815260408083208a8452909152902054825183919081106133bc57fe5b60209081029190910181019190915260008881526012825260408082208983528352902082516133ee9284019061481e565b50505b6000868152601160209081526040808320888452909152902080546001908101909155601480546134289291908990811061248457fe5b600087815260116020908152604080832089845290915290205411156134605760405162461bcd60e51b81526004016106bd90615402565b6040805160e08101825287815260208101878152600e8054938301848152600060608501818152608086018b815260a087018b905260c087018a9052600188018555939091528451600a9096027fbb7b4a454dc3493923482f07822329ed19e8244eff582cc204f8554c3620c3fd810196875593517fbb7b4a454dc3493923482f07822329ed19e8244eff582cc204f8554c3620c3fe85015590517fbb7b4a454dc3493923482f07822329ed19e8244eff582cc204f8554c3620c3ff840155517fbb7b4a454dc3493923482f07822329ed19e8244eff582cc204f8554c3620c40083015551919291613576917fbb7b4a454dc3493923482f07822329ed19e8244eff582cc204f8554c3620c40101906002614858565b5060a082015161358c90600683019060036148ac565b5060c082015180516135a891600984019160209091019061481e565b5050600e546135b9915060016127f7565b9695505050505050565b816001600160a01b03166135d682610bfa565b6001600160a01b0316146135fc5760405162461bcd60e51b81526004016106bd90615256565b613604614768565b6014828154811061361157fe5b90600052602060002090600302016040518060600160405290816000820180548060200260200160405190810160405280929190818152602001828054801561368357602002820191906000526020600020905b81546001600160a01b03168152600190910190602001808311613665575b50505050508152602001600182018054806020026020016040519081016040528092919081815260200182805480156136db57602002820191906000526020600020905b8154815260200190600101908083116136c7575b505050505081526020016002820180548060200260200160405190810160405280929190818152602001828054801561373357602002820191906000526020600020905b81548152602001906001019080831161371f575b505050505081525050905060005b81515181101561390a576000838152601560205260408120835180518391908590811061376a57fe5b60200260200101516001600160a01b03166001600160a01b031681526020019081526020016000205411156139025760196000836000015183815181106137ad57fe5b60200260200101516001600160a01b03166001600160a01b0316815260200190815260200160002060009054906101000a90046001600160a01b03166001600160a01b031663d9caed12858460000151848151811061380857fe5b60200260200101516015600088815260200190815260200160002060008760000151878151811061383557fe5b60200260200101516001600160a01b03166001600160a01b03168152602001908152602001600020546040518463ffffffff1660e01b815260040161387c939291906150d1565b600060405180830381600087803b15801561389657600080fd5b505af11580156138aa573d6000803e3d6000fd5b505050506000601560008581526020019081526020016000206000846000015184815181106138d557fe5b60200260200101516001600160a01b03166001600160a01b03168152602001908152602001600020819055505b600101613741565b5060606010838154811061391a57fe5b9060005260206000200180548060200260200160405190810160405280929190818152602001828054801561396e57602002820191906000526020600020905b81548152602001906001019080831161395a575b5050505050905060005b81518110156139db5761399d82828151811061399057fe5b6020026020010151614059565b6001600e8383815181106139ad57fe5b6020026020010151815481106139bf57fe5b600091825260209091206003600a909202010155600101613978565b50601083815481106139e957fe5b9060005260206000200160006139ff91906148d9565b61125a8361412b565b6000613a148383613ae9565b613a4a57508154600181810184556000848152602080822090930184905584548482528286019093526040902091909155610976565b506000610976565b600082815260018401602052604081205480613ab7575050604080518082018252838152602080820184815286546001818101895560008981528481209551600290930290950191825591519082015586548684528188019092529290912055611a18565b82856000016001830381548110613aca57fe5b9060005260206000209060020201600101819055506000915050611a18565b60009081526001919091016020526040902054151590565b5490565b600061097383836141f8565b81546000908210613b345760405162461bcd60e51b81526004016106bd906151c6565b82600001828154811061103757fe5b815460009081908310613b685760405162461bcd60e51b81526004016106bd90615697565b6000846000018481548110613b7957fe5b906000526020600020906002020190508060000154816001015492509250509250929050565b6107758363a9059cbb60e01b8484604051602401613bbe9291906150f5565b60408051601f198184030181529190526020810180516001600160e01b03166001600160e01b0319909316929092179091526142be565b613bfd61471f565b613c06826107be565b60a08101516020908101518251600090815260158352604080822060808601518501516001600160a01b031683529093529190912054919250613c499190612839565b815160009081526015602081815260408084206080870180518401516001600160a01b0390811687529184528286209690965560a0870151518751865293835281852095515116845293905291902054613ca2916127f7565b815160009081526015602090815260408083206080860151516001600160a01b03168452909152902055600e805442919084908110613cdd57fe5b90600052602060002090600a0201600301819055506119ce826143a3565b600061097383836040518060400160405280601a81526020017f536166654d6174683a206469766973696f6e206279207a65726f0000000000008152506143cb565b6000613daa888860405180604001604052808a6001600160a01b03166001600160a01b03168152602001896001600160a01b03166001600160a01b03168152506040518060600160405280898152602001613d9a8c8c8c8c612e1b565b8152602001600081525086612f86565b98975050505050505050565b60008281526001840160205260408120548281613de65760405162461bcd60e51b81526004016106bd9190615184565b50846000016001820381548110613df957fe5b9060005260206000209060020201600101549150509392505050565b6000613e29846001600160a01b0316611a1f565b613e3557506001610bdd565b600060606001600160a01b038616630a85bd0160e11b613e53611a71565b898888604051602401613e69949392919061509e565b60408051601f198184030181529181526020820180516001600160e01b03166001600160e01b0319909416939093179092529051613ea79190614fed565b6000604051808303816000865af19150503d8060008114613ee4576040519150601f19603f3d011682016040523d82523d6000602084013e613ee9565b606091505b509150915081613f1b57805115613f035780518082602001fd5b60405162461bcd60e51b81526004016106bd906152e9565b600081806020019051810190613f319190614e5b565b6001600160e01b031916630a85bd0160e11b149350610bdd92505050565b60008184841115613f735760405162461bcd60e51b81526004016106bd9190615184565b505050900390565b6040805160608101825284815260208082018590529181018390526014805460018101825560009190915281518051929360039092027fce6d7b5282bd9a3661ae061feed1dbda4e52ab073b1f9285be6e155d9c38d4ec0192613fe192849201906148f7565b506020828101518051613ffa926001850192019061481e565b506040820151805161401691600284019160209091019061481e565b505050505050565b61125a846323b872dd60e01b858585604051602401613bbe939291906150d1565b6119ce828260405180602001604052806000815250614402565b600f80546140689060016127f7565b8154811061407257fe5b9060005260206000200154600f60166000848152602001908152602001600020548154811061409d57fe5b60009182526020808320909101929092558281526016918290526040812054600f8054919392916140cf9060016127f7565b815481106140d957fe5b9060005260206000200154815260200190815260200160002081905550600f80548061410157fe5b60008281526020808220830160001990810183905590920190925591815260169091526040812055565b600061413682610bfa565b905061414481600084610775565b61414f600083611a75565b600082815260086020526040902054600260001961010060018416150201909116041561418d57600082815260086020526040812061418d9161494b565b6001600160a01b03811660009081526001602052604090206141af9083613b05565b506141bb600283614435565b5060405182906000906001600160a01b038416907fddf252ad1be2c89b69c2b068fc378daa952ba7f163c4a11628f55a4df523b3ef908390a45050565b600081815260018301602052604081205480156142b4578354600019808301919081019060009087908390811061422b57fe5b906000526020600020015490508087600001848154811061424857fe5b60009182526020808320909101929092558281526001898101909252604090209084019055865487908061427857fe5b60019003818190600052602060002001600090559055866001016000878152602001908152602001600020600090556001945050505050610976565b6000915050610976565b6142d0826001600160a01b0316611a1f565b6142ec5760405162461bcd60e51b81526004016106bd90615c34565b60006060836001600160a01b0316836040516143089190614fed565b6000604051808303816000865af19150503d8060008114614345576040519150601f19603f3d011682016040523d82523d6000602084013e61434a565b606091505b50915091508161436c5760405162461bcd60e51b81526004016106bd90615529565b80511561125a57808060200190518101906143879190614e23565b61125a5760405162461bcd60e51b81526004016106bd90615b43565b6143ab61471f565b6143b4826107be565b90506143bf82614059565b80516119ce9083614441565b600081836143ec5760405162461bcd60e51b81526004016106bd9190615184565b5060008385816143f857fe5b0495945050505050565b61440c8383614587565b6144196000848484613e15565b6107755760405162461bcd60e51b81526004016106bd906152e9565b6000610973838361464b565b606061446760016010858154811061445557fe5b600091825260209091200154906127f7565b6001600160401b038111801561447c57600080fd5b506040519080825280602002602001820160405280156144a6578160200160208202803683370190505b5090506000805b601085815481106144ba57fe5b6000918252602090912001548110156145545783601086815481106144db57fe5b9060005260206000200182815481106144f057fe5b90600052602060002001541461454c576010858154811061450d57fe5b90600052602060002001818154811061452257fe5b906000526020600020015483838060010194508151811061453f57fe5b6020026020010181815250505b6001016144ad565b50816010858154811061456357fe5b90600052602060002001908051906020019061458092919061481e565b5050505050565b6001600160a01b0382166145ad5760405162461bcd60e51b81526004016106bd906156d9565b6145b681611a64565b156145d35760405162461bcd60e51b81526004016106bd90615381565b6145df60008383610775565b6001600160a01b038216600090815260016020526040902061460190826119f3565b5061460e600282846119ff565b5060405181906001600160a01b038416906000907fddf252ad1be2c89b69c2b068fc378daa952ba7f163c4a11628f55a4df523b3ef908290a45050565b600081815260018301602052604081205480156142b4578354600019808301919081019060009087908390811061467e57fe5b906000526020600020906002020190508087600001848154811061469e57fe5b6000918252602080832084546002909302019182556001938401549184019190915583548252898301905260409020908401905586548790806146dd57fe5b60008281526020808220600260001990940193840201828155600190810183905592909355888152898201909252604082209190915594506109769350505050565b6040518060e001604052806000815260200160008152602001600081526020016000815260200161474e61498f565b815260200161475b6149ad565b8152602001606081525090565b60405180606001604052806060815260200160608152602001606081525090565b604080518082019091526000808252602082015290565b828054600181600116156101000203166002900490600052602060002090601f016020900481019282601f106147e157805160ff191683800117855561480e565b8280016001018555821561480e579182015b8281111561480e5782518255916020019190600101906147f3565b5061481a9291506149cb565b5090565b82805482825590600052602060002090810192821561480e579160200282018281111561480e5782518255916020019190600101906147f3565b82600281019282156148a0579160200282015b828111156148a057825182546001600160a01b0319166001600160a01b0390911617825560209092019160019091019061486b565b5061481a9291506149e0565b826003810192821561480e579160200282018281111561480e5782518255916020019190600101906147f3565b5080546000825590600052602060002090810190610a1291906149cb565b8280548282559060005260206000209081019282156148a057916020028201828111156148a057825182546001600160a01b0319166001600160a01b0390911617825560209092019160019091019061486b565b50805460018160011615610100020316600290046000825580601f106149715750610a12565b601f016020900490600052602060002090810190610a1291906149cb565b60405180604001604052806002906020820280368337509192915050565b60405180606001604052806003906020820280368337509192915050565b5b8082111561481a57600081556001016149cc565b5b8082111561481a5780546001600160a01b03191681556001016149e1565b600082601f830112614a0f578081fd5b8135614a22614a1d82615dd8565b615db2565b818152915060208083019084810181840286018201871015614a4357600080fd5b60005b84811015614a6b578135614a5981615e23565b84529282019290820190600101614a46565b505050505092915050565b600082601f830112614a86578081fd5b8135614a94614a1d82615dd8565b818152915060208083019084810181840286018201871015614ab557600080fd5b60005b84811015614a6b57813584529282019290820190600101614ab8565b600082601f830112614ae4578081fd5b81356001600160401b03811115614af9578182fd5b614b0c601f8201601f1916602001615db2565b9150808252836020828501011115614b2357600080fd5b8060208401602084013760009082016020015292915050565b600060208284031215614b4d578081fd5b813561097381615e23565b600060208284031215614b69578081fd5b815161097381615e23565b60008060408385031215614b86578081fd5b8235614b9181615e23565b91506020830135614ba181615e23565b809150509250929050565b600080600060608486031215614bc0578081fd5b8335614bcb81615e23565b92506020840135614bdb81615e23565b929592945050506040919091013590565b60008060008060808587031215614c01578081fd5b8435614c0c81615e23565b93506020850135614c1c81615e23565b92506040850135915060608501356001600160401b03811115614c3d578182fd5b614c4987828801614ad4565b91505092959194509250565b60008060008060808587031215614c6a578384fd5b8435614c7581615e23565b935060208501356001600160401b0380821115614c90578485fd5b614c9c888389016149ff565b94506040870135915080821115614cb1578384fd5b614cbd88838901614a76565b93506060870135915080821115614cd2578283fd5b50614c4987828801614a76565b60008060408385031215614cf1578182fd5b8235614cfc81615e23565b91506020830135614ba181615e38565b60008060408385031215614d1e578182fd5b8235614d2981615e23565b946020939093013593505050565b60008060008060808587031215614d4c578182fd5b8435614d5781615e23565b9350602085013592506040850135614d6e81615e23565b915060608501356001600160401b03811115614d88578182fd5b614c49878288016149ff565b60006020808385031215614da6578182fd5b82516001600160401b03811115614dbb578283fd5b8301601f81018513614dcb578283fd5b8051614dd9614a1d82615dd8565b8181528381019083850185840285018601891015614df5578687fd5b8694505b83851015614e17578051835260019490940193918501918501614df9565b50979650505050505050565b600060208284031215614e34578081fd5b815161097381615e38565b600060208284031215614e50578081fd5b813561097381615e46565b600060208284031215614e6c578081fd5b815161097381615e46565b600060208284031215614e88578081fd5b81356001600160401b03811115614e9d578182fd5b610bdd84828501614ad4565b600060208284031215614eba578081fd5b5035919050565b600060208284031215614ed2578081fd5b5051919050565b60008060408385031215614eeb578182fd5b50508035926020909101359150565b600060208284031215614f0b578081fd5b815160ff81168114610973578182fd5b6001600160a01b0316815260200190565b6000815180845260208085019450808401835b83811015614f645781516001600160a01b031687529582019590820190600101614f3f565b509495945050505050565b8060005b600381101561125a578151845260209384019390910190600101614f73565b6000815180845260208085019450808401835b83811015614f6457815187529582019590820190600101614fa5565b60008151808452614fd9816020860160208601615df7565b601f01601f19169290920160200192915050565b60008251614fff818460208701615df7565b9190910192915050565b6000808454600180821660008114615028576001811461503f5761506e565b60ff198316865260028304607f168601935061506e565b600283048886526020808720875b838110156150665781548a82015290850190820161504d565b505050860193505b5050508351615081818360208801615df7565b01949350505050565b6001600160a01b0391909116815260200190565b6001600160a01b03858116825284166020820152604081018390526080606082018190526000906135b990830184614fc1565b6001600160a01b039384168152919092166020820152604081019190915260600190565b6001600160a01b03929092168252602082015260400190565b602080825282518282018190526000919060409081850190868401855b8281101561515957815180516001600160a01b0316855286015186850152928401929085019060010161512b565b5091979650505050505050565b6000602082526109736020830184614f92565b901515815260200190565b6000602082526109736020830184614fc1565b60208082526015908201527421b7b93723349d1022bc3834b932b21027b93232b960591b604082015260600190565b60208082526022908201527f456e756d657261626c655365743a20696e646578206f7574206f6620626f756e604082015261647360f01b606082015260800190565b6020808252602e908201527f436f726e466920416363756d44697374205661756c743a20496e76616c69642060408201526d082dadeeadce8e64098cadccee8d60931b606082015260800190565b60208082526030908201527f436f726e4669205661756c7420426173653a2043616c6c6572206973204e6f7460408201526f103a3432902a37b5b2b71027bbb732b960811b606082015260800190565b60208082526023908201527f436f726e4669205661756c7420426173653a204964656e746963616c20546f6b604082015262656e7360e81b606082015260800190565b60208082526032908201527f4552433732313a207472616e7366657220746f206e6f6e20455243373231526560408201527131b2b4bb32b91034b6b83632b6b2b73a32b960711b606082015260800190565b60208082526026908201527f4f776e61626c653a206e6577206f776e657220697320746865207a65726f206160408201526564647265737360d01b606082015260800190565b6020808252601c908201527f4552433732313a20746f6b656e20616c7265616479206d696e74656400000000604082015260600190565b6020808252602a908201527f436f726e4669205661756c7420426173653a204d696e696d756d204465706f736040820152691a5d08139bdd0813595d60b21b606082015260800190565b60208082526025908201527f436f726e4669205661756c7420426173653a205472616465204c656e6774682060408201526422b93937b960d91b606082015260800190565b6020808252601b908201527f536166654d6174683a206164646974696f6e206f766572666c6f770000000000604082015260600190565b602080825260169082015275436f726e46693a20496e76616c696420546f6b656e7360501b604082015260600190565b60208082526024908201527f4552433732313a207472616e7366657220746f20746865207a65726f206164646040820152637265737360e01b606082015260800190565b60208082526019908201527f4552433732313a20617070726f766520746f2063616c6c657200000000000000604082015260600190565b6020808252818101527f5361666545524332303a206c6f772d6c6576656c2063616c6c206661696c6564604082015260600190565b6020808252602c908201527f4552433732313a206f70657261746f7220717565727920666f72206e6f6e657860408201526b34b9ba32b73a103a37b5b2b760a11b606082015260800190565b60208082526026908201527f436f726e4669204c696d6974204f72646572205661756c743a20496e76616c696040820152650c840a0c2e8d60d31b606082015260800190565b60208082526038908201527f4552433732313a20617070726f76652063616c6c6572206973206e6f74206f7760408201527f6e6572206e6f7220617070726f76656420666f7220616c6c0000000000000000606082015260800190565b6020808252602a908201527f4552433732313a2062616c616e636520717565727920666f7220746865207a65604082015269726f206164647265737360b01b606082015260800190565b60208082526022908201527f456e756d657261626c654d61703a20696e646578206f7574206f6620626f756e604082015261647360f01b606082015260800190565b6020808252818101527f4552433732313a206d696e7420746f20746865207a65726f2061646472657373604082015260600190565b60208082526021908201527f536166654d6174683a206d756c7469706c69636174696f6e206f766572666c6f6040820152607760f81b606082015260800190565b6020808252602c908201527f4552433732313a20617070726f76656420717565727920666f72206e6f6e657860408201526b34b9ba32b73a103a37b5b2b760a11b606082015260800190565b60208082526031908201527f436f726e466920416363756d44697374205661756c743a20496e737566666963604082015270195b9d0813dd5d1c1d5d08105b5bdd5b9d607a1b606082015260800190565b60208082526030908201527f436f726e466920416363756d44697374205661756c743a20496e76616c69642060408201526f04ebee8ded6cadce64e4098cadccee8d60831b606082015260800190565b6020808252818101527f4f776e61626c653a2063616c6c6572206973206e6f7420746865206f776e6572604082015260600190565b6020808252818101527f436f726e4669205661756c7420426173653a204465706f736974204572726f72604082015260600190565b60208082526029908201527f4552433732313a207472616e73666572206f6620746f6b656e2074686174206960408201526839903737ba1037bbb760b91b606082015260800190565b6020808252602c908201527f436f726e466920416363756d44697374205661756c743a20466972737420507260408201526b0d2c6ca40a8dede4090d2ced60a31b606082015260800190565b6020808252602f908201527f4552433732314d657461646174613a2055524920717565727920666f72206e6f60408201526e3732bc34b9ba32b73a103a37b5b2b760891b606082015260800190565b60208082526029908201527f436f726e4669205661756c7420426173653a205374726174656779206973206160408201526864647265737328302960b81b606082015260800190565b60208082526026908201527f436f726e4669205661757420426173653a20546f6b656e20416c72656164792060408201526513585c1c195960d21b606082015260800190565b60208082526021908201527f4552433732313a20617070726f76616c20746f2063757272656e74206f776e656040820152603960f91b606082015260800190565b6020808252602f908201527f436f726e466920416363756d44697374205661756c743a20496e76616c69642060408201526e04ebee8d2dacae64e4098cadccee8d608b1b606082015260800190565b60208082526031908201527f4552433732313a207472616e736665722063616c6c6572206973206e6f74206f6040820152701ddb995c881b9bdc88185c1c1c9bdd9959607a1b606082015260800190565b60208082526029908201527f436f726e466920416363756d44697374205661756c743a204f7264657220697360408201526820496e61637469766560b81b606082015260800190565b6020808252602a908201527f5361666545524332303a204552433230206f7065726174696f6e20646964206e6040820152691bdd081cdd58d8d9595960b21b606082015260800190565b60208082526038908201527f436f726e466920416363756d44697374205661756c743a20526174657320417260408201527f65204e6f7420696e20446563656e64696e67204f726465720000000000000000606082015260800190565b6020808252602a908201527f436f726e466920416363756d44697374205661756c743a204d617820546f6b656040820152691b9cc814995858da195960b21b606082015260800190565b6020808252601f908201527f5361666545524332303a2063616c6c20746f206e6f6e2d636f6e747261637400604082015260600190565b600060208083528351818401528084015160408401526040840151606084015260608401516080840152608084015160a08401835b6002811015615cc257615cb4828451614f1b565b928401929150600101615ca0565b5050505060a0830151615cd860e0840182614f6f565b5060c083015161014083810152610bdd610160840182614f92565b600060208252825160606020840152615d0f6080840182614f2c565b90506020840151601f1980858403016040860152615d2d8383614f92565b9250604086015191508085840301606086015250615d4b8282614f92565b95945050505050565b90815260200190565b600083825260406020830152611a156040830184614f2c565b600086825285602083015260a06040830152615d9560a0830186614f2c565b6001600160a01b0394909416606083015250608001529392505050565b6040518181016001600160401b0381118282101715615dd057600080fd5b604052919050565b60006001600160401b03821115615ded578081fd5b5060209081020190565b60005b83811015615e12578181015183820152602001615dfa565b8381111561125a5750506000910152565b6001600160a01b0381168114610a1257600080fd5b8015158114610a1257600080fd5b6001600160e01b031981168114610a1257600080fdfe4552433732313a206f776e657220717565727920666f72206e6f6e6578697374656e7420746f6b656ea264697066735822122066f6ae6e9842fedee606d49531e4b02d6f688e55abe89210c81aa73d4a36097464736f6c634300060c00338be0079c531659141344cd1fd0a4f28419497f9722a3daafe3b4186f6b6457e0",
  "bytecodeSha1": "0bf93651984008c70ebc1f1aa8b92473d532a6db",
  "compiler": {
    "evm_version": "istanbul",
    "optimizer": {
      "enabled": true,
      "runs": 200
    },
    "version": "0.6.12+commit.27d51765"
  },
  "contractName": "AccumulatorDistributorVault",
  "language": "Solidity",
  "natspec": {
    "author": "C.W.B.",
    "kind": "dev",
    "methods": {
      "approve(address,uint256)": {
        "details": "Approves another address to transfer the given token ID The zero address indicates there is no approved address. There can only be one approved address per token at a given time. Can only be called by the token owner or an approved operator.",
        "params": {
          "to": "address to be approved for the given token ID",
          "tokenId": "uint256 ID of the token to be approved"
        }
      },
      "balanceOf(address)": {
        "details": "Gets the balance of the specified address.",
        "params": {
          "owner": "address to query the balance of"
        },
        "returns": {
          "_0": "uint256 representing the amount owned by the passed address"
        }
      },
      "baseURI()": {
        "details": "Returns the base URI set via {_setBaseURI}. This will be automatically added as a prefix in {tokenURI} to each token's URI, or to the token ID if no specific URI is set for that token ID."
      },
      "changeMinimumDeposit(address,uint256)": {
        "details": "This contract is owned by the Controller. Call 'changeMinimumDeposit' from the  Controller to use this function. Owner can change the minimum amount of '_token' that can be deposited when creating a trade.",
        "params": {
          "_minDeposit": ": Minimum amount of '_token' that can be deposited when creating a trade",
          "_token": ": ERC20 token address"
        }
      },
      "createTrade(address,address[],uint256[],uint256[])": {
        "details": "This contract is owned by the Controller. Call 'createTrade' from the Controller to use this function.",
        "notice": "Sell price (1) > sell price (2) > sell price (3)",
        "params": {
          "_amounts": ":    [0] = {required} starting amount   [1] = {required} buy price (token[0] / token[1]) * PRICE_MULTIPLIER()   [2] = {required} sell price (1) (token[1] / token[0]) * PRICE_MULTIPLIER()   [3] = {optional} sell price (2) (token[1] / token[0]) * PRICE_MULTIPLIER()   [4] = {optional} sell price (3) (token[1] / token[0]) * PRICE_MULTIPLIER()",
          "_from": ": Controller contract will forward 'msg.sender'",
          "_times": ":   [0] = Expiration time in Unix. Orders will not be filled after this time.",
          "_tokens": ":   [0] = from token    [1] = to token"
        },
        "returns": {
          "_0": "Order IDs of the created orders. Accum/Dist vault only creates the buy order when creating a trade. Thus, only one order ID is returned."
        }
      },
      "deactivateToken(address)": {
        "details": "This contract is owned by the Controller. Call 'deactivateToken' from the  Controller to use this function. Deactivating a token will restrict future users  from creating trades with the deactivated token. Once a token is deactivated, it  cannot be reactivated.",
        "params": {
          "_token": ": ERC20 token to deactivate"
        }
      },
      "fillOrder(address,uint256,address,address[])": {
        "details": "This contract is owned by the Controller. Call 'fillOrder' from the Controller to use this function.",
        "params": {
          "_from": ": Controller contract will forward 'msg.sender'",
          "_orderId": ": Order to fill",
          "_path": ": Path used to perform the swap",
          "_router": ": Router used to perform the swap (i.e. fill the order)"
        },
        "returns": {
          "_0": "Since Accum/Dist vault will continuously create orders after filling an order, the created order is returned."
        }
      },
      "getApproved(uint256)": {
        "details": "Gets the approved address for a token ID, or zero if no address set Reverts if the token ID does not exist.",
        "params": {
          "tokenId": "uint256 ID of the token to query the approval of"
        },
        "returns": {
          "_0": "address currently approved for the given token ID"
        }
      },
      "isApprovedForAll(address,address)": {
        "details": "Tells whether an operator is approved by a given owner.",
        "params": {
          "operator": "operator address which you want to query the approval of",
          "owner": "owner address which you want to query the approval of"
        },
        "returns": {
          "_0": "bool whether the given operator is approved by the given owner"
        }
      },
      "name()": {
        "details": "Gets the token name.",
        "returns": {
          "_0": "string representing the token name"
        }
      },
      "openOrderId(uint256)": {
        "params": {
          "_index": ": Element of 'openOrderIds'"
        },
        "returns": {
          "_0": "Order ID at the given index "
        }
      },
      "openOrdersLength()": {
        "returns": {
          "_0": "Number of all open orders within this vault"
        }
      },
      "order(uint256)": {
        "details": "Use to view any order that has been created within this vault",
        "params": {
          "_orderId": ": Order to view"
        },
        "returns": {
          "_0": "Order details of a given order"
        }
      },
      "ordersLength()": {
        "returns": {
          "_0": "Number of all orders created within this vault"
        }
      },
      "owner()": {
        "details": "Returns the address of the current owner."
      },
      "ownerOf(uint256)": {
        "details": "Gets the owner of the specified token ID.",
        "params": {
          "tokenId": "uint256 ID of the token to query the owner of"
        },
        "returns": {
          "_0": "address currently marked as the owner of the given token ID"
        }
      },
      "renounceOwnership()": {
        "details": "Leaves the contract without owner. It will not be possible to call `onlyOwner` functions anymore. Can only be called by the current owner. NOTE: Renouncing ownership will leave the contract without an owner, thereby removing any functionality that is only available to the owner."
      },
      "safeTransferFrom(address,address,uint256)": {
        "details": "Safely transfers the ownership of a given token ID to another address If the target address is a contract, it must implement {IERC721Receiver-onERC721Received}, which is called upon a safe transfer, and return the magic value `bytes4(keccak256(\"onERC721Received(address,address,uint256,bytes)\"))`; otherwise, the transfer is reverted. Requires the msg.sender to be the owner, approved, or operator",
        "params": {
          "from": "current owner of the token",
          "to": "address to receive the ownership of the given token ID",
          "tokenId": "uint256 ID of the token to be transferred"
        }
      },
      "safeTransferFrom(address,address,uint256,bytes)": {
        "details": "Safely transfers the ownership of a given token ID to another address If the target address is a contract, it must implement {IERC721Receiver-onERC721Received}, which is called upon a safe transfer, and return the magic value `bytes4(keccak256(\"onERC721Received(address,address,uint256,bytes)\"))`; otherwise, the transfer is reverted. Requires the _msgSender() to be the owner, approved, or operator",
        "params": {
          "_data": "bytes data to send along with a safe transfer check",
          "from": "current owner of the token",
          "to": "address to receive the ownership of the given token ID",
          "tokenId": "uint256 ID of the token to be transferred"
        }
      },
      "setApprovalForAll(address,bool)": {
        "details": "Sets or unsets the approval of a given operator An operator is allowed to transfer all tokens of the sender on their behalf.",
        "params": {
          "approved": "representing the status of the approval to be set",
          "operator": "operator address to set the approval"
        }
      },
      "setBaseURI(string)": {
        "details": "This contract is owned by the Controller. Call 'setBaseURI' from the Controller to use this function. Sets URI for all vault tokens.",
        "params": {
          "baseURI_": ": Vault URI"
        }
      },
      "setStrategy(address,address,uint256)": {
        "details": "This contract is owned by the Controller. Call 'setStrategy' from the Controller to use this function. Maps an ERC20 to a holding strategy. Once an ERC20 token is mapped to a holding strategy, the mapping is immutable.",
        "params": {
          "_minDeposit": ": Minimum amount of '_token' that can be deposited when creating a trade",
          "_strategy": ": Holding strategy contract",
          "_token": ": ERC20 token address"
        }
      },
      "strategy(address)": {
        "params": {
          "_token": ": ERC20 token address"
        },
        "returns": {
          "_0": "Holding strategy contract mapped to '_token'"
        }
      },
      "supportsInterface(bytes4)": {
        "details": "See {IERC165-supportsInterface}. Time complexity O(1), guaranteed to always use less than 30 000 gas."
      },
      "symbol()": {
        "details": "Gets the token symbol.",
        "returns": {
          "_0": "string representing the token symbol"
        }
      },
      "tokenByIndex(uint256)": {
        "details": "Gets the token ID at a given index of all the tokens in this contract Reverts if the index is greater or equal to the total number of tokens.",
        "params": {
          "index": "uint256 representing the index to be accessed of the tokens list"
        },
        "returns": {
          "_0": "uint256 token ID at the given index of the tokens list"
        }
      },
      "tokenOfOwnerByIndex(address,uint256)": {
        "details": "Gets the token ID at a given index of the tokens list of the requested owner.",
        "params": {
          "index": "uint256 representing the index to be accessed of the requested tokens list",
          "owner": "address owning the tokens list to be accessed"
        },
        "returns": {
          "_0": "uint256 token ID at the given index of the tokens list owned by the requested address"
        }
      },
      "tokenOpenOrderId(uint256,uint256)": {
        "details": "After the order IDs are returned, use 'order()' to view the actual order.",
        "params": {
          "_index": ": Element of an open order IDs array for a given vault token",
          "_tokenId": ": Vault token"
        },
        "returns": {
          "_0": "Order ID at the given index of open order IDs for a vault token"
        }
      },
      "tokenOpenOrdersLength(uint256)": {
        "params": {
          "_tokenId": ": Vault token"
        },
        "returns": {
          "_0": "Number of open orders for a given vault token"
        }
      },
      "tokenURI(uint256)": {
        "details": "Returns the URI for a given token ID. May return an empty string. If a base URI is set (via {_setBaseURI}), it is added as a prefix to the token's own URI (via {_setTokenURI}). If there is a base URI but no token URI, the token's ID will be used as its URI when appending it to the base URI. This pattern for autogenerated token URIs can lead to large gas savings. .Examples |=== |`_setBaseURI()` |`_setTokenURI()` |`tokenURI()` | \"\" | \"\" | \"\" | \"\" | \"token.uri/123\" | \"token.uri/123\" | \"token.uri/\" | \"123\" | \"token.uri/123\" | \"token.uri/\" | \"\" | \"token.uri/<tokenId>\" |=== Requirements: - `tokenId` must exist."
      },
      "tokensLength()": {
        "returns": {
          "_0": "Length of all tokens added to this vault. Includes tokens that have been deactivated."
        }
      },
      "totalSupply()": {
        "details": "Gets the total amount of tokens stored by the contract.",
        "returns": {
          "_0": "uint256 representing the total amount of tokens"
        }
      },
      "trade(uint256,uint256)": {
        "details": "Only used for informational purposes. Use to get all of the orders within a given trade. After the order IDs are returned, use 'order()' to view the actual order.",
        "params": {
          "_tokenId": ": Vault token",
          "_tradeId": ": Trade owned by '_tokenId'"
        },
        "returns": {
          "_0": "IDs of the orders within the trade"
        }
      },
      "transferFrom(address,address,uint256)": {
        "details": "Transfers the ownership of a given token ID to another address. Usage of this method is discouraged, use {safeTransferFrom} whenever possible. Requires the msg.sender to be the owner, approved, or operator.",
        "params": {
          "from": "current owner of the token",
          "to": "address to receive the ownership of the given token ID",
          "tokenId": "uint256 ID of the token to be transferred"
        }
      },
      "transferOwnership(address)": {
        "details": "Transfers ownership of the contract to a new account (`newOwner`). Can only be called by the current owner."
      },
      "viewStrategy(uint256)": {
        "params": {
          "_tokenId": ": Vault token"
        },
        "returns": {
          "_0": "Trade details specific to a given vault token"
        }
      },
      "viewTokenAmounts(uint256)": {
        "params": {
          "_tokenId": ": Vault token"
        },
        "returns": {
          "_0": "Array of ERC20 tokens and the respective amount owned by a given vault token"
        }
      },
      "withdraw(address,uint256)": {
        "details": "This contract is owned by the Controller. Call 'withdraw' from the Controller to use this function.",
        "notice": "After calling this function, all orders associated with '_tokenId' are closed and their tokens are returned to the token owner. The token is then burnt and cannot be used again.",
        "params": {
          "_from": ": Controller contract will forward 'msg.sender'",
          "_tokenId": ": Vault token to withdraw"
        }
      }
    },
    "title": "Corn Finance Accumulator Distributor Vault",
    "version": 1
  },
  "opcodes": "PUSH1 0x80 PUSH1 0x40 MSTORE CALLVALUE DUP1 ISZERO PUSH2 0x10 JUMPI PUSH1 0x0 DUP1 REVERT JUMPDEST POP PUSH1 0x4 CALLDATASIZE LT PUSH2 0x28A JUMPI PUSH1 0x0 CALLDATALOAD PUSH1 0xE0 SHR DUP1 PUSH4 0x7F8FAA6A GT PUSH2 0x15C JUMPI DUP1 PUSH4 0xBE8ACD3F GT PUSH2 0xCE JUMPI DUP1 PUSH4 0xE8315742 GT PUSH2 0x87 JUMPI DUP1 PUSH4 0xE8315742 EQ PUSH2 0x581 JUMPI DUP1 PUSH4 0xE985E9C5 EQ PUSH2 0x589 JUMPI DUP1 PUSH4 0xF2FDE38B EQ PUSH2 0x59C JUMPI DUP1 PUSH4 0xF3FEF3A3 EQ PUSH2 0x5AF JUMPI DUP1 PUSH4 0xF77C4791 EQ PUSH2 0x5C2 JUMPI DUP1 PUSH4 0xFCAB2E14 EQ PUSH2 0x5CA JUMPI PUSH2 0x28A JUMP JUMPDEST DUP1 PUSH4 0xBE8ACD3F EQ PUSH2 0x523 JUMPI DUP1 PUSH4 0xC87B56DD EQ PUSH2 0x52B JUMPI DUP1 PUSH4 0xD082E381 EQ PUSH2 0x53E JUMPI DUP1 PUSH4 0xD92FC67B EQ PUSH2 0x546 JUMPI DUP1 PUSH4 0xDBB03711 EQ PUSH2 0x54E JUMPI DUP1 PUSH4 0xE20BE69A EQ PUSH2 0x56E JUMPI PUSH2 0x28A JUMP JUMPDEST DUP1 PUSH4 0x9FD19D92 GT PUSH2 0x120 JUMPI DUP1 PUSH4 0x9FD19D92 EQ PUSH2 0x4A4 JUMPI DUP1 PUSH4 0xA22CB465 EQ PUSH2 0x4B7 JUMPI DUP1 PUSH4 0xA5F40303 EQ PUSH2 0x4CA JUMPI DUP1 PUSH4 0xAEA4E5BA EQ PUSH2 0x4DD JUMPI DUP1 PUSH4 0xB88D4FDE EQ PUSH2 0x4F0 JUMPI DUP1 PUSH4 0xB8DC7414 EQ PUSH2 0x503 JUMPI PUSH2 0x28A JUMP JUMPDEST DUP1 PUSH4 0x7F8FAA6A EQ PUSH2 0x44E JUMPI DUP1 PUSH4 0x8DA5CB5B EQ PUSH2 0x46E JUMPI DUP1 PUSH4 0x90A83DC2 EQ PUSH2 0x476 JUMPI DUP1 PUSH4 0x915B9859 EQ PUSH2 0x489 JUMPI DUP1 PUSH4 0x95D89B41 EQ PUSH2 0x49C JUMPI PUSH2 0x28A JUMP JUMPDEST DUP1 PUSH4 0x2F745C59 GT PUSH2 0x200 JUMPI DUP1 PUSH4 0x5ACF6903 GT PUSH2 0x1B9 JUMPI DUP1 PUSH4 0x5ACF6903 EQ PUSH2 0x3F2 JUMPI DUP1 PUSH4 0x6352211E EQ PUSH2 0x405 JUMPI DUP1 PUSH4 0x68173BCF EQ PUSH2 0x418 JUMPI DUP1 PUSH4 0x6C0360EB EQ PUSH2 0x42B JUMPI DUP1 PUSH4 0x70A08231 EQ PUSH2 0x433 JUMPI DUP1 PUSH4 0x715018A6 EQ PUSH2 0x446 JUMPI PUSH2 0x28A JUMP JUMPDEST DUP1 PUSH4 0x2F745C59 EQ PUSH2 0x380 JUMPI DUP1 PUSH4 0x42842E0E EQ PUSH2 0x393 JUMPI DUP1 PUSH4 0x4F64B2BE EQ PUSH2 0x3A6 JUMPI DUP1 PUSH4 0x4F6CCCE7 EQ PUSH2 0x3B9 JUMPI DUP1 PUSH4 0x55F804B3 EQ PUSH2 0x3CC JUMPI DUP1 PUSH4 0x594A2B3E EQ PUSH2 0x3DF JUMPI PUSH2 0x28A JUMP JUMPDEST DUP1 PUSH4 0x18160DDD GT PUSH2 0x252 JUMPI DUP1 PUSH4 0x18160DDD EQ PUSH2 0x317 JUMPI DUP1 PUSH4 0x198E4CE6 EQ PUSH2 0x31F JUMPI DUP1 PUSH4 0x1BF744DB EQ PUSH2 0x327 JUMPI DUP1 PUSH4 0x21603F43 EQ PUSH2 0x33A JUMPI DUP1 PUSH4 0x228BFD9F EQ PUSH2 0x35A JUMPI DUP1 PUSH4 0x23B872DD EQ PUSH2 0x36D JUMPI PUSH2 0x28A JUMP JUMPDEST DUP1 PUSH4 0x1FFC9A7 EQ PUSH2 0x28F JUMPI DUP1 PUSH4 0x6FDDE03 EQ PUSH2 0x2B8 JUMPI DUP1 PUSH4 0x81812FC EQ PUSH2 0x2CD JUMPI DUP1 PUSH4 0x95EA7B3 EQ PUSH2 0x2ED JUMPI DUP1 PUSH4 0x113990B8 EQ PUSH2 0x302 JUMPI JUMPDEST PUSH1 0x0 DUP1 REVERT JUMPDEST PUSH2 0x2A2 PUSH2 0x29D CALLDATASIZE PUSH1 0x4 PUSH2 0x4E3F JUMP JUMPDEST PUSH2 0x5DD JUMP JUMPDEST PUSH1 0x40 MLOAD PUSH2 0x2AF SWAP2 SWAP1 PUSH2 0x5179 JUMP JUMPDEST PUSH1 0x40 MLOAD DUP1 SWAP2 SUB SWAP1 RETURN JUMPDEST PUSH2 0x2C0 PUSH2 0x600 JUMP JUMPDEST PUSH1 0x40 MLOAD PUSH2 0x2AF SWAP2 SWAP1 PUSH2 0x5184 JUMP JUMPDEST PUSH2 0x2E0 PUSH2 0x2DB CALLDATASIZE PUSH1 0x4 PUSH2 0x4EA9 JUMP JUMPDEST PUSH2 0x696 JUMP JUMPDEST PUSH1 0x40 MLOAD PUSH2 0x2AF SWAP2 SWAP1 PUSH2 0x508A JUMP JUMPDEST PUSH2 0x300 PUSH2 0x2FB CALLDATASIZE PUSH1 0x4 PUSH2 0x4D0C JUMP JUMPDEST PUSH2 0x6E2 JUMP JUMPDEST STOP JUMPDEST PUSH2 0x30A PUSH2 0x77A JUMP JUMPDEST PUSH1 0x40 MLOAD PUSH2 0x2AF SWAP2 SWAP1 PUSH2 0x5D54 JUMP JUMPDEST PUSH2 0x30A PUSH2 0x786 JUMP JUMPDEST PUSH2 0x30A PUSH2 0x797 JUMP JUMPDEST PUSH2 0x30A PUSH2 0x335 CALLDATASIZE PUSH1 0x4 PUSH2 0x4EA9 JUMP JUMPDEST PUSH2 0x79D JUMP JUMPDEST PUSH2 0x34D PUSH2 0x348 CALLDATASIZE PUSH1 0x4 PUSH2 0x4EA9 JUMP JUMPDEST PUSH2 0x7BE JUMP JUMPDEST PUSH1 0x40 MLOAD PUSH2 0x2AF SWAP2 SWAP1 PUSH2 0x5C6B JUMP JUMPDEST PUSH2 0x2E0 PUSH2 0x368 CALLDATASIZE PUSH1 0x4 PUSH2 0x4B3C JUMP JUMPDEST PUSH2 0x8FB JUMP JUMPDEST PUSH2 0x300 PUSH2 0x37B CALLDATASIZE PUSH1 0x4 PUSH2 0x4BAC JUMP JUMPDEST PUSH2 0x919 JUMP JUMPDEST PUSH2 0x30A PUSH2 0x38E CALLDATASIZE PUSH1 0x4 PUSH2 0x4D0C JUMP JUMPDEST PUSH2 0x951 JUMP JUMPDEST PUSH2 0x300 PUSH2 0x3A1 CALLDATASIZE PUSH1 0x4 PUSH2 0x4BAC JUMP JUMPDEST PUSH2 0x97C JUMP JUMPDEST PUSH2 0x2E0 PUSH2 0x3B4 CALLDATASIZE PUSH1 0x4 PUSH2 0x4EA9 JUMP JUMPDEST PUSH2 0x997 JUMP JUMPDEST PUSH2 0x30A PUSH2 0x3C7 CALLDATASIZE PUSH1 0x4 PUSH2 0x4EA9 JUMP JUMPDEST PUSH2 0x9BE JUMP JUMPDEST PUSH2 0x300 PUSH2 0x3DA CALLDATASIZE PUSH1 0x4 PUSH2 0x4E77 JUMP JUMPDEST PUSH2 0x9D4 JUMP JUMPDEST PUSH2 0x34D PUSH2 0x3ED CALLDATASIZE PUSH1 0x4 PUSH2 0x4D37 JUMP JUMPDEST PUSH2 0xA15 JUMP JUMPDEST PUSH2 0x2A2 PUSH2 0x400 CALLDATASIZE PUSH1 0x4 PUSH2 0x4B3C JUMP JUMPDEST PUSH2 0xBE5 JUMP JUMPDEST PUSH2 0x2E0 PUSH2 0x413 CALLDATASIZE PUSH1 0x4 PUSH2 0x4EA9 JUMP JUMPDEST PUSH2 0xBFA JUMP JUMPDEST PUSH2 0x300 PUSH2 0x426 CALLDATASIZE PUSH1 0x4 PUSH2 0x4B3C JUMP JUMPDEST PUSH2 0xC22 JUMP JUMPDEST PUSH2 0x2C0 PUSH2 0xC78 JUMP JUMPDEST PUSH2 0x30A PUSH2 0x441 CALLDATASIZE PUSH1 0x4 PUSH2 0x4B3C JUMP JUMPDEST PUSH2 0xCD9 JUMP JUMPDEST PUSH2 0x300 PUSH2 0xD22 JUMP JUMPDEST PUSH2 0x461 PUSH2 0x45C CALLDATASIZE PUSH1 0x4 PUSH2 0x4EA9 JUMP JUMPDEST PUSH2 0xDA1 JUMP JUMPDEST PUSH1 0x40 MLOAD PUSH2 0x2AF SWAP2 SWAP1 PUSH2 0x5CF3 JUMP JUMPDEST PUSH2 0x2E0 PUSH2 0xEE6 JUMP JUMPDEST PUSH2 0x300 PUSH2 0x484 CALLDATASIZE PUSH1 0x4 PUSH2 0x4BAC JUMP JUMPDEST PUSH2 0xEF5 JUMP JUMPDEST PUSH2 0x30A PUSH2 0x497 CALLDATASIZE PUSH1 0x4 PUSH2 0x4ED9 JUMP JUMPDEST PUSH2 0x1013 JUMP JUMPDEST PUSH2 0x2C0 PUSH2 0x104A JUMP JUMPDEST PUSH2 0x30A PUSH2 0x4B2 CALLDATASIZE PUSH1 0x4 PUSH2 0x4EA9 JUMP JUMPDEST PUSH2 0x10AB JUMP JUMPDEST PUSH2 0x300 PUSH2 0x4C5 CALLDATASIZE PUSH1 0x4 PUSH2 0x4CDF JUMP JUMPDEST PUSH2 0x10BD JUMP JUMPDEST PUSH2 0x30A PUSH2 0x4D8 CALLDATASIZE PUSH1 0x4 PUSH2 0x4EA9 JUMP JUMPDEST PUSH2 0x118B JUMP JUMPDEST PUSH2 0x300 PUSH2 0x4EB CALLDATASIZE PUSH1 0x4 PUSH2 0x4D0C JUMP JUMPDEST PUSH2 0x11AC JUMP JUMPDEST PUSH2 0x300 PUSH2 0x4FE CALLDATASIZE PUSH1 0x4 PUSH2 0x4BEC JUMP JUMPDEST PUSH2 0x1221 JUMP JUMPDEST PUSH2 0x516 PUSH2 0x511 CALLDATASIZE PUSH1 0x4 PUSH2 0x4EA9 JUMP JUMPDEST PUSH2 0x1260 JUMP JUMPDEST PUSH1 0x40 MLOAD PUSH2 0x2AF SWAP2 SWAP1 PUSH2 0x510E JUMP JUMPDEST PUSH2 0x30A PUSH2 0x13D4 JUMP JUMPDEST PUSH2 0x2C0 PUSH2 0x539 CALLDATASIZE PUSH1 0x4 PUSH2 0x4EA9 JUMP JUMPDEST PUSH2 0x13DA JUMP JUMPDEST PUSH2 0x30A PUSH2 0x1524 JUMP JUMPDEST PUSH2 0x30A PUSH2 0x152A JUMP JUMPDEST PUSH2 0x561 PUSH2 0x55C CALLDATASIZE PUSH1 0x4 PUSH2 0x4C55 JUMP JUMPDEST PUSH2 0x1530 JUMP JUMPDEST PUSH1 0x40 MLOAD PUSH2 0x2AF SWAP2 SWAP1 PUSH2 0x5166 JUMP JUMPDEST PUSH2 0x561 PUSH2 0x57C CALLDATASIZE PUSH1 0x4 PUSH2 0x4ED9 JUMP JUMPDEST PUSH2 0x1839 JUMP JUMPDEST PUSH2 0x30A PUSH2 0x18A4 JUMP JUMPDEST PUSH2 0x2A2 PUSH2 0x597 CALLDATASIZE PUSH1 0x4 PUSH2 0x4B74 JUMP JUMPDEST PUSH2 0x18AA JUMP JUMPDEST PUSH2 0x300 PUSH2 0x5AA CALLDATASIZE PUSH1 0x4 PUSH2 0x4B3C JUMP JUMPDEST PUSH2 0x18D8 JUMP JUMPDEST PUSH2 0x300 PUSH2 0x5BD CALLDATASIZE PUSH1 0x4 PUSH2 0x4D0C JUMP JUMPDEST PUSH2 0x198F JUMP JUMPDEST PUSH2 0x2E0 PUSH2 0x19D2 JUMP JUMPDEST PUSH2 0x30A PUSH2 0x5D8 CALLDATASIZE PUSH1 0x4 PUSH2 0x4B3C JUMP JUMPDEST PUSH2 0x19E1 JUMP JUMPDEST PUSH1 0x1 PUSH1 0x1 PUSH1 0xE0 SHL SUB NOT DUP2 AND PUSH1 0x0 SWAP1 DUP2 MSTORE PUSH1 0x20 DUP2 SWAP1 MSTORE PUSH1 0x40 SWAP1 KECCAK256 SLOAD PUSH1 0xFF AND JUMPDEST SWAP2 SWAP1 POP JUMP JUMPDEST PUSH1 0x6 DUP1 SLOAD PUSH1 0x40 DUP1 MLOAD PUSH1 0x20 PUSH1 0x1F PUSH1 0x2 PUSH1 0x0 NOT PUSH2 0x100 PUSH1 0x1 DUP9 AND ISZERO MUL ADD SWAP1 SWAP6 AND SWAP5 SWAP1 SWAP5 DIV SWAP4 DUP5 ADD DUP2 SWAP1 DIV DUP2 MUL DUP3 ADD DUP2 ADD SWAP1 SWAP3 MSTORE DUP3 DUP2 MSTORE PUSH1 0x60 SWAP4 SWAP1 SWAP3 SWAP1 SWAP2 DUP4 ADD DUP3 DUP3 DUP1 ISZERO PUSH2 0x68C JUMPI DUP1 PUSH1 0x1F LT PUSH2 0x661 JUMPI PUSH2 0x100 DUP1 DUP4 SLOAD DIV MUL DUP4 MSTORE SWAP2 PUSH1 0x20 ADD SWAP2 PUSH2 0x68C JUMP JUMPDEST DUP3 ADD SWAP2 SWAP1 PUSH1 0x0 MSTORE PUSH1 0x20 PUSH1 0x0 KECCAK256 SWAP1 JUMPDEST DUP2 SLOAD DUP2 MSTORE SWAP1 PUSH1 0x1 ADD SWAP1 PUSH1 0x20 ADD DUP1 DUP4 GT PUSH2 0x66F JUMPI DUP3 SWAP1 SUB PUSH1 0x1F AND DUP3 ADD SWAP2 JUMPDEST POP POP POP POP POP SWAP1 POP SWAP1 JUMP JUMPDEST PUSH1 0x0 PUSH2 0x6A1 DUP3 PUSH2 0x1A64 JUMP JUMPDEST PUSH2 0x6C6 JUMPI PUSH1 0x40 MLOAD PUSH3 0x461BCD PUSH1 0xE5 SHL DUP2 MSTORE PUSH1 0x4 ADD PUSH2 0x6BD SWAP1 PUSH2 0x574F JUMP JUMPDEST PUSH1 0x40 MLOAD DUP1 SWAP2 SUB SWAP1 REVERT JUMPDEST POP PUSH1 0x0 SWAP1 DUP2 MSTORE PUSH1 0x4 PUSH1 0x20 MSTORE PUSH1 0x40 SWAP1 KECCAK256 SLOAD PUSH1 0x1 PUSH1 0x1 PUSH1 0xA0 SHL SUB AND SWAP1 JUMP JUMPDEST PUSH1 0x0 PUSH2 0x6ED DUP3 PUSH2 0xBFA JUMP JUMPDEST SWAP1 POP DUP1 PUSH1 0x1 PUSH1 0x1 PUSH1 0xA0 SHL SUB AND DUP4 PUSH1 0x1 PUSH1 0x1 PUSH1 0xA0 SHL SUB AND EQ ISZERO PUSH2 0x721 JUMPI PUSH1 0x40 MLOAD PUSH3 0x461BCD PUSH1 0xE5 SHL DUP2 MSTORE PUSH1 0x4 ADD PUSH2 0x6BD SWAP1 PUSH2 0x5A19 JUMP JUMPDEST DUP1 PUSH1 0x1 PUSH1 0x1 PUSH1 0xA0 SHL SUB AND PUSH2 0x733 PUSH2 0x1A71 JUMP JUMPDEST PUSH1 0x1 PUSH1 0x1 PUSH1 0xA0 SHL SUB AND EQ DUP1 PUSH2 0x74F JUMPI POP PUSH2 0x74F DUP2 PUSH2 0x597 PUSH2 0x1A71 JUMP JUMPDEST PUSH2 0x76B JUMPI PUSH1 0x40 MLOAD PUSH3 0x461BCD PUSH1 0xE5 SHL DUP2 MSTORE PUSH1 0x4 ADD PUSH2 0x6BD SWAP1 PUSH2 0x55F0 JUMP JUMPDEST PUSH2 0x775 DUP4 DUP4 PUSH2 0x1A75 JUMP JUMPDEST POP POP POP JUMP JUMPDEST PUSH8 0xDE0B6B3A7640000 DUP2 JUMP JUMPDEST PUSH1 0x0 PUSH2 0x792 PUSH1 0x2 PUSH2 0x1AE3 JUMP JUMPDEST SWAP1 POP SWAP1 JUMP JUMPDEST PUSH1 0xF SLOAD SWAP1 JUMP JUMPDEST PUSH1 0x0 PUSH1 0x10 DUP3 DUP2 SLOAD DUP2 LT PUSH2 0x7AC JUMPI INVALID JUMPDEST PUSH1 0x0 SWAP2 DUP3 MSTORE PUSH1 0x20 SWAP1 SWAP2 KECCAK256 ADD SLOAD SWAP3 SWAP2 POP POP JUMP JUMPDEST PUSH2 0x7C6 PUSH2 0x471F JUMP JUMPDEST PUSH1 0xE DUP3 DUP2 SLOAD DUP2 LT PUSH2 0x7D3 JUMPI INVALID JUMPDEST SWAP1 PUSH1 0x0 MSTORE PUSH1 0x20 PUSH1 0x0 KECCAK256 SWAP1 PUSH1 0xA MUL ADD PUSH1 0x40 MLOAD DUP1 PUSH1 0xE0 ADD PUSH1 0x40 MSTORE SWAP1 DUP2 PUSH1 0x0 DUP3 ADD SLOAD DUP2 MSTORE PUSH1 0x20 ADD PUSH1 0x1 DUP3 ADD SLOAD DUP2 MSTORE PUSH1 0x20 ADD PUSH1 0x2 DUP3 ADD SLOAD DUP2 MSTORE PUSH1 0x20 ADD PUSH1 0x3 DUP3 ADD SLOAD DUP2 MSTORE PUSH1 0x20 ADD PUSH1 0x4 DUP3 ADD PUSH1 0x2 DUP1 PUSH1 0x20 MUL PUSH1 0x40 MLOAD SWAP1 DUP2 ADD PUSH1 0x40 MSTORE DUP1 SWAP3 SWAP2 SWAP1 DUP3 PUSH1 0x2 DUP1 ISZERO PUSH2 0x85A JUMPI PUSH1 0x20 MUL DUP3 ADD SWAP2 JUMPDEST DUP2 SLOAD PUSH1 0x1 PUSH1 0x1 PUSH1 0xA0 SHL SUB AND DUP2 MSTORE PUSH1 0x1 SWAP1 SWAP2 ADD SWAP1 PUSH1 0x20 ADD DUP1 DUP4 GT PUSH2 0x83C JUMPI JUMPDEST POP POP POP SWAP2 DUP4 MSTORE POP POP PUSH1 0x40 DUP1 MLOAD PUSH1 0x60 DUP2 ADD SWAP2 DUP3 SWAP1 MSTORE PUSH1 0x20 SWAP1 SWAP3 ADD SWAP2 SWAP1 PUSH1 0x6 DUP5 ADD SWAP1 PUSH1 0x3 SWAP1 DUP3 DUP5 JUMPDEST DUP2 SLOAD DUP2 MSTORE PUSH1 0x20 ADD SWAP1 PUSH1 0x1 ADD SWAP1 DUP1 DUP4 GT PUSH2 0x880 JUMPI POP POP POP POP POP DUP2 MSTORE PUSH1 0x20 ADD PUSH1 0x9 DUP3 ADD DUP1 SLOAD DUP1 PUSH1 0x20 MUL PUSH1 0x20 ADD PUSH1 0x40 MLOAD SWAP1 DUP2 ADD PUSH1 0x40 MSTORE DUP1 SWAP3 SWAP2 SWAP1 DUP2 DUP2 MSTORE PUSH1 0x20 ADD DUP3 DUP1 SLOAD DUP1 ISZERO PUSH2 0x8EB JUMPI PUSH1 0x20 MUL DUP3 ADD SWAP2 SWAP1 PUSH1 0x0 MSTORE PUSH1 0x20 PUSH1 0x0 KECCAK256 SWAP1 JUMPDEST DUP2 SLOAD DUP2 MSTORE PUSH1 0x20 ADD SWAP1 PUSH1 0x1 ADD SWAP1 DUP1 DUP4 GT PUSH2 0x8D7 JUMPI JUMPDEST POP POP POP POP POP DUP2 MSTORE POP POP SWAP1 POP SWAP2 SWAP1 POP JUMP JUMPDEST PUSH1 0x1 PUSH1 0x1 PUSH1 0xA0 SHL SUB SWAP1 DUP2 AND PUSH1 0x0 SWAP1 DUP2 MSTORE PUSH1 0x19 PUSH1 0x20 MSTORE PUSH1 0x40 SWAP1 KECCAK256 SLOAD AND SWAP1 JUMP JUMPDEST PUSH2 0x92A PUSH2 0x924 PUSH2 0x1A71 JUMP JUMPDEST DUP3 PUSH2 0x1AEE JUMP JUMPDEST PUSH2 0x946 JUMPI PUSH1 0x40 MLOAD PUSH3 0x461BCD PUSH1 0xE5 SHL DUP2 MSTORE PUSH1 0x4 ADD PUSH2 0x6BD SWAP1 PUSH2 0x5AA9 JUMP JUMPDEST PUSH2 0x775 DUP4 DUP4 DUP4 PUSH2 0x1B6B JUMP JUMPDEST PUSH1 0x1 PUSH1 0x1 PUSH1 0xA0 SHL SUB DUP3 AND PUSH1 0x0 SWAP1 DUP2 MSTORE PUSH1 0x1 PUSH1 0x20 MSTORE PUSH1 0x40 DUP2 KECCAK256 PUSH2 0x973 SWAP1 DUP4 PUSH2 0x1C79 JUMP JUMPDEST SWAP1 POP JUMPDEST SWAP3 SWAP2 POP POP JUMP JUMPDEST PUSH2 0x775 DUP4 DUP4 DUP4 PUSH1 0x40 MLOAD DUP1 PUSH1 0x20 ADD PUSH1 0x40 MSTORE DUP1 PUSH1 0x0 DUP2 MSTORE POP PUSH2 0x1221 JUMP JUMPDEST PUSH1 0x17 DUP2 DUP2 SLOAD DUP2 LT PUSH2 0x9A4 JUMPI INVALID JUMPDEST PUSH1 0x0 SWAP2 DUP3 MSTORE PUSH1 0x20 SWAP1 SWAP2 KECCAK256 ADD SLOAD PUSH1 0x1 PUSH1 0x1 PUSH1 0xA0 SHL SUB AND SWAP1 POP DUP2 JUMP JUMPDEST PUSH1 0x0 DUP1 PUSH2 0x9CC PUSH1 0x2 DUP5 PUSH2 0x1C85 JUMP JUMPDEST POP SWAP4 SWAP3 POP POP POP JUMP JUMPDEST PUSH2 0x9DC PUSH2 0x1A71 JUMP JUMPDEST PUSH1 0xA SLOAD PUSH1 0x1 PUSH1 0x1 PUSH1 0xA0 SHL SUB SWAP1 DUP2 AND SWAP2 AND EQ PUSH2 0xA09 JUMPI PUSH1 0x40 MLOAD PUSH3 0x461BCD PUSH1 0xE5 SHL DUP2 MSTORE PUSH1 0x4 ADD PUSH2 0x6BD SWAP1 PUSH2 0x583C JUMP JUMPDEST PUSH2 0xA12 DUP2 PUSH2 0x1CA1 JUMP JUMPDEST POP JUMP JUMPDEST PUSH2 0xA1D PUSH2 0x471F JUMP JUMPDEST PUSH2 0xA25 PUSH2 0x1A71 JUMP JUMPDEST PUSH1 0xA SLOAD PUSH1 0x1 PUSH1 0x1 PUSH1 0xA0 SHL SUB SWAP1 DUP2 AND SWAP2 AND EQ PUSH2 0xA52 JUMPI PUSH1 0x40 MLOAD PUSH3 0x461BCD PUSH1 0xE5 SHL DUP2 MSTORE PUSH1 0x4 ADD PUSH2 0x6BD SWAP1 PUSH2 0x583C JUMP JUMPDEST PUSH2 0xA5A PUSH2 0x471F JUMP JUMPDEST PUSH2 0xA63 DUP6 PUSH2 0x7BE JUMP JUMPDEST SWAP1 POP PUSH1 0x0 DUP1 PUSH2 0xA74 DUP9 DUP5 DUP9 DUP9 PUSH2 0x1CB4 JUMP JUMPDEST PUSH1 0xA0 DUP6 ADD MLOAD PUSH1 0x20 ADD MLOAD SWAP2 SWAP4 POP SWAP2 POP DUP3 LT ISZERO PUSH2 0xAA1 JUMPI PUSH1 0x40 MLOAD PUSH3 0x461BCD PUSH1 0xE5 SHL DUP2 MSTORE PUSH1 0x4 ADD PUSH2 0x6BD SWAP1 PUSH2 0x579B JUMP JUMPDEST PUSH1 0xE PUSH2 0xAAC DUP5 PUSH2 0x246B JUMP JUMPDEST DUP2 SLOAD DUP2 LT PUSH2 0xAB6 JUMPI INVALID JUMPDEST SWAP1 PUSH1 0x0 MSTORE PUSH1 0x20 PUSH1 0x0 KECCAK256 SWAP1 PUSH1 0xA MUL ADD PUSH1 0x40 MLOAD DUP1 PUSH1 0xE0 ADD PUSH1 0x40 MSTORE SWAP1 DUP2 PUSH1 0x0 DUP3 ADD SLOAD DUP2 MSTORE PUSH1 0x20 ADD PUSH1 0x1 DUP3 ADD SLOAD DUP2 MSTORE PUSH1 0x20 ADD PUSH1 0x2 DUP3 ADD SLOAD DUP2 MSTORE PUSH1 0x20 ADD PUSH1 0x3 DUP3 ADD SLOAD DUP2 MSTORE PUSH1 0x20 ADD PUSH1 0x4 DUP3 ADD PUSH1 0x2 DUP1 PUSH1 0x20 MUL PUSH1 0x40 MLOAD SWAP1 DUP2 ADD PUSH1 0x40 MSTORE DUP1 SWAP3 SWAP2 SWAP1 DUP3 PUSH1 0x2 DUP1 ISZERO PUSH2 0xB3D JUMPI PUSH1 0x20 MUL DUP3 ADD SWAP2 JUMPDEST DUP2 SLOAD PUSH1 0x1 PUSH1 0x1 PUSH1 0xA0 SHL SUB AND DUP2 MSTORE PUSH1 0x1 SWAP1 SWAP2 ADD SWAP1 PUSH1 0x20 ADD DUP1 DUP4 GT PUSH2 0xB1F JUMPI JUMPDEST POP POP POP SWAP2 DUP4 MSTORE POP POP PUSH1 0x40 DUP1 MLOAD PUSH1 0x60 DUP2 ADD SWAP2 DUP3 SWAP1 MSTORE PUSH1 0x20 SWAP1 SWAP3 ADD SWAP2 SWAP1 PUSH1 0x6 DUP5 ADD SWAP1 PUSH1 0x3 SWAP1 DUP3 DUP5 JUMPDEST DUP2 SLOAD DUP2 MSTORE PUSH1 0x20 ADD SWAP1 PUSH1 0x1 ADD SWAP1 DUP1 DUP4 GT PUSH2 0xB63 JUMPI POP POP POP POP POP DUP2 MSTORE PUSH1 0x20 ADD PUSH1 0x9 DUP3 ADD DUP1 SLOAD DUP1 PUSH1 0x20 MUL PUSH1 0x20 ADD PUSH1 0x40 MLOAD SWAP1 DUP2 ADD PUSH1 0x40 MSTORE DUP1 SWAP3 SWAP2 SWAP1 DUP2 DUP2 MSTORE PUSH1 0x20 ADD DUP3 DUP1 SLOAD DUP1 ISZERO PUSH2 0xBCE JUMPI PUSH1 0x20 MUL DUP3 ADD SWAP2 SWAP1 PUSH1 0x0 MSTORE PUSH1 0x20 PUSH1 0x0 KECCAK256 SWAP1 JUMPDEST DUP2 SLOAD DUP2 MSTORE PUSH1 0x20 ADD SWAP1 PUSH1 0x1 ADD SWAP1 DUP1 DUP4 GT PUSH2 0xBBA JUMPI JUMPDEST POP POP POP POP POP DUP2 MSTORE POP POP SWAP4 POP POP POP POP JUMPDEST SWAP5 SWAP4 POP POP POP POP JUMP JUMPDEST PUSH1 0x18 PUSH1 0x20 MSTORE PUSH1 0x0 SWAP1 DUP2 MSTORE PUSH1 0x40 SWAP1 KECCAK256 SLOAD PUSH1 0xFF AND DUP2 JUMP JUMPDEST PUSH1 0x0 PUSH2 0x976 DUP3 PUSH1 0x40 MLOAD DUP1 PUSH1 0x60 ADD PUSH1 0x40 MSTORE DUP1 PUSH1 0x29 DUP2 MSTORE PUSH1 0x20 ADD PUSH2 0x5E5D PUSH1 0x29 SWAP2 CODECOPY PUSH1 0x2 SWAP2 SWAP1 PUSH2 0x26A3 JUMP JUMPDEST PUSH2 0xC2A PUSH2 0x1A71 JUMP JUMPDEST PUSH1 0xA SLOAD PUSH1 0x1 PUSH1 0x1 PUSH1 0xA0 SHL SUB SWAP1 DUP2 AND SWAP2 AND EQ PUSH2 0xC57 JUMPI PUSH1 0x40 MLOAD PUSH3 0x461BCD PUSH1 0xE5 SHL DUP2 MSTORE PUSH1 0x4 ADD PUSH2 0x6BD SWAP1 PUSH2 0x583C JUMP JUMPDEST PUSH1 0x1 PUSH1 0x1 PUSH1 0xA0 SHL SUB AND PUSH1 0x0 SWAP1 DUP2 MSTORE PUSH1 0x18 PUSH1 0x20 MSTORE PUSH1 0x40 SWAP1 KECCAK256 DUP1 SLOAD PUSH1 0xFF NOT AND SWAP1 SSTORE JUMP JUMPDEST PUSH1 0x9 DUP1 SLOAD PUSH1 0x40 DUP1 MLOAD PUSH1 0x20 PUSH1 0x1F PUSH1 0x2 PUSH1 0x0 NOT PUSH2 0x100 PUSH1 0x1 DUP9 AND ISZERO MUL ADD SWAP1 SWAP6 AND SWAP5 SWAP1 SWAP5 DIV SWAP4 DUP5 ADD DUP2 SWAP1 DIV DUP2 MUL DUP3 ADD DUP2 ADD SWAP1 SWAP3 MSTORE DUP3 DUP2 MSTORE PUSH1 0x60 SWAP4 SWAP1 SWAP3 SWAP1 SWAP2 DUP4 ADD DUP3 DUP3 DUP1 ISZERO PUSH2 0x68C JUMPI DUP1 PUSH1 0x1F LT PUSH2 0x661 JUMPI PUSH2 0x100 DUP1 DUP4 SLOAD DIV MUL DUP4 MSTORE SWAP2 PUSH1 0x20 ADD SWAP2 PUSH2 0x68C JUMP JUMPDEST PUSH1 0x0 PUSH1 0x1 PUSH1 0x1 PUSH1 0xA0 SHL SUB DUP3 AND PUSH2 0xD01 JUMPI PUSH1 0x40 MLOAD PUSH3 0x461BCD PUSH1 0xE5 SHL DUP2 MSTORE PUSH1 0x4 ADD PUSH2 0x6BD SWAP1 PUSH2 0x564D JUMP JUMPDEST PUSH1 0x1 PUSH1 0x1 PUSH1 0xA0 SHL SUB DUP3 AND PUSH1 0x0 SWAP1 DUP2 MSTORE PUSH1 0x1 PUSH1 0x20 MSTORE PUSH1 0x40 SWAP1 KECCAK256 PUSH2 0x976 SWAP1 PUSH2 0x1AE3 JUMP JUMPDEST PUSH2 0xD2A PUSH2 0x1A71 JUMP JUMPDEST PUSH1 0xA SLOAD PUSH1 0x1 PUSH1 0x1 PUSH1 0xA0 SHL SUB SWAP1 DUP2 AND SWAP2 AND EQ PUSH2 0xD57 JUMPI PUSH1 0x40 MLOAD PUSH3 0x461BCD PUSH1 0xE5 SHL DUP2 MSTORE PUSH1 0x4 ADD PUSH2 0x6BD SWAP1 PUSH2 0x583C JUMP JUMPDEST PUSH1 0xA SLOAD PUSH1 0x40 MLOAD PUSH1 0x0 SWAP2 PUSH1 0x1 PUSH1 0x1 PUSH1 0xA0 SHL SUB AND SWAP1 PUSH32 0x8BE0079C531659141344CD1FD0A4F28419497F9722A3DAAFE3B4186F6B6457E0 SWAP1 DUP4 SWAP1 LOG3 PUSH1 0xA DUP1 SLOAD PUSH1 0x1 PUSH1 0x1 PUSH1 0xA0 SHL SUB NOT AND SWAP1 SSTORE JUMP JUMPDEST PUSH2 0xDA9 PUSH2 0x4768 JUMP JUMPDEST PUSH1 0x14 DUP3 DUP2 SLOAD DUP2 LT PUSH2 0xDB6 JUMPI INVALID JUMPDEST SWAP1 PUSH1 0x0 MSTORE PUSH1 0x20 PUSH1 0x0 KECCAK256 SWAP1 PUSH1 0x3 MUL ADD PUSH1 0x40 MLOAD DUP1 PUSH1 0x60 ADD PUSH1 0x40 MSTORE SWAP1 DUP2 PUSH1 0x0 DUP3 ADD DUP1 SLOAD DUP1 PUSH1 0x20 MUL PUSH1 0x20 ADD PUSH1 0x40 MLOAD SWAP1 DUP2 ADD PUSH1 0x40 MSTORE DUP1 SWAP3 SWAP2 SWAP1 DUP2 DUP2 MSTORE PUSH1 0x20 ADD DUP3 DUP1 SLOAD DUP1 ISZERO PUSH2 0xE28 JUMPI PUSH1 0x20 MUL DUP3 ADD SWAP2 SWAP1 PUSH1 0x0 MSTORE PUSH1 0x20 PUSH1 0x0 KECCAK256 SWAP1 JUMPDEST DUP2 SLOAD PUSH1 0x1 PUSH1 0x1 PUSH1 0xA0 SHL SUB AND DUP2 MSTORE PUSH1 0x1 SWAP1 SWAP2 ADD SWAP1 PUSH1 0x20 ADD DUP1 DUP4 GT PUSH2 0xE0A JUMPI JUMPDEST POP POP POP POP POP DUP2 MSTORE PUSH1 0x20 ADD PUSH1 0x1 DUP3 ADD DUP1 SLOAD DUP1 PUSH1 0x20 MUL PUSH1 0x20 ADD PUSH1 0x40 MLOAD SWAP1 DUP2 ADD PUSH1 0x40 MSTORE DUP1 SWAP3 SWAP2 SWAP1 DUP2 DUP2 MSTORE PUSH1 0x20 ADD DUP3 DUP1 SLOAD DUP1 ISZERO PUSH2 0xE80 JUMPI PUSH1 0x20 MUL DUP3 ADD SWAP2 SWAP1 PUSH1 0x0 MSTORE PUSH1 0x20 PUSH1 0x0 KECCAK256 SWAP1 JUMPDEST DUP2 SLOAD DUP2 MSTORE PUSH1 0x20 ADD SWAP1 PUSH1 0x1 ADD SWAP1 DUP1 DUP4 GT PUSH2 0xE6C JUMPI JUMPDEST POP POP POP POP POP DUP2 MSTORE PUSH1 0x20 ADD PUSH1 0x2 DUP3 ADD DUP1 SLOAD DUP1 PUSH1 0x20 MUL PUSH1 0x20 ADD PUSH1 0x40 MLOAD SWAP1 DUP2 ADD PUSH1 0x40 MSTORE DUP1 SWAP3 SWAP2 SWAP1 DUP2 DUP2 MSTORE PUSH1 0x20 ADD DUP3 DUP1 SLOAD DUP1 ISZERO PUSH2 0x8EB JUMPI PUSH1 0x20 MUL DUP3 ADD SWAP2 SWAP1 PUSH1 0x0 MSTORE PUSH1 0x20 PUSH1 0x0 KECCAK256 SWAP1 DUP2 SLOAD DUP2 MSTORE PUSH1 0x20 ADD SWAP1 PUSH1 0x1 ADD SWAP1 DUP1 DUP4 GT PUSH2 0x8D7 JUMPI POP POP POP POP POP DUP2 MSTORE POP POP SWAP1 POP SWAP2 SWAP1 POP JUMP JUMPDEST PUSH1 0xA SLOAD PUSH1 0x1 PUSH1 0x1 PUSH1 0xA0 SHL SUB AND SWAP1 JUMP JUMPDEST PUSH2 0xEFD PUSH2 0x1A71 JUMP JUMPDEST PUSH1 0xA SLOAD PUSH1 0x1 PUSH1 0x1 PUSH1 0xA0 SHL SUB SWAP1 DUP2 AND SWAP2 AND EQ PUSH2 0xF2A JUMPI PUSH1 0x40 MLOAD PUSH3 0x461BCD PUSH1 0xE5 SHL DUP2 MSTORE PUSH1 0x4 ADD PUSH2 0x6BD SWAP1 PUSH2 0x583C JUMP JUMPDEST PUSH1 0x1 PUSH1 0x1 PUSH1 0xA0 SHL SUB DUP4 DUP2 AND PUSH1 0x0 SWAP1 DUP2 MSTORE PUSH1 0x19 PUSH1 0x20 MSTORE PUSH1 0x40 SWAP1 KECCAK256 SLOAD AND ISZERO PUSH2 0xF62 JUMPI PUSH1 0x40 MLOAD PUSH3 0x461BCD PUSH1 0xE5 SHL DUP2 MSTORE PUSH1 0x4 ADD PUSH2 0x6BD SWAP1 PUSH2 0x59D3 JUMP JUMPDEST PUSH1 0x1 PUSH1 0x1 PUSH1 0xA0 SHL SUB DUP3 AND PUSH2 0xF88 JUMPI PUSH1 0x40 MLOAD PUSH3 0x461BCD PUSH1 0xE5 SHL DUP2 MSTORE PUSH1 0x4 ADD PUSH2 0x6BD SWAP1 PUSH2 0x598A JUMP JUMPDEST PUSH1 0x1 PUSH1 0x1 PUSH1 0xA0 SHL SUB SWAP3 DUP4 AND PUSH1 0x0 DUP2 DUP2 MSTORE PUSH1 0x19 PUSH1 0x20 SWAP1 DUP2 MSTORE PUSH1 0x40 DUP1 DUP4 KECCAK256 DUP1 SLOAD SWAP8 SWAP1 SWAP7 AND PUSH1 0x1 PUSH1 0x1 PUSH1 0xA0 SHL SUB NOT SWAP8 DUP9 AND OR SWAP1 SWAP6 SSTORE PUSH1 0x1A DUP2 MSTORE DUP5 DUP3 KECCAK256 SWAP4 SWAP1 SWAP4 SSTORE PUSH1 0x17 DUP1 SLOAD PUSH1 0x1 DUP2 DUP2 ADD SWAP1 SWAP3 SSTORE PUSH32 0xC624B66CC0138B8FABC209247F72D758E1CF3343756D543BADBF24212BED8C15 ADD DUP1 SLOAD SWAP1 SWAP7 AND DUP4 OR SWAP1 SWAP6 SSTORE SWAP1 DUP2 MSTORE PUSH1 0x18 SWAP1 SWAP2 MSTORE KECCAK256 DUP1 SLOAD PUSH1 0xFF NOT AND SWAP1 SWAP2 OR SWAP1 SSTORE JUMP JUMPDEST PUSH1 0x0 PUSH1 0x10 DUP4 DUP2 SLOAD DUP2 LT PUSH2 0x1022 JUMPI INVALID JUMPDEST SWAP1 PUSH1 0x0 MSTORE PUSH1 0x20 PUSH1 0x0 KECCAK256 ADD DUP3 DUP2 SLOAD DUP2 LT PUSH2 0x1037 JUMPI INVALID JUMPDEST SWAP1 PUSH1 0x0 MSTORE PUSH1 0x20 PUSH1 0x0 KECCAK256 ADD SLOAD SWAP1 POP SWAP3 SWAP2 POP POP JUMP JUMPDEST PUSH1 0x7 DUP1 SLOAD PUSH1 0x40 DUP1 MLOAD PUSH1 0x20 PUSH1 0x1F PUSH1 0x2 PUSH1 0x0 NOT PUSH2 0x100 PUSH1 0x1 DUP9 AND ISZERO MUL ADD SWAP1 SWAP6 AND SWAP5 SWAP1 SWAP5 DIV SWAP4 DUP5 ADD DUP2 SWAP1 DIV DUP2 MUL DUP3 ADD DUP2 ADD SWAP1 SWAP3 MSTORE DUP3 DUP2 MSTORE PUSH1 0x60 SWAP4 SWAP1 SWAP3 SWAP1 SWAP2 DUP4 ADD DUP3 DUP3 DUP1 ISZERO PUSH2 0x68C JUMPI DUP1 PUSH1 0x1F LT PUSH2 0x661 JUMPI PUSH2 0x100 DUP1 DUP4 SLOAD DIV MUL DUP4 MSTORE SWAP2 PUSH1 0x20 ADD SWAP2 PUSH2 0x68C JUMP JUMPDEST PUSH1 0x13 PUSH1 0x20 MSTORE PUSH1 0x0 SWAP1 DUP2 MSTORE PUSH1 0x40 SWAP1 KECCAK256 SLOAD DUP2 JUMP JUMPDEST PUSH2 0x10C5 PUSH2 0x1A71 JUMP JUMPDEST PUSH1 0x1 PUSH1 0x1 PUSH1 0xA0 SHL SUB AND DUP3 PUSH1 0x1 PUSH1 0x1 PUSH1 0xA0 SHL SUB AND EQ ISZERO PUSH2 0x10F6 JUMPI PUSH1 0x40 MLOAD PUSH3 0x461BCD PUSH1 0xE5 SHL DUP2 MSTORE PUSH1 0x4 ADD PUSH2 0x6BD SWAP1 PUSH2 0x54F2 JUMP JUMPDEST DUP1 PUSH1 0x5 PUSH1 0x0 PUSH2 0x1103 PUSH2 0x1A71 JUMP JUMPDEST PUSH1 0x1 PUSH1 0x1 PUSH1 0xA0 SHL SUB SWAP1 DUP2 AND DUP3 MSTORE PUSH1 0x20 DUP1 DUP4 ADD SWAP4 SWAP1 SWAP4 MSTORE PUSH1 0x40 SWAP2 DUP3 ADD PUSH1 0x0 SWAP1 DUP2 KECCAK256 SWAP2 DUP8 AND DUP1 DUP3 MSTORE SWAP2 SWAP1 SWAP4 MSTORE SWAP2 KECCAK256 DUP1 SLOAD PUSH1 0xFF NOT AND SWAP3 ISZERO ISZERO SWAP3 SWAP1 SWAP3 OR SWAP1 SWAP2 SSTORE PUSH2 0x1147 PUSH2 0x1A71 JUMP JUMPDEST PUSH1 0x1 PUSH1 0x1 PUSH1 0xA0 SHL SUB AND PUSH32 0x17307EAB39AB6107E8899845AD3D59BD9653F200F220920489CA2B5937696C31 DUP4 PUSH1 0x40 MLOAD PUSH2 0x117F SWAP2 SWAP1 PUSH2 0x5179 JUMP JUMPDEST PUSH1 0x40 MLOAD DUP1 SWAP2 SUB SWAP1 LOG3 POP POP JUMP JUMPDEST PUSH1 0x0 PUSH1 0xF DUP3 DUP2 SLOAD DUP2 LT PUSH2 0x119A JUMPI INVALID JUMPDEST SWAP1 PUSH1 0x0 MSTORE PUSH1 0x20 PUSH1 0x0 KECCAK256 ADD SLOAD SWAP1 POP SWAP2 SWAP1 POP JUMP JUMPDEST PUSH2 0x11B4 PUSH2 0x1A71 JUMP JUMPDEST PUSH1 0xA SLOAD PUSH1 0x1 PUSH1 0x1 PUSH1 0xA0 SHL SUB SWAP1 DUP2 AND SWAP2 AND EQ PUSH2 0x11E1 JUMPI PUSH1 0x40 MLOAD PUSH3 0x461BCD PUSH1 0xE5 SHL DUP2 MSTORE PUSH1 0x4 ADD PUSH2 0x6BD SWAP1 PUSH2 0x583C JUMP JUMPDEST PUSH1 0x1 PUSH1 0x1 PUSH1 0xA0 SHL SUB DUP3 DUP2 AND PUSH1 0x0 SWAP1 DUP2 MSTORE PUSH1 0x19 PUSH1 0x20 MSTORE PUSH1 0x40 SWAP1 KECCAK256 SLOAD AND PUSH2 0x1205 JUMPI PUSH1 0x0 DUP1 REVERT JUMPDEST PUSH1 0x1 PUSH1 0x1 PUSH1 0xA0 SHL SUB SWAP1 SWAP2 AND PUSH1 0x0 SWAP1 DUP2 MSTORE PUSH1 0x1A PUSH1 0x20 MSTORE PUSH1 0x40 SWAP1 KECCAK256 SSTORE JUMP JUMPDEST PUSH2 0x1232 PUSH2 0x122C PUSH2 0x1A71 JUMP JUMPDEST DUP4 PUSH2 0x1AEE JUMP JUMPDEST PUSH2 0x124E JUMPI PUSH1 0x40 MLOAD PUSH3 0x461BCD PUSH1 0xE5 SHL DUP2 MSTORE PUSH1 0x4 ADD PUSH2 0x6BD SWAP1 PUSH2 0x5AA9 JUMP JUMPDEST PUSH2 0x125A DUP5 DUP5 DUP5 DUP5 PUSH2 0x26B0 JUMP JUMPDEST POP POP POP POP JUMP JUMPDEST PUSH1 0x60 PUSH1 0x0 PUSH1 0x14 DUP4 DUP2 SLOAD DUP2 LT PUSH2 0x1271 JUMPI INVALID JUMPDEST PUSH1 0x0 SWAP2 DUP3 MSTORE PUSH1 0x20 SWAP1 SWAP2 KECCAK256 PUSH1 0x3 SWAP1 SWAP2 MUL ADD SLOAD SWAP1 POP PUSH1 0x60 DUP2 PUSH1 0x1 PUSH1 0x1 PUSH1 0x40 SHL SUB DUP2 GT DUP1 ISZERO PUSH2 0x129C JUMPI PUSH1 0x0 DUP1 REVERT JUMPDEST POP PUSH1 0x40 MLOAD SWAP1 DUP1 DUP3 MSTORE DUP1 PUSH1 0x20 MUL PUSH1 0x20 ADD DUP3 ADD PUSH1 0x40 MSTORE DUP1 ISZERO PUSH2 0x12D6 JUMPI DUP2 PUSH1 0x20 ADD JUMPDEST PUSH2 0x12C3 PUSH2 0x4789 JUMP JUMPDEST DUP2 MSTORE PUSH1 0x20 ADD SWAP1 PUSH1 0x1 SWAP1 SUB SWAP1 DUP2 PUSH2 0x12BB JUMPI SWAP1 POP JUMPDEST POP SWAP1 POP PUSH1 0x0 JUMPDEST PUSH1 0x14 DUP6 DUP2 SLOAD DUP2 LT PUSH2 0x12E9 JUMPI INVALID JUMPDEST PUSH1 0x0 SWAP2 DUP3 MSTORE PUSH1 0x20 SWAP1 SWAP2 KECCAK256 PUSH1 0x3 SWAP1 SWAP2 MUL ADD SLOAD DUP2 LT ISZERO PUSH2 0x9CC JUMPI PUSH1 0x40 MLOAD DUP1 PUSH1 0x40 ADD PUSH1 0x40 MSTORE DUP1 PUSH1 0x14 DUP8 DUP2 SLOAD DUP2 LT PUSH2 0x1319 JUMPI INVALID JUMPDEST SWAP1 PUSH1 0x0 MSTORE PUSH1 0x20 PUSH1 0x0 KECCAK256 SWAP1 PUSH1 0x3 MUL ADD PUSH1 0x0 ADD DUP4 DUP2 SLOAD DUP2 LT PUSH2 0x1335 JUMPI INVALID JUMPDEST PUSH1 0x0 SWAP2 DUP3 MSTORE PUSH1 0x20 DUP1 DUP4 KECCAK256 SWAP1 SWAP2 ADD SLOAD PUSH1 0x1 PUSH1 0x1 PUSH1 0xA0 SHL SUB AND DUP4 MSTORE DUP9 DUP3 MSTORE PUSH1 0x15 DUP2 MSTORE PUSH1 0x40 DUP3 KECCAK256 PUSH1 0x14 DUP1 SLOAD SWAP5 SWAP1 SWAP3 ADD SWAP4 SWAP1 SWAP3 SWAP2 SWAP1 DUP11 SWAP1 DUP2 LT PUSH2 0x1370 JUMPI INVALID JUMPDEST SWAP1 PUSH1 0x0 MSTORE PUSH1 0x20 PUSH1 0x0 KECCAK256 SWAP1 PUSH1 0x3 MUL ADD PUSH1 0x0 ADD DUP6 DUP2 SLOAD DUP2 LT PUSH2 0x138C JUMPI INVALID JUMPDEST PUSH1 0x0 SWAP2 DUP3 MSTORE PUSH1 0x20 DUP1 DUP4 KECCAK256 SWAP1 SWAP2 ADD SLOAD PUSH1 0x1 PUSH1 0x1 PUSH1 0xA0 SHL SUB AND DUP4 MSTORE DUP3 ADD SWAP3 SWAP1 SWAP3 MSTORE PUSH1 0x40 ADD SWAP1 KECCAK256 SLOAD SWAP1 MSTORE DUP3 MLOAD DUP4 SWAP1 DUP4 SWAP1 DUP2 LT PUSH2 0x13C1 JUMPI INVALID JUMPDEST PUSH1 0x20 SWAP1 DUP2 MUL SWAP2 SWAP1 SWAP2 ADD ADD MSTORE PUSH1 0x1 ADD PUSH2 0x12DC JUMP JUMPDEST PUSH1 0xE SLOAD SWAP1 JUMP JUMPDEST PUSH1 0x60 PUSH2 0x13E5 DUP3 PUSH2 0x1A64 JUMP JUMPDEST PUSH2 0x1401 JUMPI PUSH1 0x40 MLOAD PUSH3 0x461BCD PUSH1 0xE5 SHL DUP2 MSTORE PUSH1 0x4 ADD PUSH2 0x6BD SWAP1 PUSH2 0x593B JUMP JUMPDEST PUSH1 0x0 DUP3 DUP2 MSTORE PUSH1 0x8 PUSH1 0x20 SWAP1 DUP2 MSTORE PUSH1 0x40 SWAP2 DUP3 SWAP1 KECCAK256 DUP1 SLOAD DUP4 MLOAD PUSH1 0x1F PUSH1 0x2 PUSH1 0x0 NOT PUSH2 0x100 PUSH1 0x1 DUP7 AND ISZERO MUL ADD SWAP1 SWAP4 AND SWAP3 SWAP1 SWAP3 DIV SWAP2 DUP3 ADD DUP5 SWAP1 DIV DUP5 MUL DUP2 ADD DUP5 ADD SWAP1 SWAP5 MSTORE DUP1 DUP5 MSTORE PUSH1 0x60 SWAP4 SWAP3 DUP4 ADD DUP3 DUP3 DUP1 ISZERO PUSH2 0x1496 JUMPI DUP1 PUSH1 0x1F LT PUSH2 0x146B JUMPI PUSH2 0x100 DUP1 DUP4 SLOAD DIV MUL DUP4 MSTORE SWAP2 PUSH1 0x20 ADD SWAP2 PUSH2 0x1496 JUMP JUMPDEST DUP3 ADD SWAP2 SWAP1 PUSH1 0x0 MSTORE PUSH1 0x20 PUSH1 0x0 KECCAK256 SWAP1 JUMPDEST DUP2 SLOAD DUP2 MSTORE SWAP1 PUSH1 0x1 ADD SWAP1 PUSH1 0x20 ADD DUP1 DUP4 GT PUSH2 0x1479 JUMPI DUP3 SWAP1 SUB PUSH1 0x1F AND DUP3 ADD SWAP2 JUMPDEST POP POP PUSH1 0x9 SLOAD SWAP4 SWAP5 POP POP POP POP PUSH1 0x2 PUSH1 0x0 NOT PUSH2 0x100 PUSH1 0x1 DUP5 AND ISZERO MUL ADD SWAP1 SWAP2 AND DIV PUSH2 0x14BF JUMPI SWAP1 POP PUSH2 0x5FB JUMP JUMPDEST DUP1 MLOAD ISZERO PUSH2 0x14F1 JUMPI PUSH1 0x9 DUP2 PUSH1 0x40 MLOAD PUSH1 0x20 ADD PUSH2 0x14DA SWAP3 SWAP2 SWAP1 PUSH2 0x5009 JUMP JUMPDEST PUSH1 0x40 MLOAD PUSH1 0x20 DUP2 DUP4 SUB SUB DUP2 MSTORE SWAP1 PUSH1 0x40 MSTORE SWAP2 POP POP PUSH2 0x5FB JUMP JUMPDEST PUSH1 0x9 PUSH2 0x14FC DUP5 PUSH2 0x26E3 JUMP JUMPDEST PUSH1 0x40 MLOAD PUSH1 0x20 ADD PUSH2 0x150D SWAP3 SWAP2 SWAP1 PUSH2 0x5009 JUMP JUMPDEST PUSH1 0x40 MLOAD PUSH1 0x20 DUP2 DUP4 SUB SUB DUP2 MSTORE SWAP1 PUSH1 0x40 MSTORE SWAP2 POP POP SWAP2 SWAP1 POP JUMP JUMPDEST PUSH1 0xB SLOAD DUP2 JUMP JUMPDEST PUSH1 0x17 SLOAD SWAP1 JUMP JUMPDEST PUSH1 0x60 PUSH2 0x153A PUSH2 0x1A71 JUMP JUMPDEST PUSH1 0xA SLOAD PUSH1 0x1 PUSH1 0x1 PUSH1 0xA0 SHL SUB SWAP1 DUP2 AND SWAP2 AND EQ PUSH2 0x1567 JUMPI PUSH1 0x40 MLOAD PUSH3 0x461BCD PUSH1 0xE5 SHL DUP2 MSTORE PUSH1 0x4 ADD PUSH2 0x6BD SWAP1 PUSH2 0x583C JUMP JUMPDEST DUP2 MLOAD PUSH1 0x1 EQ PUSH2 0x1588 JUMPI PUSH1 0x40 MLOAD PUSH3 0x461BCD PUSH1 0xE5 SHL DUP2 MSTORE PUSH1 0x4 ADD PUSH2 0x6BD SWAP1 PUSH2 0x5A5A JUMP JUMPDEST DUP4 MLOAD PUSH1 0x2 EQ PUSH2 0x15A9 JUMPI PUSH1 0x40 MLOAD PUSH3 0x461BCD PUSH1 0xE5 SHL DUP2 MSTORE PUSH1 0x4 ADD PUSH2 0x6BD SWAP1 PUSH2 0x57EC JUMP JUMPDEST PUSH1 0x3 DUP4 MLOAD LT ISZERO DUP1 ISZERO PUSH2 0x15BD JUMPI POP PUSH1 0x5 DUP4 MLOAD GT ISZERO JUMPDEST PUSH2 0x15D9 JUMPI PUSH1 0x40 MLOAD PUSH3 0x461BCD PUSH1 0xE5 SHL DUP2 MSTORE PUSH1 0x4 ADD PUSH2 0x6BD SWAP1 PUSH2 0x5208 JUMP JUMPDEST PUSH2 0x15EB PUSH8 0xDE0B6B3A7640000 DUP1 PUSH2 0x27BD JUMP JUMPDEST PUSH2 0x1626 DUP5 PUSH1 0x2 DUP2 MLOAD DUP2 LT PUSH2 0x15FB JUMPI INVALID JUMPDEST PUSH1 0x20 MUL PUSH1 0x20 ADD ADD MLOAD DUP6 PUSH1 0x1 DUP2 MLOAD DUP2 LT PUSH2 0x1610 JUMPI INVALID JUMPDEST PUSH1 0x20 MUL PUSH1 0x20 ADD ADD MLOAD PUSH2 0x27BD SWAP1 SWAP2 SWAP1 PUSH4 0xFFFFFFFF AND JUMP JUMPDEST LT PUSH2 0x1643 JUMPI PUSH1 0x40 MLOAD PUSH3 0x461BCD PUSH1 0xE5 SHL DUP2 MSTORE PUSH1 0x4 ADD PUSH2 0x6BD SWAP1 PUSH2 0x58EF JUMP JUMPDEST DUP3 MLOAD PUSH1 0x60 SWAP1 PUSH2 0x1653 SWAP1 PUSH1 0x2 PUSH2 0x27F7 JUMP JUMPDEST PUSH1 0x1 PUSH1 0x1 PUSH1 0x40 SHL SUB DUP2 GT DUP1 ISZERO PUSH2 0x1668 JUMPI PUSH1 0x0 DUP1 REVERT JUMPDEST POP PUSH1 0x40 MLOAD SWAP1 DUP1 DUP3 MSTORE DUP1 PUSH1 0x20 MUL PUSH1 0x20 ADD DUP3 ADD PUSH1 0x40 MSTORE DUP1 ISZERO PUSH2 0x1692 JUMPI DUP2 PUSH1 0x20 ADD PUSH1 0x20 DUP3 MUL DUP1 CALLDATASIZE DUP4 CALLDATACOPY ADD SWAP1 POP JUMPDEST POP SWAP1 POP PUSH1 0x0 JUMPDEST DUP2 MLOAD DUP2 LT ISZERO PUSH2 0x16DE JUMPI DUP5 PUSH2 0x16AD DUP3 PUSH1 0x2 PUSH2 0x2839 JUMP JUMPDEST DUP2 MLOAD DUP2 LT PUSH2 0x16B7 JUMPI INVALID JUMPDEST PUSH1 0x20 MUL PUSH1 0x20 ADD ADD MLOAD DUP3 DUP3 DUP2 MLOAD DUP2 LT PUSH2 0x16CB JUMPI INVALID JUMPDEST PUSH1 0x20 SWAP1 DUP2 MUL SWAP2 SWAP1 SWAP2 ADD ADD MSTORE PUSH1 0x1 ADD PUSH2 0x1698 JUMP JUMPDEST POP PUSH2 0x16E8 DUP2 PUSH2 0x285E JUMP JUMPDEST PUSH2 0x1704 JUMPI PUSH1 0x40 MLOAD PUSH3 0x461BCD PUSH1 0xE5 SHL DUP2 MSTORE PUSH1 0x4 ADD PUSH2 0x6BD SWAP1 PUSH2 0x5B8D JUMP JUMPDEST PUSH1 0x0 PUSH2 0x1712 DUP8 DUP8 DUP8 DUP8 PUSH2 0x28B8 JUMP JUMPDEST PUSH1 0x40 DUP1 MLOAD PUSH1 0x1 DUP1 DUP3 MSTORE DUP2 DUP4 ADD SWAP1 SWAP3 MSTORE SWAP2 SWAP3 POP PUSH1 0x60 SWAP2 SWAP1 PUSH1 0x20 DUP1 DUP4 ADD SWAP1 DUP1 CALLDATASIZE DUP4 CALLDATACOPY POP POP PUSH1 0xB SLOAD SWAP2 SWAP3 POP PUSH2 0x1816 SWAP2 PUSH2 0x174A SWAP2 POP PUSH1 0x1 PUSH2 0x27F7 JUMP JUMPDEST PUSH1 0x0 PUSH1 0x40 MLOAD DUP1 PUSH1 0x40 ADD PUSH1 0x40 MSTORE DUP1 DUP12 PUSH1 0x0 DUP2 MLOAD DUP2 LT PUSH2 0x1764 JUMPI INVALID JUMPDEST PUSH1 0x20 MUL PUSH1 0x20 ADD ADD MLOAD PUSH1 0x1 PUSH1 0x1 PUSH1 0xA0 SHL SUB AND PUSH1 0x1 PUSH1 0x1 PUSH1 0xA0 SHL SUB AND DUP2 MSTORE PUSH1 0x20 ADD DUP12 PUSH1 0x1 DUP2 MLOAD DUP2 LT PUSH2 0x1790 JUMPI INVALID JUMPDEST PUSH1 0x20 MUL PUSH1 0x20 ADD ADD MLOAD PUSH1 0x1 PUSH1 0x1 PUSH1 0xA0 SHL SUB AND PUSH1 0x1 PUSH1 0x1 PUSH1 0xA0 SHL SUB AND DUP2 MSTORE POP PUSH1 0x40 MLOAD DUP1 PUSH1 0x60 ADD PUSH1 0x40 MSTORE DUP1 DUP8 DUP2 MSTORE PUSH1 0x20 ADD PUSH2 0x1806 DUP14 PUSH1 0x0 DUP2 MLOAD DUP2 LT PUSH2 0x17CE JUMPI INVALID JUMPDEST PUSH1 0x20 MUL PUSH1 0x20 ADD ADD MLOAD DUP15 PUSH1 0x1 DUP2 MLOAD DUP2 LT PUSH2 0x17E3 JUMPI INVALID JUMPDEST PUSH1 0x20 MUL PUSH1 0x20 ADD ADD MLOAD DUP11 DUP16 PUSH1 0x1 DUP2 MLOAD DUP2 LT PUSH2 0x17F9 JUMPI INVALID JUMPDEST PUSH1 0x20 MUL PUSH1 0x20 ADD ADD MLOAD PUSH2 0x2E1B JUMP JUMPDEST DUP2 MSTORE PUSH1 0x20 ADD PUSH1 0x0 DUP2 MSTORE POP DUP10 PUSH2 0x2F86 JUMP JUMPDEST DUP2 PUSH1 0x0 DUP2 MLOAD DUP2 LT PUSH2 0x1823 JUMPI INVALID JUMPDEST PUSH1 0x20 SWAP1 DUP2 MUL SWAP2 SWAP1 SWAP2 ADD ADD MSTORE SWAP8 SWAP7 POP POP POP POP POP POP POP JUMP JUMPDEST PUSH1 0x0 DUP3 DUP2 MSTORE PUSH1 0x12 PUSH1 0x20 SWAP1 DUP2 MSTORE PUSH1 0x40 DUP1 DUP4 KECCAK256 DUP5 DUP5 MSTORE DUP3 MSTORE SWAP2 DUP3 SWAP1 KECCAK256 DUP1 SLOAD DUP4 MLOAD DUP2 DUP5 MUL DUP2 ADD DUP5 ADD SWAP1 SWAP5 MSTORE DUP1 DUP5 MSTORE PUSH1 0x60 SWAP4 SWAP3 DUP4 ADD DUP3 DUP3 DUP1 ISZERO PUSH2 0x1897 JUMPI PUSH1 0x20 MUL DUP3 ADD SWAP2 SWAP1 PUSH1 0x0 MSTORE PUSH1 0x20 PUSH1 0x0 KECCAK256 SWAP1 JUMPDEST DUP2 SLOAD DUP2 MSTORE PUSH1 0x20 ADD SWAP1 PUSH1 0x1 ADD SWAP1 DUP1 DUP4 GT PUSH2 0x1883 JUMPI JUMPDEST POP POP POP POP POP SWAP1 POP SWAP3 SWAP2 POP POP JUMP JUMPDEST PUSH1 0xC SLOAD DUP2 JUMP JUMPDEST PUSH1 0x1 PUSH1 0x1 PUSH1 0xA0 SHL SUB SWAP2 DUP3 AND PUSH1 0x0 SWAP1 DUP2 MSTORE PUSH1 0x5 PUSH1 0x20 SWAP1 DUP2 MSTORE PUSH1 0x40 DUP1 DUP4 KECCAK256 SWAP4 SWAP1 SWAP5 AND DUP3 MSTORE SWAP2 SWAP1 SWAP2 MSTORE KECCAK256 SLOAD PUSH1 0xFF AND SWAP1 JUMP JUMPDEST PUSH2 0x18E0 PUSH2 0x1A71 JUMP JUMPDEST PUSH1 0xA SLOAD PUSH1 0x1 PUSH1 0x1 PUSH1 0xA0 SHL SUB SWAP1 DUP2 AND SWAP2 AND EQ PUSH2 0x190D JUMPI PUSH1 0x40 MLOAD PUSH3 0x461BCD PUSH1 0xE5 SHL DUP2 MSTORE PUSH1 0x4 ADD PUSH2 0x6BD SWAP1 PUSH2 0x583C JUMP JUMPDEST PUSH1 0x1 PUSH1 0x1 PUSH1 0xA0 SHL SUB DUP2 AND PUSH2 0x1933 JUMPI PUSH1 0x40 MLOAD PUSH3 0x461BCD PUSH1 0xE5 SHL DUP2 MSTORE PUSH1 0x4 ADD PUSH2 0x6BD SWAP1 PUSH2 0x533B JUMP JUMPDEST PUSH1 0xA SLOAD PUSH1 0x40 MLOAD PUSH1 0x1 PUSH1 0x1 PUSH1 0xA0 SHL SUB DUP1 DUP5 AND SWAP3 AND SWAP1 PUSH32 0x8BE0079C531659141344CD1FD0A4F28419497F9722A3DAAFE3B4186F6B6457E0 SWAP1 PUSH1 0x0 SWAP1 LOG3 PUSH1 0xA DUP1 SLOAD PUSH1 0x1 PUSH1 0x1 PUSH1 0xA0 SHL SUB NOT AND PUSH1 0x1 PUSH1 0x1 PUSH1 0xA0 SHL SUB SWAP3 SWAP1 SWAP3 AND SWAP2 SWAP1 SWAP2 OR SWAP1 SSTORE JUMP JUMPDEST PUSH2 0x1997 PUSH2 0x1A71 JUMP JUMPDEST PUSH1 0xA SLOAD PUSH1 0x1 PUSH1 0x1 PUSH1 0xA0 SHL SUB SWAP1 DUP2 AND SWAP2 AND EQ PUSH2 0x19C4 JUMPI PUSH1 0x40 MLOAD PUSH3 0x461BCD PUSH1 0xE5 SHL DUP2 MSTORE PUSH1 0x4 ADD PUSH2 0x6BD SWAP1 PUSH2 0x583C JUMP JUMPDEST PUSH2 0x19CE DUP3 DUP3 PUSH2 0x35C3 JUMP JUMPDEST POP POP JUMP JUMPDEST PUSH1 0xD SLOAD PUSH1 0x1 PUSH1 0x1 PUSH1 0xA0 SHL SUB AND DUP2 JUMP JUMPDEST PUSH1 0x1A PUSH1 0x20 MSTORE PUSH1 0x0 SWAP1 DUP2 MSTORE PUSH1 0x40 SWAP1 KECCAK256 SLOAD DUP2 JUMP JUMPDEST PUSH1 0x0 PUSH2 0x973 DUP4 DUP4 PUSH2 0x3A08 JUMP JUMPDEST PUSH1 0x0 PUSH2 0x1A15 DUP5 DUP5 PUSH1 0x1 PUSH1 0x1 PUSH1 0xA0 SHL SUB DUP6 AND PUSH2 0x3A52 JUMP JUMPDEST SWAP1 POP JUMPDEST SWAP4 SWAP3 POP POP POP JUMP JUMPDEST PUSH1 0x0 DUP2 EXTCODEHASH PUSH32 0xC5D2460186F7233C927E7DB2DCC703C0E500B653CA82273B7BFAD8045D85A470 DUP2 DUP2 EQ DUP1 ISZERO SWAP1 PUSH2 0xBDD JUMPI POP POP ISZERO ISZERO SWAP3 SWAP2 POP POP JUMP JUMPDEST PUSH1 0x0 PUSH2 0x973 DUP4 DUP4 PUSH2 0x3AE9 JUMP JUMPDEST PUSH1 0x0 PUSH2 0x976 PUSH1 0x2 DUP4 PUSH2 0x1A58 JUMP JUMPDEST CALLER SWAP1 JUMP JUMPDEST PUSH1 0x0 DUP2 DUP2 MSTORE PUSH1 0x4 PUSH1 0x20 MSTORE PUSH1 0x40 SWAP1 KECCAK256 DUP1 SLOAD PUSH1 0x1 PUSH1 0x1 PUSH1 0xA0 SHL SUB NOT AND PUSH1 0x1 PUSH1 0x1 PUSH1 0xA0 SHL SUB DUP5 AND SWAP1 DUP2 OR SWAP1 SWAP2 SSTORE DUP2 SWAP1 PUSH2 0x1AAA DUP3 PUSH2 0xBFA JUMP JUMPDEST PUSH1 0x1 PUSH1 0x1 PUSH1 0xA0 SHL SUB AND PUSH32 0x8C5BE1E5EBEC7D5BD14F71427D1E84F3DD0314C0F7B2291E5B200AC8C7C3B925 PUSH1 0x40 MLOAD PUSH1 0x40 MLOAD DUP1 SWAP2 SUB SWAP1 LOG4 POP POP JUMP JUMPDEST PUSH1 0x0 PUSH2 0x976 DUP3 PUSH2 0x3B01 JUMP JUMPDEST PUSH1 0x0 PUSH2 0x1AF9 DUP3 PUSH2 0x1A64 JUMP JUMPDEST PUSH2 0x1B15 JUMPI PUSH1 0x40 MLOAD PUSH3 0x461BCD PUSH1 0xE5 SHL DUP2 MSTORE PUSH1 0x4 ADD PUSH2 0x6BD SWAP1 PUSH2 0x555E JUMP JUMPDEST PUSH1 0x0 PUSH2 0x1B20 DUP4 PUSH2 0xBFA JUMP JUMPDEST SWAP1 POP DUP1 PUSH1 0x1 PUSH1 0x1 PUSH1 0xA0 SHL SUB AND DUP5 PUSH1 0x1 PUSH1 0x1 PUSH1 0xA0 SHL SUB AND EQ DUP1 PUSH2 0x1B5B JUMPI POP DUP4 PUSH1 0x1 PUSH1 0x1 PUSH1 0xA0 SHL SUB AND PUSH2 0x1B50 DUP5 PUSH2 0x696 JUMP JUMPDEST PUSH1 0x1 PUSH1 0x1 PUSH1 0xA0 SHL SUB AND EQ JUMPDEST DUP1 PUSH2 0xBDD JUMPI POP PUSH2 0xBDD DUP2 DUP6 PUSH2 0x18AA JUMP JUMPDEST DUP3 PUSH1 0x1 PUSH1 0x1 PUSH1 0xA0 SHL SUB AND PUSH2 0x1B7E DUP3 PUSH2 0xBFA JUMP JUMPDEST PUSH1 0x1 PUSH1 0x1 PUSH1 0xA0 SHL SUB AND EQ PUSH2 0x1BA4 JUMPI PUSH1 0x40 MLOAD PUSH3 0x461BCD PUSH1 0xE5 SHL DUP2 MSTORE PUSH1 0x4 ADD PUSH2 0x6BD SWAP1 PUSH2 0x58A6 JUMP JUMPDEST PUSH1 0x1 PUSH1 0x1 PUSH1 0xA0 SHL SUB DUP3 AND PUSH2 0x1BCA JUMPI PUSH1 0x40 MLOAD PUSH3 0x461BCD PUSH1 0xE5 SHL DUP2 MSTORE PUSH1 0x4 ADD PUSH2 0x6BD SWAP1 PUSH2 0x54AE JUMP JUMPDEST PUSH2 0x1BD5 DUP4 DUP4 DUP4 PUSH2 0x775 JUMP JUMPDEST PUSH2 0x1BE0 PUSH1 0x0 DUP3 PUSH2 0x1A75 JUMP JUMPDEST PUSH1 0x1 PUSH1 0x1 PUSH1 0xA0 SHL SUB DUP4 AND PUSH1 0x0 SWAP1 DUP2 MSTORE PUSH1 0x1 PUSH1 0x20 MSTORE PUSH1 0x40 SWAP1 KECCAK256 PUSH2 0x1C02 SWAP1 DUP3 PUSH2 0x3B05 JUMP JUMPDEST POP PUSH1 0x1 PUSH1 0x1 PUSH1 0xA0 SHL SUB DUP3 AND PUSH1 0x0 SWAP1 DUP2 MSTORE PUSH1 0x1 PUSH1 0x20 MSTORE PUSH1 0x40 SWAP1 KECCAK256 PUSH2 0x1C25 SWAP1 DUP3 PUSH2 0x19F3 JUMP JUMPDEST POP PUSH2 0x1C32 PUSH1 0x2 DUP3 DUP5 PUSH2 0x19FF JUMP JUMPDEST POP DUP1 DUP3 PUSH1 0x1 PUSH1 0x1 PUSH1 0xA0 SHL SUB AND DUP5 PUSH1 0x1 PUSH1 0x1 PUSH1 0xA0 SHL SUB AND PUSH32 0xDDF252AD1BE2C89B69C2B068FC378DAA952BA7F163C4A11628F55A4DF523B3EF PUSH1 0x40 MLOAD PUSH1 0x40 MLOAD DUP1 SWAP2 SUB SWAP1 LOG4 POP POP POP JUMP JUMPDEST PUSH1 0x0 PUSH2 0x973 DUP4 DUP4 PUSH2 0x3B11 JUMP JUMPDEST PUSH1 0x0 DUP1 DUP1 DUP1 PUSH2 0x1C94 DUP7 DUP7 PUSH2 0x3B43 JUMP JUMPDEST SWAP1 SWAP8 SWAP1 SWAP7 POP SWAP5 POP POP POP POP POP JUMP JUMPDEST DUP1 MLOAD PUSH2 0x19CE SWAP1 PUSH1 0x9 SWAP1 PUSH1 0x20 DUP5 ADD SWAP1 PUSH2 0x47A0 JUMP JUMPDEST PUSH1 0x0 DUP1 PUSH1 0x0 DUP6 PUSH1 0xC0 ADD MLOAD PUSH1 0x0 DUP2 MLOAD DUP2 LT PUSH2 0x1CCA JUMPI INVALID JUMPDEST PUSH1 0x20 MUL PUSH1 0x20 ADD ADD MLOAD GT ISZERO PUSH2 0x1D0F JUMPI DUP5 PUSH1 0xC0 ADD MLOAD PUSH1 0x0 DUP2 MLOAD DUP2 LT PUSH2 0x1CE9 JUMPI INVALID JUMPDEST PUSH1 0x20 MUL PUSH1 0x20 ADD ADD MLOAD TIMESTAMP LT PUSH2 0x1D0F JUMPI PUSH1 0x40 MLOAD PUSH3 0x461BCD PUSH1 0xE5 SHL DUP2 MSTORE PUSH1 0x4 ADD PUSH2 0x6BD SWAP1 PUSH2 0x5197 JUMP JUMPDEST PUSH1 0x60 DUP6 ADD MLOAD ISZERO PUSH2 0x1D31 JUMPI PUSH1 0x40 MLOAD PUSH3 0x461BCD PUSH1 0xE5 SHL DUP2 MSTORE PUSH1 0x4 ADD PUSH2 0x6BD SWAP1 PUSH2 0x5AFA JUMP JUMPDEST PUSH1 0x80 DUP6 ADD MLOAD PUSH2 0x1D47 SWAP1 PUSH1 0x0 JUMPDEST PUSH1 0x20 MUL ADD MLOAD PUSH2 0x8FB JUMP JUMPDEST PUSH1 0x1 PUSH1 0x1 PUSH1 0xA0 SHL SUB AND PUSH4 0xD9CAED12 ADDRESS DUP8 PUSH1 0x80 ADD MLOAD PUSH1 0x0 PUSH1 0x2 DUP2 LT PUSH2 0x1D67 JUMPI INVALID JUMPDEST PUSH1 0x20 MUL ADD MLOAD PUSH1 0xA0 DUP10 ADD MLOAD MLOAD PUSH1 0x40 MLOAD PUSH1 0x1 PUSH1 0x1 PUSH1 0xE0 SHL SUB NOT PUSH1 0xE0 DUP7 SWAP1 SHL AND DUP2 MSTORE PUSH2 0x1D95 SWAP4 SWAP3 SWAP2 SWAP1 PUSH1 0x4 ADD PUSH2 0x50D1 JUMP JUMPDEST PUSH1 0x0 PUSH1 0x40 MLOAD DUP1 DUP4 SUB DUP2 PUSH1 0x0 DUP8 DUP1 EXTCODESIZE ISZERO DUP1 ISZERO PUSH2 0x1DAF JUMPI PUSH1 0x0 DUP1 REVERT JUMPDEST POP GAS CALL ISZERO DUP1 ISZERO PUSH2 0x1DC3 JUMPI RETURNDATASIZE PUSH1 0x0 DUP1 RETURNDATACOPY RETURNDATASIZE PUSH1 0x0 REVERT JUMPDEST POP POP DUP5 MLOAD PUSH1 0x0 SWAP3 POP PUSH2 0x1DD7 SWAP2 POP PUSH1 0x1 PUSH2 0x27F7 JUMP JUMPDEST PUSH1 0x80 DUP8 ADD MLOAD MLOAD DUP6 MLOAD SWAP2 SWAP3 POP PUSH1 0x1 PUSH1 0x1 PUSH1 0xA0 SHL SUB AND SWAP1 DUP6 SWAP1 PUSH1 0x0 SWAP1 PUSH2 0x1DF7 JUMPI INVALID JUMPDEST PUSH1 0x20 MUL PUSH1 0x20 ADD ADD MLOAD PUSH1 0x1 PUSH1 0x1 PUSH1 0xA0 SHL SUB AND EQ DUP1 ISZERO PUSH2 0x1E44 JUMPI POP PUSH1 0x80 DUP7 ADD MLOAD PUSH1 0x1 PUSH1 0x20 MUL ADD MLOAD PUSH1 0x1 PUSH1 0x1 PUSH1 0xA0 SHL SUB AND DUP5 DUP3 DUP2 MLOAD DUP2 LT PUSH2 0x1E31 JUMPI INVALID JUMPDEST PUSH1 0x20 MUL PUSH1 0x20 ADD ADD MLOAD PUSH1 0x1 PUSH1 0x1 PUSH1 0xA0 SHL SUB AND EQ JUMPDEST PUSH2 0x1E60 JUMPI PUSH1 0x40 MLOAD PUSH3 0x461BCD PUSH1 0xE5 SHL DUP2 MSTORE PUSH1 0x4 ADD PUSH2 0x6BD SWAP1 PUSH2 0x55AA JUMP JUMPDEST PUSH1 0x18 PUSH1 0x0 DUP6 PUSH1 0x0 DUP2 MLOAD DUP2 LT PUSH2 0x1E71 JUMPI INVALID JUMPDEST PUSH1 0x20 SWAP1 DUP2 MUL SWAP2 SWAP1 SWAP2 ADD DUP2 ADD MLOAD PUSH1 0x1 PUSH1 0x1 PUSH1 0xA0 SHL SUB AND DUP3 MSTORE DUP2 ADD SWAP2 SWAP1 SWAP2 MSTORE PUSH1 0x40 ADD PUSH1 0x0 KECCAK256 SLOAD PUSH1 0xFF AND DUP1 ISZERO PUSH2 0x1ED7 JUMPI POP PUSH1 0x18 PUSH1 0x0 DUP6 DUP4 DUP2 MLOAD DUP2 LT PUSH2 0x1EAF JUMPI INVALID JUMPDEST PUSH1 0x20 SWAP1 DUP2 MUL SWAP2 SWAP1 SWAP2 ADD DUP2 ADD MLOAD PUSH1 0x1 PUSH1 0x1 PUSH1 0xA0 SHL SUB AND DUP3 MSTORE DUP2 ADD SWAP2 SWAP1 SWAP2 MSTORE PUSH1 0x40 ADD PUSH1 0x0 KECCAK256 SLOAD PUSH1 0xFF AND JUMPDEST PUSH2 0x1EF3 JUMPI PUSH1 0x40 MLOAD PUSH3 0x461BCD PUSH1 0xE5 SHL DUP2 MSTORE PUSH1 0x4 ADD PUSH2 0x6BD SWAP1 PUSH2 0x547E JUMP JUMPDEST PUSH1 0x0 DUP6 PUSH1 0x1 PUSH1 0x1 PUSH1 0xA0 SHL SUB AND PUSH4 0xD06CA61F DUP9 PUSH1 0xA0 ADD MLOAD PUSH1 0x0 PUSH1 0x3 DUP2 LT PUSH2 0x1F15 JUMPI INVALID JUMPDEST PUSH1 0x20 MUL ADD MLOAD DUP8 PUSH1 0x40 MLOAD DUP4 PUSH4 0xFFFFFFFF AND PUSH1 0xE0 SHL DUP2 MSTORE PUSH1 0x4 ADD PUSH2 0x1F38 SWAP3 SWAP2 SWAP1 PUSH2 0x5D5D JUMP JUMPDEST PUSH1 0x0 PUSH1 0x40 MLOAD DUP1 DUP4 SUB DUP2 DUP7 DUP1 EXTCODESIZE ISZERO DUP1 ISZERO PUSH2 0x1F50 JUMPI PUSH1 0x0 DUP1 REVERT JUMPDEST POP GAS STATICCALL ISZERO DUP1 ISZERO PUSH2 0x1F64 JUMPI RETURNDATASIZE PUSH1 0x0 DUP1 RETURNDATACOPY RETURNDATASIZE PUSH1 0x0 REVERT JUMPDEST POP POP POP POP PUSH1 0x40 MLOAD RETURNDATASIZE PUSH1 0x0 DUP3 RETURNDATACOPY PUSH1 0x1F RETURNDATASIZE SWAP1 DUP2 ADD PUSH1 0x1F NOT AND DUP3 ADD PUSH1 0x40 MSTORE PUSH2 0x1F8C SWAP2 SWAP1 DUP2 ADD SWAP1 PUSH2 0x4D94 JUMP JUMPDEST DUP3 DUP2 MLOAD DUP2 LT PUSH2 0x1F97 JUMPI INVALID JUMPDEST PUSH1 0x20 SWAP1 DUP2 MUL SWAP2 SWAP1 SWAP2 ADD ADD MLOAD PUSH1 0xD SLOAD PUSH1 0x40 MLOAD PUSH4 0x4B38706F PUSH1 0xE1 SHL DUP2 MSTORE SWAP2 SWAP3 POP PUSH1 0x0 SWAP2 PUSH1 0x1 PUSH1 0x1 PUSH1 0xA0 SHL SUB SWAP1 SWAP2 AND SWAP1 PUSH4 0x9670E0DE SWAP1 PUSH2 0x1FD8 SWAP1 DUP6 SWAP1 PUSH1 0x4 ADD PUSH2 0x5D54 JUMP JUMPDEST PUSH1 0x20 PUSH1 0x40 MLOAD DUP1 DUP4 SUB DUP2 DUP7 DUP1 EXTCODESIZE ISZERO DUP1 ISZERO PUSH2 0x1FF0 JUMPI PUSH1 0x0 DUP1 REVERT JUMPDEST POP GAS STATICCALL ISZERO DUP1 ISZERO PUSH2 0x2004 JUMPI RETURNDATASIZE PUSH1 0x0 DUP1 RETURNDATACOPY RETURNDATASIZE PUSH1 0x0 REVERT JUMPDEST POP POP POP POP PUSH1 0x40 MLOAD RETURNDATASIZE PUSH1 0x1F NOT PUSH1 0x1F DUP3 ADD AND DUP3 ADD DUP1 PUSH1 0x40 MSTORE POP DUP2 ADD SWAP1 PUSH2 0x2028 SWAP2 SWAP1 PUSH2 0x4EC1 JUMP JUMPDEST PUSH1 0x80 DUP10 ADD MLOAD MLOAD PUSH1 0xA0 DUP11 ADD MLOAD MLOAD PUSH1 0x40 MLOAD PUSH4 0x95EA7B3 PUSH1 0xE0 SHL DUP2 MSTORE SWAP3 SWAP4 POP PUSH1 0x1 PUSH1 0x1 PUSH1 0xA0 SHL SUB SWAP1 SWAP2 AND SWAP2 PUSH4 0x95EA7B3 SWAP2 PUSH2 0x2065 SWAP2 DUP12 SWAP2 SWAP1 PUSH1 0x4 ADD PUSH2 0x50F5 JUMP JUMPDEST PUSH1 0x20 PUSH1 0x40 MLOAD DUP1 DUP4 SUB DUP2 PUSH1 0x0 DUP8 DUP1 EXTCODESIZE ISZERO DUP1 ISZERO PUSH2 0x207F JUMPI PUSH1 0x0 DUP1 REVERT JUMPDEST POP GAS CALL ISZERO DUP1 ISZERO PUSH2 0x2093 JUMPI RETURNDATASIZE PUSH1 0x0 DUP1 RETURNDATACOPY RETURNDATASIZE PUSH1 0x0 REVERT JUMPDEST POP POP POP POP PUSH1 0x40 MLOAD RETURNDATASIZE PUSH1 0x1F NOT PUSH1 0x1F DUP3 ADD AND DUP3 ADD DUP1 PUSH1 0x40 MSTORE POP DUP2 ADD SWAP1 PUSH2 0x20B7 SWAP2 SWAP1 PUSH2 0x4E23 JUMP JUMPDEST POP PUSH1 0x0 DUP8 PUSH1 0x1 PUSH1 0x1 PUSH1 0xA0 SHL SUB AND PUSH4 0x38ED1739 DUP11 PUSH1 0xA0 ADD MLOAD PUSH1 0x0 PUSH1 0x3 DUP2 LT PUSH2 0x20DA JUMPI INVALID JUMPDEST PUSH1 0x20 MUL ADD MLOAD DUP5 DUP11 ADDRESS PUSH2 0x20ED TIMESTAMP PUSH1 0x3C PUSH2 0x2839 JUMP JUMPDEST PUSH1 0x40 MLOAD DUP7 PUSH4 0xFFFFFFFF AND PUSH1 0xE0 SHL DUP2 MSTORE PUSH1 0x4 ADD PUSH2 0x210D SWAP6 SWAP5 SWAP4 SWAP3 SWAP2 SWAP1 PUSH2 0x5D76 JUMP JUMPDEST PUSH1 0x0 PUSH1 0x40 MLOAD DUP1 DUP4 SUB DUP2 PUSH1 0x0 DUP8 DUP1 EXTCODESIZE ISZERO DUP1 ISZERO PUSH2 0x2127 JUMPI PUSH1 0x0 DUP1 REVERT JUMPDEST POP GAS CALL ISZERO DUP1 ISZERO PUSH2 0x213B JUMPI RETURNDATASIZE PUSH1 0x0 DUP1 RETURNDATACOPY RETURNDATASIZE PUSH1 0x0 REVERT JUMPDEST POP POP POP POP PUSH1 0x40 MLOAD RETURNDATASIZE PUSH1 0x0 DUP3 RETURNDATACOPY PUSH1 0x1F RETURNDATASIZE SWAP1 DUP2 ADD PUSH1 0x1F NOT AND DUP3 ADD PUSH1 0x40 MSTORE PUSH2 0x2163 SWAP2 SWAP1 DUP2 ADD SWAP1 PUSH2 0x4D94 JUMP JUMPDEST DUP5 DUP2 MLOAD DUP2 LT PUSH2 0x216E JUMPI INVALID JUMPDEST PUSH1 0x20 MUL PUSH1 0x20 ADD ADD MLOAD SWAP1 POP PUSH1 0x0 PUSH2 0x218E DUP11 PUSH1 0x80 ADD MLOAD PUSH1 0x1 PUSH1 0x2 DUP2 LT PUSH2 0x1D3D JUMPI INVALID JUMPDEST SWAP1 POP PUSH1 0x0 DUP2 PUSH1 0x1 PUSH1 0x1 PUSH1 0xA0 SHL SUB AND PUSH4 0x5017F9FB DUP7 PUSH1 0x40 MLOAD DUP3 PUSH4 0xFFFFFFFF AND PUSH1 0xE0 SHL DUP2 MSTORE PUSH1 0x4 ADD PUSH2 0x21BE SWAP2 SWAP1 PUSH2 0x5D54 JUMP JUMPDEST PUSH1 0x20 PUSH1 0x40 MLOAD DUP1 DUP4 SUB DUP2 DUP7 DUP1 EXTCODESIZE ISZERO DUP1 ISZERO PUSH2 0x21D6 JUMPI PUSH1 0x0 DUP1 REVERT JUMPDEST POP GAS STATICCALL ISZERO DUP1 ISZERO PUSH2 0x21EA JUMPI RETURNDATASIZE PUSH1 0x0 DUP1 RETURNDATACOPY RETURNDATASIZE PUSH1 0x0 REVERT JUMPDEST POP POP POP POP PUSH1 0x40 MLOAD RETURNDATASIZE PUSH1 0x1F NOT PUSH1 0x1F DUP3 ADD AND DUP3 ADD DUP1 PUSH1 0x40 MSTORE POP DUP2 ADD SWAP1 PUSH2 0x220E SWAP2 SWAP1 PUSH2 0x4EC1 JUMP JUMPDEST SWAP1 POP PUSH2 0x22B2 PUSH1 0xD PUSH1 0x0 SWAP1 SLOAD SWAP1 PUSH2 0x100 EXP SWAP1 DIV PUSH1 0x1 PUSH1 0x1 PUSH1 0xA0 SHL SUB AND PUSH1 0x1 PUSH1 0x1 PUSH1 0xA0 SHL SUB AND PUSH4 0x3AAA36E6 PUSH1 0x40 MLOAD DUP2 PUSH4 0xFFFFFFFF AND PUSH1 0xE0 SHL DUP2 MSTORE PUSH1 0x4 ADD PUSH1 0x20 PUSH1 0x40 MLOAD DUP1 DUP4 SUB DUP2 DUP7 DUP1 EXTCODESIZE ISZERO DUP1 ISZERO PUSH2 0x2261 JUMPI PUSH1 0x0 DUP1 REVERT JUMPDEST POP GAS STATICCALL ISZERO DUP1 ISZERO PUSH2 0x2275 JUMPI RETURNDATASIZE PUSH1 0x0 DUP1 RETURNDATACOPY RETURNDATASIZE PUSH1 0x0 REVERT JUMPDEST POP POP POP POP PUSH1 0x40 MLOAD RETURNDATASIZE PUSH1 0x1F NOT PUSH1 0x1F DUP3 ADD AND DUP3 ADD DUP1 PUSH1 0x40 MSTORE POP DUP2 ADD SWAP1 PUSH2 0x2299 SWAP2 SWAP1 PUSH2 0x4B58 JUMP JUMPDEST PUSH1 0x80 DUP14 ADD MLOAD PUSH1 0x20 ADD MLOAD PUSH1 0x1 PUSH1 0x1 PUSH1 0xA0 SHL SUB AND SWAP1 DUP4 PUSH2 0x3B9F JUMP JUMPDEST PUSH2 0x22BC DUP6 DUP3 PUSH2 0x27F7 JUMP JUMPDEST PUSH1 0xE DUP13 PUSH1 0x40 ADD MLOAD DUP2 SLOAD DUP2 LT PUSH2 0x22CD JUMPI INVALID JUMPDEST SWAP1 PUSH1 0x0 MSTORE PUSH1 0x20 PUSH1 0x0 KECCAK256 SWAP1 PUSH1 0xA MUL ADD PUSH1 0x6 ADD PUSH1 0x1 PUSH1 0x3 DUP2 LT PUSH2 0x22EA JUMPI INVALID JUMPDEST ADD SSTORE PUSH1 0x80 DUP12 ADD MLOAD PUSH1 0x1 PUSH1 0x20 MUL ADD MLOAD PUSH1 0x1 PUSH1 0x1 PUSH1 0xA0 SHL SUB AND PUSH4 0x95EA7B3 DUP4 PUSH1 0xE DUP15 PUSH1 0x40 ADD MLOAD DUP2 SLOAD DUP2 LT PUSH2 0x2318 JUMPI INVALID JUMPDEST SWAP1 PUSH1 0x0 MSTORE PUSH1 0x20 PUSH1 0x0 KECCAK256 SWAP1 PUSH1 0xA MUL ADD PUSH1 0x6 ADD PUSH1 0x1 PUSH1 0x3 DUP2 LT PUSH2 0x2335 JUMPI INVALID JUMPDEST ADD SLOAD PUSH1 0x40 MLOAD DUP4 PUSH4 0xFFFFFFFF AND PUSH1 0xE0 SHL DUP2 MSTORE PUSH1 0x4 ADD PUSH2 0x2354 SWAP3 SWAP2 SWAP1 PUSH2 0x50F5 JUMP JUMPDEST PUSH1 0x20 PUSH1 0x40 MLOAD DUP1 DUP4 SUB DUP2 PUSH1 0x0 DUP8 DUP1 EXTCODESIZE ISZERO DUP1 ISZERO PUSH2 0x236E JUMPI PUSH1 0x0 DUP1 REVERT JUMPDEST POP GAS CALL ISZERO DUP1 ISZERO PUSH2 0x2382 JUMPI RETURNDATASIZE PUSH1 0x0 DUP1 RETURNDATACOPY RETURNDATASIZE PUSH1 0x0 REVERT JUMPDEST POP POP POP POP PUSH1 0x40 MLOAD RETURNDATASIZE PUSH1 0x1F NOT PUSH1 0x1F DUP3 ADD AND DUP3 ADD DUP1 PUSH1 0x40 MSTORE POP DUP2 ADD SWAP1 PUSH2 0x23A6 SWAP2 SWAP1 PUSH2 0x4E23 JUMP JUMPDEST POP DUP2 PUSH1 0x1 PUSH1 0x1 PUSH1 0xA0 SHL SUB AND PUSH4 0x8340F549 ADDRESS DUP14 PUSH1 0x80 ADD MLOAD PUSH1 0x1 PUSH1 0x2 DUP2 LT PUSH2 0x23C8 JUMPI INVALID JUMPDEST PUSH1 0x20 MUL ADD MLOAD PUSH1 0xE DUP16 PUSH1 0x40 ADD MLOAD DUP2 SLOAD DUP2 LT PUSH2 0x23DE JUMPI INVALID JUMPDEST SWAP1 PUSH1 0x0 MSTORE PUSH1 0x20 PUSH1 0x0 KECCAK256 SWAP1 PUSH1 0xA MUL ADD PUSH1 0x6 ADD PUSH1 0x1 PUSH1 0x3 DUP2 LT PUSH2 0x23FB JUMPI INVALID JUMPDEST ADD SLOAD PUSH1 0x40 MLOAD DUP5 PUSH4 0xFFFFFFFF AND PUSH1 0xE0 SHL DUP2 MSTORE PUSH1 0x4 ADD PUSH2 0x241B SWAP4 SWAP3 SWAP2 SWAP1 PUSH2 0x50D1 JUMP JUMPDEST PUSH1 0x0 PUSH1 0x40 MLOAD DUP1 DUP4 SUB DUP2 PUSH1 0x0 DUP8 DUP1 EXTCODESIZE ISZERO DUP1 ISZERO PUSH2 0x2435 JUMPI PUSH1 0x0 DUP1 REVERT JUMPDEST POP GAS CALL ISZERO DUP1 ISZERO PUSH2 0x2449 JUMPI RETURNDATASIZE PUSH1 0x0 DUP1 RETURNDATACOPY RETURNDATASIZE PUSH1 0x0 REVERT JUMPDEST POP POP POP POP PUSH2 0x245A DUP12 PUSH1 0x40 ADD MLOAD PUSH2 0x3BF5 JUMP JUMPDEST POP SWAP2 SWAP11 SWAP1 SWAP10 POP SWAP8 POP POP POP POP POP POP POP POP JUMP JUMPDEST PUSH1 0x0 DUP1 PUSH2 0x249E PUSH1 0x2 PUSH1 0x14 DUP6 PUSH1 0x0 ADD MLOAD DUP2 SLOAD DUP2 LT PUSH2 0x2484 JUMPI INVALID JUMPDEST PUSH1 0x0 SWAP2 DUP3 MSTORE PUSH1 0x20 SWAP1 SWAP2 KECCAK256 PUSH1 0x1 PUSH1 0x3 SWAP1 SWAP3 MUL ADD ADD SLOAD SWAP1 PUSH2 0x27F7 JUMP JUMPDEST DUP4 MLOAD PUSH1 0x0 SWAP1 DUP2 MSTORE PUSH1 0x11 PUSH1 0x20 SWAP1 DUP2 MSTORE PUSH1 0x40 DUP1 DUP4 KECCAK256 DUP3 DUP9 ADD MLOAD DUP5 MSTORE SWAP1 SWAP2 MSTORE SWAP1 KECCAK256 SLOAD SWAP1 SWAP2 POP PUSH1 0x1 EQ ISZERO PUSH2 0x25CF JUMPI DUP3 MLOAD PUSH1 0x20 DUP1 DUP6 ADD MLOAD PUSH1 0x80 DUP7 ADD MLOAD SWAP2 DUP3 ADD MLOAD PUSH2 0x25C7 SWAP4 SWAP3 PUSH1 0x0 JUMPDEST PUSH1 0x20 MUL ADD MLOAD PUSH2 0x255E DUP7 PUSH1 0xE PUSH1 0x12 PUSH1 0x0 DUP13 PUSH1 0x0 ADD MLOAD DUP2 MSTORE PUSH1 0x20 ADD SWAP1 DUP2 MSTORE PUSH1 0x20 ADD PUSH1 0x0 KECCAK256 PUSH1 0x0 DUP13 PUSH1 0x20 ADD MLOAD DUP2 MSTORE PUSH1 0x20 ADD SWAP1 DUP2 MSTORE PUSH1 0x20 ADD PUSH1 0x0 KECCAK256 PUSH1 0x0 DUP2 SLOAD DUP2 LT PUSH2 0x2524 JUMPI INVALID JUMPDEST SWAP1 PUSH1 0x0 MSTORE PUSH1 0x20 PUSH1 0x0 KECCAK256 ADD SLOAD DUP2 SLOAD DUP2 LT PUSH2 0x2539 JUMPI INVALID JUMPDEST SWAP1 PUSH1 0x0 MSTORE PUSH1 0x20 PUSH1 0x0 KECCAK256 SWAP1 PUSH1 0xA MUL ADD PUSH1 0x6 ADD PUSH1 0x1 PUSH1 0x3 DUP2 LT PUSH2 0x2556 JUMPI INVALID JUMPDEST ADD SLOAD SWAP1 PUSH2 0x3CFB JUMP JUMPDEST PUSH1 0x14 DUP10 PUSH1 0x0 ADD MLOAD DUP2 SLOAD DUP2 LT PUSH2 0x256F JUMPI INVALID JUMPDEST PUSH1 0x0 SWAP2 DUP3 MSTORE PUSH1 0x20 DUP1 DUP4 KECCAK256 DUP13 MLOAD DUP5 MSTORE PUSH1 0x11 DUP3 MSTORE PUSH1 0x40 DUP1 DUP6 KECCAK256 DUP15 DUP5 ADD MLOAD DUP7 MSTORE SWAP1 SWAP3 MSTORE SWAP3 KECCAK256 SLOAD PUSH1 0x1 PUSH1 0x3 SWAP1 SWAP3 MUL SWAP1 SWAP3 ADD DUP2 ADD SWAP2 PUSH2 0x25A8 SWAP2 PUSH2 0x2839 JUMP JUMPDEST DUP2 SLOAD DUP2 LT PUSH2 0x25B2 JUMPI INVALID JUMPDEST SWAP1 PUSH1 0x0 MSTORE PUSH1 0x20 PUSH1 0x0 KECCAK256 ADD SLOAD DUP10 PUSH1 0xC0 ADD MLOAD PUSH2 0x3D3D JUMP JUMPDEST SWAP2 POP POP PUSH2 0x5FB JUMP JUMPDEST PUSH2 0x25E5 PUSH1 0x1 PUSH1 0x14 DUP6 PUSH1 0x0 ADD MLOAD DUP2 SLOAD DUP2 LT PUSH2 0x2484 JUMPI INVALID JUMPDEST DUP4 MLOAD PUSH1 0x0 SWAP1 DUP2 MSTORE PUSH1 0x11 PUSH1 0x20 SWAP1 DUP2 MSTORE PUSH1 0x40 DUP1 DUP4 KECCAK256 DUP3 DUP9 ADD MLOAD DUP5 MSTORE SWAP1 SWAP2 MSTORE SWAP1 KECCAK256 SLOAD EQ ISZERO PUSH2 0x2688 JUMPI DUP3 MLOAD PUSH1 0x20 DUP5 ADD MLOAD PUSH2 0x25C7 SWAP2 SWAP1 PUSH2 0x2621 SWAP1 PUSH1 0x1 PUSH2 0x2839 JUMP JUMPDEST PUSH1 0x80 DUP7 ADD DUP1 MLOAD PUSH1 0x20 DUP1 DUP3 ADD MLOAD SWAP2 MLOAD DUP10 MLOAD PUSH1 0x0 SWAP1 DUP2 MSTORE PUSH1 0x15 DUP4 MSTORE PUSH1 0x40 DUP1 DUP3 KECCAK256 SWAP6 MLOAD DUP5 ADD MLOAD PUSH1 0x1 PUSH1 0x1 PUSH1 0xA0 SHL SUB AND DUP3 MSTORE SWAP5 SWAP1 SWAP3 MSTORE SWAP3 SWAP1 KECCAK256 SLOAD DUP9 MLOAD PUSH1 0x14 DUP1 SLOAD SWAP4 SWAP5 SWAP4 SWAP1 SWAP2 SWAP1 DUP2 LT PUSH2 0x266B JUMPI INVALID JUMPDEST SWAP1 PUSH1 0x0 MSTORE PUSH1 0x20 PUSH1 0x0 KECCAK256 SWAP1 PUSH1 0x3 MUL ADD PUSH1 0x1 ADD PUSH1 0x1 DUP2 SLOAD DUP2 LT PUSH2 0x25B2 JUMPI INVALID JUMPDEST DUP3 MLOAD PUSH1 0x20 DUP5 ADD MLOAD PUSH1 0x80 DUP6 ADD MLOAD DUP1 MLOAD PUSH2 0x25C7 SWAP4 SWAP3 SWAP2 PUSH1 0x1 PUSH2 0x24E1 JUMP JUMPDEST PUSH1 0x0 PUSH2 0x1A15 DUP5 DUP5 DUP5 PUSH2 0x3DB6 JUMP JUMPDEST PUSH2 0x26BB DUP5 DUP5 DUP5 PUSH2 0x1B6B JUMP JUMPDEST PUSH2 0x26C7 DUP5 DUP5 DUP5 DUP5 PUSH2 0x3E15 JUMP JUMPDEST PUSH2 0x125A JUMPI PUSH1 0x40 MLOAD PUSH3 0x461BCD PUSH1 0xE5 SHL DUP2 MSTORE PUSH1 0x4 ADD PUSH2 0x6BD SWAP1 PUSH2 0x52E9 JUMP JUMPDEST PUSH1 0x60 DUP2 PUSH2 0x2708 JUMPI POP PUSH1 0x40 DUP1 MLOAD DUP1 DUP3 ADD SWAP1 SWAP2 MSTORE PUSH1 0x1 DUP2 MSTORE PUSH1 0x3 PUSH1 0xFC SHL PUSH1 0x20 DUP3 ADD MSTORE PUSH2 0x5FB JUMP JUMPDEST DUP2 PUSH1 0x0 JUMPDEST DUP2 ISZERO PUSH2 0x2720 JUMPI PUSH1 0x1 ADD PUSH1 0xA DUP3 DIV SWAP2 POP PUSH2 0x270C JUMP JUMPDEST PUSH1 0x60 DUP2 PUSH1 0x1 PUSH1 0x1 PUSH1 0x40 SHL SUB DUP2 GT DUP1 ISZERO PUSH2 0x2738 JUMPI PUSH1 0x0 DUP1 REVERT JUMPDEST POP PUSH1 0x40 MLOAD SWAP1 DUP1 DUP3 MSTORE DUP1 PUSH1 0x1F ADD PUSH1 0x1F NOT AND PUSH1 0x20 ADD DUP3 ADD PUSH1 0x40 MSTORE DUP1 ISZERO PUSH2 0x2763 JUMPI PUSH1 0x20 DUP3 ADD DUP2 DUP1 CALLDATASIZE DUP4 CALLDATACOPY ADD SWAP1 POP JUMPDEST POP DUP6 SWAP4 POP SWAP1 POP PUSH1 0x0 NOT DUP3 ADD JUMPDEST DUP4 ISZERO PUSH2 0x27B4 JUMPI PUSH1 0xA DUP5 MOD PUSH1 0x30 ADD PUSH1 0xF8 SHL DUP3 DUP3 DUP1 PUSH1 0x1 SWAP1 SUB SWAP4 POP DUP2 MLOAD DUP2 LT PUSH2 0x2792 JUMPI INVALID JUMPDEST PUSH1 0x20 ADD ADD SWAP1 PUSH1 0x1 PUSH1 0x1 PUSH1 0xF8 SHL SUB NOT AND SWAP1 DUP2 PUSH1 0x0 BYTE SWAP1 MSTORE8 POP PUSH1 0xA DUP5 DIV SWAP4 POP PUSH2 0x276F JUMP JUMPDEST POP SWAP5 SWAP4 POP POP POP POP JUMP JUMPDEST PUSH1 0x0 DUP3 PUSH2 0x27CC JUMPI POP PUSH1 0x0 PUSH2 0x976 JUMP JUMPDEST DUP3 DUP3 MUL DUP3 DUP5 DUP3 DUP2 PUSH2 0x27D9 JUMPI INVALID JUMPDEST DIV EQ PUSH2 0x973 JUMPI PUSH1 0x40 MLOAD PUSH3 0x461BCD PUSH1 0xE5 SHL DUP2 MSTORE PUSH1 0x4 ADD PUSH2 0x6BD SWAP1 PUSH2 0x570E JUMP JUMPDEST PUSH1 0x0 PUSH2 0x973 DUP4 DUP4 PUSH1 0x40 MLOAD DUP1 PUSH1 0x40 ADD PUSH1 0x40 MSTORE DUP1 PUSH1 0x1E DUP2 MSTORE PUSH1 0x20 ADD PUSH32 0x536166654D6174683A207375627472616374696F6E206F766572666C6F770000 DUP2 MSTORE POP PUSH2 0x3F4F JUMP JUMPDEST PUSH1 0x0 DUP3 DUP3 ADD DUP4 DUP2 LT ISZERO PUSH2 0x973 JUMPI PUSH1 0x40 MLOAD PUSH3 0x461BCD PUSH1 0xE5 SHL DUP2 MSTORE PUSH1 0x4 ADD PUSH2 0x6BD SWAP1 PUSH2 0x5447 JUMP JUMPDEST PUSH1 0x0 PUSH1 0x1 JUMPDEST DUP3 MLOAD DUP2 LT ISZERO PUSH2 0x28AF JUMPI DUP3 DUP2 DUP2 MLOAD DUP2 LT PUSH2 0x2878 JUMPI INVALID JUMPDEST PUSH1 0x20 MUL PUSH1 0x20 ADD ADD MLOAD DUP4 PUSH1 0x1 DUP4 SUB DUP2 MLOAD DUP2 LT PUSH2 0x288F JUMPI INVALID JUMPDEST PUSH1 0x20 MUL PUSH1 0x20 ADD ADD MLOAD LT ISZERO PUSH2 0x28A7 JUMPI PUSH1 0x0 SWAP2 POP POP PUSH2 0x5FB JUMP JUMPDEST PUSH1 0x1 ADD PUSH2 0x2863 JUMP JUMPDEST POP PUSH1 0x1 SWAP3 SWAP2 POP POP JUMP JUMPDEST PUSH1 0x0 PUSH1 0xC SLOAD PUSH1 0xB SLOAD LT PUSH2 0x28DD JUMPI PUSH1 0x40 MLOAD PUSH3 0x461BCD PUSH1 0xE5 SHL DUP2 MSTORE PUSH1 0x4 ADD PUSH2 0x6BD SWAP1 PUSH2 0x5BEA JUMP JUMPDEST PUSH1 0x1A PUSH1 0x0 DUP6 PUSH1 0x0 DUP2 MLOAD DUP2 LT PUSH2 0x28EE JUMPI INVALID JUMPDEST PUSH1 0x20 MUL PUSH1 0x20 ADD ADD MLOAD PUSH1 0x1 PUSH1 0x1 PUSH1 0xA0 SHL SUB AND PUSH1 0x1 PUSH1 0x1 PUSH1 0xA0 SHL SUB AND DUP2 MSTORE PUSH1 0x20 ADD SWAP1 DUP2 MSTORE PUSH1 0x20 ADD PUSH1 0x0 KECCAK256 SLOAD DUP4 PUSH1 0x0 DUP2 MLOAD DUP2 LT PUSH2 0x2924 JUMPI INVALID JUMPDEST PUSH1 0x20 MUL PUSH1 0x20 ADD ADD MLOAD LT ISZERO PUSH2 0x294A JUMPI PUSH1 0x40 MLOAD PUSH3 0x461BCD PUSH1 0xE5 SHL DUP2 MSTORE PUSH1 0x4 ADD PUSH2 0x6BD SWAP1 PUSH2 0x53B8 JUMP JUMPDEST PUSH2 0x2955 DUP5 DUP5 DUP5 PUSH2 0x3F7B JUMP JUMPDEST PUSH1 0x0 DUP5 PUSH1 0x0 DUP2 MLOAD DUP2 LT PUSH2 0x2964 JUMPI INVALID JUMPDEST PUSH1 0x20 MUL PUSH1 0x20 ADD ADD MLOAD SWAP1 POP PUSH1 0x0 DUP2 PUSH1 0x1 PUSH1 0x1 PUSH1 0xA0 SHL SUB AND PUSH4 0x70A08231 ADDRESS PUSH1 0x40 MLOAD DUP3 PUSH4 0xFFFFFFFF AND PUSH1 0xE0 SHL DUP2 MSTORE PUSH1 0x4 ADD PUSH2 0x299C SWAP2 SWAP1 PUSH2 0x508A JUMP JUMPDEST PUSH1 0x20 PUSH1 0x40 MLOAD DUP1 DUP4 SUB DUP2 DUP7 DUP1 EXTCODESIZE ISZERO DUP1 ISZERO PUSH2 0x29B4 JUMPI PUSH1 0x0 DUP1 REVERT JUMPDEST POP GAS STATICCALL ISZERO DUP1 ISZERO PUSH2 0x29C8 JUMPI RETURNDATASIZE PUSH1 0x0 DUP1 RETURNDATACOPY RETURNDATASIZE PUSH1 0x0 REVERT JUMPDEST POP POP POP POP PUSH1 0x40 MLOAD RETURNDATASIZE PUSH1 0x1F NOT PUSH1 0x1F DUP3 ADD AND DUP3 ADD DUP1 PUSH1 0x40 MSTORE POP DUP2 ADD SWAP1 PUSH2 0x29EC SWAP2 SWAP1 PUSH2 0x4EC1 JUMP JUMPDEST SWAP1 POP PUSH2 0x2A22 DUP8 ADDRESS DUP8 PUSH1 0x0 DUP2 MLOAD DUP2 LT PUSH2 0x2A00 JUMPI INVALID JUMPDEST PUSH1 0x20 MUL PUSH1 0x20 ADD ADD MLOAD DUP6 PUSH1 0x1 PUSH1 0x1 PUSH1 0xA0 SHL SUB AND PUSH2 0x401E SWAP1 SWAP4 SWAP3 SWAP2 SWAP1 PUSH4 0xFFFFFFFF AND JUMP JUMPDEST DUP5 PUSH1 0x0 DUP2 MLOAD DUP2 LT PUSH2 0x2A2F JUMPI INVALID JUMPDEST PUSH1 0x20 MUL PUSH1 0x20 ADD ADD MLOAD PUSH2 0x2ABD DUP3 DUP5 PUSH1 0x1 PUSH1 0x1 PUSH1 0xA0 SHL SUB AND PUSH4 0x70A08231 ADDRESS PUSH1 0x40 MLOAD DUP3 PUSH4 0xFFFFFFFF AND PUSH1 0xE0 SHL DUP2 MSTORE PUSH1 0x4 ADD PUSH2 0x2A67 SWAP2 SWAP1 PUSH2 0x508A JUMP JUMPDEST PUSH1 0x20 PUSH1 0x40 MLOAD DUP1 DUP4 SUB DUP2 DUP7 DUP1 EXTCODESIZE ISZERO DUP1 ISZERO PUSH2 0x2A7F JUMPI PUSH1 0x0 DUP1 REVERT JUMPDEST POP GAS STATICCALL ISZERO DUP1 ISZERO PUSH2 0x2A93 JUMPI RETURNDATASIZE PUSH1 0x0 DUP1 RETURNDATACOPY RETURNDATASIZE PUSH1 0x0 REVERT JUMPDEST POP POP POP POP PUSH1 0x40 MLOAD RETURNDATASIZE PUSH1 0x1F NOT PUSH1 0x1F DUP3 ADD AND DUP3 ADD DUP1 PUSH1 0x40 MSTORE POP DUP2 ADD SWAP1 PUSH2 0x2AB7 SWAP2 SWAP1 PUSH2 0x4EC1 JUMP JUMPDEST SWAP1 PUSH2 0x27F7 JUMP JUMPDEST EQ PUSH2 0x2ADA JUMPI PUSH1 0x40 MLOAD PUSH3 0x461BCD PUSH1 0xE5 SHL DUP2 MSTORE PUSH1 0x4 ADD PUSH2 0x6BD SWAP1 PUSH2 0x5871 JUMP JUMPDEST PUSH1 0x0 PUSH1 0x19 PUSH1 0x0 DUP9 PUSH1 0x0 DUP2 MLOAD DUP2 LT PUSH2 0x2AED JUMPI INVALID JUMPDEST PUSH1 0x20 MUL PUSH1 0x20 ADD ADD MLOAD PUSH1 0x1 PUSH1 0x1 PUSH1 0xA0 SHL SUB AND PUSH1 0x1 PUSH1 0x1 PUSH1 0xA0 SHL SUB AND DUP2 MSTORE PUSH1 0x20 ADD SWAP1 DUP2 MSTORE PUSH1 0x20 ADD PUSH1 0x0 KECCAK256 PUSH1 0x0 SWAP1 SLOAD SWAP1 PUSH2 0x100 EXP SWAP1 DIV PUSH1 0x1 PUSH1 0x1 PUSH1 0xA0 SHL SUB AND SWAP1 POP PUSH1 0x0 DUP2 PUSH1 0x1 PUSH1 0x1 PUSH1 0xA0 SHL SUB AND PUSH4 0x423C485A DUP9 PUSH1 0x0 DUP2 MLOAD DUP2 LT PUSH2 0x2B49 JUMPI INVALID JUMPDEST PUSH1 0x20 MUL PUSH1 0x20 ADD ADD MLOAD PUSH1 0x40 MLOAD DUP3 PUSH4 0xFFFFFFFF AND PUSH1 0xE0 SHL DUP2 MSTORE PUSH1 0x4 ADD PUSH2 0x2B6D SWAP2 SWAP1 PUSH2 0x5D54 JUMP JUMPDEST PUSH1 0x20 PUSH1 0x40 MLOAD DUP1 DUP4 SUB DUP2 DUP7 DUP1 EXTCODESIZE ISZERO DUP1 ISZERO PUSH2 0x2B85 JUMPI PUSH1 0x0 DUP1 REVERT JUMPDEST POP GAS STATICCALL ISZERO DUP1 ISZERO PUSH2 0x2B99 JUMPI RETURNDATASIZE PUSH1 0x0 DUP1 RETURNDATACOPY RETURNDATASIZE PUSH1 0x0 REVERT JUMPDEST POP POP POP POP PUSH1 0x40 MLOAD RETURNDATASIZE PUSH1 0x1F NOT PUSH1 0x1F DUP3 ADD AND DUP3 ADD DUP1 PUSH1 0x40 MSTORE POP DUP2 ADD SWAP1 PUSH2 0x2BBD SWAP2 SWAP1 PUSH2 0x4EC1 JUMP JUMPDEST SWAP1 POP DUP1 ISZERO PUSH2 0x2C71 JUMPI PUSH1 0xD SLOAD PUSH1 0x40 DUP1 MLOAD PUSH4 0x1D551B73 PUSH1 0xE1 SHL DUP2 MSTORE SWAP1 MLOAD PUSH2 0x2C71 SWAP3 PUSH1 0x1 PUSH1 0x1 PUSH1 0xA0 SHL SUB AND SWAP2 PUSH4 0x3AAA36E6 SWAP2 PUSH1 0x4 DUP1 DUP4 ADD SWAP3 PUSH1 0x20 SWAP3 SWAP2 SWAP1 DUP3 SWAP1 SUB ADD DUP2 DUP7 DUP1 EXTCODESIZE ISZERO DUP1 ISZERO PUSH2 0x2C0B JUMPI PUSH1 0x0 DUP1 REVERT JUMPDEST POP GAS STATICCALL ISZERO DUP1 ISZERO PUSH2 0x2C1F JUMPI RETURNDATASIZE PUSH1 0x0 DUP1 RETURNDATACOPY RETURNDATASIZE PUSH1 0x0 REVERT JUMPDEST POP POP POP POP PUSH1 0x40 MLOAD RETURNDATASIZE PUSH1 0x1F NOT PUSH1 0x1F DUP3 ADD AND DUP3 ADD DUP1 PUSH1 0x40 MSTORE POP DUP2 ADD SWAP1 PUSH2 0x2C43 SWAP2 SWAP1 PUSH2 0x4B58 JUMP JUMPDEST DUP3 DUP11 PUSH1 0x0 DUP2 MLOAD DUP2 LT PUSH2 0x2C51 JUMPI INVALID JUMPDEST PUSH1 0x20 MUL PUSH1 0x20 ADD ADD MLOAD PUSH1 0x1 PUSH1 0x1 PUSH1 0xA0 SHL SUB AND PUSH2 0x3B9F SWAP1 SWAP3 SWAP2 SWAP1 PUSH4 0xFFFFFFFF AND JUMP JUMPDEST PUSH1 0x0 PUSH2 0x2C9A DUP3 DUP10 PUSH1 0x0 DUP2 MLOAD DUP2 LT PUSH2 0x2C84 JUMPI INVALID JUMPDEST PUSH1 0x20 MUL PUSH1 0x20 ADD ADD MLOAD PUSH2 0x27F7 SWAP1 SWAP2 SWAP1 PUSH4 0xFFFFFFFF AND JUMP JUMPDEST SWAP1 POP DUP1 PUSH1 0x15 PUSH1 0x0 PUSH1 0xB SLOAD DUP2 MSTORE PUSH1 0x20 ADD SWAP1 DUP2 MSTORE PUSH1 0x20 ADD PUSH1 0x0 KECCAK256 PUSH1 0x0 DUP12 PUSH1 0x0 DUP2 MLOAD DUP2 LT PUSH2 0x2CC1 JUMPI INVALID JUMPDEST PUSH1 0x20 MUL PUSH1 0x20 ADD ADD MLOAD PUSH1 0x1 PUSH1 0x1 PUSH1 0xA0 SHL SUB AND PUSH1 0x1 PUSH1 0x1 PUSH1 0xA0 SHL SUB AND DUP2 MSTORE PUSH1 0x20 ADD SWAP1 DUP2 MSTORE PUSH1 0x20 ADD PUSH1 0x0 KECCAK256 DUP2 SWAP1 SSTORE POP DUP9 PUSH1 0x0 DUP2 MLOAD DUP2 LT PUSH2 0x2CFA JUMPI INVALID JUMPDEST PUSH1 0x20 MUL PUSH1 0x20 ADD ADD MLOAD PUSH1 0x1 PUSH1 0x1 PUSH1 0xA0 SHL SUB AND PUSH4 0x95EA7B3 DUP5 DUP4 PUSH1 0x40 MLOAD DUP4 PUSH4 0xFFFFFFFF AND PUSH1 0xE0 SHL DUP2 MSTORE PUSH1 0x4 ADD PUSH2 0x2D2F SWAP3 SWAP2 SWAP1 PUSH2 0x50F5 JUMP JUMPDEST PUSH1 0x20 PUSH1 0x40 MLOAD DUP1 DUP4 SUB DUP2 PUSH1 0x0 DUP8 DUP1 EXTCODESIZE ISZERO DUP1 ISZERO PUSH2 0x2D49 JUMPI PUSH1 0x0 DUP1 REVERT JUMPDEST POP GAS CALL ISZERO DUP1 ISZERO PUSH2 0x2D5D JUMPI RETURNDATASIZE PUSH1 0x0 DUP1 RETURNDATACOPY RETURNDATASIZE PUSH1 0x0 REVERT JUMPDEST POP POP POP POP PUSH1 0x40 MLOAD RETURNDATASIZE PUSH1 0x1F NOT PUSH1 0x1F DUP3 ADD AND DUP3 ADD DUP1 PUSH1 0x40 MSTORE POP DUP2 ADD SWAP1 PUSH2 0x2D81 SWAP2 SWAP1 PUSH2 0x4E23 JUMP JUMPDEST POP DUP3 PUSH1 0x1 PUSH1 0x1 PUSH1 0xA0 SHL SUB AND PUSH4 0x8340F549 ADDRESS DUP12 PUSH1 0x0 DUP2 MLOAD DUP2 LT PUSH2 0x2D9F JUMPI INVALID JUMPDEST PUSH1 0x20 MUL PUSH1 0x20 ADD ADD MLOAD DUP5 PUSH1 0x40 MLOAD DUP5 PUSH4 0xFFFFFFFF AND PUSH1 0xE0 SHL DUP2 MSTORE PUSH1 0x4 ADD PUSH2 0x2DC6 SWAP4 SWAP3 SWAP2 SWAP1 PUSH2 0x50D1 JUMP JUMPDEST PUSH1 0x0 PUSH1 0x40 MLOAD DUP1 DUP4 SUB DUP2 PUSH1 0x0 DUP8 DUP1 EXTCODESIZE ISZERO DUP1 ISZERO PUSH2 0x2DE0 JUMPI PUSH1 0x0 DUP1 REVERT JUMPDEST POP GAS CALL ISZERO DUP1 ISZERO PUSH2 0x2DF4 JUMPI RETURNDATASIZE PUSH1 0x0 DUP1 RETURNDATACOPY RETURNDATASIZE PUSH1 0x0 REVERT JUMPDEST POP POP PUSH1 0xB DUP1 SLOAD PUSH1 0x1 DUP2 ADD SWAP1 SWAP2 SSTORE PUSH2 0x2E0E SWAP3 POP DUP13 SWAP2 POP PUSH2 0x403F JUMP JUMPDEST SWAP10 SWAP9 POP POP POP POP POP POP POP POP POP JUMP JUMPDEST PUSH1 0x0 DUP1 PUSH1 0x0 DUP1 DUP8 PUSH1 0x1 PUSH1 0x1 PUSH1 0xA0 SHL SUB AND PUSH4 0x313CE567 PUSH1 0x40 MLOAD DUP2 PUSH4 0xFFFFFFFF AND PUSH1 0xE0 SHL DUP2 MSTORE PUSH1 0x4 ADD PUSH1 0x20 PUSH1 0x40 MLOAD DUP1 DUP4 SUB DUP2 DUP7 DUP1 EXTCODESIZE ISZERO DUP1 ISZERO PUSH2 0x2E5A JUMPI PUSH1 0x0 DUP1 REVERT JUMPDEST POP GAS STATICCALL ISZERO DUP1 ISZERO PUSH2 0x2E6E JUMPI RETURNDATASIZE PUSH1 0x0 DUP1 RETURNDATACOPY RETURNDATASIZE PUSH1 0x0 REVERT JUMPDEST POP POP POP POP PUSH1 0x40 MLOAD RETURNDATASIZE PUSH1 0x1F NOT PUSH1 0x1F DUP3 ADD AND DUP3 ADD DUP1 PUSH1 0x40 MSTORE POP DUP2 ADD SWAP1 PUSH2 0x2E92 SWAP2 SWAP1 PUSH2 0x4EFA JUMP JUMPDEST SWAP1 POP PUSH1 0x0 DUP8 PUSH1 0x1 PUSH1 0x1 PUSH1 0xA0 SHL SUB AND PUSH4 0x313CE567 PUSH1 0x40 MLOAD DUP2 PUSH4 0xFFFFFFFF AND PUSH1 0xE0 SHL DUP2 MSTORE PUSH1 0x4 ADD PUSH1 0x20 PUSH1 0x40 MLOAD DUP1 DUP4 SUB DUP2 DUP7 DUP1 EXTCODESIZE ISZERO DUP1 ISZERO PUSH2 0x2ECF JUMPI PUSH1 0x0 DUP1 REVERT JUMPDEST POP GAS STATICCALL ISZERO DUP1 ISZERO PUSH2 0x2EE3 JUMPI RETURNDATASIZE PUSH1 0x0 DUP1 RETURNDATACOPY RETURNDATASIZE PUSH1 0x0 REVERT JUMPDEST POP POP POP POP PUSH1 0x40 MLOAD RETURNDATASIZE PUSH1 0x1F NOT PUSH1 0x1F DUP3 ADD AND DUP3 ADD DUP1 PUSH1 0x40 MSTORE POP DUP2 ADD SWAP1 PUSH2 0x2F07 SWAP2 SWAP1 PUSH2 0x4EFA JUMP JUMPDEST SWAP1 POP DUP2 PUSH1 0xFF AND DUP2 PUSH1 0xFF AND LT PUSH2 0x2F24 JUMPI DUP2 DUP2 SUB SWAP4 POP PUSH1 0x1 SWAP3 POP PUSH2 0x2F2E JUMP JUMPDEST DUP1 DUP3 SUB SWAP4 POP PUSH1 0x0 SWAP3 POP JUMPDEST PUSH1 0x0 PUSH2 0x2F4C DUP8 PUSH2 0x2F46 DUP11 PUSH8 0xDE0B6B3A7640000 PUSH2 0x27BD JUMP JUMPDEST SWAP1 PUSH2 0x3CFB JUMP JUMPDEST SWAP1 POP DUP4 PUSH2 0x2F68 JUMPI PUSH2 0x2F63 DUP2 PUSH1 0xFF DUP8 AND PUSH1 0xA EXP PUSH2 0x3CFB JUMP JUMPDEST PUSH2 0x2F78 JUMP JUMPDEST PUSH2 0x2F78 DUP2 PUSH1 0xFF DUP8 AND PUSH1 0xA EXP PUSH2 0x27BD JUMP JUMPDEST SWAP11 SWAP10 POP POP POP POP POP POP POP POP POP POP JUMP JUMPDEST PUSH1 0x20 DUP4 ADD MLOAD DUP4 MLOAD PUSH1 0x0 SWAP2 PUSH1 0x1 PUSH1 0x1 PUSH1 0xA0 SHL SUB SWAP2 DUP3 AND SWAP2 AND EQ ISZERO PUSH2 0x2FBB JUMPI PUSH1 0x40 MLOAD PUSH3 0x461BCD PUSH1 0xE5 SHL DUP2 MSTORE PUSH1 0x4 ADD PUSH2 0x6BD SWAP1 PUSH2 0x52A6 JUMP JUMPDEST DUP4 MLOAD PUSH1 0x1 PUSH1 0x1 PUSH1 0xA0 SHL SUB AND PUSH1 0x0 SWAP1 DUP2 MSTORE PUSH1 0x18 PUSH1 0x20 MSTORE PUSH1 0x40 SWAP1 KECCAK256 SLOAD PUSH1 0xFF AND DUP1 ISZERO PUSH2 0x3001 JUMPI POP PUSH1 0x20 DUP1 DUP6 ADD MLOAD PUSH1 0x1 PUSH1 0x1 PUSH1 0xA0 SHL SUB AND PUSH1 0x0 SWAP1 DUP2 MSTORE PUSH1 0x18 SWAP1 SWAP2 MSTORE PUSH1 0x40 SWAP1 KECCAK256 SLOAD PUSH1 0xFF AND JUMPDEST PUSH2 0x301D JUMPI PUSH1 0x40 MLOAD PUSH3 0x461BCD PUSH1 0xE5 SHL DUP2 MSTORE PUSH1 0x4 ADD PUSH2 0x6BD SWAP1 PUSH2 0x547E JUMP JUMPDEST PUSH1 0xF DUP1 SLOAD PUSH1 0xE DUP1 SLOAD PUSH1 0x0 SWAP1 DUP2 MSTORE PUSH1 0x16 PUSH1 0x20 MSTORE PUSH1 0x40 DUP2 KECCAK256 DUP4 SWAP1 SSTORE SWAP1 SLOAD PUSH1 0x1 DUP4 ADD DUP5 SSTORE SWAP3 SWAP1 MSTORE PUSH32 0x8D1108E10BCB7C27DDDFC02ED9D693A074039D026CF4EA4240B40F7D581AC802 ADD SSTORE PUSH1 0x10 SLOAD DUP7 EQ ISZERO PUSH2 0x30C3 JUMPI PUSH1 0x40 DUP1 MLOAD PUSH1 0x20 DUP2 ADD SWAP1 SWAP2 MSTORE PUSH1 0xE SLOAD DUP2 MSTORE PUSH1 0x10 DUP1 SLOAD PUSH1 0x1 DUP2 DUP2 ADD DUP4 SSTORE PUSH1 0x0 SWAP3 SWAP1 SWAP3 MSTORE PUSH2 0x30BD SWAP3 PUSH32 0x1B6847DC741A1B0CD08D278845F9D819D87B734759AFB55FE2DE5CB82A9AE672 SWAP1 SWAP2 ADD SWAP2 PUSH2 0x481E JUMP JUMPDEST POP PUSH2 0x3252 JUMP JUMPDEST PUSH1 0x10 DUP7 DUP2 SLOAD DUP2 LT PUSH2 0x30D0 JUMPI INVALID JUMPDEST PUSH1 0x0 SWAP2 DUP3 MSTORE PUSH1 0x20 SWAP1 SWAP2 KECCAK256 ADD SLOAD PUSH2 0x3116 JUMPI PUSH1 0x40 DUP1 MLOAD PUSH1 0x20 DUP2 ADD SWAP1 SWAP2 MSTORE PUSH1 0xE SLOAD DUP2 MSTORE PUSH1 0x10 DUP1 SLOAD DUP9 SWAP1 DUP2 LT PUSH2 0x30FE JUMPI INVALID JUMPDEST SWAP1 PUSH1 0x0 MSTORE PUSH1 0x20 PUSH1 0x0 KECCAK256 ADD SWAP1 PUSH1 0x1 PUSH2 0x30BD SWAP3 SWAP2 SWAP1 PUSH2 0x481E JUMP JUMPDEST PUSH1 0x60 PUSH2 0x313C PUSH1 0x1 PUSH1 0x10 DUP10 DUP2 SLOAD DUP2 LT PUSH2 0x312A JUMPI INVALID JUMPDEST PUSH1 0x0 SWAP2 DUP3 MSTORE PUSH1 0x20 SWAP1 SWAP2 KECCAK256 ADD SLOAD SWAP1 PUSH2 0x2839 JUMP JUMPDEST PUSH1 0x1 PUSH1 0x1 PUSH1 0x40 SHL SUB DUP2 GT DUP1 ISZERO PUSH2 0x3151 JUMPI PUSH1 0x0 DUP1 REVERT JUMPDEST POP PUSH1 0x40 MLOAD SWAP1 DUP1 DUP3 MSTORE DUP1 PUSH1 0x20 MUL PUSH1 0x20 ADD DUP3 ADD PUSH1 0x40 MSTORE DUP1 ISZERO PUSH2 0x317B JUMPI DUP2 PUSH1 0x20 ADD PUSH1 0x20 DUP3 MUL DUP1 CALLDATASIZE DUP4 CALLDATACOPY ADD SWAP1 POP JUMPDEST POP SWAP1 POP PUSH1 0x0 JUMPDEST PUSH1 0x10 DUP9 DUP2 SLOAD DUP2 LT PUSH2 0x318E JUMPI INVALID JUMPDEST PUSH1 0x0 SWAP2 DUP3 MSTORE PUSH1 0x20 SWAP1 SWAP2 KECCAK256 ADD SLOAD DUP2 LT ISZERO PUSH2 0x31ED JUMPI PUSH1 0x10 DUP9 DUP2 SLOAD DUP2 LT PUSH2 0x31AE JUMPI INVALID JUMPDEST SWAP1 PUSH1 0x0 MSTORE PUSH1 0x20 PUSH1 0x0 KECCAK256 ADD DUP2 DUP2 SLOAD DUP2 LT PUSH2 0x31C3 JUMPI INVALID JUMPDEST SWAP1 PUSH1 0x0 MSTORE PUSH1 0x20 PUSH1 0x0 KECCAK256 ADD SLOAD DUP3 DUP3 DUP2 MLOAD DUP2 LT PUSH2 0x31DA JUMPI INVALID JUMPDEST PUSH1 0x20 SWAP1 DUP2 MUL SWAP2 SWAP1 SWAP2 ADD ADD MSTORE PUSH1 0x1 ADD PUSH2 0x3181 JUMP JUMPDEST POP PUSH1 0xE DUP1 SLOAD SWAP1 POP DUP2 PUSH1 0x10 DUP10 DUP2 SLOAD DUP2 LT PUSH2 0x3202 JUMPI INVALID JUMPDEST PUSH1 0x0 SWAP2 DUP3 MSTORE PUSH1 0x20 SWAP1 SWAP2 KECCAK256 ADD SLOAD DUP2 MLOAD DUP2 LT PUSH2 0x3218 JUMPI INVALID JUMPDEST PUSH1 0x20 MUL PUSH1 0x20 ADD ADD DUP2 DUP2 MSTORE POP POP DUP1 PUSH1 0x10 DUP9 DUP2 SLOAD DUP2 LT PUSH2 0x3232 JUMPI INVALID JUMPDEST SWAP1 PUSH1 0x0 MSTORE PUSH1 0x20 PUSH1 0x0 KECCAK256 ADD SWAP1 DUP1 MLOAD SWAP1 PUSH1 0x20 ADD SWAP1 PUSH2 0x324F SWAP3 SWAP2 SWAP1 PUSH2 0x481E JUMP JUMPDEST POP POP JUMPDEST PUSH1 0x0 DUP7 DUP2 MSTORE PUSH1 0x13 PUSH1 0x20 MSTORE PUSH1 0x40 SWAP1 KECCAK256 SLOAD DUP6 EQ ISZERO PUSH2 0x32B4 JUMPI PUSH1 0x40 DUP1 MLOAD PUSH1 0x20 DUP1 DUP3 ADD DUP4 MSTORE PUSH1 0xE SLOAD DUP3 MSTORE PUSH1 0x0 DUP10 DUP2 MSTORE PUSH1 0x12 DUP3 MSTORE DUP4 DUP2 KECCAK256 DUP10 DUP3 MSTORE SWAP1 SWAP2 MSTORE SWAP2 SWAP1 SWAP2 KECCAK256 PUSH2 0x3299 SWAP2 PUSH1 0x1 PUSH2 0x481E JUMP JUMPDEST POP PUSH1 0x0 DUP7 DUP2 MSTORE PUSH1 0x13 PUSH1 0x20 MSTORE PUSH1 0x40 SWAP1 KECCAK256 DUP1 SLOAD PUSH1 0x1 ADD SWAP1 SSTORE PUSH2 0x33F1 JUMP JUMPDEST PUSH1 0x0 DUP7 DUP2 MSTORE PUSH1 0x12 PUSH1 0x20 SWAP1 DUP2 MSTORE PUSH1 0x40 DUP1 DUP4 KECCAK256 DUP9 DUP5 MSTORE SWAP1 SWAP2 MSTORE SWAP1 KECCAK256 SLOAD PUSH1 0x60 SWAP1 PUSH2 0x32DC SWAP1 PUSH1 0x1 PUSH2 0x2839 JUMP JUMPDEST PUSH1 0x1 PUSH1 0x1 PUSH1 0x40 SHL SUB DUP2 GT DUP1 ISZERO PUSH2 0x32F1 JUMPI PUSH1 0x0 DUP1 REVERT JUMPDEST POP PUSH1 0x40 MLOAD SWAP1 DUP1 DUP3 MSTORE DUP1 PUSH1 0x20 MUL PUSH1 0x20 ADD DUP3 ADD PUSH1 0x40 MSTORE DUP1 ISZERO PUSH2 0x331B JUMPI DUP2 PUSH1 0x20 ADD PUSH1 0x20 DUP3 MUL DUP1 CALLDATASIZE DUP4 CALLDATACOPY ADD SWAP1 POP JUMPDEST POP SWAP1 POP PUSH1 0x0 JUMPDEST PUSH1 0x0 DUP9 DUP2 MSTORE PUSH1 0x12 PUSH1 0x20 SWAP1 DUP2 MSTORE PUSH1 0x40 DUP1 DUP4 KECCAK256 DUP11 DUP5 MSTORE SWAP1 SWAP2 MSTORE SWAP1 KECCAK256 SLOAD DUP2 LT ISZERO PUSH2 0x3391 JUMPI PUSH1 0x0 DUP9 DUP2 MSTORE PUSH1 0x12 PUSH1 0x20 SWAP1 DUP2 MSTORE PUSH1 0x40 DUP1 DUP4 KECCAK256 DUP11 DUP5 MSTORE SWAP1 SWAP2 MSTORE SWAP1 KECCAK256 DUP1 SLOAD DUP3 SWAP1 DUP2 LT PUSH2 0x3367 JUMPI INVALID JUMPDEST SWAP1 PUSH1 0x0 MSTORE PUSH1 0x20 PUSH1 0x0 KECCAK256 ADD SLOAD DUP3 DUP3 DUP2 MLOAD DUP2 LT PUSH2 0x337E JUMPI INVALID JUMPDEST PUSH1 0x20 SWAP1 DUP2 MUL SWAP2 SWAP1 SWAP2 ADD ADD MSTORE PUSH1 0x1 ADD PUSH2 0x3321 JUMP JUMPDEST POP PUSH1 0xE SLOAD PUSH1 0x0 DUP9 DUP2 MSTORE PUSH1 0x12 PUSH1 0x20 SWAP1 DUP2 MSTORE PUSH1 0x40 DUP1 DUP4 KECCAK256 DUP11 DUP5 MSTORE SWAP1 SWAP2 MSTORE SWAP1 KECCAK256 SLOAD DUP3 MLOAD DUP4 SWAP2 SWAP1 DUP2 LT PUSH2 0x33BC JUMPI INVALID JUMPDEST PUSH1 0x20 SWAP1 DUP2 MUL SWAP2 SWAP1 SWAP2 ADD DUP2 ADD SWAP2 SWAP1 SWAP2 MSTORE PUSH1 0x0 DUP9 DUP2 MSTORE PUSH1 0x12 DUP3 MSTORE PUSH1 0x40 DUP1 DUP3 KECCAK256 DUP10 DUP4 MSTORE DUP4 MSTORE SWAP1 KECCAK256 DUP3 MLOAD PUSH2 0x33EE SWAP3 DUP5 ADD SWAP1 PUSH2 0x481E JUMP JUMPDEST POP POP JUMPDEST PUSH1 0x0 DUP7 DUP2 MSTORE PUSH1 0x11 PUSH1 0x20 SWAP1 DUP2 MSTORE PUSH1 0x40 DUP1 DUP4 KECCAK256 DUP9 DUP5 MSTORE SWAP1 SWAP2 MSTORE SWAP1 KECCAK256 DUP1 SLOAD PUSH1 0x1 SWAP1 DUP2 ADD SWAP1 SWAP2 SSTORE PUSH1 0x14 DUP1 SLOAD PUSH2 0x3428 SWAP3 SWAP2 SWAP1 DUP10 SWAP1 DUP2 LT PUSH2 0x2484 JUMPI INVALID JUMPDEST PUSH1 0x0 DUP8 DUP2 MSTORE PUSH1 0x11 PUSH1 0x20 SWAP1 DUP2 MSTORE PUSH1 0x40 DUP1 DUP4 KECCAK256 DUP10 DUP5 MSTORE SWAP1 SWAP2 MSTORE SWAP1 KECCAK256 SLOAD GT ISZERO PUSH2 0x3460 JUMPI PUSH1 0x40 MLOAD PUSH3 0x461BCD PUSH1 0xE5 SHL DUP2 MSTORE PUSH1 0x4 ADD PUSH2 0x6BD SWAP1 PUSH2 0x5402 JUMP JUMPDEST PUSH1 0x40 DUP1 MLOAD PUSH1 0xE0 DUP2 ADD DUP3 MSTORE DUP8 DUP2 MSTORE PUSH1 0x20 DUP2 ADD DUP8 DUP2 MSTORE PUSH1 0xE DUP1 SLOAD SWAP4 DUP4 ADD DUP5 DUP2 MSTORE PUSH1 0x0 PUSH1 0x60 DUP6 ADD DUP2 DUP2 MSTORE PUSH1 0x80 DUP7 ADD DUP12 DUP2 MSTORE PUSH1 0xA0 DUP8 ADD DUP12 SWAP1 MSTORE PUSH1 0xC0 DUP8 ADD DUP11 SWAP1 MSTORE PUSH1 0x1 DUP9 ADD DUP6 SSTORE SWAP4 SWAP1 SWAP2 MSTORE DUP5 MLOAD PUSH1 0xA SWAP1 SWAP7 MUL PUSH32 0xBB7B4A454DC3493923482F07822329ED19E8244EFF582CC204F8554C3620C3FD DUP2 ADD SWAP7 DUP8 SSTORE SWAP4 MLOAD PUSH32 0xBB7B4A454DC3493923482F07822329ED19E8244EFF582CC204F8554C3620C3FE DUP6 ADD SSTORE SWAP1 MLOAD PUSH32 0xBB7B4A454DC3493923482F07822329ED19E8244EFF582CC204F8554C3620C3FF DUP5 ADD SSTORE MLOAD PUSH32 0xBB7B4A454DC3493923482F07822329ED19E8244EFF582CC204F8554C3620C400 DUP4 ADD SSTORE MLOAD SWAP2 SWAP3 SWAP2 PUSH2 0x3576 SWAP2 PUSH32 0xBB7B4A454DC3493923482F07822329ED19E8244EFF582CC204F8554C3620C401 ADD SWAP1 PUSH1 0x2 PUSH2 0x4858 JUMP JUMPDEST POP PUSH1 0xA0 DUP3 ADD MLOAD PUSH2 0x358C SWAP1 PUSH1 0x6 DUP4 ADD SWAP1 PUSH1 0x3 PUSH2 0x48AC JUMP JUMPDEST POP PUSH1 0xC0 DUP3 ADD MLOAD DUP1 MLOAD PUSH2 0x35A8 SWAP2 PUSH1 0x9 DUP5 ADD SWAP2 PUSH1 0x20 SWAP1 SWAP2 ADD SWAP1 PUSH2 0x481E JUMP JUMPDEST POP POP PUSH1 0xE SLOAD PUSH2 0x35B9 SWAP2 POP PUSH1 0x1 PUSH2 0x27F7 JUMP JUMPDEST SWAP7 SWAP6 POP POP POP POP POP POP JUMP JUMPDEST DUP2 PUSH1 0x1 PUSH1 0x1 PUSH1 0xA0 SHL SUB AND PUSH2 0x35D6 DUP3 PUSH2 0xBFA JUMP JUMPDEST PUSH1 0x1 PUSH1 0x1 PUSH1 0xA0 SHL SUB AND EQ PUSH2 0x35FC JUMPI PUSH1 0x40 MLOAD PUSH3 0x461BCD PUSH1 0xE5 SHL DUP2 MSTORE PUSH1 0x4 ADD PUSH2 0x6BD SWAP1 PUSH2 0x5256 JUMP JUMPDEST PUSH2 0x3604 PUSH2 0x4768 JUMP JUMPDEST PUSH1 0x14 DUP3 DUP2 SLOAD DUP2 LT PUSH2 0x3611 JUMPI INVALID JUMPDEST SWAP1 PUSH1 0x0 MSTORE PUSH1 0x20 PUSH1 0x0 KECCAK256 SWAP1 PUSH1 0x3 MUL ADD PUSH1 0x40 MLOAD DUP1 PUSH1 0x60 ADD PUSH1 0x40 MSTORE SWAP1 DUP2 PUSH1 0x0 DUP3 ADD DUP1 SLOAD DUP1 PUSH1 0x20 MUL PUSH1 0x20 ADD PUSH1 0x40 MLOAD SWAP1 DUP2 ADD PUSH1 0x40 MSTORE DUP1 SWAP3 SWAP2 SWAP1 DUP2 DUP2 MSTORE PUSH1 0x20 ADD DUP3 DUP1 SLOAD DUP1 ISZERO PUSH2 0x3683 JUMPI PUSH1 0x20 MUL DUP3 ADD SWAP2 SWAP1 PUSH1 0x0 MSTORE PUSH1 0x20 PUSH1 0x0 KECCAK256 SWAP1 JUMPDEST DUP2 SLOAD PUSH1 0x1 PUSH1 0x1 PUSH1 0xA0 SHL SUB AND DUP2 MSTORE PUSH1 0x1 SWAP1 SWAP2 ADD SWAP1 PUSH1 0x20 ADD DUP1 DUP4 GT PUSH2 0x3665 JUMPI JUMPDEST POP POP POP POP POP DUP2 MSTORE PUSH1 0x20 ADD PUSH1 0x1 DUP3 ADD DUP1 SLOAD DUP1 PUSH1 0x20 MUL PUSH1 0x20 ADD PUSH1 0x40 MLOAD SWAP1 DUP2 ADD PUSH1 0x40 MSTORE DUP1 SWAP3 SWAP2 SWAP1 DUP2 DUP2 MSTORE PUSH1 0x20 ADD DUP3 DUP1 SLOAD DUP1 ISZERO PUSH2 0x36DB JUMPI PUSH1 0x20 MUL DUP3 ADD SWAP2 SWAP1 PUSH1 0x0 MSTORE PUSH1 0x20 PUSH1 0x0 KECCAK256 SWAP1 JUMPDEST DUP2 SLOAD DUP2 MSTORE PUSH1 0x20 ADD SWAP1 PUSH1 0x1 ADD SWAP1 DUP1 DUP4 GT PUSH2 0x36C7 JUMPI JUMPDEST POP POP POP POP POP DUP2 MSTORE PUSH1 0x20 ADD PUSH1 0x2 DUP3 ADD DUP1 SLOAD DUP1 PUSH1 0x20 MUL PUSH1 0x20 ADD PUSH1 0x40 MLOAD SWAP1 DUP2 ADD PUSH1 0x40 MSTORE DUP1 SWAP3 SWAP2 SWAP1 DUP2 DUP2 MSTORE PUSH1 0x20 ADD DUP3 DUP1 SLOAD DUP1 ISZERO PUSH2 0x3733 JUMPI PUSH1 0x20 MUL DUP3 ADD SWAP2 SWAP1 PUSH1 0x0 MSTORE PUSH1 0x20 PUSH1 0x0 KECCAK256 SWAP1 JUMPDEST DUP2 SLOAD DUP2 MSTORE PUSH1 0x20 ADD SWAP1 PUSH1 0x1 ADD SWAP1 DUP1 DUP4 GT PUSH2 0x371F JUMPI JUMPDEST POP POP POP POP POP DUP2 MSTORE POP POP SWAP1 POP PUSH1 0x0 JUMPDEST DUP2 MLOAD MLOAD DUP2 LT ISZERO PUSH2 0x390A JUMPI PUSH1 0x0 DUP4 DUP2 MSTORE PUSH1 0x15 PUSH1 0x20 MSTORE PUSH1 0x40 DUP2 KECCAK256 DUP4 MLOAD DUP1 MLOAD DUP4 SWAP2 SWAP1 DUP6 SWAP1 DUP2 LT PUSH2 0x376A JUMPI INVALID JUMPDEST PUSH1 0x20 MUL PUSH1 0x20 ADD ADD MLOAD PUSH1 0x1 PUSH1 0x1 PUSH1 0xA0 SHL SUB AND PUSH1 0x1 PUSH1 0x1 PUSH1 0xA0 SHL SUB AND DUP2 MSTORE PUSH1 0x20 ADD SWAP1 DUP2 MSTORE PUSH1 0x20 ADD PUSH1 0x0 KECCAK256 SLOAD GT ISZERO PUSH2 0x3902 JUMPI PUSH1 0x19 PUSH1 0x0 DUP4 PUSH1 0x0 ADD MLOAD DUP4 DUP2 MLOAD DUP2 LT PUSH2 0x37AD JUMPI INVALID JUMPDEST PUSH1 0x20 MUL PUSH1 0x20 ADD ADD MLOAD PUSH1 0x1 PUSH1 0x1 PUSH1 0xA0 SHL SUB AND PUSH1 0x1 PUSH1 0x1 PUSH1 0xA0 SHL SUB AND DUP2 MSTORE PUSH1 0x20 ADD SWAP1 DUP2 MSTORE PUSH1 0x20 ADD PUSH1 0x0 KECCAK256 PUSH1 0x0 SWAP1 SLOAD SWAP1 PUSH2 0x100 EXP SWAP1 DIV PUSH1 0x1 PUSH1 0x1 PUSH1 0xA0 SHL SUB AND PUSH1 0x1 PUSH1 0x1 PUSH1 0xA0 SHL SUB AND PUSH4 0xD9CAED12 DUP6 DUP5 PUSH1 0x0 ADD MLOAD DUP5 DUP2 MLOAD DUP2 LT PUSH2 0x3808 JUMPI INVALID JUMPDEST PUSH1 0x20 MUL PUSH1 0x20 ADD ADD MLOAD PUSH1 0x15 PUSH1 0x0 DUP9 DUP2 MSTORE PUSH1 0x20 ADD SWAP1 DUP2 MSTORE PUSH1 0x20 ADD PUSH1 0x0 KECCAK256 PUSH1 0x0 DUP8 PUSH1 0x0 ADD MLOAD DUP8 DUP2 MLOAD DUP2 LT PUSH2 0x3835 JUMPI INVALID JUMPDEST PUSH1 0x20 MUL PUSH1 0x20 ADD ADD MLOAD PUSH1 0x1 PUSH1 0x1 PUSH1 0xA0 SHL SUB AND PUSH1 0x1 PUSH1 0x1 PUSH1 0xA0 SHL SUB AND DUP2 MSTORE PUSH1 0x20 ADD SWAP1 DUP2 MSTORE PUSH1 0x20 ADD PUSH1 0x0 KECCAK256 SLOAD PUSH1 0x40 MLOAD DUP5 PUSH4 0xFFFFFFFF AND PUSH1 0xE0 SHL DUP2 MSTORE PUSH1 0x4 ADD PUSH2 0x387C SWAP4 SWAP3 SWAP2 SWAP1 PUSH2 0x50D1 JUMP JUMPDEST PUSH1 0x0 PUSH1 0x40 MLOAD DUP1 DUP4 SUB DUP2 PUSH1 0x0 DUP8 DUP1 EXTCODESIZE ISZERO DUP1 ISZERO PUSH2 0x3896 JUMPI PUSH1 0x0 DUP1 REVERT JUMPDEST POP GAS CALL ISZERO DUP1 ISZERO PUSH2 0x38AA JUMPI RETURNDATASIZE PUSH1 0x0 DUP1 RETURNDATACOPY RETURNDATASIZE PUSH1 0x0 REVERT JUMPDEST POP POP POP POP PUSH1 0x0 PUSH1 0x15 PUSH1 0x0 DUP6 DUP2 MSTORE PUSH1 0x20 ADD SWAP1 DUP2 MSTORE PUSH1 0x20 ADD PUSH1 0x0 KECCAK256 PUSH1 0x0 DUP5 PUSH1 0x0 ADD MLOAD DUP5 DUP2 MLOAD DUP2 LT PUSH2 0x38D5 JUMPI INVALID JUMPDEST PUSH1 0x20 MUL PUSH1 0x20 ADD ADD MLOAD PUSH1 0x1 PUSH1 0x1 PUSH1 0xA0 SHL SUB AND PUSH1 0x1 PUSH1 0x1 PUSH1 0xA0 SHL SUB AND DUP2 MSTORE PUSH1 0x20 ADD SWAP1 DUP2 MSTORE PUSH1 0x20 ADD PUSH1 0x0 KECCAK256 DUP2 SWAP1 SSTORE POP JUMPDEST PUSH1 0x1 ADD PUSH2 0x3741 JUMP JUMPDEST POP PUSH1 0x60 PUSH1 0x10 DUP4 DUP2 SLOAD DUP2 LT PUSH2 0x391A JUMPI INVALID JUMPDEST SWAP1 PUSH1 0x0 MSTORE PUSH1 0x20 PUSH1 0x0 KECCAK256 ADD DUP1 SLOAD DUP1 PUSH1 0x20 MUL PUSH1 0x20 ADD PUSH1 0x40 MLOAD SWAP1 DUP2 ADD PUSH1 0x40 MSTORE DUP1 SWAP3 SWAP2 SWAP1 DUP2 DUP2 MSTORE PUSH1 0x20 ADD DUP3 DUP1 SLOAD DUP1 ISZERO PUSH2 0x396E JUMPI PUSH1 0x20 MUL DUP3 ADD SWAP2 SWAP1 PUSH1 0x0 MSTORE PUSH1 0x20 PUSH1 0x0 KECCAK256 SWAP1 JUMPDEST DUP2 SLOAD DUP2 MSTORE PUSH1 0x20 ADD SWAP1 PUSH1 0x1 ADD SWAP1 DUP1 DUP4 GT PUSH2 0x395A JUMPI JUMPDEST POP POP POP POP POP SWAP1 POP PUSH1 0x0 JUMPDEST DUP2 MLOAD DUP2 LT ISZERO PUSH2 0x39DB JUMPI PUSH2 0x399D DUP3 DUP3 DUP2 MLOAD DUP2 LT PUSH2 0x3990 JUMPI INVALID JUMPDEST PUSH1 0x20 MUL PUSH1 0x20 ADD ADD MLOAD PUSH2 0x4059 JUMP JUMPDEST PUSH1 0x1 PUSH1 0xE DUP4 DUP4 DUP2 MLOAD DUP2 LT PUSH2 0x39AD JUMPI INVALID JUMPDEST PUSH1 0x20 MUL PUSH1 0x20 ADD ADD MLOAD DUP2 SLOAD DUP2 LT PUSH2 0x39BF JUMPI INVALID JUMPDEST PUSH1 0x0 SWAP2 DUP3 MSTORE PUSH1 0x20 SWAP1 SWAP2 KECCAK256 PUSH1 0x3 PUSH1 0xA SWAP1 SWAP3 MUL ADD ADD SSTORE PUSH1 0x1 ADD PUSH2 0x3978 JUMP JUMPDEST POP PUSH1 0x10 DUP4 DUP2 SLOAD DUP2 LT PUSH2 0x39E9 JUMPI INVALID JUMPDEST SWAP1 PUSH1 0x0 MSTORE PUSH1 0x20 PUSH1 0x0 KECCAK256 ADD PUSH1 0x0 PUSH2 0x39FF SWAP2 SWAP1 PUSH2 0x48D9 JUMP JUMPDEST PUSH2 0x125A DUP4 PUSH2 0x412B JUMP JUMPDEST PUSH1 0x0 PUSH2 0x3A14 DUP4 DUP4 PUSH2 0x3AE9 JUMP JUMPDEST PUSH2 0x3A4A JUMPI POP DUP2 SLOAD PUSH1 0x1 DUP2 DUP2 ADD DUP5 SSTORE PUSH1 0x0 DUP5 DUP2 MSTORE PUSH1 0x20 DUP1 DUP3 KECCAK256 SWAP1 SWAP4 ADD DUP5 SWAP1 SSTORE DUP5 SLOAD DUP5 DUP3 MSTORE DUP3 DUP7 ADD SWAP1 SWAP4 MSTORE PUSH1 0x40 SWAP1 KECCAK256 SWAP2 SWAP1 SWAP2 SSTORE PUSH2 0x976 JUMP JUMPDEST POP PUSH1 0x0 PUSH2 0x976 JUMP JUMPDEST PUSH1 0x0 DUP3 DUP2 MSTORE PUSH1 0x1 DUP5 ADD PUSH1 0x20 MSTORE PUSH1 0x40 DUP2 KECCAK256 SLOAD DUP1 PUSH2 0x3AB7 JUMPI POP POP PUSH1 0x40 DUP1 MLOAD DUP1 DUP3 ADD DUP3 MSTORE DUP4 DUP2 MSTORE PUSH1 0x20 DUP1 DUP3 ADD DUP5 DUP2 MSTORE DUP7 SLOAD PUSH1 0x1 DUP2 DUP2 ADD DUP10 SSTORE PUSH1 0x0 DUP10 DUP2 MSTORE DUP5 DUP2 KECCAK256 SWAP6 MLOAD PUSH1 0x2 SWAP1 SWAP4 MUL SWAP1 SWAP6 ADD SWAP2 DUP3 SSTORE SWAP2 MLOAD SWAP1 DUP3 ADD SSTORE DUP7 SLOAD DUP7 DUP5 MSTORE DUP2 DUP9 ADD SWAP1 SWAP3 MSTORE SWAP3 SWAP1 SWAP2 KECCAK256 SSTORE PUSH2 0x1A18 JUMP JUMPDEST DUP3 DUP6 PUSH1 0x0 ADD PUSH1 0x1 DUP4 SUB DUP2 SLOAD DUP2 LT PUSH2 0x3ACA JUMPI INVALID JUMPDEST SWAP1 PUSH1 0x0 MSTORE PUSH1 0x20 PUSH1 0x0 KECCAK256 SWAP1 PUSH1 0x2 MUL ADD PUSH1 0x1 ADD DUP2 SWAP1 SSTORE POP PUSH1 0x0 SWAP2 POP POP PUSH2 0x1A18 JUMP JUMPDEST PUSH1 0x0 SWAP1 DUP2 MSTORE PUSH1 0x1 SWAP2 SWAP1 SWAP2 ADD PUSH1 0x20 MSTORE PUSH1 0x40 SWAP1 KECCAK256 SLOAD ISZERO ISZERO SWAP1 JUMP JUMPDEST SLOAD SWAP1 JUMP JUMPDEST PUSH1 0x0 PUSH2 0x973 DUP4 DUP4 PUSH2 0x41F8 JUMP JUMPDEST DUP2 SLOAD PUSH1 0x0 SWAP1 DUP3 LT PUSH2 0x3B34 JUMPI PUSH1 0x40 MLOAD PUSH3 0x461BCD PUSH1 0xE5 SHL DUP2 MSTORE PUSH1 0x4 ADD PUSH2 0x6BD SWAP1 PUSH2 0x51C6 JUMP JUMPDEST DUP3 PUSH1 0x0 ADD DUP3 DUP2 SLOAD DUP2 LT PUSH2 0x1037 JUMPI INVALID JUMPDEST DUP2 SLOAD PUSH1 0x0 SWAP1 DUP2 SWAP1 DUP4 LT PUSH2 0x3B68 JUMPI PUSH1 0x40 MLOAD PUSH3 0x461BCD PUSH1 0xE5 SHL DUP2 MSTORE PUSH1 0x4 ADD PUSH2 0x6BD SWAP1 PUSH2 0x5697 JUMP JUMPDEST PUSH1 0x0 DUP5 PUSH1 0x0 ADD DUP5 DUP2 SLOAD DUP2 LT PUSH2 0x3B79 JUMPI INVALID JUMPDEST SWAP1 PUSH1 0x0 MSTORE PUSH1 0x20 PUSH1 0x0 KECCAK256 SWAP1 PUSH1 0x2 MUL ADD SWAP1 POP DUP1 PUSH1 0x0 ADD SLOAD DUP2 PUSH1 0x1 ADD SLOAD SWAP3 POP SWAP3 POP POP SWAP3 POP SWAP3 SWAP1 POP JUMP JUMPDEST PUSH2 0x775 DUP4 PUSH4 0xA9059CBB PUSH1 0xE0 SHL DUP5 DUP5 PUSH1 0x40 MLOAD PUSH1 0x24 ADD PUSH2 0x3BBE SWAP3 SWAP2 SWAP1 PUSH2 0x50F5 JUMP JUMPDEST PUSH1 0x40 DUP1 MLOAD PUSH1 0x1F NOT DUP2 DUP5 SUB ADD DUP2 MSTORE SWAP2 SWAP1 MSTORE PUSH1 0x20 DUP2 ADD DUP1 MLOAD PUSH1 0x1 PUSH1 0x1 PUSH1 0xE0 SHL SUB AND PUSH1 0x1 PUSH1 0x1 PUSH1 0xE0 SHL SUB NOT SWAP1 SWAP4 AND SWAP3 SWAP1 SWAP3 OR SWAP1 SWAP2 MSTORE PUSH2 0x42BE JUMP JUMPDEST PUSH2 0x3BFD PUSH2 0x471F JUMP JUMPDEST PUSH2 0x3C06 DUP3 PUSH2 0x7BE JUMP JUMPDEST PUSH1 0xA0 DUP2 ADD MLOAD PUSH1 0x20 SWAP1 DUP2 ADD MLOAD DUP3 MLOAD PUSH1 0x0 SWAP1 DUP2 MSTORE PUSH1 0x15 DUP4 MSTORE PUSH1 0x40 DUP1 DUP3 KECCAK256 PUSH1 0x80 DUP7 ADD MLOAD DUP6 ADD MLOAD PUSH1 0x1 PUSH1 0x1 PUSH1 0xA0 SHL SUB AND DUP4 MSTORE SWAP1 SWAP4 MSTORE SWAP2 SWAP1 SWAP2 KECCAK256 SLOAD SWAP2 SWAP3 POP PUSH2 0x3C49 SWAP2 SWAP1 PUSH2 0x2839 JUMP JUMPDEST DUP2 MLOAD PUSH1 0x0 SWAP1 DUP2 MSTORE PUSH1 0x15 PUSH1 0x20 DUP2 DUP2 MSTORE PUSH1 0x40 DUP1 DUP5 KECCAK256 PUSH1 0x80 DUP8 ADD DUP1 MLOAD DUP5 ADD MLOAD PUSH1 0x1 PUSH1 0x1 PUSH1 0xA0 SHL SUB SWAP1 DUP2 AND DUP8 MSTORE SWAP2 DUP5 MSTORE DUP3 DUP7 KECCAK256 SWAP7 SWAP1 SWAP7 SSTORE PUSH1 0xA0 DUP8 ADD MLOAD MLOAD DUP8 MLOAD DUP7 MSTORE SWAP4 DUP4 MSTORE DUP2 DUP6 KECCAK256 SWAP6 MLOAD MLOAD AND DUP5 MSTORE SWAP4 SWAP1 MSTORE SWAP2 SWAP1 KECCAK256 SLOAD PUSH2 0x3CA2 SWAP2 PUSH2 0x27F7 JUMP JUMPDEST DUP2 MLOAD PUSH1 0x0 SWAP1 DUP2 MSTORE PUSH1 0x15 PUSH1 0x20 SWAP1 DUP2 MSTORE PUSH1 0x40 DUP1 DUP4 KECCAK256 PUSH1 0x80 DUP7 ADD MLOAD MLOAD PUSH1 0x1 PUSH1 0x1 PUSH1 0xA0 SHL SUB AND DUP5 MSTORE SWAP1 SWAP2 MSTORE SWAP1 KECCAK256 SSTORE PUSH1 0xE DUP1 SLOAD TIMESTAMP SWAP2 SWAP1 DUP5 SWAP1 DUP2 LT PUSH2 0x3CDD JUMPI INVALID JUMPDEST SWAP1 PUSH1 0x0 MSTORE PUSH1 0x20 PUSH1 0x0 KECCAK256 SWAP1 PUSH1 0xA MUL ADD PUSH1 0x3 ADD DUP2 SWAP1 SSTORE POP PUSH2 0x19CE DUP3 PUSH2 0x43A3 JUMP JUMPDEST PUSH1 0x0 PUSH2 0x973 DUP4 DUP4 PUSH1 0x40 MLOAD DUP1 PUSH1 0x40 ADD PUSH1 0x40 MSTORE DUP1 PUSH1 0x1A DUP2 MSTORE PUSH1 0x20 ADD PUSH32 0x536166654D6174683A206469766973696F6E206279207A65726F000000000000 DUP2 MSTORE POP PUSH2 0x43CB JUMP JUMPDEST PUSH1 0x0 PUSH2 0x3DAA DUP9 DUP9 PUSH1 0x40 MLOAD DUP1 PUSH1 0x40 ADD PUSH1 0x40 MSTORE DUP1 DUP11 PUSH1 0x1 PUSH1 0x1 PUSH1 0xA0 SHL SUB AND PUSH1 0x1 PUSH1 0x1 PUSH1 0xA0 SHL SUB AND DUP2 MSTORE PUSH1 0x20 ADD DUP10 PUSH1 0x1 PUSH1 0x1 PUSH1 0xA0 SHL SUB AND PUSH1 0x1 PUSH1 0x1 PUSH1 0xA0 SHL SUB AND DUP2 MSTORE POP PUSH1 0x40 MLOAD DUP1 PUSH1 0x60 ADD PUSH1 0x40 MSTORE DUP1 DUP10 DUP2 MSTORE PUSH1 0x20 ADD PUSH2 0x3D9A DUP13 DUP13 DUP13 DUP13 PUSH2 0x2E1B JUMP JUMPDEST DUP2 MSTORE PUSH1 0x20 ADD PUSH1 0x0 DUP2 MSTORE POP DUP7 PUSH2 0x2F86 JUMP JUMPDEST SWAP9 SWAP8 POP POP POP POP POP POP POP POP JUMP JUMPDEST PUSH1 0x0 DUP3 DUP2 MSTORE PUSH1 0x1 DUP5 ADD PUSH1 0x20 MSTORE PUSH1 0x40 DUP2 KECCAK256 SLOAD DUP3 DUP2 PUSH2 0x3DE6 JUMPI PUSH1 0x40 MLOAD PUSH3 0x461BCD PUSH1 0xE5 SHL DUP2 MSTORE PUSH1 0x4 ADD PUSH2 0x6BD SWAP2 SWAP1 PUSH2 0x5184 JUMP JUMPDEST POP DUP5 PUSH1 0x0 ADD PUSH1 0x1 DUP3 SUB DUP2 SLOAD DUP2 LT PUSH2 0x3DF9 JUMPI INVALID JUMPDEST SWAP1 PUSH1 0x0 MSTORE PUSH1 0x20 PUSH1 0x0 KECCAK256 SWAP1 PUSH1 0x2 MUL ADD PUSH1 0x1 ADD SLOAD SWAP2 POP POP SWAP4 SWAP3 POP POP POP JUMP JUMPDEST PUSH1 0x0 PUSH2 0x3E29 DUP5 PUSH1 0x1 PUSH1 0x1 PUSH1 0xA0 SHL SUB AND PUSH2 0x1A1F JUMP JUMPDEST PUSH2 0x3E35 JUMPI POP PUSH1 0x1 PUSH2 0xBDD JUMP JUMPDEST PUSH1 0x0 PUSH1 0x60 PUSH1 0x1 PUSH1 0x1 PUSH1 0xA0 SHL SUB DUP7 AND PUSH4 0xA85BD01 PUSH1 0xE1 SHL PUSH2 0x3E53 PUSH2 0x1A71 JUMP JUMPDEST DUP10 DUP9 DUP9 PUSH1 0x40 MLOAD PUSH1 0x24 ADD PUSH2 0x3E69 SWAP5 SWAP4 SWAP3 SWAP2 SWAP1 PUSH2 0x509E JUMP JUMPDEST PUSH1 0x40 DUP1 MLOAD PUSH1 0x1F NOT DUP2 DUP5 SUB ADD DUP2 MSTORE SWAP2 DUP2 MSTORE PUSH1 0x20 DUP3 ADD DUP1 MLOAD PUSH1 0x1 PUSH1 0x1 PUSH1 0xE0 SHL SUB AND PUSH1 0x1 PUSH1 0x1 PUSH1 0xE0 SHL SUB NOT SWAP1 SWAP5 AND SWAP4 SWAP1 SWAP4 OR SWAP1 SWAP3 MSTORE SWAP1 MLOAD PUSH2 0x3EA7 SWAP2 SWAP1 PUSH2 0x4FED JUMP JUMPDEST PUSH1 0x0 PUSH1 0x40 MLOAD DUP1 DUP4 SUB DUP2 PUSH1 0x0 DUP7 GAS CALL SWAP2 POP POP RETURNDATASIZE DUP1 PUSH1 0x0 DUP2 EQ PUSH2 0x3EE4 JUMPI PUSH1 0x40 MLOAD SWAP2 POP PUSH1 0x1F NOT PUSH1 0x3F RETURNDATASIZE ADD AND DUP3 ADD PUSH1 0x40 MSTORE RETURNDATASIZE DUP3 MSTORE RETURNDATASIZE PUSH1 0x0 PUSH1 0x20 DUP5 ADD RETURNDATACOPY PUSH2 0x3EE9 JUMP JUMPDEST PUSH1 0x60 SWAP2 POP JUMPDEST POP SWAP2 POP SWAP2 POP DUP2 PUSH2 0x3F1B JUMPI DUP1 MLOAD ISZERO PUSH2 0x3F03 JUMPI DUP1 MLOAD DUP1 DUP3 PUSH1 0x20 ADD REVERT JUMPDEST PUSH1 0x40 MLOAD PUSH3 0x461BCD PUSH1 0xE5 SHL DUP2 MSTORE PUSH1 0x4 ADD PUSH2 0x6BD SWAP1 PUSH2 0x52E9 JUMP JUMPDEST PUSH1 0x0 DUP2 DUP1 PUSH1 0x20 ADD SWAP1 MLOAD DUP2 ADD SWAP1 PUSH2 0x3F31 SWAP2 SWAP1 PUSH2 0x4E5B JUMP JUMPDEST PUSH1 0x1 PUSH1 0x1 PUSH1 0xE0 SHL SUB NOT AND PUSH4 0xA85BD01 PUSH1 0xE1 SHL EQ SWAP4 POP PUSH2 0xBDD SWAP3 POP POP POP JUMP JUMPDEST PUSH1 0x0 DUP2 DUP5 DUP5 GT ISZERO PUSH2 0x3F73 JUMPI PUSH1 0x40 MLOAD PUSH3 0x461BCD PUSH1 0xE5 SHL DUP2 MSTORE PUSH1 0x4 ADD PUSH2 0x6BD SWAP2 SWAP1 PUSH2 0x5184 JUMP JUMPDEST POP POP POP SWAP1 SUB SWAP1 JUMP JUMPDEST PUSH1 0x40 DUP1 MLOAD PUSH1 0x60 DUP2 ADD DUP3 MSTORE DUP5 DUP2 MSTORE PUSH1 0x20 DUP1 DUP3 ADD DUP6 SWAP1 MSTORE SWAP2 DUP2 ADD DUP4 SWAP1 MSTORE PUSH1 0x14 DUP1 SLOAD PUSH1 0x1 DUP2 ADD DUP3 SSTORE PUSH1 0x0 SWAP2 SWAP1 SWAP2 MSTORE DUP2 MLOAD DUP1 MLOAD SWAP3 SWAP4 PUSH1 0x3 SWAP1 SWAP3 MUL PUSH32 0xCE6D7B5282BD9A3661AE061FEED1DBDA4E52AB073B1F9285BE6E155D9C38D4EC ADD SWAP3 PUSH2 0x3FE1 SWAP3 DUP5 SWAP3 ADD SWAP1 PUSH2 0x48F7 JUMP JUMPDEST POP PUSH1 0x20 DUP3 DUP2 ADD MLOAD DUP1 MLOAD PUSH2 0x3FFA SWAP3 PUSH1 0x1 DUP6 ADD SWAP3 ADD SWAP1 PUSH2 0x481E JUMP JUMPDEST POP PUSH1 0x40 DUP3 ADD MLOAD DUP1 MLOAD PUSH2 0x4016 SWAP2 PUSH1 0x2 DUP5 ADD SWAP2 PUSH1 0x20 SWAP1 SWAP2 ADD SWAP1 PUSH2 0x481E JUMP JUMPDEST POP POP POP POP POP POP JUMP JUMPDEST PUSH2 0x125A DUP5 PUSH4 0x23B872DD PUSH1 0xE0 SHL DUP6 DUP6 DUP6 PUSH1 0x40 MLOAD PUSH1 0x24 ADD PUSH2 0x3BBE SWAP4 SWAP3 SWAP2 SWAP1 PUSH2 0x50D1 JUMP JUMPDEST PUSH2 0x19CE DUP3 DUP3 PUSH1 0x40 MLOAD DUP1 PUSH1 0x20 ADD PUSH1 0x40 MSTORE DUP1 PUSH1 0x0 DUP2 MSTORE POP PUSH2 0x4402 JUMP JUMPDEST PUSH1 0xF DUP1 SLOAD PUSH2 0x4068 SWAP1 PUSH1 0x1 PUSH2 0x27F7 JUMP JUMPDEST DUP2 SLOAD DUP2 LT PUSH2 0x4072 JUMPI INVALID JUMPDEST SWAP1 PUSH1 0x0 MSTORE PUSH1 0x20 PUSH1 0x0 KECCAK256 ADD SLOAD PUSH1 0xF PUSH1 0x16 PUSH1 0x0 DUP5 DUP2 MSTORE PUSH1 0x20 ADD SWAP1 DUP2 MSTORE PUSH1 0x20 ADD PUSH1 0x0 KECCAK256 SLOAD DUP2 SLOAD DUP2 LT PUSH2 0x409D JUMPI INVALID JUMPDEST PUSH1 0x0 SWAP2 DUP3 MSTORE PUSH1 0x20 DUP1 DUP4 KECCAK256 SWAP1 SWAP2 ADD SWAP3 SWAP1 SWAP3 SSTORE DUP3 DUP2 MSTORE PUSH1 0x16 SWAP2 DUP3 SWAP1 MSTORE PUSH1 0x40 DUP2 KECCAK256 SLOAD PUSH1 0xF DUP1 SLOAD SWAP2 SWAP4 SWAP3 SWAP2 PUSH2 0x40CF SWAP1 PUSH1 0x1 PUSH2 0x27F7 JUMP JUMPDEST DUP2 SLOAD DUP2 LT PUSH2 0x40D9 JUMPI INVALID JUMPDEST SWAP1 PUSH1 0x0 MSTORE PUSH1 0x20 PUSH1 0x0 KECCAK256 ADD SLOAD DUP2 MSTORE PUSH1 0x20 ADD SWAP1 DUP2 MSTORE PUSH1 0x20 ADD PUSH1 0x0 KECCAK256 DUP2 SWAP1 SSTORE POP PUSH1 0xF DUP1 SLOAD DUP1 PUSH2 0x4101 JUMPI INVALID JUMPDEST PUSH1 0x0 DUP3 DUP2 MSTORE PUSH1 0x20 DUP1 DUP3 KECCAK256 DUP4 ADD PUSH1 0x0 NOT SWAP1 DUP2 ADD DUP4 SWAP1 SSTORE SWAP1 SWAP3 ADD SWAP1 SWAP3 SSTORE SWAP2 DUP2 MSTORE PUSH1 0x16 SWAP1 SWAP2 MSTORE PUSH1 0x40 DUP2 KECCAK256 SSTORE JUMP JUMPDEST PUSH1 0x0 PUSH2 0x4136 DUP3 PUSH2 0xBFA JUMP JUMPDEST SWAP1 POP PUSH2 0x4144 DUP2 PUSH1 0x0 DUP5 PUSH2 0x775 JUMP JUMPDEST PUSH2 0x414F PUSH1 0x0 DUP4 PUSH2 0x1A75 JUMP JUMPDEST PUSH1 0x0 DUP3 DUP2 MSTORE PUSH1 0x8 PUSH1 0x20 MSTORE PUSH1 0x40 SWAP1 KECCAK256 SLOAD PUSH1 0x2 PUSH1 0x0 NOT PUSH2 0x100 PUSH1 0x1 DUP5 AND ISZERO MUL ADD SWAP1 SWAP2 AND DIV ISZERO PUSH2 0x418D JUMPI PUSH1 0x0 DUP3 DUP2 MSTORE PUSH1 0x8 PUSH1 0x20 MSTORE PUSH1 0x40 DUP2 KECCAK256 PUSH2 0x418D SWAP2 PUSH2 0x494B JUMP JUMPDEST PUSH1 0x1 PUSH1 0x1 PUSH1 0xA0 SHL SUB DUP2 AND PUSH1 0x0 SWAP1 DUP2 MSTORE PUSH1 0x1 PUSH1 0x20 MSTORE PUSH1 0x40 SWAP1 KECCAK256 PUSH2 0x41AF SWAP1 DUP4 PUSH2 0x3B05 JUMP JUMPDEST POP PUSH2 0x41BB PUSH1 0x2 DUP4 PUSH2 0x4435 JUMP JUMPDEST POP PUSH1 0x40 MLOAD DUP3 SWAP1 PUSH1 0x0 SWAP1 PUSH1 0x1 PUSH1 0x1 PUSH1 0xA0 SHL SUB DUP5 AND SWAP1 PUSH32 0xDDF252AD1BE2C89B69C2B068FC378DAA952BA7F163C4A11628F55A4DF523B3EF SWAP1 DUP4 SWAP1 LOG4 POP POP JUMP JUMPDEST PUSH1 0x0 DUP2 DUP2 MSTORE PUSH1 0x1 DUP4 ADD PUSH1 0x20 MSTORE PUSH1 0x40 DUP2 KECCAK256 SLOAD DUP1 ISZERO PUSH2 0x42B4 JUMPI DUP4 SLOAD PUSH1 0x0 NOT DUP1 DUP4 ADD SWAP2 SWAP1 DUP2 ADD SWAP1 PUSH1 0x0 SWAP1 DUP8 SWAP1 DUP4 SWAP1 DUP2 LT PUSH2 0x422B JUMPI INVALID JUMPDEST SWAP1 PUSH1 0x0 MSTORE PUSH1 0x20 PUSH1 0x0 KECCAK256 ADD SLOAD SWAP1 POP DUP1 DUP8 PUSH1 0x0 ADD DUP5 DUP2 SLOAD DUP2 LT PUSH2 0x4248 JUMPI INVALID JUMPDEST PUSH1 0x0 SWAP2 DUP3 MSTORE PUSH1 0x20 DUP1 DUP4 KECCAK256 SWAP1 SWAP2 ADD SWAP3 SWAP1 SWAP3 SSTORE DUP3 DUP2 MSTORE PUSH1 0x1 DUP10 DUP2 ADD SWAP1 SWAP3 MSTORE PUSH1 0x40 SWAP1 KECCAK256 SWAP1 DUP5 ADD SWAP1 SSTORE DUP7 SLOAD DUP8 SWAP1 DUP1 PUSH2 0x4278 JUMPI INVALID JUMPDEST PUSH1 0x1 SWAP1 SUB DUP2 DUP2 SWAP1 PUSH1 0x0 MSTORE PUSH1 0x20 PUSH1 0x0 KECCAK256 ADD PUSH1 0x0 SWAP1 SSTORE SWAP1 SSTORE DUP7 PUSH1 0x1 ADD PUSH1 0x0 DUP8 DUP2 MSTORE PUSH1 0x20 ADD SWAP1 DUP2 MSTORE PUSH1 0x20 ADD PUSH1 0x0 KECCAK256 PUSH1 0x0 SWAP1 SSTORE PUSH1 0x1 SWAP5 POP POP POP POP POP PUSH2 0x976 JUMP JUMPDEST PUSH1 0x0 SWAP2 POP POP PUSH2 0x976 JUMP JUMPDEST PUSH2 0x42D0 DUP3 PUSH1 0x1 PUSH1 0x1 PUSH1 0xA0 SHL SUB AND PUSH2 0x1A1F JUMP JUMPDEST PUSH2 0x42EC JUMPI PUSH1 0x40 MLOAD PUSH3 0x461BCD PUSH1 0xE5 SHL DUP2 MSTORE PUSH1 0x4 ADD PUSH2 0x6BD SWAP1 PUSH2 0x5C34 JUMP JUMPDEST PUSH1 0x0 PUSH1 0x60 DUP4 PUSH1 0x1 PUSH1 0x1 PUSH1 0xA0 SHL SUB AND DUP4 PUSH1 0x40 MLOAD PUSH2 0x4308 SWAP2 SWAP1 PUSH2 0x4FED JUMP JUMPDEST PUSH1 0x0 PUSH1 0x40 MLOAD DUP1 DUP4 SUB DUP2 PUSH1 0x0 DUP7 GAS CALL SWAP2 POP POP RETURNDATASIZE DUP1 PUSH1 0x0 DUP2 EQ PUSH2 0x4345 JUMPI PUSH1 0x40 MLOAD SWAP2 POP PUSH1 0x1F NOT PUSH1 0x3F RETURNDATASIZE ADD AND DUP3 ADD PUSH1 0x40 MSTORE RETURNDATASIZE DUP3 MSTORE RETURNDATASIZE PUSH1 0x0 PUSH1 0x20 DUP5 ADD RETURNDATACOPY PUSH2 0x434A JUMP JUMPDEST PUSH1 0x60 SWAP2 POP JUMPDEST POP SWAP2 POP SWAP2 POP DUP2 PUSH2 0x436C JUMPI PUSH1 0x40 MLOAD PUSH3 0x461BCD PUSH1 0xE5 SHL DUP2 MSTORE PUSH1 0x4 ADD PUSH2 0x6BD SWAP1 PUSH2 0x5529 JUMP JUMPDEST DUP1 MLOAD ISZERO PUSH2 0x125A JUMPI DUP1 DUP1 PUSH1 0x20 ADD SWAP1 MLOAD DUP2 ADD SWAP1 PUSH2 0x4387 SWAP2 SWAP1 PUSH2 0x4E23 JUMP JUMPDEST PUSH2 0x125A JUMPI PUSH1 0x40 MLOAD PUSH3 0x461BCD PUSH1 0xE5 SHL DUP2 MSTORE PUSH1 0x4 ADD PUSH2 0x6BD SWAP1 PUSH2 0x5B43 JUMP JUMPDEST PUSH2 0x43AB PUSH2 0x471F JUMP JUMPDEST PUSH2 0x43B4 DUP3 PUSH2 0x7BE JUMP JUMPDEST SWAP1 POP PUSH2 0x43BF DUP3 PUSH2 0x4059 JUMP JUMPDEST DUP1 MLOAD PUSH2 0x19CE SWAP1 DUP4 PUSH2 0x4441 JUMP JUMPDEST PUSH1 0x0 DUP2 DUP4 PUSH2 0x43EC JUMPI PUSH1 0x40 MLOAD PUSH3 0x461BCD PUSH1 0xE5 SHL DUP2 MSTORE PUSH1 0x4 ADD PUSH2 0x6BD SWAP2 SWAP1 PUSH2 0x5184 JUMP JUMPDEST POP PUSH1 0x0 DUP4 DUP6 DUP2 PUSH2 0x43F8 JUMPI INVALID JUMPDEST DIV SWAP6 SWAP5 POP POP POP POP POP JUMP JUMPDEST PUSH2 0x440C DUP4 DUP4 PUSH2 0x4587 JUMP JUMPDEST PUSH2 0x4419 PUSH1 0x0 DUP5 DUP5 DUP5 PUSH2 0x3E15 JUMP JUMPDEST PUSH2 0x775 JUMPI PUSH1 0x40 MLOAD PUSH3 0x461BCD PUSH1 0xE5 SHL DUP2 MSTORE PUSH1 0x4 ADD PUSH2 0x6BD SWAP1 PUSH2 0x52E9 JUMP JUMPDEST PUSH1 0x0 PUSH2 0x973 DUP4 DUP4 PUSH2 0x464B JUMP JUMPDEST PUSH1 0x60 PUSH2 0x4467 PUSH1 0x1 PUSH1 0x10 DUP6 DUP2 SLOAD DUP2 LT PUSH2 0x4455 JUMPI INVALID JUMPDEST PUSH1 0x0 SWAP2 DUP3 MSTORE PUSH1 0x20 SWAP1 SWAP2 KECCAK256 ADD SLOAD SWAP1 PUSH2 0x27F7 JUMP JUMPDEST PUSH1 0x1 PUSH1 0x1 PUSH1 0x40 SHL SUB DUP2 GT DUP1 ISZERO PUSH2 0x447C JUMPI PUSH1 0x0 DUP1 REVERT JUMPDEST POP PUSH1 0x40 MLOAD SWAP1 DUP1 DUP3 MSTORE DUP1 PUSH1 0x20 MUL PUSH1 0x20 ADD DUP3 ADD PUSH1 0x40 MSTORE DUP1 ISZERO PUSH2 0x44A6 JUMPI DUP2 PUSH1 0x20 ADD PUSH1 0x20 DUP3 MUL DUP1 CALLDATASIZE DUP4 CALLDATACOPY ADD SWAP1 POP JUMPDEST POP SWAP1 POP PUSH1 0x0 DUP1 JUMPDEST PUSH1 0x10 DUP6 DUP2 SLOAD DUP2 LT PUSH2 0x44BA JUMPI INVALID JUMPDEST PUSH1 0x0 SWAP2 DUP3 MSTORE PUSH1 0x20 SWAP1 SWAP2 KECCAK256 ADD SLOAD DUP2 LT ISZERO PUSH2 0x4554 JUMPI DUP4 PUSH1 0x10 DUP7 DUP2 SLOAD DUP2 LT PUSH2 0x44DB JUMPI INVALID JUMPDEST SWAP1 PUSH1 0x0 MSTORE PUSH1 0x20 PUSH1 0x0 KECCAK256 ADD DUP3 DUP2 SLOAD DUP2 LT PUSH2 0x44F0 JUMPI INVALID JUMPDEST SWAP1 PUSH1 0x0 MSTORE PUSH1 0x20 PUSH1 0x0 KECCAK256 ADD SLOAD EQ PUSH2 0x454C JUMPI PUSH1 0x10 DUP6 DUP2 SLOAD DUP2 LT PUSH2 0x450D JUMPI INVALID JUMPDEST SWAP1 PUSH1 0x0 MSTORE PUSH1 0x20 PUSH1 0x0 KECCAK256 ADD DUP2 DUP2 SLOAD DUP2 LT PUSH2 0x4522 JUMPI INVALID JUMPDEST SWAP1 PUSH1 0x0 MSTORE PUSH1 0x20 PUSH1 0x0 KECCAK256 ADD SLOAD DUP4 DUP4 DUP1 PUSH1 0x1 ADD SWAP5 POP DUP2 MLOAD DUP2 LT PUSH2 0x453F JUMPI INVALID JUMPDEST PUSH1 0x20 MUL PUSH1 0x20 ADD ADD DUP2 DUP2 MSTORE POP POP JUMPDEST PUSH1 0x1 ADD PUSH2 0x44AD JUMP JUMPDEST POP DUP2 PUSH1 0x10 DUP6 DUP2 SLOAD DUP2 LT PUSH2 0x4563 JUMPI INVALID JUMPDEST SWAP1 PUSH1 0x0 MSTORE PUSH1 0x20 PUSH1 0x0 KECCAK256 ADD SWAP1 DUP1 MLOAD SWAP1 PUSH1 0x20 ADD SWAP1 PUSH2 0x4580 SWAP3 SWAP2 SWAP1 PUSH2 0x481E JUMP JUMPDEST POP POP POP POP POP JUMP JUMPDEST PUSH1 0x1 PUSH1 0x1 PUSH1 0xA0 SHL SUB DUP3 AND PUSH2 0x45AD JUMPI PUSH1 0x40 MLOAD PUSH3 0x461BCD PUSH1 0xE5 SHL DUP2 MSTORE PUSH1 0x4 ADD PUSH2 0x6BD SWAP1 PUSH2 0x56D9 JUMP JUMPDEST PUSH2 0x45B6 DUP2 PUSH2 0x1A64 JUMP JUMPDEST ISZERO PUSH2 0x45D3 JUMPI PUSH1 0x40 MLOAD PUSH3 0x461BCD PUSH1 0xE5 SHL DUP2 MSTORE PUSH1 0x4 ADD PUSH2 0x6BD SWAP1 PUSH2 0x5381 JUMP JUMPDEST PUSH2 0x45DF PUSH1 0x0 DUP4 DUP4 PUSH2 0x775 JUMP JUMPDEST PUSH1 0x1 PUSH1 0x1 PUSH1 0xA0 SHL SUB DUP3 AND PUSH1 0x0 SWAP1 DUP2 MSTORE PUSH1 0x1 PUSH1 0x20 MSTORE PUSH1 0x40 SWAP1 KECCAK256 PUSH2 0x4601 SWAP1 DUP3 PUSH2 0x19F3 JUMP JUMPDEST POP PUSH2 0x460E PUSH1 0x2 DUP3 DUP5 PUSH2 0x19FF JUMP JUMPDEST POP PUSH1 0x40 MLOAD DUP2 SWAP1 PUSH1 0x1 PUSH1 0x1 PUSH1 0xA0 SHL SUB DUP5 AND SWAP1 PUSH1 0x0 SWAP1 PUSH32 0xDDF252AD1BE2C89B69C2B068FC378DAA952BA7F163C4A11628F55A4DF523B3EF SWAP1 DUP3 SWAP1 LOG4 POP POP JUMP JUMPDEST PUSH1 0x0 DUP2 DUP2 MSTORE PUSH1 0x1 DUP4 ADD PUSH1 0x20 MSTORE PUSH1 0x40 DUP2 KECCAK256 SLOAD DUP1 ISZERO PUSH2 0x42B4 JUMPI DUP4 SLOAD PUSH1 0x0 NOT DUP1 DUP4 ADD SWAP2 SWAP1 DUP2 ADD SWAP1 PUSH1 0x0 SWAP1 DUP8 SWAP1 DUP4 SWAP1 DUP2 LT PUSH2 0x467E JUMPI INVALID JUMPDEST SWAP1 PUSH1 0x0 MSTORE PUSH1 0x20 PUSH1 0x0 KECCAK256 SWAP1 PUSH1 0x2 MUL ADD SWAP1 POP DUP1 DUP8 PUSH1 0x0 ADD DUP5 DUP2 SLOAD DUP2 LT PUSH2 0x469E JUMPI INVALID JUMPDEST PUSH1 0x0 SWAP2 DUP3 MSTORE PUSH1 0x20 DUP1 DUP4 KECCAK256 DUP5 SLOAD PUSH1 0x2 SWAP1 SWAP4 MUL ADD SWAP2 DUP3 SSTORE PUSH1 0x1 SWAP4 DUP5 ADD SLOAD SWAP2 DUP5 ADD SWAP2 SWAP1 SWAP2 SSTORE DUP4 SLOAD DUP3 MSTORE DUP10 DUP4 ADD SWAP1 MSTORE PUSH1 0x40 SWAP1 KECCAK256 SWAP1 DUP5 ADD SWAP1 SSTORE DUP7 SLOAD DUP8 SWAP1 DUP1 PUSH2 0x46DD JUMPI INVALID JUMPDEST PUSH1 0x0 DUP3 DUP2 MSTORE PUSH1 0x20 DUP1 DUP3 KECCAK256 PUSH1 0x2 PUSH1 0x0 NOT SWAP1 SWAP5 ADD SWAP4 DUP5 MUL ADD DUP3 DUP2 SSTORE PUSH1 0x1 SWAP1 DUP2 ADD DUP4 SWAP1 SSTORE SWAP3 SWAP1 SWAP4 SSTORE DUP9 DUP2 MSTORE DUP10 DUP3 ADD SWAP1 SWAP3 MSTORE PUSH1 0x40 DUP3 KECCAK256 SWAP2 SWAP1 SWAP2 SSTORE SWAP5 POP PUSH2 0x976 SWAP4 POP POP POP POP JUMP JUMPDEST PUSH1 0x40 MLOAD DUP1 PUSH1 0xE0 ADD PUSH1 0x40 MSTORE DUP1 PUSH1 0x0 DUP2 MSTORE PUSH1 0x20 ADD PUSH1 0x0 DUP2 MSTORE PUSH1 0x20 ADD PUSH1 0x0 DUP2 MSTORE PUSH1 0x20 ADD PUSH1 0x0 DUP2 MSTORE PUSH1 0x20 ADD PUSH2 0x474E PUSH2 0x498F JUMP JUMPDEST DUP2 MSTORE PUSH1 0x20 ADD PUSH2 0x475B PUSH2 0x49AD JUMP JUMPDEST DUP2 MSTORE PUSH1 0x20 ADD PUSH1 0x60 DUP2 MSTORE POP SWAP1 JUMP JUMPDEST PUSH1 0x40 MLOAD DUP1 PUSH1 0x60 ADD PUSH1 0x40 MSTORE DUP1 PUSH1 0x60 DUP2 MSTORE PUSH1 0x20 ADD PUSH1 0x60 DUP2 MSTORE PUSH1 0x20 ADD PUSH1 0x60 DUP2 MSTORE POP SWAP1 JUMP JUMPDEST PUSH1 0x40 DUP1 MLOAD DUP1 DUP3 ADD SWAP1 SWAP2 MSTORE PUSH1 0x0 DUP1 DUP3 MSTORE PUSH1 0x20 DUP3 ADD MSTORE SWAP1 JUMP JUMPDEST DUP3 DUP1 SLOAD PUSH1 0x1 DUP2 PUSH1 0x1 AND ISZERO PUSH2 0x100 MUL SUB AND PUSH1 0x2 SWAP1 DIV SWAP1 PUSH1 0x0 MSTORE PUSH1 0x20 PUSH1 0x0 KECCAK256 SWAP1 PUSH1 0x1F ADD PUSH1 0x20 SWAP1 DIV DUP2 ADD SWAP3 DUP3 PUSH1 0x1F LT PUSH2 0x47E1 JUMPI DUP1 MLOAD PUSH1 0xFF NOT AND DUP4 DUP1 ADD OR DUP6 SSTORE PUSH2 0x480E JUMP JUMPDEST DUP3 DUP1 ADD PUSH1 0x1 ADD DUP6 SSTORE DUP3 ISZERO PUSH2 0x480E JUMPI SWAP2 DUP3 ADD JUMPDEST DUP3 DUP2 GT ISZERO PUSH2 0x480E JUMPI DUP3 MLOAD DUP3 SSTORE SWAP2 PUSH1 0x20 ADD SWAP2 SWAP1 PUSH1 0x1 ADD SWAP1 PUSH2 0x47F3 JUMP JUMPDEST POP PUSH2 0x481A SWAP3 SWAP2 POP PUSH2 0x49CB JUMP JUMPDEST POP SWAP1 JUMP JUMPDEST DUP3 DUP1 SLOAD DUP3 DUP3 SSTORE SWAP1 PUSH1 0x0 MSTORE PUSH1 0x20 PUSH1 0x0 KECCAK256 SWAP1 DUP2 ADD SWAP3 DUP3 ISZERO PUSH2 0x480E JUMPI SWAP2 PUSH1 0x20 MUL DUP3 ADD DUP3 DUP2 GT ISZERO PUSH2 0x480E JUMPI DUP3 MLOAD DUP3 SSTORE SWAP2 PUSH1 0x20 ADD SWAP2 SWAP1 PUSH1 0x1 ADD SWAP1 PUSH2 0x47F3 JUMP JUMPDEST DUP3 PUSH1 0x2 DUP2 ADD SWAP3 DUP3 ISZERO PUSH2 0x48A0 JUMPI SWAP2 PUSH1 0x20 MUL DUP3 ADD JUMPDEST DUP3 DUP2 GT ISZERO PUSH2 0x48A0 JUMPI DUP3 MLOAD DUP3 SLOAD PUSH1 0x1 PUSH1 0x1 PUSH1 0xA0 SHL SUB NOT AND PUSH1 0x1 PUSH1 0x1 PUSH1 0xA0 SHL SUB SWAP1 SWAP2 AND OR DUP3 SSTORE PUSH1 0x20 SWAP1 SWAP3 ADD SWAP2 PUSH1 0x1 SWAP1 SWAP2 ADD SWAP1 PUSH2 0x486B JUMP JUMPDEST POP PUSH2 0x481A SWAP3 SWAP2 POP PUSH2 0x49E0 JUMP JUMPDEST DUP3 PUSH1 0x3 DUP2 ADD SWAP3 DUP3 ISZERO PUSH2 0x480E JUMPI SWAP2 PUSH1 0x20 MUL DUP3 ADD DUP3 DUP2 GT ISZERO PUSH2 0x480E JUMPI DUP3 MLOAD DUP3 SSTORE SWAP2 PUSH1 0x20 ADD SWAP2 SWAP1 PUSH1 0x1 ADD SWAP1 PUSH2 0x47F3 JUMP JUMPDEST POP DUP1 SLOAD PUSH1 0x0 DUP3 SSTORE SWAP1 PUSH1 0x0 MSTORE PUSH1 0x20 PUSH1 0x0 KECCAK256 SWAP1 DUP2 ADD SWAP1 PUSH2 0xA12 SWAP2 SWAP1 PUSH2 0x49CB JUMP JUMPDEST DUP3 DUP1 SLOAD DUP3 DUP3 SSTORE SWAP1 PUSH1 0x0 MSTORE PUSH1 0x20 PUSH1 0x0 KECCAK256 SWAP1 DUP2 ADD SWAP3 DUP3 ISZERO PUSH2 0x48A0 JUMPI SWAP2 PUSH1 0x20 MUL DUP3 ADD DUP3 DUP2 GT ISZERO PUSH2 0x48A0 JUMPI DUP3 MLOAD DUP3 SLOAD PUSH1 0x1 PUSH1 0x1 PUSH1 0xA0 SHL SUB NOT AND PUSH1 0x1 PUSH1 0x1 PUSH1 0xA0 SHL SUB SWAP1 SWAP2 AND OR DUP3 SSTORE PUSH1 0x20 SWAP1 SWAP3 ADD SWAP2 PUSH1 0x1 SWAP1 SWAP2 ADD SWAP1 PUSH2 0x486B JUMP JUMPDEST POP DUP1 SLOAD PUSH1 0x1 DUP2 PUSH1 0x1 AND ISZERO PUSH2 0x100 MUL SUB AND PUSH1 0x2 SWAP1 DIV PUSH1 0x0 DUP3 SSTORE DUP1 PUSH1 0x1F LT PUSH2 0x4971 JUMPI POP PUSH2 0xA12 JUMP JUMPDEST PUSH1 0x1F ADD PUSH1 0x20 SWAP1 DIV SWAP1 PUSH1 0x0 MSTORE PUSH1 0x20 PUSH1 0x0 KECCAK256 SWAP1 DUP2 ADD SWAP1 PUSH2 0xA12 SWAP2 SWAP1 PUSH2 0x49CB JUMP JUMPDEST PUSH1 0x40 MLOAD DUP1 PUSH1 0x40 ADD PUSH1 0x40 MSTORE DUP1 PUSH1 0x2 SWAP1 PUSH1 0x20 DUP3 MUL DUP1 CALLDATASIZE DUP4 CALLDATACOPY POP SWAP2 SWAP3 SWAP2 POP POP JUMP JUMPDEST PUSH1 0x40 MLOAD DUP1 PUSH1 0x60 ADD PUSH1 0x40 MSTORE DUP1 PUSH1 0x3 SWAP1 PUSH1 0x20 DUP3 MUL DUP1 CALLDATASIZE DUP4 CALLDATACOPY POP SWAP2 SWAP3 SWAP2 POP POP JUMP JUMPDEST JUMPDEST DUP1 DUP3 GT ISZERO PUSH2 0x481A JUMPI PUSH1 0x0 DUP2 SSTORE PUSH1 0x1 ADD PUSH2 0x49CC JUMP JUMPDEST JUMPDEST DUP1 DUP3 GT ISZERO PUSH2 0x481A JUMPI DUP1 SLOAD PUSH1 0x1 PUSH1 0x1 PUSH1 0xA0 SHL SUB NOT AND DUP2 SSTORE PUSH1 0x1 ADD PUSH2 0x49E1 JUMP JUMPDEST PUSH1 0x0 DUP3 PUSH1 0x1F DUP4 ADD SLT PUSH2 0x4A0F JUMPI DUP1 DUP2 REVERT JUMPDEST DUP2 CALLDATALOAD PUSH2 0x4A22 PUSH2 0x4A1D DUP3 PUSH2 0x5DD8 JUMP JUMPDEST PUSH2 0x5DB2 JUMP JUMPDEST DUP2 DUP2 MSTORE SWAP2 POP PUSH1 0x20 DUP1 DUP4 ADD SWAP1 DUP5 DUP2 ADD DUP2 DUP5 MUL DUP7 ADD DUP3 ADD DUP8 LT ISZERO PUSH2 0x4A43 JUMPI PUSH1 0x0 DUP1 REVERT JUMPDEST PUSH1 0x0 JUMPDEST DUP5 DUP2 LT ISZERO PUSH2 0x4A6B JUMPI DUP2 CALLDATALOAD PUSH2 0x4A59 DUP2 PUSH2 0x5E23 JUMP JUMPDEST DUP5 MSTORE SWAP3 DUP3 ADD SWAP3 SWAP1 DUP3 ADD SWAP1 PUSH1 0x1 ADD PUSH2 0x4A46 JUMP JUMPDEST POP POP POP POP POP SWAP3 SWAP2 POP POP JUMP JUMPDEST PUSH1 0x0 DUP3 PUSH1 0x1F DUP4 ADD SLT PUSH2 0x4A86 JUMPI DUP1 DUP2 REVERT JUMPDEST DUP2 CALLDATALOAD PUSH2 0x4A94 PUSH2 0x4A1D DUP3 PUSH2 0x5DD8 JUMP JUMPDEST DUP2 DUP2 MSTORE SWAP2 POP PUSH1 0x20 DUP1 DUP4 ADD SWAP1 DUP5 DUP2 ADD DUP2 DUP5 MUL DUP7 ADD DUP3 ADD DUP8 LT ISZERO PUSH2 0x4AB5 JUMPI PUSH1 0x0 DUP1 REVERT JUMPDEST PUSH1 0x0 JUMPDEST DUP5 DUP2 LT ISZERO PUSH2 0x4A6B JUMPI DUP2 CALLDATALOAD DUP5 MSTORE SWAP3 DUP3 ADD SWAP3 SWAP1 DUP3 ADD SWAP1 PUSH1 0x1 ADD PUSH2 0x4AB8 JUMP JUMPDEST PUSH1 0x0 DUP3 PUSH1 0x1F DUP4 ADD SLT PUSH2 0x4AE4 JUMPI DUP1 DUP2 REVERT JUMPDEST DUP2 CALLDATALOAD PUSH1 0x1 PUSH1 0x1 PUSH1 0x40 SHL SUB DUP2 GT ISZERO PUSH2 0x4AF9 JUMPI DUP2 DUP3 REVERT JUMPDEST PUSH2 0x4B0C PUSH1 0x1F DUP3 ADD PUSH1 0x1F NOT AND PUSH1 0x20 ADD PUSH2 0x5DB2 JUMP JUMPDEST SWAP2 POP DUP1 DUP3 MSTORE DUP4 PUSH1 0x20 DUP3 DUP6 ADD ADD GT ISZERO PUSH2 0x4B23 JUMPI PUSH1 0x0 DUP1 REVERT JUMPDEST DUP1 PUSH1 0x20 DUP5 ADD PUSH1 0x20 DUP5 ADD CALLDATACOPY PUSH1 0x0 SWAP1 DUP3 ADD PUSH1 0x20 ADD MSTORE SWAP3 SWAP2 POP POP JUMP JUMPDEST PUSH1 0x0 PUSH1 0x20 DUP3 DUP5 SUB SLT ISZERO PUSH2 0x4B4D JUMPI DUP1 DUP2 REVERT JUMPDEST DUP2 CALLDATALOAD PUSH2 0x973 DUP2 PUSH2 0x5E23 JUMP JUMPDEST PUSH1 0x0 PUSH1 0x20 DUP3 DUP5 SUB SLT ISZERO PUSH2 0x4B69 JUMPI DUP1 DUP2 REVERT JUMPDEST DUP2 MLOAD PUSH2 0x973 DUP2 PUSH2 0x5E23 JUMP JUMPDEST PUSH1 0x0 DUP1 PUSH1 0x40 DUP4 DUP6 SUB SLT ISZERO PUSH2 0x4B86 JUMPI DUP1 DUP2 REVERT JUMPDEST DUP3 CALLDATALOAD PUSH2 0x4B91 DUP2 PUSH2 0x5E23 JUMP JUMPDEST SWAP2 POP PUSH1 0x20 DUP4 ADD CALLDATALOAD PUSH2 0x4BA1 DUP2 PUSH2 0x5E23 JUMP JUMPDEST DUP1 SWAP2 POP POP SWAP3 POP SWAP3 SWAP1 POP JUMP JUMPDEST PUSH1 0x0 DUP1 PUSH1 0x0 PUSH1 0x60 DUP5 DUP7 SUB SLT ISZERO PUSH2 0x4BC0 JUMPI DUP1 DUP2 REVERT JUMPDEST DUP4 CALLDATALOAD PUSH2 0x4BCB DUP2 PUSH2 0x5E23 JUMP JUMPDEST SWAP3 POP PUSH1 0x20 DUP5 ADD CALLDATALOAD PUSH2 0x4BDB DUP2 PUSH2 0x5E23 JUMP JUMPDEST SWAP3 SWAP6 SWAP3 SWAP5 POP POP POP PUSH1 0x40 SWAP2 SWAP1 SWAP2 ADD CALLDATALOAD SWAP1 JUMP JUMPDEST PUSH1 0x0 DUP1 PUSH1 0x0 DUP1 PUSH1 0x80 DUP6 DUP8 SUB SLT ISZERO PUSH2 0x4C01 JUMPI DUP1 DUP2 REVERT JUMPDEST DUP5 CALLDATALOAD PUSH2 0x4C0C DUP2 PUSH2 0x5E23 JUMP JUMPDEST SWAP4 POP PUSH1 0x20 DUP6 ADD CALLDATALOAD PUSH2 0x4C1C DUP2 PUSH2 0x5E23 JUMP JUMPDEST SWAP3 POP PUSH1 0x40 DUP6 ADD CALLDATALOAD SWAP2 POP PUSH1 0x60 DUP6 ADD CALLDATALOAD PUSH1 0x1 PUSH1 0x1 PUSH1 0x40 SHL SUB DUP2 GT ISZERO PUSH2 0x4C3D JUMPI DUP2 DUP3 REVERT JUMPDEST PUSH2 0x4C49 DUP8 DUP3 DUP9 ADD PUSH2 0x4AD4 JUMP JUMPDEST SWAP2 POP POP SWAP3 SWAP6 SWAP2 SWAP5 POP SWAP3 POP JUMP JUMPDEST PUSH1 0x0 DUP1 PUSH1 0x0 DUP1 PUSH1 0x80 DUP6 DUP8 SUB SLT ISZERO PUSH2 0x4C6A JUMPI DUP4 DUP5 REVERT JUMPDEST DUP5 CALLDATALOAD PUSH2 0x4C75 DUP2 PUSH2 0x5E23 JUMP JUMPDEST SWAP4 POP PUSH1 0x20 DUP6 ADD CALLDATALOAD PUSH1 0x1 PUSH1 0x1 PUSH1 0x40 SHL SUB DUP1 DUP3 GT ISZERO PUSH2 0x4C90 JUMPI DUP5 DUP6 REVERT JUMPDEST PUSH2 0x4C9C DUP9 DUP4 DUP10 ADD PUSH2 0x49FF JUMP JUMPDEST SWAP5 POP PUSH1 0x40 DUP8 ADD CALLDATALOAD SWAP2 POP DUP1 DUP3 GT ISZERO PUSH2 0x4CB1 JUMPI DUP4 DUP5 REVERT JUMPDEST PUSH2 0x4CBD DUP9 DUP4 DUP10 ADD PUSH2 0x4A76 JUMP JUMPDEST SWAP4 POP PUSH1 0x60 DUP8 ADD CALLDATALOAD SWAP2 POP DUP1 DUP3 GT ISZERO PUSH2 0x4CD2 JUMPI DUP3 DUP4 REVERT JUMPDEST POP PUSH2 0x4C49 DUP8 DUP3 DUP9 ADD PUSH2 0x4A76 JUMP JUMPDEST PUSH1 0x0 DUP1 PUSH1 0x40 DUP4 DUP6 SUB SLT ISZERO PUSH2 0x4CF1 JUMPI DUP2 DUP3 REVERT JUMPDEST DUP3 CALLDATALOAD PUSH2 0x4CFC DUP2 PUSH2 0x5E23 JUMP JUMPDEST SWAP2 POP PUSH1 0x20 DUP4 ADD CALLDATALOAD PUSH2 0x4BA1 DUP2 PUSH2 0x5E38 JUMP JUMPDEST PUSH1 0x0 DUP1 PUSH1 0x40 DUP4 DUP6 SUB SLT ISZERO PUSH2 0x4D1E JUMPI DUP2 DUP3 REVERT JUMPDEST DUP3 CALLDATALOAD PUSH2 0x4D29 DUP2 PUSH2 0x5E23 JUMP JUMPDEST SWAP5 PUSH1 0x20 SWAP4 SWAP1 SWAP4 ADD CALLDATALOAD SWAP4 POP POP POP JUMP JUMPDEST PUSH1 0x0 DUP1 PUSH1 0x0 DUP1 PUSH1 0x80 DUP6 DUP8 SUB SLT ISZERO PUSH2 0x4D4C JUMPI DUP2 DUP3 REVERT JUMPDEST DUP5 CALLDATALOAD PUSH2 0x4D57 DUP2 PUSH2 0x5E23 JUMP JUMPDEST SWAP4 POP PUSH1 0x20 DUP6 ADD CALLDATALOAD SWAP3 POP PUSH1 0x40 DUP6 ADD CALLDATALOAD PUSH2 0x4D6E DUP2 PUSH2 0x5E23 JUMP JUMPDEST SWAP2 POP PUSH1 0x60 DUP6 ADD CALLDATALOAD PUSH1 0x1 PUSH1 0x1 PUSH1 0x40 SHL SUB DUP2 GT ISZERO PUSH2 0x4D88 JUMPI DUP2 DUP3 REVERT JUMPDEST PUSH2 0x4C49 DUP8 DUP3 DUP9 ADD PUSH2 0x49FF JUMP JUMPDEST PUSH1 0x0 PUSH1 0x20 DUP1 DUP4 DUP6 SUB SLT ISZERO PUSH2 0x4DA6 JUMPI DUP2 DUP3 REVERT JUMPDEST DUP3 MLOAD PUSH1 0x1 PUSH1 0x1 PUSH1 0x40 SHL SUB DUP2 GT ISZERO PUSH2 0x4DBB JUMPI DUP3 DUP4 REVERT JUMPDEST DUP4 ADD PUSH1 0x1F DUP2 ADD DUP6 SGT PUSH2 0x4DCB JUMPI DUP3 DUP4 REVERT JUMPDEST DUP1 MLOAD PUSH2 0x4DD9 PUSH2 0x4A1D DUP3 PUSH2 0x5DD8 JUMP JUMPDEST DUP2 DUP2 MSTORE DUP4 DUP2 ADD SWAP1 DUP4 DUP6 ADD DUP6 DUP5 MUL DUP6 ADD DUP7 ADD DUP10 LT ISZERO PUSH2 0x4DF5 JUMPI DUP7 DUP8 REVERT JUMPDEST DUP7 SWAP5 POP JUMPDEST DUP4 DUP6 LT ISZERO PUSH2 0x4E17 JUMPI DUP1 MLOAD DUP4 MSTORE PUSH1 0x1 SWAP5 SWAP1 SWAP5 ADD SWAP4 SWAP2 DUP6 ADD SWAP2 DUP6 ADD PUSH2 0x4DF9 JUMP JUMPDEST POP SWAP8 SWAP7 POP POP POP POP POP POP POP JUMP JUMPDEST PUSH1 0x0 PUSH1 0x20 DUP3 DUP5 SUB SLT ISZERO PUSH2 0x4E34 JUMPI DUP1 DUP2 REVERT JUMPDEST DUP2 MLOAD PUSH2 0x973 DUP2 PUSH2 0x5E38 JUMP JUMPDEST PUSH1 0x0 PUSH1 0x20 DUP3 DUP5 SUB SLT ISZERO PUSH2 0x4E50 JUMPI DUP1 DUP2 REVERT JUMPDEST DUP2 CALLDATALOAD PUSH2 0x973 DUP2 PUSH2 0x5E46 JUMP JUMPDEST PUSH1 0x0 PUSH1 0x20 DUP3 DUP5 SUB SLT ISZERO PUSH2 0x4E6C JUMPI DUP1 DUP2 REVERT JUMPDEST DUP2 MLOAD PUSH2 0x973 DUP2 PUSH2 0x5E46 JUMP JUMPDEST PUSH1 0x0 PUSH1 0x20 DUP3 DUP5 SUB SLT ISZERO PUSH2 0x4E88 JUMPI DUP1 DUP2 REVERT JUMPDEST DUP2 CALLDATALOAD PUSH1 0x1 PUSH1 0x1 PUSH1 0x40 SHL SUB DUP2 GT ISZERO PUSH2 0x4E9D JUMPI DUP2 DUP3 REVERT JUMPDEST PUSH2 0xBDD DUP5 DUP3 DUP6 ADD PUSH2 0x4AD4 JUMP JUMPDEST PUSH1 0x0 PUSH1 0x20 DUP3 DUP5 SUB SLT ISZERO PUSH2 0x4EBA JUMPI DUP1 DUP2 REVERT JUMPDEST POP CALLDATALOAD SWAP2 SWAP1 POP JUMP JUMPDEST PUSH1 0x0 PUSH1 0x20 DUP3 DUP5 SUB SLT ISZERO PUSH2 0x4ED2 JUMPI DUP1 DUP2 REVERT JUMPDEST POP MLOAD SWAP2 SWAP1 POP JUMP JUMPDEST PUSH1 0x0 DUP1 PUSH1 0x40 DUP4 DUP6 SUB SLT ISZERO PUSH2 0x4EEB JUMPI DUP2 DUP3 REVERT JUMPDEST POP POP DUP1 CALLDATALOAD SWAP3 PUSH1 0x20 SWAP1 SWAP2 ADD CALLDATALOAD SWAP2 POP JUMP JUMPDEST PUSH1 0x0 PUSH1 0x20 DUP3 DUP5 SUB SLT ISZERO PUSH2 0x4F0B JUMPI DUP1 DUP2 REVERT JUMPDEST DUP2 MLOAD PUSH1 0xFF DUP2 AND DUP2 EQ PUSH2 0x973 JUMPI DUP2 DUP3 REVERT JUMPDEST PUSH1 0x1 PUSH1 0x1 PUSH1 0xA0 SHL SUB AND DUP2 MSTORE PUSH1 0x20 ADD SWAP1 JUMP JUMPDEST PUSH1 0x0 DUP2 MLOAD DUP1 DUP5 MSTORE PUSH1 0x20 DUP1 DUP6 ADD SWAP5 POP DUP1 DUP5 ADD DUP4 JUMPDEST DUP4 DUP2 LT ISZERO PUSH2 0x4F64 JUMPI DUP2 MLOAD PUSH1 0x1 PUSH1 0x1 PUSH1 0xA0 SHL SUB AND DUP8 MSTORE SWAP6 DUP3 ADD SWAP6 SWAP1 DUP3 ADD SWAP1 PUSH1 0x1 ADD PUSH2 0x4F3F JUMP JUMPDEST POP SWAP5 SWAP6 SWAP5 POP POP POP POP POP JUMP JUMPDEST DUP1 PUSH1 0x0 JUMPDEST PUSH1 0x3 DUP2 LT ISZERO PUSH2 0x125A JUMPI DUP2 MLOAD DUP5 MSTORE PUSH1 0x20 SWAP4 DUP5 ADD SWAP4 SWAP1 SWAP2 ADD SWAP1 PUSH1 0x1 ADD PUSH2 0x4F73 JUMP JUMPDEST PUSH1 0x0 DUP2 MLOAD DUP1 DUP5 MSTORE PUSH1 0x20 DUP1 DUP6 ADD SWAP5 POP DUP1 DUP5 ADD DUP4 JUMPDEST DUP4 DUP2 LT ISZERO PUSH2 0x4F64 JUMPI DUP2 MLOAD DUP8 MSTORE SWAP6 DUP3 ADD SWAP6 SWAP1 DUP3 ADD SWAP1 PUSH1 0x1 ADD PUSH2 0x4FA5 JUMP JUMPDEST PUSH1 0x0 DUP2 MLOAD DUP1 DUP5 MSTORE PUSH2 0x4FD9 DUP2 PUSH1 0x20 DUP7 ADD PUSH1 0x20 DUP7 ADD PUSH2 0x5DF7 JUMP JUMPDEST PUSH1 0x1F ADD PUSH1 0x1F NOT AND SWAP3 SWAP1 SWAP3 ADD PUSH1 0x20 ADD SWAP3 SWAP2 POP POP JUMP JUMPDEST PUSH1 0x0 DUP3 MLOAD PUSH2 0x4FFF DUP2 DUP5 PUSH1 0x20 DUP8 ADD PUSH2 0x5DF7 JUMP JUMPDEST SWAP2 SWAP1 SWAP2 ADD SWAP3 SWAP2 POP POP JUMP JUMPDEST PUSH1 0x0 DUP1 DUP5 SLOAD PUSH1 0x1 DUP1 DUP3 AND PUSH1 0x0 DUP2 EQ PUSH2 0x5028 JUMPI PUSH1 0x1 DUP2 EQ PUSH2 0x503F JUMPI PUSH2 0x506E JUMP JUMPDEST PUSH1 0xFF NOT DUP4 AND DUP7 MSTORE PUSH1 0x2 DUP4 DIV PUSH1 0x7F AND DUP7 ADD SWAP4 POP PUSH2 0x506E JUMP JUMPDEST PUSH1 0x2 DUP4 DIV DUP9 DUP7 MSTORE PUSH1 0x20 DUP1 DUP8 KECCAK256 DUP8 JUMPDEST DUP4 DUP2 LT ISZERO PUSH2 0x5066 JUMPI DUP2 SLOAD DUP11 DUP3 ADD MSTORE SWAP1 DUP6 ADD SWAP1 DUP3 ADD PUSH2 0x504D JUMP JUMPDEST POP POP POP DUP7 ADD SWAP4 POP JUMPDEST POP POP POP DUP4 MLOAD PUSH2 0x5081 DUP2 DUP4 PUSH1 0x20 DUP9 ADD PUSH2 0x5DF7 JUMP JUMPDEST ADD SWAP5 SWAP4 POP POP POP POP JUMP JUMPDEST PUSH1 0x1 PUSH1 0x1 PUSH1 0xA0 SHL SUB SWAP2 SWAP1 SWAP2 AND DUP2 MSTORE PUSH1 0x20 ADD SWAP1 JUMP JUMPDEST PUSH1 0x1 PUSH1 0x1 PUSH1 0xA0 SHL SUB DUP6 DUP2 AND DUP3 MSTORE DUP5 AND PUSH1 0x20 DUP3 ADD MSTORE PUSH1 0x40 DUP2 ADD DUP4 SWAP1 MSTORE PUSH1 0x80 PUSH1 0x60 DUP3 ADD DUP2 SWAP1 MSTORE PUSH1 0x0 SWAP1 PUSH2 0x35B9 SWAP1 DUP4 ADD DUP5 PUSH2 0x4FC1 JUMP JUMPDEST PUSH1 0x1 PUSH1 0x1 PUSH1 0xA0 SHL SUB SWAP4 DUP5 AND DUP2 MSTORE SWAP2 SWAP1 SWAP3 AND PUSH1 0x20 DUP3 ADD MSTORE PUSH1 0x40 DUP2 ADD SWAP2 SWAP1 SWAP2 MSTORE PUSH1 0x60 ADD SWAP1 JUMP JUMPDEST PUSH1 0x1 PUSH1 0x1 PUSH1 0xA0 SHL SUB SWAP3 SWAP1 SWAP3 AND DUP3 MSTORE PUSH1 0x20 DUP3 ADD MSTORE PUSH1 0x40 ADD SWAP1 JUMP JUMPDEST PUSH1 0x20 DUP1 DUP3 MSTORE DUP3 MLOAD DUP3 DUP3 ADD DUP2 SWAP1 MSTORE PUSH1 0x0 SWAP2 SWAP1 PUSH1 0x40 SWAP1 DUP2 DUP6 ADD SWAP1 DUP7 DUP5 ADD DUP6 JUMPDEST DUP3 DUP2 LT ISZERO PUSH2 0x5159 JUMPI DUP2 MLOAD DUP1 MLOAD PUSH1 0x1 PUSH1 0x1 PUSH1 0xA0 SHL SUB AND DUP6 MSTORE DUP7 ADD MLOAD DUP7 DUP6 ADD MSTORE SWAP3 DUP5 ADD SWAP3 SWAP1 DUP6 ADD SWAP1 PUSH1 0x1 ADD PUSH2 0x512B JUMP JUMPDEST POP SWAP2 SWAP8 SWAP7 POP POP POP POP POP POP POP JUMP JUMPDEST PUSH1 0x0 PUSH1 0x20 DUP3 MSTORE PUSH2 0x973 PUSH1 0x20 DUP4 ADD DUP5 PUSH2 0x4F92 JUMP JUMPDEST SWAP1 ISZERO ISZERO DUP2 MSTORE PUSH1 0x20 ADD SWAP1 JUMP JUMPDEST PUSH1 0x0 PUSH1 0x20 DUP3 MSTORE PUSH2 0x973 PUSH1 0x20 DUP4 ADD DUP5 PUSH2 0x4FC1 JUMP JUMPDEST PUSH1 0x20 DUP1 DUP3 MSTORE PUSH1 0x15 SWAP1 DUP3 ADD MSTORE PUSH21 0x21B7B93723349D1022BC3834B932B21027B93232B9 PUSH1 0x59 SHL PUSH1 0x40 DUP3 ADD MSTORE PUSH1 0x60 ADD SWAP1 JUMP JUMPDEST PUSH1 0x20 DUP1 DUP3 MSTORE PUSH1 0x22 SWAP1 DUP3 ADD MSTORE PUSH32 0x456E756D657261626C655365743A20696E646578206F7574206F6620626F756E PUSH1 0x40 DUP3 ADD MSTORE PUSH2 0x6473 PUSH1 0xF0 SHL PUSH1 0x60 DUP3 ADD MSTORE PUSH1 0x80 ADD SWAP1 JUMP JUMPDEST PUSH1 0x20 DUP1 DUP3 MSTORE PUSH1 0x2E SWAP1 DUP3 ADD MSTORE PUSH32 0x436F726E466920416363756D44697374205661756C743A20496E76616C696420 PUSH1 0x40 DUP3 ADD MSTORE PUSH14 0x82DADEEADCE8E64098CADCCEE8D PUSH1 0x93 SHL PUSH1 0x60 DUP3 ADD MSTORE PUSH1 0x80 ADD SWAP1 JUMP JUMPDEST PUSH1 0x20 DUP1 DUP3 MSTORE PUSH1 0x30 SWAP1 DUP3 ADD MSTORE PUSH32 0x436F726E4669205661756C7420426173653A2043616C6C6572206973204E6F74 PUSH1 0x40 DUP3 ADD MSTORE PUSH16 0x103A3432902A37B5B2B71027BBB732B9 PUSH1 0x81 SHL PUSH1 0x60 DUP3 ADD MSTORE PUSH1 0x80 ADD SWAP1 JUMP JUMPDEST PUSH1 0x20 DUP1 DUP3 MSTORE PUSH1 0x23 SWAP1 DUP3 ADD MSTORE PUSH32 0x436F726E4669205661756C7420426173653A204964656E746963616C20546F6B PUSH1 0x40 DUP3 ADD MSTORE PUSH3 0x656E73 PUSH1 0xE8 SHL PUSH1 0x60 DUP3 ADD MSTORE PUSH1 0x80 ADD SWAP1 JUMP JUMPDEST PUSH1 0x20 DUP1 DUP3 MSTORE PUSH1 0x32 SWAP1 DUP3 ADD MSTORE PUSH32 0x4552433732313A207472616E7366657220746F206E6F6E204552433732315265 PUSH1 0x40 DUP3 ADD MSTORE PUSH18 0x31B2B4BB32B91034B6B83632B6B2B73A32B9 PUSH1 0x71 SHL PUSH1 0x60 DUP3 ADD MSTORE PUSH1 0x80 ADD SWAP1 JUMP JUMPDEST PUSH1 0x20 DUP1 DUP3 MSTORE PUSH1 0x26 SWAP1 DUP3 ADD MSTORE PUSH32 0x4F776E61626C653A206E6577206F776E657220697320746865207A65726F2061 PUSH1 0x40 DUP3 ADD MSTORE PUSH6 0x646472657373 PUSH1 0xD0 SHL PUSH1 0x60 DUP3 ADD MSTORE PUSH1 0x80 ADD SWAP1 JUMP JUMPDEST PUSH1 0x20 DUP1 DUP3 MSTORE PUSH1 0x1C SWAP1 DUP3 ADD MSTORE PUSH32 0x4552433732313A20746F6B656E20616C7265616479206D696E74656400000000 PUSH1 0x40 DUP3 ADD MSTORE PUSH1 0x60 ADD SWAP1 JUMP JUMPDEST PUSH1 0x20 DUP1 DUP3 MSTORE PUSH1 0x2A SWAP1 DUP3 ADD MSTORE PUSH32 0x436F726E4669205661756C7420426173653A204D696E696D756D204465706F73 PUSH1 0x40 DUP3 ADD MSTORE PUSH10 0x1A5D08139BDD0813595D PUSH1 0xB2 SHL PUSH1 0x60 DUP3 ADD MSTORE PUSH1 0x80 ADD SWAP1 JUMP JUMPDEST PUSH1 0x20 DUP1 DUP3 MSTORE PUSH1 0x25 SWAP1 DUP3 ADD MSTORE PUSH32 0x436F726E4669205661756C7420426173653A205472616465204C656E67746820 PUSH1 0x40 DUP3 ADD MSTORE PUSH5 0x22B93937B9 PUSH1 0xD9 SHL PUSH1 0x60 DUP3 ADD MSTORE PUSH1 0x80 ADD SWAP1 JUMP JUMPDEST PUSH1 0x20 DUP1 DUP3 MSTORE PUSH1 0x1B SWAP1 DUP3 ADD MSTORE PUSH32 0x536166654D6174683A206164646974696F6E206F766572666C6F770000000000 PUSH1 0x40 DUP3 ADD MSTORE PUSH1 0x60 ADD SWAP1 JUMP JUMPDEST PUSH1 0x20 DUP1 DUP3 MSTORE PUSH1 0x16 SWAP1 DUP3 ADD MSTORE PUSH22 0x436F726E46693A20496E76616C696420546F6B656E73 PUSH1 0x50 SHL PUSH1 0x40 DUP3 ADD MSTORE PUSH1 0x60 ADD SWAP1 JUMP JUMPDEST PUSH1 0x20 DUP1 DUP3 MSTORE PUSH1 0x24 SWAP1 DUP3 ADD MSTORE PUSH32 0x4552433732313A207472616E7366657220746F20746865207A65726F20616464 PUSH1 0x40 DUP3 ADD MSTORE PUSH4 0x72657373 PUSH1 0xE0 SHL PUSH1 0x60 DUP3 ADD MSTORE PUSH1 0x80 ADD SWAP1 JUMP JUMPDEST PUSH1 0x20 DUP1 DUP3 MSTORE PUSH1 0x19 SWAP1 DUP3 ADD MSTORE PUSH32 0x4552433732313A20617070726F766520746F2063616C6C657200000000000000 PUSH1 0x40 DUP3 ADD MSTORE PUSH1 0x60 ADD SWAP1 JUMP JUMPDEST PUSH1 0x20 DUP1 DUP3 MSTORE DUP2 DUP2 ADD MSTORE PUSH32 0x5361666545524332303A206C6F772D6C6576656C2063616C6C206661696C6564 PUSH1 0x40 DUP3 ADD MSTORE PUSH1 0x60 ADD SWAP1 JUMP JUMPDEST PUSH1 0x20 DUP1 DUP3 MSTORE PUSH1 0x2C SWAP1 DUP3 ADD MSTORE PUSH32 0x4552433732313A206F70657261746F7220717565727920666F72206E6F6E6578 PUSH1 0x40 DUP3 ADD MSTORE PUSH12 0x34B9BA32B73A103A37B5B2B7 PUSH1 0xA1 SHL PUSH1 0x60 DUP3 ADD MSTORE PUSH1 0x80 ADD SWAP1 JUMP JUMPDEST PUSH1 0x20 DUP1 DUP3 MSTORE PUSH1 0x26 SWAP1 DUP3 ADD MSTORE PUSH32 0x436F726E4669204C696D6974204F72646572205661756C743A20496E76616C69 PUSH1 0x40 DUP3 ADD MSTORE PUSH6 0xC840A0C2E8D PUSH1 0xD3 SHL PUSH1 0x60 DUP3 ADD MSTORE PUSH1 0x80 ADD SWAP1 JUMP JUMPDEST PUSH1 0x20 DUP1 DUP3 MSTORE PUSH1 0x38 SWAP1 DUP3 ADD MSTORE PUSH32 0x4552433732313A20617070726F76652063616C6C6572206973206E6F74206F77 PUSH1 0x40 DUP3 ADD MSTORE PUSH32 0x6E6572206E6F7220617070726F76656420666F7220616C6C0000000000000000 PUSH1 0x60 DUP3 ADD MSTORE PUSH1 0x80 ADD SWAP1 JUMP JUMPDEST PUSH1 0x20 DUP1 DUP3 MSTORE PUSH1 0x2A SWAP1 DUP3 ADD MSTORE PUSH32 0x4552433732313A2062616C616E636520717565727920666F7220746865207A65 PUSH1 0x40 DUP3 ADD MSTORE PUSH10 0x726F2061646472657373 PUSH1 0xB0 SHL PUSH1 0x60 DUP3 ADD MSTORE PUSH1 0x80 ADD SWAP1 JUMP JUMPDEST PUSH1 0x20 DUP1 DUP3 MSTORE PUSH1 0x22 SWAP1 DUP3 ADD MSTORE PUSH32 0x456E756D657261626C654D61703A20696E646578206F7574206F6620626F756E PUSH1 0x40 DUP3 ADD MSTORE PUSH2 0x6473 PUSH1 0xF0 SHL PUSH1 0x60 DUP3 ADD MSTORE PUSH1 0x80 ADD SWAP1 JUMP JUMPDEST PUSH1 0x20 DUP1 DUP3 MSTORE DUP2 DUP2 ADD MSTORE PUSH32 0x4552433732313A206D696E7420746F20746865207A65726F2061646472657373 PUSH1 0x40 DUP3 ADD MSTORE PUSH1 0x60 ADD SWAP1 JUMP JUMPDEST PUSH1 0x20 DUP1 DUP3 MSTORE PUSH1 0x21 SWAP1 DUP3 ADD MSTORE PUSH32 0x536166654D6174683A206D756C7469706C69636174696F6E206F766572666C6F PUSH1 0x40 DUP3 ADD MSTORE PUSH1 0x77 PUSH1 0xF8 SHL PUSH1 0x60 DUP3 ADD MSTORE PUSH1 0x80 ADD SWAP1 JUMP JUMPDEST PUSH1 0x20 DUP1 DUP3 MSTORE PUSH1 0x2C SWAP1 DUP3 ADD MSTORE PUSH32 0x4552433732313A20617070726F76656420717565727920666F72206E6F6E6578 PUSH1 0x40 DUP3 ADD MSTORE PUSH12 0x34B9BA32B73A103A37B5B2B7 PUSH1 0xA1 SHL PUSH1 0x60 DUP3 ADD MSTORE PUSH1 0x80 ADD SWAP1 JUMP JUMPDEST PUSH1 0x20 DUP1 DUP3 MSTORE PUSH1 0x31 SWAP1 DUP3 ADD MSTORE PUSH32 0x436F726E466920416363756D44697374205661756C743A20496E737566666963 PUSH1 0x40 DUP3 ADD MSTORE PUSH17 0x195B9D0813DD5D1C1D5D08105B5BDD5B9D PUSH1 0x7A SHL PUSH1 0x60 DUP3 ADD MSTORE PUSH1 0x80 ADD SWAP1 JUMP JUMPDEST PUSH1 0x20 DUP1 DUP3 MSTORE PUSH1 0x30 SWAP1 DUP3 ADD MSTORE PUSH32 0x436F726E466920416363756D44697374205661756C743A20496E76616C696420 PUSH1 0x40 DUP3 ADD MSTORE PUSH16 0x4EBEE8DED6CADCE64E4098CADCCEE8D PUSH1 0x83 SHL PUSH1 0x60 DUP3 ADD MSTORE PUSH1 0x80 ADD SWAP1 JUMP JUMPDEST PUSH1 0x20 DUP1 DUP3 MSTORE DUP2 DUP2 ADD MSTORE PUSH32 0x4F776E61626C653A2063616C6C6572206973206E6F7420746865206F776E6572 PUSH1 0x40 DUP3 ADD MSTORE PUSH1 0x60 ADD SWAP1 JUMP JUMPDEST PUSH1 0x20 DUP1 DUP3 MSTORE DUP2 DUP2 ADD MSTORE PUSH32 0x436F726E4669205661756C7420426173653A204465706F736974204572726F72 PUSH1 0x40 DUP3 ADD MSTORE PUSH1 0x60 ADD SWAP1 JUMP JUMPDEST PUSH1 0x20 DUP1 DUP3 MSTORE PUSH1 0x29 SWAP1 DUP3 ADD MSTORE PUSH32 0x4552433732313A207472616E73666572206F6620746F6B656E20746861742069 PUSH1 0x40 DUP3 ADD MSTORE PUSH9 0x39903737BA1037BBB7 PUSH1 0xB9 SHL PUSH1 0x60 DUP3 ADD MSTORE PUSH1 0x80 ADD SWAP1 JUMP JUMPDEST PUSH1 0x20 DUP1 DUP3 MSTORE PUSH1 0x2C SWAP1 DUP3 ADD MSTORE PUSH32 0x436F726E466920416363756D44697374205661756C743A204669727374205072 PUSH1 0x40 DUP3 ADD MSTORE PUSH12 0xD2C6CA40A8DEDE4090D2CED PUSH1 0xA3 SHL PUSH1 0x60 DUP3 ADD MSTORE PUSH1 0x80 ADD SWAP1 JUMP JUMPDEST PUSH1 0x20 DUP1 DUP3 MSTORE PUSH1 0x2F SWAP1 DUP3 ADD MSTORE PUSH32 0x4552433732314D657461646174613A2055524920717565727920666F72206E6F PUSH1 0x40 DUP3 ADD MSTORE PUSH15 0x3732BC34B9BA32B73A103A37B5B2B7 PUSH1 0x89 SHL PUSH1 0x60 DUP3 ADD MSTORE PUSH1 0x80 ADD SWAP1 JUMP JUMPDEST PUSH1 0x20 DUP1 DUP3 MSTORE PUSH1 0x29 SWAP1 DUP3 ADD MSTORE PUSH32 0x436F726E4669205661756C7420426173653A2053747261746567792069732061 PUSH1 0x40 DUP3 ADD MSTORE PUSH9 0x646472657373283029 PUSH1 0xB8 SHL PUSH1 0x60 DUP3 ADD MSTORE PUSH1 0x80 ADD SWAP1 JUMP JUMPDEST PUSH1 0x20 DUP1 DUP3 MSTORE PUSH1 0x26 SWAP1 DUP3 ADD MSTORE PUSH32 0x436F726E4669205661757420426173653A20546F6B656E20416C726561647920 PUSH1 0x40 DUP3 ADD MSTORE PUSH6 0x13585C1C1959 PUSH1 0xD2 SHL PUSH1 0x60 DUP3 ADD MSTORE PUSH1 0x80 ADD SWAP1 JUMP JUMPDEST PUSH1 0x20 DUP1 DUP3 MSTORE PUSH1 0x21 SWAP1 DUP3 ADD MSTORE PUSH32 0x4552433732313A20617070726F76616C20746F2063757272656E74206F776E65 PUSH1 0x40 DUP3 ADD MSTORE PUSH1 0x39 PUSH1 0xF9 SHL PUSH1 0x60 DUP3 ADD MSTORE PUSH1 0x80 ADD SWAP1 JUMP JUMPDEST PUSH1 0x20 DUP1 DUP3 MSTORE PUSH1 0x2F SWAP1 DUP3 ADD MSTORE PUSH32 0x436F726E466920416363756D44697374205661756C743A20496E76616C696420 PUSH1 0x40 DUP3 ADD MSTORE PUSH15 0x4EBEE8D2DACAE64E4098CADCCEE8D PUSH1 0x8B SHL PUSH1 0x60 DUP3 ADD MSTORE PUSH1 0x80 ADD SWAP1 JUMP JUMPDEST PUSH1 0x20 DUP1 DUP3 MSTORE PUSH1 0x31 SWAP1 DUP3 ADD MSTORE PUSH32 0x4552433732313A207472616E736665722063616C6C6572206973206E6F74206F PUSH1 0x40 DUP3 ADD MSTORE PUSH17 0x1DDB995C881B9BDC88185C1C1C9BDD9959 PUSH1 0x7A SHL PUSH1 0x60 DUP3 ADD MSTORE PUSH1 0x80 ADD SWAP1 JUMP JUMPDEST PUSH1 0x20 DUP1 DUP3 MSTORE PUSH1 0x29 SWAP1 DUP3 ADD MSTORE PUSH32 0x436F726E466920416363756D44697374205661756C743A204F72646572206973 PUSH1 0x40 DUP3 ADD MSTORE PUSH9 0x20496E616374697665 PUSH1 0xB8 SHL PUSH1 0x60 DUP3 ADD MSTORE PUSH1 0x80 ADD SWAP1 JUMP JUMPDEST PUSH1 0x20 DUP1 DUP3 MSTORE PUSH1 0x2A SWAP1 DUP3 ADD MSTORE PUSH32 0x5361666545524332303A204552433230206F7065726174696F6E20646964206E PUSH1 0x40 DUP3 ADD MSTORE PUSH10 0x1BDD081CDD58D8D95959 PUSH1 0xB2 SHL PUSH1 0x60 DUP3 ADD MSTORE PUSH1 0x80 ADD SWAP1 JUMP JUMPDEST PUSH1 0x20 DUP1 DUP3 MSTORE PUSH1 0x38 SWAP1 DUP3 ADD MSTORE PUSH32 0x436F726E466920416363756D44697374205661756C743A205261746573204172 PUSH1 0x40 DUP3 ADD MSTORE PUSH32 0x65204E6F7420696E20446563656E64696E67204F726465720000000000000000 PUSH1 0x60 DUP3 ADD MSTORE PUSH1 0x80 ADD SWAP1 JUMP JUMPDEST PUSH1 0x20 DUP1 DUP3 MSTORE PUSH1 0x2A SWAP1 DUP3 ADD MSTORE PUSH32 0x436F726E466920416363756D44697374205661756C743A204D617820546F6B65 PUSH1 0x40 DUP3 ADD MSTORE PUSH10 0x1B9CC814995858DA1959 PUSH1 0xB2 SHL PUSH1 0x60 DUP3 ADD MSTORE PUSH1 0x80 ADD SWAP1 JUMP JUMPDEST PUSH1 0x20 DUP1 DUP3 MSTORE PUSH1 0x1F SWAP1 DUP3 ADD MSTORE PUSH32 0x5361666545524332303A2063616C6C20746F206E6F6E2D636F6E747261637400 PUSH1 0x40 DUP3 ADD MSTORE PUSH1 0x60 ADD SWAP1 JUMP JUMPDEST PUSH1 0x0 PUSH1 0x20 DUP1 DUP4 MSTORE DUP4 MLOAD DUP2 DUP5 ADD MSTORE DUP1 DUP5 ADD MLOAD PUSH1 0x40 DUP5 ADD MSTORE PUSH1 0x40 DUP5 ADD MLOAD PUSH1 0x60 DUP5 ADD MSTORE PUSH1 0x60 DUP5 ADD MLOAD PUSH1 0x80 DUP5 ADD MSTORE PUSH1 0x80 DUP5 ADD MLOAD PUSH1 0xA0 DUP5 ADD DUP4 JUMPDEST PUSH1 0x2 DUP2 LT ISZERO PUSH2 0x5CC2 JUMPI PUSH2 0x5CB4 DUP3 DUP5 MLOAD PUSH2 0x4F1B JUMP JUMPDEST SWAP3 DUP5 ADD SWAP3 SWAP2 POP PUSH1 0x1 ADD PUSH2 0x5CA0 JUMP JUMPDEST POP POP POP POP PUSH1 0xA0 DUP4 ADD MLOAD PUSH2 0x5CD8 PUSH1 0xE0 DUP5 ADD DUP3 PUSH2 0x4F6F JUMP JUMPDEST POP PUSH1 0xC0 DUP4 ADD MLOAD PUSH2 0x140 DUP4 DUP2 ADD MSTORE PUSH2 0xBDD PUSH2 0x160 DUP5 ADD DUP3 PUSH2 0x4F92 JUMP JUMPDEST PUSH1 0x0 PUSH1 0x20 DUP3 MSTORE DUP3 MLOAD PUSH1 0x60 PUSH1 0x20 DUP5 ADD MSTORE PUSH2 0x5D0F PUSH1 0x80 DUP5 ADD DUP3 PUSH2 0x4F2C JUMP JUMPDEST SWAP1 POP PUSH1 0x20 DUP5 ADD MLOAD PUSH1 0x1F NOT DUP1 DUP6 DUP5 SUB ADD PUSH1 0x40 DUP7 ADD MSTORE PUSH2 0x5D2D DUP4 DUP4 PUSH2 0x4F92 JUMP JUMPDEST SWAP3 POP PUSH1 0x40 DUP7 ADD MLOAD SWAP2 POP DUP1 DUP6 DUP5 SUB ADD PUSH1 0x60 DUP7 ADD MSTORE POP PUSH2 0x5D4B DUP3 DUP3 PUSH2 0x4F92 JUMP JUMPDEST SWAP6 SWAP5 POP POP POP POP POP JUMP JUMPDEST SWAP1 DUP2 MSTORE PUSH1 0x20 ADD SWAP1 JUMP JUMPDEST PUSH1 0x0 DUP4 DUP3 MSTORE PUSH1 0x40 PUSH1 0x20 DUP4 ADD MSTORE PUSH2 0x1A15 PUSH1 0x40 DUP4 ADD DUP5 PUSH2 0x4F2C JUMP JUMPDEST PUSH1 0x0 DUP7 DUP3 MSTORE DUP6 PUSH1 0x20 DUP4 ADD MSTORE PUSH1 0xA0 PUSH1 0x40 DUP4 ADD MSTORE PUSH2 0x5D95 PUSH1 0xA0 DUP4 ADD DUP7 PUSH2 0x4F2C JUMP JUMPDEST PUSH1 0x1 PUSH1 0x1 PUSH1 0xA0 SHL SUB SWAP5 SWAP1 SWAP5 AND PUSH1 0x60 DUP4 ADD MSTORE POP PUSH1 0x80 ADD MSTORE SWAP4 SWAP3 POP POP POP JUMP JUMPDEST PUSH1 0x40 MLOAD DUP2 DUP2 ADD PUSH1 0x1 PUSH1 0x1 PUSH1 0x40 SHL SUB DUP2 GT DUP3 DUP3 LT OR ISZERO PUSH2 0x5DD0 JUMPI PUSH1 0x0 DUP1 REVERT JUMPDEST PUSH1 0x40 MSTORE SWAP2 SWAP1 POP JUMP JUMPDEST PUSH1 0x0 PUSH1 0x1 PUSH1 0x1 PUSH1 0x40 SHL SUB DUP3 GT ISZERO PUSH2 0x5DED JUMPI DUP1 DUP2 REVERT JUMPDEST POP PUSH1 0x20 SWAP1 DUP2 MUL ADD SWAP1 JUMP JUMPDEST PUSH1 0x0 JUMPDEST DUP4 DUP2 LT ISZERO PUSH2 0x5E12 JUMPI DUP2 DUP2 ADD MLOAD DUP4 DUP3 ADD MSTORE PUSH1 0x20 ADD PUSH2 0x5DFA JUMP JUMPDEST DUP4 DUP2 GT ISZERO PUSH2 0x125A JUMPI POP POP PUSH1 0x0 SWAP2 ADD MSTORE JUMP JUMPDEST PUSH1 0x1 PUSH1 0x1 PUSH1 0xA0 SHL SUB DUP2 AND DUP2 EQ PUSH2 0xA12 JUMPI PUSH1 0x0 DUP1 REVERT JUMPDEST DUP1 ISZERO ISZERO DUP2 EQ PUSH2 0xA12 JUMPI PUSH1 0x0 DUP1 REVERT JUMPDEST PUSH1 0x1 PUSH1 0x1 PUSH1 0xE0 SHL SUB NOT DUP2 AND DUP2 EQ PUSH2 0xA12 JUMPI PUSH1 0x0 DUP1 REVERT INVALID GASLIMIT MSTORE NUMBER CALLDATACOPY ORIGIN BALANCE GASPRICE KECCAK256 PUSH16 0x776E657220717565727920666F72206E PUSH16 0x6E6578697374656E7420746F6B656EA2 PUSH5 0x6970667358 0x22 SLT KECCAK256 PUSH7 0xF6AE6E9842FEDE 0xE6 MOD 0xD4 SWAP6 BALANCE 0xE4 0xB0 0x2D PUSH16 0x688E55ABE89210C81AA73D4A36097464 PUSH20 0x6F6C634300060C00330000000000000000000000 ",
  "sha1": "4c5424d011a8d50523271792a208f63e68a006c3",
  "source": "// SPDX-License-Identifier: MIT\npragma solidity 0.6.12;\n\nimport \"./VaultBase.sol\";\nimport \"../../interfaces/IUniswapV2Router02.sol\";\n\n\npragma experimental ABIEncoderV2;\n\n/**\n* @title Corn Finance Accumulator Distributor Vault\n* @author C.W.B.\n*/\ncontract AccumulatorDistributorVault is VaultBase {\n    constructor(\n        address _controller, \n        uint256 _maxTokens, \n        string memory _name, \n        string memory _symbol, \n        string memory _URI\n    ) public VaultBase(_controller, _maxTokens, _name, _symbol, _URI) {}\n\n    // --------------------------------------------------------------------------------\n\n    /**\n    * @dev This contract is owned by the Controller. Call 'createTrade' from the Controller\n    * to use this function.\n    * @notice Sell price (1) > sell price (2) > sell price (3)\n    * @param _from: Controller contract will forward 'msg.sender'\n    * @param _tokens:\n    *   [0] = from token \n    *   [1] = to token\n    * @param _amounts: \n    *   [0] = {required} starting amount\n    *   [1] = {required} buy price (token[0] / token[1]) * PRICE_MULTIPLIER()\n    *   [2] = {required} sell price (1) (token[1] / token[0]) * PRICE_MULTIPLIER()\n    *   [3] = {optional} sell price (2) (token[1] / token[0]) * PRICE_MULTIPLIER()\n    *   [4] = {optional} sell price (3) (token[1] / token[0]) * PRICE_MULTIPLIER()\n    * @param _times:\n    *   [0] = Expiration time in Unix. Orders will not be filled after this time.\n    * @return Order IDs of the created orders. Accum/Dist vault only creates the buy\n    * order when creating a trade. Thus, only one order ID is returned.\n    */\n    function createTrade(\n        address _from, \n        address[] memory _tokens, \n        uint256[] memory _amounts, \n        uint[] memory _times\n    ) external onlyOwner returns (uint256[] memory) {\n        // Only one expiration time allowed\n        require(_times.length == 1, \"CornFi AccumDist Vault: Invalid '_times' Length\");\n\n        // Trade consists of only two tokens\n        require(_tokens.length == 2, \"CornFi AccumDist Vault: Invalid '_tokens' Length\");\n\n        // Limit sell orders to 3. Deposit amount and buy price occupy the other two elements.\n        require(\n            _amounts.length >= 3 && _amounts.length <= 5, \n            \"CornFi AccumDist Vault: Invalid Amounts Length\"\n        );\n\n        // Check to make sure that the first rate is lower than the second rate. Since \n        // _amounts[1] is the inverted rate of _amounts[2:] and the , check if the \n        // product of the two rates is less than '1'. To account for the price multiplier,\n        // use (PRICE_MULTIPLIER ^ 2) instead of '1'.\n        //\n        // Failure to perform this check would result in a potentially continous state of\n        // creating and filling orders!!\n        //\n        // ex. USDC --> WMATIC --> USDC (Swap USDC to WMATIC then swap the WMATIC back to USDC)\n        // Buy price: 2.10 USDC / WMATIC\n        // Sell price: 2.05 USDC / WMATIC\n        //\n        // From the above example, USDC is swapped for WMATIC when the rate falls below 2.10\n        // and then swaps back to USDC when the rate is above 2.05. If the current rate is 2.08,\n        // the USDC is swapped for WMATIC and an order is created to swap the WMATIC received \n        // for USDC at 2.05 or above. Since the current price remains at 2.08, the order \n        // that was just created is now able to be filled. The cycle will continue as filling\n        // the WMATIC --> USDC order then creates a new order to swap the USDC back to WMATIC\n        // at 2.10 or below. Again, these conditions are met immediately. The cycle will\n        // repeat itself until the user either runs out of gas or the price moves out of\n        // range.\n        require(\n            _amounts[1].mul(_amounts[2]) < PRICE_MULTIPLIER.mul(PRICE_MULTIPLIER), \n            \"CornFi AccumDist Vault: First Price Too High\"\n        );\n\n        // Sell rates are elements [2:]\n        uint256[] memory rates = new uint256[](_amounts.length.sub(2));\n        for(uint i = 0; i < rates.length; i++) {\n            rates[i] = _amounts[i.add(2)];\n        }\n\n        // Sell rates must be in decending order\n        require(\n            _descendingOrder(rates), \n            \"CornFi AccumDist Vault: Rates Are Not in Decending Order\"\n        );\n\n        // Create the trade\n        uint256 amountInWithFee = _createTrade(_from, _tokens, _amounts, _times);\n\n        // Create the buy order\n        uint256[] memory orderIds = new uint256[](1);\n        orderIds[0] = _createOrder(\n            tokenCounter.sub(1), \n            0, \n            [\n                _tokens[0], \n                _tokens[1]\n            ], \n            [\n                amountInWithFee, \n                _getAmountOut(_tokens[0], _tokens[1], amountInWithFee, _amounts[1]), \n                0\n            ], \n            _times\n        );\n\n        // Return the order ID of the buy order\n        return orderIds;\n    }\n\n    // --------------------------------------------------------------------------------\n\n    /**\n    * @dev This contract is owned by the Controller. Call 'fillOrder' from the Controller\n    * to use this function.\n    * @param _from: Controller contract will forward 'msg.sender'\n    * @param _orderId: Order to fill\n    * @param _router: Router used to perform the swap (i.e. fill the order)\n    * @param _path: Path used to perform the swap\n    * @return Since Accum/Dist vault will continuously create orders after filling an\n    * order, the created order is returned.\n    */\n    function fillOrder(\n        address _from, \n        uint256 _orderId, \n        IUniswapV2Router02 _router, \n        address[] memory _path\n    ) external onlyOwner returns (Order memory) {\n        Order memory order = order(_orderId);\n\n        // // Withdraw tokens from holding strategy\n        // strategy(order.tokens[0]).withdraw(address(this), order.tokens[0], order.amounts[0]);\n    \n        // Fill order\n        (uint256 minAmountOut, uint256 amountOut) = _swap(_from, order, _router, _path);\n\n        // Revert if swap amount out is too low\n        require(\n            minAmountOut >= order.amounts[1], \n            \"CornFi AccumDist Vault: Insufficent Output Amount\"\n        );\n\n        // IStrategy strat = strategy(order.tokens[1]);\n\n        // // Handle fees\n        // uint256 txFee = strat.txFee(order.amounts[1]);\n        // uint256 remainder = amountOut.sub(order.amounts[1]);\n        // if(txFee.add(remainder) > 0) {\n        //     IERC20(order.tokens[1]).safeTransfer(controller.Fees(), remainder.add(txFee));\n        // }\n\n        // // Adjust order amount out to reflect fee\n        // orders[order.orderId].amounts[1] = order.amounts[1].sub(txFee);\n\n        // // Deposit swapped tokens into respective holding strategy\n        // IERC20(order.tokens[1]).approve(address(strat), orders[order.orderId].amounts[1]);\n        // strat.deposit(address(this), order.tokens[1], orders[order.orderId].amounts[1]);\n\n        // // Close order\n        // _closeOrderHelper(order.orderId);\n\n        // Create next order and return its order ID\n        return orders[_create(order)];\n    }\n    \n    // --------------------------------------------------------------------------------\n\n    /**\n    * @dev This contract is owned by the Controller. Call 'withdraw' from the Controller\n    * to use this function.\n    * @notice After calling this function, all orders associated with '_tokenId' are\n    * closed and their tokens are returned to the token owner. The token is then\n    * burnt and cannot be used again.\n    * @param _from: Controller contract will forward 'msg.sender'\n    * @param _tokenId: Vault token to withdraw\n    */\n    function withdraw(address _from, uint256 _tokenId) external onlyOwner {\n        _withdraw(_from, _tokenId);\n    }\n\n\n    // --------------------------------------------------------------------------------\n    // ////////////////////////////// Internal Functions //////////////////////////////\n    // --------------------------------------------------------------------------------\n\n    /**\n    * @dev Helper function to create orders. Use this over calling '_createOrder' directly\n    * @param _tokenId: Vault token that will own the created order\n    * @param _tradeId: The specific trade of a vault token that will include the created order.\n    * @param _fromToken: Token to trade\n    * @param _toToken: Token received from trade\n    * @param _amountIn: Amount of '_fromToken' being traded\n    * @param _price: Rate of '_fromToken' / '_toToken'\n    * @param _times: Order expiration time\n    * @return Order ID of the created order\n    */\n    function _createOrderHelper(\n        uint256 _tokenId, \n        uint256 _tradeId, \n        address _fromToken, \n        address _toToken, \n        uint256 _amountIn, \n        uint256 _price, \n        uint[] memory _times\n    ) internal returns (uint256) {\n        return _createOrder(\n            _tokenId, \n            _tradeId, \n            [\n                _fromToken, \n                _toToken\n            ], \n            [\n                _amountIn, \n                _getAmountOut(_fromToken, _toToken, _amountIn, _price), \n                0\n            ], \n            _times\n        );\n    }\n\n    // --------------------------------------------------------------------------------\n\n    /**\n    * @dev Determines if the next order is a buy or sell\n    * @param order: Order that was just filled. Next order is based on the current order\n    * being filled.\n    * @return Order ID of the created order \n    */\n    function _create(Order memory order) internal returns (uint256) {\n        // strategies[order.tokenId].amounts.length provides the count of\n        // the initial buy amount, buy price, and sell prices. By subtracting\n        // 2 from the length, the number of sell prices is determined.\n        // The number of sell prices indicates the number of sell orders\n        // within a trade. \n        uint256 length = strategies[order.tokenId].amounts.length.sub(2);\n\n        // ----------------------------------------------------------------------------\n        // As orders are added to a trade, 'tradeLength' is incremented.\n        // This is done to help determine the parameters of the next order.\n        // ----------------------------------------------------------------------------\n\n        // Only one order is present in the trade. Next order will be the\n        // reverse path of the order just filled.\n        if(tradeLength[order.tokenId][order.tradeId] == 1) {\n            return _createOrderHelper(\n                order.tokenId, \n                order.tradeId, \n                order.tokens[1], \n                order.tokens[0], \n                orders[trades[order.tokenId][order.tradeId][0]].amounts[1].div(length),\n                strategies[order.tokenId].amounts[tradeLength[order.tokenId][order.tradeId].add(1)], \n                order.times\n            );\n        }\n\n        // Current trade is complete. Next order is the buy order of a new trade\n        else if(tradeLength[order.tokenId][order.tradeId] == strategies[order.tokenId].amounts.length.sub(1)) {\n            return _createOrderHelper(\n                order.tokenId,\n                order.tradeId.add(1), \n                order.tokens[1], \n                order.tokens[0], \n                tokenAmounts[order.tokenId][order.tokens[1]], \n                strategies[order.tokenId].amounts[1], \n                order.times\n            );\n        }\n\n        // Trade still has remaining sell orders to create.\n        else {\n            return _createOrderHelper(\n                order.tokenId, \n                order.tradeId, \n                order.tokens[0], \n                order.tokens[1], \n                orders[trades[order.tokenId][order.tradeId][0]].amounts[1].div(length), \n                strategies[order.tokenId].amounts[tradeLength[order.tokenId][order.tradeId].add(1)], \n                order.times\n            );\n        }\n    }\n\n    // --------------------------------------------------------------------------------\n\n    /**\n    * @dev Use for checking swap rates inputted when a user creates a trade\n    * @param _values: Array of values to check if in decending order\n    * @return true: Values are in decending order; false: Values are not in decending order \n    */\n    function _descendingOrder(uint256[] memory _values) internal returns (bool) {\n        for(uint i = 1; i < _values.length; i++) {\n            if(_values[i-1] < _values[i]) {\n                return false;\n            }\n        }\n        return true;\n    }\n}",
  "sourcePath": "contracts/Vaults/AccumulatorDistributorVault.sol",
  "type": "contract"
}