{
  "abi": [
    {
      "inputs": [
        {
          "internalType": "bool",
          "name": "acceptEther",
          "type": "bool"
        }
      ],
      "name": "setAcceptEther",
      "outputs": [],
      "stateMutability": "nonpayable",
      "type": "function"
    },
    {
      "stateMutability": "payable",
      "type": "receive"
    }
  ],
  "bytecode": "6080604052348015600f57600080fd5b5060a38061001e6000396000f3fe608060405260043610601f5760003560e01c80634fea120c146038576033565b3660335760005460ff16603157600080fd5b005b600080fd5b348015604357600080fd5b50603160048036036020811015605857600080fd5b506000805460ff19169135151591909117905556fea2646970667358221220ae406edd49d7b928f4bb2bae7fba79265c61c59d7b7553b596724ed592c5e0d964736f6c634300060c0033",
  "bytecodeSha1": "726a2efe02c1de69664dce9502a425c52a010509",
  "compiler": {
    "evm_version": "istanbul",
    "optimizer": {
      "enabled": true,
      "runs": 200
    },
    "version": "0.6.12+commit.27d51765"
  },
  "contractName": "EtherReceiverMock",
  "language": "Solidity",
  "natspec": {
    "kind": "dev",
    "methods": {},
    "version": 1
  },
  "opcodes": "PUSH1 0x80 PUSH1 0x40 MSTORE PUSH1 0x4 CALLDATASIZE LT PUSH1 0x1F JUMPI PUSH1 0x0 CALLDATALOAD PUSH1 0xE0 SHR DUP1 PUSH4 0x4FEA120C EQ PUSH1 0x38 JUMPI PUSH1 0x33 JUMP JUMPDEST CALLDATASIZE PUSH1 0x33 JUMPI PUSH1 0x0 SLOAD PUSH1 0xFF AND PUSH1 0x31 JUMPI PUSH1 0x0 DUP1 REVERT JUMPDEST STOP JUMPDEST PUSH1 0x0 DUP1 REVERT JUMPDEST CALLVALUE DUP1 ISZERO PUSH1 0x43 JUMPI PUSH1 0x0 DUP1 REVERT JUMPDEST POP PUSH1 0x31 PUSH1 0x4 DUP1 CALLDATASIZE SUB PUSH1 0x20 DUP2 LT ISZERO PUSH1 0x58 JUMPI PUSH1 0x0 DUP1 REVERT JUMPDEST POP PUSH1 0x0 DUP1 SLOAD PUSH1 0xFF NOT AND SWAP2 CALLDATALOAD ISZERO ISZERO SWAP2 SWAP1 SWAP2 OR SWAP1 SSTORE JUMP INVALID LOG2 PUSH5 0x6970667358 0x22 SLT KECCAK256 0xAE BLOCKHASH PUSH15 0xDD49D7B928F4BB2BAE7FBA79265C61 0xC5 SWAP14 PUSH28 0x7553B596724ED592C5E0D964736F6C634300060C0033000000000000 ",
  "sha1": "786ebc071736540a4f5d2ddb4d5367a087d5795f",
  "source": "pragma solidity ^0.6.0;\n\ncontract EtherReceiverMock {\n    bool private _acceptEther;\n\n    function setAcceptEther(bool acceptEther) public {\n        _acceptEther = acceptEther;\n    }\n\n    receive () external payable {\n        if (!_acceptEther) {\n            revert();\n        }\n    }\n}\n",
  "sourcePath": "contracts/openzeppelin/contracts/mocks/EtherReceiverMock.sol",
  "type": "contract"
}