{
  "abi": [
    {
      "inputs": [
        {
          "internalType": "uint256",
          "name": "_vaultId",
          "type": "uint256"
        },
        {
          "internalType": "uint256",
          "name": "_orderId",
          "type": "uint256"
        },
        {
          "internalType": "address",
          "name": "_fromToken",
          "type": "address"
        },
        {
          "internalType": "address",
          "name": "_toToken",
          "type": "address"
        },
        {
          "internalType": "uint256",
          "name": "_fromAmount",
          "type": "uint256"
        }
      ],
      "name": "checker",
      "outputs": [
        {
          "internalType": "bool",
          "name": "",
          "type": "bool"
        },
        {
          "internalType": "bytes",
          "name": "",
          "type": "bytes"
        }
      ],
      "stateMutability": "view",
      "type": "function"
    },
    {
      "inputs": [
        {
          "internalType": "uint256",
          "name": "",
          "type": "uint256"
        }
      ],
      "name": "connectorTokens",
      "outputs": [
        {
          "internalType": "address",
          "name": "",
          "type": "address"
        }
      ],
      "stateMutability": "view",
      "type": "function"
    },
    {
      "inputs": [
        {
          "internalType": "address",
          "name": "_fromToken",
          "type": "address"
        },
        {
          "internalType": "address",
          "name": "_toToken",
          "type": "address"
        },
        {
          "internalType": "uint256",
          "name": "_amountIn",
          "type": "uint256"
        }
      ],
      "name": "findBestPath",
      "outputs": [
        {
          "internalType": "address",
          "name": "",
          "type": "address"
        },
        {
          "internalType": "address[]",
          "name": "",
          "type": "address[]"
        },
        {
          "internalType": "uint256",
          "name": "",
          "type": "uint256"
        }
      ],
      "stateMutability": "view",
      "type": "function"
    },
    {
      "inputs": [
        {
          "internalType": "contract IUniswapV2Router02",
          "name": "_router",
          "type": "address"
        },
        {
          "internalType": "uint256",
          "name": "_amountIn",
          "type": "uint256"
        },
        {
          "internalType": "address",
          "name": "_fromToken",
          "type": "address"
        },
        {
          "internalType": "address",
          "name": "_connectorToken",
          "type": "address"
        },
        {
          "internalType": "address",
          "name": "_toToken",
          "type": "address"
        }
      ],
      "name": "getAmountOut",
      "outputs": [
        {
          "internalType": "uint256",
          "name": "",
          "type": "uint256"
        }
      ],
      "stateMutability": "view",
      "type": "function"
    },
    {
      "inputs": [
        {
          "internalType": "uint256",
          "name": "",
          "type": "uint256"
        }
      ],
      "name": "routers",
      "outputs": [
        {
          "internalType": "contract IUniswapV2Router02",
          "name": "",
          "type": "address"
        }
      ],
      "stateMutability": "view",
      "type": "function"
    }
  ],
  "bytecode": "61014060405273a5e0829caced8ffdd4de3c43696c57f7d7a678ff6080908152731b02da8cb0d097eb8d57a175b88c7d8b4799750660a0527394930a328162957ff1dd48900af67b5439336cbd60c05273c0788a3ad43d79aa53b09c2eacc313a787d1d60760e05273a102072a4c07f06ec3b4900fdc4c7b80b6c5742961010052733a1d87f206d12415f5b0a33e786967680aab4f6d610120526100a790600090600661016e565b506040805160c081018252738f3cf7ad23cd3cadbd9735aff958023239c6a0638152732791bca1f2de4661ed88a30c99a7a9449aa841746020820152730d500b1d8e8ef31e21c99d1db9a6444d3adf127091810191909152737ceb23fd6bc0add59e62ac25578270cff1b9f619606082015273c2132d05d31c914a87c6611c10748aeb04b58e8f608082015273831753dd7087cac61ab5644b308642cc1c33dc1360a082015261015b90600190600661016e565b5034801561016857600080fd5b506101f2565b8280548282559060005260206000209081019282156101c3579160200282015b828111156101c357825182546001600160a01b0319166001600160a01b0390911617825560209092019160019091019061018e565b506101cf9291506101d3565b5090565b5b808211156101cf5780546001600160a01b03191681556001016101d4565b6109cc806102016000396000f3fe608060405234801561001057600080fd5b50600436106100575760003560e01c806319b640151461005c5780631ead1052146100955780633dfea772146100ed5780634e9c11181461018e578063e34ca65d146101ab575b600080fd5b6100796004803603602081101561007257600080fd5b503561026e565b604080516001600160a01b039092168252519081900360200190f35b6100db600480360360a08110156100ab57600080fd5b506001600160a01b0381358116916020810135916040820135811691606081013582169160809091013516610295565b60408051918252519081900360200190f35b6101236004803603606081101561010357600080fd5b506001600160a01b0381358116916020810135909116906040013561055d565b60405180846001600160a01b0316815260200180602001838152602001828103825284818151815260200191508051906020019060200280838360005b83811015610178578181015183820152602001610160565b5050505090500194505050505060405180910390f35b610079600480360360208110156101a457600080fd5b50356107d4565b6101ed600480360360a08110156101c157600080fd5b508035906020810135906001600160a01b036040820135811691606081013590911690608001356107e1565b60405180831515815260200180602001828103825283818151815260200191508051906020019080838360005b8381101561023257818101518382015260200161021a565b50505050905090810190601f16801561025f5780820380516001836020036101000a031916815260200191505b50935050505060405180910390f35b6001818154811061027b57fe5b6000918252602090912001546001600160a01b0316905081565b600060606001600160a01b03841661032857604080516002808252606082018352909160208301908036833701905050905084816000815181106102d557fe5b60200260200101906001600160a01b031690816001600160a01b031681525050828160018151811061030357fe5b60200260200101906001600160a01b031690816001600160a01b0316815250506103d4565b604080516003808252608082019092529060208201606080368337019050509050848160008151811061035757fe5b60200260200101906001600160a01b031690816001600160a01b031681525050838160018151811061038557fe5b60200260200101906001600160a01b031690816001600160a01b03168152505082816002815181106103b357fe5b60200260200101906001600160a01b031690816001600160a01b0316815250505b6040805163d06ca61f60e01b815260048101888152602482019283528351604483015283516001600160a01b038b169363d06ca61f938b938793909291606401906020808601910280838360005b8381101561043a578181015183820152602001610422565b50505050905001935050505060006040518083038186803b15801561045e57600080fd5b505afa92505050801561052057506040513d6000823e601f3d908101601f19168201604052602081101561049157600080fd5b81019080805160405193929190846401000000008211156104b157600080fd5b9083019060208201858111156104c657600080fd5b82518660208202830111640100000000821117156104e357600080fd5b82525081516020918201928201910280838360005b838110156105105781810151838201526020016104f8565b5050505090500160405250505060015b61052e576000915050610554565b8151819061053d9060016108b6565b8151811061054757fe5b6020026020010151925050505b95945050505050565b6000606081808080888888835b6000548110156106825760005b6001548110156106795760006001828154811061059057fe5b6000918252602090912001546001600160a01b03878116911614806105d85750600182815481106105bd57fe5b6000918252602090912001546001600160a01b038681169116145b61060357600182815481106105e957fe5b6000918252602090912001546001600160a01b0316610606565b60005b905060006106386000858154811061061a57fe5b6000918252602090912001546001600160a01b03168689858a610295565b90508981111561066f578099506000848154811061065257fe5b6000918252602090912001546001600160a01b0316985090965086905b5050600101610577565b5060010161056a565b5060606001600160a01b03851661071457604080516002808252606082018352909160208301908036833701905050905083816000815181106106c157fe5b60200260200101906001600160a01b031690816001600160a01b03168152505082816001815181106106ef57fe5b60200260200101906001600160a01b031690816001600160a01b0316815250506107c0565b604080516003808252608082019092529060208201606080368337019050509050838160008151811061074357fe5b60200260200101906001600160a01b031690816001600160a01b031681525050848160018151811061077157fe5b60200260200101906001600160a01b031690816001600160a01b031681525050828160028151811061079f57fe5b60200260200101906001600160a01b031690816001600160a01b0316815250505b949c949b5094995092975050505050505050565b6000818154811061027b57fe5b60006060600060606107f487878761055d565b5091509150600163c71a6d0660e01b8a8a858560405160240180858152602001848152602001836001600160a01b0316815260200180602001828103825283818151815260200191508051906020019060200280838360005b8381101561086557818101518382015260200161084d565b5050505090500195505050505050604051602081830303815290604052906001600160e01b0319166020820180516001600160e01b0383818316178352505050509350935050509550959350505050565b60006108f883836040518060400160405280601e81526020017f536166654d6174683a207375627472616374696f6e206f766572666c6f7700008152506108ff565b9392505050565b6000818484111561098e5760405162461bcd60e51b81526004018080602001828103825283818151815260200191508051906020019080838360005b8381101561095357818101518382015260200161093b565b50505050905090810190601f1680156109805780820380516001836020036101000a031916815260200191505b509250505060405180910390fd5b50505090039056fea264697066735822122097affae93abd4c83c38ea3ca68dcc38cd2ff4be4ca2a6b84df350828169a728364736f6c634300060c0033",
  "bytecodeSha1": "6a706cbb0804b7d79985562dfa77af3729a756cf",
  "compiler": {
    "evm_version": "istanbul",
    "optimizer": {
      "enabled": true,
      "runs": 200
    },
    "version": "0.6.12+commit.27d51765"
  },
  "contractName": "Resolver",
  "language": "Solidity",
  "natspec": {
    "author": "C.W.B.",
    "kind": "dev",
    "methods": {
      "checker(uint256,uint256,address,address,uint256)": {
        "details": "Gelato executor will call this function before calling 'fillOrderGelato()' in the Controller contract.",
        "params": {
          "_fromAmount": ": Amount of '_fromToken' going into the swap",
          "_fromToken": ": ERC20 token being swapped",
          "_orderId": ": Order to fill",
          "_toToken": ": ERC20 token received from swap",
          "_vaultId": ": Vault that holds the order"
        },
        "returns": {
          "_0": "(true: Gelato executor call 'fillOrderGelato()'; false: Gelato executor  will not call 'fillOrderGelato()', Input data for 'fillOrderGelato()')"
        }
      },
      "findBestPath(address,address,uint256)": {
        "params": {
          "_amountIn": ": Amount of '_fromToken' going into the swap ",
          "_fromToken": ": ERC20 token being swapped",
          "_toToken": ": ERC20 token received from swap"
        }
      },
      "getAmountOut(address,uint256,address,address,address)": {
        "params": {
          "_amountIn": ": Amount of '_fromToken' going into the swap",
          "_connectorToken": ": ERC20 token that connects the 'from' and 'to' tokens",
          "_fromToken": ": ERC20 token being swapped",
          "_router": ": Router used to perform a swap",
          "_toToken": ": ERC20 token received from the swap"
        },
        "returns": {
          "_0": "Amount of '_toToken' received from the swap"
        }
      }
    },
    "notice": "When resolver contracts are called, the returned data is used as the input data on a seperate call. This means that the call to the resolver contract does not affect the gas used on the 'fillOrderGelato()' call. This resolver contract is used for finding the best swap path across numerous Uniswap V2 Routers. Paths will be either:   a.) from token --> to token   b.) from token --> connector token --> to token The best path and router are then encoded with the respective order data. The encoded data is used as input data for 'fillOrderGelato()' in the Controller contract.",
    "title": "Corn Finance Gelato Resolver",
    "version": 1
  },
  "opcodes": "PUSH1 0x80 PUSH1 0x40 MSTORE CALLVALUE DUP1 ISZERO PUSH2 0x10 JUMPI PUSH1 0x0 DUP1 REVERT JUMPDEST POP PUSH1 0x4 CALLDATASIZE LT PUSH2 0x57 JUMPI PUSH1 0x0 CALLDATALOAD PUSH1 0xE0 SHR DUP1 PUSH4 0x19B64015 EQ PUSH2 0x5C JUMPI DUP1 PUSH4 0x1EAD1052 EQ PUSH2 0x95 JUMPI DUP1 PUSH4 0x3DFEA772 EQ PUSH2 0xED JUMPI DUP1 PUSH4 0x4E9C1118 EQ PUSH2 0x18E JUMPI DUP1 PUSH4 0xE34CA65D EQ PUSH2 0x1AB JUMPI JUMPDEST PUSH1 0x0 DUP1 REVERT JUMPDEST PUSH2 0x79 PUSH1 0x4 DUP1 CALLDATASIZE SUB PUSH1 0x20 DUP2 LT ISZERO PUSH2 0x72 JUMPI PUSH1 0x0 DUP1 REVERT JUMPDEST POP CALLDATALOAD PUSH2 0x26E JUMP JUMPDEST PUSH1 0x40 DUP1 MLOAD PUSH1 0x1 PUSH1 0x1 PUSH1 0xA0 SHL SUB SWAP1 SWAP3 AND DUP3 MSTORE MLOAD SWAP1 DUP2 SWAP1 SUB PUSH1 0x20 ADD SWAP1 RETURN JUMPDEST PUSH2 0xDB PUSH1 0x4 DUP1 CALLDATASIZE SUB PUSH1 0xA0 DUP2 LT ISZERO PUSH2 0xAB JUMPI PUSH1 0x0 DUP1 REVERT JUMPDEST POP PUSH1 0x1 PUSH1 0x1 PUSH1 0xA0 SHL SUB DUP2 CALLDATALOAD DUP2 AND SWAP2 PUSH1 0x20 DUP2 ADD CALLDATALOAD SWAP2 PUSH1 0x40 DUP3 ADD CALLDATALOAD DUP2 AND SWAP2 PUSH1 0x60 DUP2 ADD CALLDATALOAD DUP3 AND SWAP2 PUSH1 0x80 SWAP1 SWAP2 ADD CALLDATALOAD AND PUSH2 0x295 JUMP JUMPDEST PUSH1 0x40 DUP1 MLOAD SWAP2 DUP3 MSTORE MLOAD SWAP1 DUP2 SWAP1 SUB PUSH1 0x20 ADD SWAP1 RETURN JUMPDEST PUSH2 0x123 PUSH1 0x4 DUP1 CALLDATASIZE SUB PUSH1 0x60 DUP2 LT ISZERO PUSH2 0x103 JUMPI PUSH1 0x0 DUP1 REVERT JUMPDEST POP PUSH1 0x1 PUSH1 0x1 PUSH1 0xA0 SHL SUB DUP2 CALLDATALOAD DUP2 AND SWAP2 PUSH1 0x20 DUP2 ADD CALLDATALOAD SWAP1 SWAP2 AND SWAP1 PUSH1 0x40 ADD CALLDATALOAD PUSH2 0x55D JUMP JUMPDEST PUSH1 0x40 MLOAD DUP1 DUP5 PUSH1 0x1 PUSH1 0x1 PUSH1 0xA0 SHL SUB AND DUP2 MSTORE PUSH1 0x20 ADD DUP1 PUSH1 0x20 ADD DUP4 DUP2 MSTORE PUSH1 0x20 ADD DUP3 DUP2 SUB DUP3 MSTORE DUP5 DUP2 DUP2 MLOAD DUP2 MSTORE PUSH1 0x20 ADD SWAP2 POP DUP1 MLOAD SWAP1 PUSH1 0x20 ADD SWAP1 PUSH1 0x20 MUL DUP1 DUP4 DUP4 PUSH1 0x0 JUMPDEST DUP4 DUP2 LT ISZERO PUSH2 0x178 JUMPI DUP2 DUP2 ADD MLOAD DUP4 DUP3 ADD MSTORE PUSH1 0x20 ADD PUSH2 0x160 JUMP JUMPDEST POP POP POP POP SWAP1 POP ADD SWAP5 POP POP POP POP POP PUSH1 0x40 MLOAD DUP1 SWAP2 SUB SWAP1 RETURN JUMPDEST PUSH2 0x79 PUSH1 0x4 DUP1 CALLDATASIZE SUB PUSH1 0x20 DUP2 LT ISZERO PUSH2 0x1A4 JUMPI PUSH1 0x0 DUP1 REVERT JUMPDEST POP CALLDATALOAD PUSH2 0x7D4 JUMP JUMPDEST PUSH2 0x1ED PUSH1 0x4 DUP1 CALLDATASIZE SUB PUSH1 0xA0 DUP2 LT ISZERO PUSH2 0x1C1 JUMPI PUSH1 0x0 DUP1 REVERT JUMPDEST POP DUP1 CALLDATALOAD SWAP1 PUSH1 0x20 DUP2 ADD CALLDATALOAD SWAP1 PUSH1 0x1 PUSH1 0x1 PUSH1 0xA0 SHL SUB PUSH1 0x40 DUP3 ADD CALLDATALOAD DUP2 AND SWAP2 PUSH1 0x60 DUP2 ADD CALLDATALOAD SWAP1 SWAP2 AND SWAP1 PUSH1 0x80 ADD CALLDATALOAD PUSH2 0x7E1 JUMP JUMPDEST PUSH1 0x40 MLOAD DUP1 DUP4 ISZERO ISZERO DUP2 MSTORE PUSH1 0x20 ADD DUP1 PUSH1 0x20 ADD DUP3 DUP2 SUB DUP3 MSTORE DUP4 DUP2 DUP2 MLOAD DUP2 MSTORE PUSH1 0x20 ADD SWAP2 POP DUP1 MLOAD SWAP1 PUSH1 0x20 ADD SWAP1 DUP1 DUP4 DUP4 PUSH1 0x0 JUMPDEST DUP4 DUP2 LT ISZERO PUSH2 0x232 JUMPI DUP2 DUP2 ADD MLOAD DUP4 DUP3 ADD MSTORE PUSH1 0x20 ADD PUSH2 0x21A JUMP JUMPDEST POP POP POP POP SWAP1 POP SWAP1 DUP2 ADD SWAP1 PUSH1 0x1F AND DUP1 ISZERO PUSH2 0x25F JUMPI DUP1 DUP3 SUB DUP1 MLOAD PUSH1 0x1 DUP4 PUSH1 0x20 SUB PUSH2 0x100 EXP SUB NOT AND DUP2 MSTORE PUSH1 0x20 ADD SWAP2 POP JUMPDEST POP SWAP4 POP POP POP POP PUSH1 0x40 MLOAD DUP1 SWAP2 SUB SWAP1 RETURN JUMPDEST PUSH1 0x1 DUP2 DUP2 SLOAD DUP2 LT PUSH2 0x27B JUMPI INVALID JUMPDEST PUSH1 0x0 SWAP2 DUP3 MSTORE PUSH1 0x20 SWAP1 SWAP2 KECCAK256 ADD SLOAD PUSH1 0x1 PUSH1 0x1 PUSH1 0xA0 SHL SUB AND SWAP1 POP DUP2 JUMP JUMPDEST PUSH1 0x0 PUSH1 0x60 PUSH1 0x1 PUSH1 0x1 PUSH1 0xA0 SHL SUB DUP5 AND PUSH2 0x328 JUMPI PUSH1 0x40 DUP1 MLOAD PUSH1 0x2 DUP1 DUP3 MSTORE PUSH1 0x60 DUP3 ADD DUP4 MSTORE SWAP1 SWAP2 PUSH1 0x20 DUP4 ADD SWAP1 DUP1 CALLDATASIZE DUP4 CALLDATACOPY ADD SWAP1 POP POP SWAP1 POP DUP5 DUP2 PUSH1 0x0 DUP2 MLOAD DUP2 LT PUSH2 0x2D5 JUMPI INVALID JUMPDEST PUSH1 0x20 MUL PUSH1 0x20 ADD ADD SWAP1 PUSH1 0x1 PUSH1 0x1 PUSH1 0xA0 SHL SUB AND SWAP1 DUP2 PUSH1 0x1 PUSH1 0x1 PUSH1 0xA0 SHL SUB AND DUP2 MSTORE POP POP DUP3 DUP2 PUSH1 0x1 DUP2 MLOAD DUP2 LT PUSH2 0x303 JUMPI INVALID JUMPDEST PUSH1 0x20 MUL PUSH1 0x20 ADD ADD SWAP1 PUSH1 0x1 PUSH1 0x1 PUSH1 0xA0 SHL SUB AND SWAP1 DUP2 PUSH1 0x1 PUSH1 0x1 PUSH1 0xA0 SHL SUB AND DUP2 MSTORE POP POP PUSH2 0x3D4 JUMP JUMPDEST PUSH1 0x40 DUP1 MLOAD PUSH1 0x3 DUP1 DUP3 MSTORE PUSH1 0x80 DUP3 ADD SWAP1 SWAP3 MSTORE SWAP1 PUSH1 0x20 DUP3 ADD PUSH1 0x60 DUP1 CALLDATASIZE DUP4 CALLDATACOPY ADD SWAP1 POP POP SWAP1 POP DUP5 DUP2 PUSH1 0x0 DUP2 MLOAD DUP2 LT PUSH2 0x357 JUMPI INVALID JUMPDEST PUSH1 0x20 MUL PUSH1 0x20 ADD ADD SWAP1 PUSH1 0x1 PUSH1 0x1 PUSH1 0xA0 SHL SUB AND SWAP1 DUP2 PUSH1 0x1 PUSH1 0x1 PUSH1 0xA0 SHL SUB AND DUP2 MSTORE POP POP DUP4 DUP2 PUSH1 0x1 DUP2 MLOAD DUP2 LT PUSH2 0x385 JUMPI INVALID JUMPDEST PUSH1 0x20 MUL PUSH1 0x20 ADD ADD SWAP1 PUSH1 0x1 PUSH1 0x1 PUSH1 0xA0 SHL SUB AND SWAP1 DUP2 PUSH1 0x1 PUSH1 0x1 PUSH1 0xA0 SHL SUB AND DUP2 MSTORE POP POP DUP3 DUP2 PUSH1 0x2 DUP2 MLOAD DUP2 LT PUSH2 0x3B3 JUMPI INVALID JUMPDEST PUSH1 0x20 MUL PUSH1 0x20 ADD ADD SWAP1 PUSH1 0x1 PUSH1 0x1 PUSH1 0xA0 SHL SUB AND SWAP1 DUP2 PUSH1 0x1 PUSH1 0x1 PUSH1 0xA0 SHL SUB AND DUP2 MSTORE POP POP JUMPDEST PUSH1 0x40 DUP1 MLOAD PUSH4 0xD06CA61F PUSH1 0xE0 SHL DUP2 MSTORE PUSH1 0x4 DUP2 ADD DUP9 DUP2 MSTORE PUSH1 0x24 DUP3 ADD SWAP3 DUP4 MSTORE DUP4 MLOAD PUSH1 0x44 DUP4 ADD MSTORE DUP4 MLOAD PUSH1 0x1 PUSH1 0x1 PUSH1 0xA0 SHL SUB DUP12 AND SWAP4 PUSH4 0xD06CA61F SWAP4 DUP12 SWAP4 DUP8 SWAP4 SWAP1 SWAP3 SWAP2 PUSH1 0x64 ADD SWAP1 PUSH1 0x20 DUP1 DUP7 ADD SWAP2 MUL DUP1 DUP4 DUP4 PUSH1 0x0 JUMPDEST DUP4 DUP2 LT ISZERO PUSH2 0x43A JUMPI DUP2 DUP2 ADD MLOAD DUP4 DUP3 ADD MSTORE PUSH1 0x20 ADD PUSH2 0x422 JUMP JUMPDEST POP POP POP POP SWAP1 POP ADD SWAP4 POP POP POP POP PUSH1 0x0 PUSH1 0x40 MLOAD DUP1 DUP4 SUB DUP2 DUP7 DUP1 EXTCODESIZE ISZERO DUP1 ISZERO PUSH2 0x45E JUMPI PUSH1 0x0 DUP1 REVERT JUMPDEST POP GAS STATICCALL SWAP3 POP POP POP DUP1 ISZERO PUSH2 0x520 JUMPI POP PUSH1 0x40 MLOAD RETURNDATASIZE PUSH1 0x0 DUP3 RETURNDATACOPY PUSH1 0x1F RETURNDATASIZE SWAP1 DUP2 ADD PUSH1 0x1F NOT AND DUP3 ADD PUSH1 0x40 MSTORE PUSH1 0x20 DUP2 LT ISZERO PUSH2 0x491 JUMPI PUSH1 0x0 DUP1 REVERT JUMPDEST DUP2 ADD SWAP1 DUP1 DUP1 MLOAD PUSH1 0x40 MLOAD SWAP4 SWAP3 SWAP2 SWAP1 DUP5 PUSH5 0x100000000 DUP3 GT ISZERO PUSH2 0x4B1 JUMPI PUSH1 0x0 DUP1 REVERT JUMPDEST SWAP1 DUP4 ADD SWAP1 PUSH1 0x20 DUP3 ADD DUP6 DUP2 GT ISZERO PUSH2 0x4C6 JUMPI PUSH1 0x0 DUP1 REVERT JUMPDEST DUP3 MLOAD DUP7 PUSH1 0x20 DUP3 MUL DUP4 ADD GT PUSH5 0x100000000 DUP3 GT OR ISZERO PUSH2 0x4E3 JUMPI PUSH1 0x0 DUP1 REVERT JUMPDEST DUP3 MSTORE POP DUP2 MLOAD PUSH1 0x20 SWAP2 DUP3 ADD SWAP3 DUP3 ADD SWAP2 MUL DUP1 DUP4 DUP4 PUSH1 0x0 JUMPDEST DUP4 DUP2 LT ISZERO PUSH2 0x510 JUMPI DUP2 DUP2 ADD MLOAD DUP4 DUP3 ADD MSTORE PUSH1 0x20 ADD PUSH2 0x4F8 JUMP JUMPDEST POP POP POP POP SWAP1 POP ADD PUSH1 0x40 MSTORE POP POP POP PUSH1 0x1 JUMPDEST PUSH2 0x52E JUMPI PUSH1 0x0 SWAP2 POP POP PUSH2 0x554 JUMP JUMPDEST DUP2 MLOAD DUP2 SWAP1 PUSH2 0x53D SWAP1 PUSH1 0x1 PUSH2 0x8B6 JUMP JUMPDEST DUP2 MLOAD DUP2 LT PUSH2 0x547 JUMPI INVALID JUMPDEST PUSH1 0x20 MUL PUSH1 0x20 ADD ADD MLOAD SWAP3 POP POP POP JUMPDEST SWAP6 SWAP5 POP POP POP POP POP JUMP JUMPDEST PUSH1 0x0 PUSH1 0x60 DUP2 DUP1 DUP1 DUP1 DUP9 DUP9 DUP9 DUP4 JUMPDEST PUSH1 0x0 SLOAD DUP2 LT ISZERO PUSH2 0x682 JUMPI PUSH1 0x0 JUMPDEST PUSH1 0x1 SLOAD DUP2 LT ISZERO PUSH2 0x679 JUMPI PUSH1 0x0 PUSH1 0x1 DUP3 DUP2 SLOAD DUP2 LT PUSH2 0x590 JUMPI INVALID JUMPDEST PUSH1 0x0 SWAP2 DUP3 MSTORE PUSH1 0x20 SWAP1 SWAP2 KECCAK256 ADD SLOAD PUSH1 0x1 PUSH1 0x1 PUSH1 0xA0 SHL SUB DUP8 DUP2 AND SWAP2 AND EQ DUP1 PUSH2 0x5D8 JUMPI POP PUSH1 0x1 DUP3 DUP2 SLOAD DUP2 LT PUSH2 0x5BD JUMPI INVALID JUMPDEST PUSH1 0x0 SWAP2 DUP3 MSTORE PUSH1 0x20 SWAP1 SWAP2 KECCAK256 ADD SLOAD PUSH1 0x1 PUSH1 0x1 PUSH1 0xA0 SHL SUB DUP7 DUP2 AND SWAP2 AND EQ JUMPDEST PUSH2 0x603 JUMPI PUSH1 0x1 DUP3 DUP2 SLOAD DUP2 LT PUSH2 0x5E9 JUMPI INVALID JUMPDEST PUSH1 0x0 SWAP2 DUP3 MSTORE PUSH1 0x20 SWAP1 SWAP2 KECCAK256 ADD SLOAD PUSH1 0x1 PUSH1 0x1 PUSH1 0xA0 SHL SUB AND PUSH2 0x606 JUMP JUMPDEST PUSH1 0x0 JUMPDEST SWAP1 POP PUSH1 0x0 PUSH2 0x638 PUSH1 0x0 DUP6 DUP2 SLOAD DUP2 LT PUSH2 0x61A JUMPI INVALID JUMPDEST PUSH1 0x0 SWAP2 DUP3 MSTORE PUSH1 0x20 SWAP1 SWAP2 KECCAK256 ADD SLOAD PUSH1 0x1 PUSH1 0x1 PUSH1 0xA0 SHL SUB AND DUP7 DUP10 DUP6 DUP11 PUSH2 0x295 JUMP JUMPDEST SWAP1 POP DUP10 DUP2 GT ISZERO PUSH2 0x66F JUMPI DUP1 SWAP10 POP PUSH1 0x0 DUP5 DUP2 SLOAD DUP2 LT PUSH2 0x652 JUMPI INVALID JUMPDEST PUSH1 0x0 SWAP2 DUP3 MSTORE PUSH1 0x20 SWAP1 SWAP2 KECCAK256 ADD SLOAD PUSH1 0x1 PUSH1 0x1 PUSH1 0xA0 SHL SUB AND SWAP9 POP SWAP1 SWAP7 POP DUP7 SWAP1 JUMPDEST POP POP PUSH1 0x1 ADD PUSH2 0x577 JUMP JUMPDEST POP PUSH1 0x1 ADD PUSH2 0x56A JUMP JUMPDEST POP PUSH1 0x60 PUSH1 0x1 PUSH1 0x1 PUSH1 0xA0 SHL SUB DUP6 AND PUSH2 0x714 JUMPI PUSH1 0x40 DUP1 MLOAD PUSH1 0x2 DUP1 DUP3 MSTORE PUSH1 0x60 DUP3 ADD DUP4 MSTORE SWAP1 SWAP2 PUSH1 0x20 DUP4 ADD SWAP1 DUP1 CALLDATASIZE DUP4 CALLDATACOPY ADD SWAP1 POP POP SWAP1 POP DUP4 DUP2 PUSH1 0x0 DUP2 MLOAD DUP2 LT PUSH2 0x6C1 JUMPI INVALID JUMPDEST PUSH1 0x20 MUL PUSH1 0x20 ADD ADD SWAP1 PUSH1 0x1 PUSH1 0x1 PUSH1 0xA0 SHL SUB AND SWAP1 DUP2 PUSH1 0x1 PUSH1 0x1 PUSH1 0xA0 SHL SUB AND DUP2 MSTORE POP POP DUP3 DUP2 PUSH1 0x1 DUP2 MLOAD DUP2 LT PUSH2 0x6EF JUMPI INVALID JUMPDEST PUSH1 0x20 MUL PUSH1 0x20 ADD ADD SWAP1 PUSH1 0x1 PUSH1 0x1 PUSH1 0xA0 SHL SUB AND SWAP1 DUP2 PUSH1 0x1 PUSH1 0x1 PUSH1 0xA0 SHL SUB AND DUP2 MSTORE POP POP PUSH2 0x7C0 JUMP JUMPDEST PUSH1 0x40 DUP1 MLOAD PUSH1 0x3 DUP1 DUP3 MSTORE PUSH1 0x80 DUP3 ADD SWAP1 SWAP3 MSTORE SWAP1 PUSH1 0x20 DUP3 ADD PUSH1 0x60 DUP1 CALLDATASIZE DUP4 CALLDATACOPY ADD SWAP1 POP POP SWAP1 POP DUP4 DUP2 PUSH1 0x0 DUP2 MLOAD DUP2 LT PUSH2 0x743 JUMPI INVALID JUMPDEST PUSH1 0x20 MUL PUSH1 0x20 ADD ADD SWAP1 PUSH1 0x1 PUSH1 0x1 PUSH1 0xA0 SHL SUB AND SWAP1 DUP2 PUSH1 0x1 PUSH1 0x1 PUSH1 0xA0 SHL SUB AND DUP2 MSTORE POP POP DUP5 DUP2 PUSH1 0x1 DUP2 MLOAD DUP2 LT PUSH2 0x771 JUMPI INVALID JUMPDEST PUSH1 0x20 MUL PUSH1 0x20 ADD ADD SWAP1 PUSH1 0x1 PUSH1 0x1 PUSH1 0xA0 SHL SUB AND SWAP1 DUP2 PUSH1 0x1 PUSH1 0x1 PUSH1 0xA0 SHL SUB AND DUP2 MSTORE POP POP DUP3 DUP2 PUSH1 0x2 DUP2 MLOAD DUP2 LT PUSH2 0x79F JUMPI INVALID JUMPDEST PUSH1 0x20 MUL PUSH1 0x20 ADD ADD SWAP1 PUSH1 0x1 PUSH1 0x1 PUSH1 0xA0 SHL SUB AND SWAP1 DUP2 PUSH1 0x1 PUSH1 0x1 PUSH1 0xA0 SHL SUB AND DUP2 MSTORE POP POP JUMPDEST SWAP5 SWAP13 SWAP5 SWAP12 POP SWAP5 SWAP10 POP SWAP3 SWAP8 POP POP POP POP POP POP POP POP JUMP JUMPDEST PUSH1 0x0 DUP2 DUP2 SLOAD DUP2 LT PUSH2 0x27B JUMPI INVALID JUMPDEST PUSH1 0x0 PUSH1 0x60 PUSH1 0x0 PUSH1 0x60 PUSH2 0x7F4 DUP8 DUP8 DUP8 PUSH2 0x55D JUMP JUMPDEST POP SWAP2 POP SWAP2 POP PUSH1 0x1 PUSH4 0xC71A6D06 PUSH1 0xE0 SHL DUP11 DUP11 DUP6 DUP6 PUSH1 0x40 MLOAD PUSH1 0x24 ADD DUP1 DUP6 DUP2 MSTORE PUSH1 0x20 ADD DUP5 DUP2 MSTORE PUSH1 0x20 ADD DUP4 PUSH1 0x1 PUSH1 0x1 PUSH1 0xA0 SHL SUB AND DUP2 MSTORE PUSH1 0x20 ADD DUP1 PUSH1 0x20 ADD DUP3 DUP2 SUB DUP3 MSTORE DUP4 DUP2 DUP2 MLOAD DUP2 MSTORE PUSH1 0x20 ADD SWAP2 POP DUP1 MLOAD SWAP1 PUSH1 0x20 ADD SWAP1 PUSH1 0x20 MUL DUP1 DUP4 DUP4 PUSH1 0x0 JUMPDEST DUP4 DUP2 LT ISZERO PUSH2 0x865 JUMPI DUP2 DUP2 ADD MLOAD DUP4 DUP3 ADD MSTORE PUSH1 0x20 ADD PUSH2 0x84D JUMP JUMPDEST POP POP POP POP SWAP1 POP ADD SWAP6 POP POP POP POP POP POP PUSH1 0x40 MLOAD PUSH1 0x20 DUP2 DUP4 SUB SUB DUP2 MSTORE SWAP1 PUSH1 0x40 MSTORE SWAP1 PUSH1 0x1 PUSH1 0x1 PUSH1 0xE0 SHL SUB NOT AND PUSH1 0x20 DUP3 ADD DUP1 MLOAD PUSH1 0x1 PUSH1 0x1 PUSH1 0xE0 SHL SUB DUP4 DUP2 DUP4 AND OR DUP4 MSTORE POP POP POP POP SWAP4 POP SWAP4 POP POP POP SWAP6 POP SWAP6 SWAP4 POP POP POP POP JUMP JUMPDEST PUSH1 0x0 PUSH2 0x8F8 DUP4 DUP4 PUSH1 0x40 MLOAD DUP1 PUSH1 0x40 ADD PUSH1 0x40 MSTORE DUP1 PUSH1 0x1E DUP2 MSTORE PUSH1 0x20 ADD PUSH32 0x536166654D6174683A207375627472616374696F6E206F766572666C6F770000 DUP2 MSTORE POP PUSH2 0x8FF JUMP JUMPDEST SWAP4 SWAP3 POP POP POP JUMP JUMPDEST PUSH1 0x0 DUP2 DUP5 DUP5 GT ISZERO PUSH2 0x98E JUMPI PUSH1 0x40 MLOAD PUSH3 0x461BCD PUSH1 0xE5 SHL DUP2 MSTORE PUSH1 0x4 ADD DUP1 DUP1 PUSH1 0x20 ADD DUP3 DUP2 SUB DUP3 MSTORE DUP4 DUP2 DUP2 MLOAD DUP2 MSTORE PUSH1 0x20 ADD SWAP2 POP DUP1 MLOAD SWAP1 PUSH1 0x20 ADD SWAP1 DUP1 DUP4 DUP4 PUSH1 0x0 JUMPDEST DUP4 DUP2 LT ISZERO PUSH2 0x953 JUMPI DUP2 DUP2 ADD MLOAD DUP4 DUP3 ADD MSTORE PUSH1 0x20 ADD PUSH2 0x93B JUMP JUMPDEST POP POP POP POP SWAP1 POP SWAP1 DUP2 ADD SWAP1 PUSH1 0x1F AND DUP1 ISZERO PUSH2 0x980 JUMPI DUP1 DUP3 SUB DUP1 MLOAD PUSH1 0x1 DUP4 PUSH1 0x20 SUB PUSH2 0x100 EXP SUB NOT AND DUP2 MSTORE PUSH1 0x20 ADD SWAP2 POP JUMPDEST POP SWAP3 POP POP POP PUSH1 0x40 MLOAD DUP1 SWAP2 SUB SWAP1 REVERT JUMPDEST POP POP POP SWAP1 SUB SWAP1 JUMP INVALID LOG2 PUSH5 0x6970667358 0x22 SLT KECCAK256 SWAP8 0xAF STATICCALL 0xE9 GASPRICE 0xBD 0x4C DUP4 0xC3 DUP15 LOG3 0xCA PUSH9 0xDCC38CD2FF4BE4CA2A PUSH12 0x84DF350828169A728364736F PUSH13 0x634300060C0033000000000000 ",
  "sha1": "ebc3208e3b8afb6b5efcb51fa5c272e38ebe0137",
  "source": "// SPDX-License-Identifier: MIT\npragma solidity 0.6.12;\n\nimport \"../interfaces/IController.sol\";\nimport \"../interfaces/IUniswapV2Router02.sol\";\nimport \"./openzeppelin/contracts/token/ERC20/SafeERC20.sol\";\n\n\n/**\n* @title Corn Finance Gelato Resolver\n* @author C.W.B.\n*\n* @notice When resolver contracts are called, the returned data is used as the\n* input data on a seperate call. This means that the call to the resolver contract\n* does not affect the gas used on the 'fillOrderGelato()' call.\n*\n* This resolver contract is used for finding the best swap path across numerous\n* Uniswap V2 Routers. Paths will be either:\n*   a.) from token --> to token\n*   b.) from token --> connector token --> to token\n* The best path and router are then encoded with the respective order data. The\n* encoded data is used as input data for 'fillOrderGelato()' in the Controller\n* contract.\n*/\ncontract Resolver {\n    using SafeMath for uint256;\n\n    IUniswapV2Router02[] public routers = [\n        IUniswapV2Router02(0xa5E0829CaCEd8fFDD4De3c43696c57F7D7A678ff), // Quickswap\n        IUniswapV2Router02(0x1b02dA8Cb0d097eB8D57A175b88c7D8b47997506), // Sushiswap\n        IUniswapV2Router02(0x94930a328162957FF1dd48900aF67B5439336cBD), // Polycat\n        IUniswapV2Router02(0xC0788A3aD43d79aa53B09c2EaCc313A787d1d607), // ApeSwap\n        IUniswapV2Router02(0xA102072A4C07F06EC3B4900FDC4C7B80b6c57429), // Dfyn\n        IUniswapV2Router02(0x3a1D87f206D12415f5b0A33E786967680AAb4f6d)  // WaultSwap\n    ];\n    address[] public connectorTokens = [\n        0x8f3Cf7ad23Cd3CaDbD9735AFf958023239c6A063, // DAI\n        0x2791Bca1f2de4661ED88A30C99A7a9449Aa84174, // USDC\n        0x0d500B1d8E8eF31E21C99d1Db9A6444d3ADf1270, // WMATIC\n        0x7ceB23fD6bC0adD59E62ac25578270cFf1b9f619, // WETH\n        0xc2132D05D31c914a87C6611C10748AEb04B58e8F, // USDT\n        0x831753DD7087CaC61aB5644b308642cc1c33Dc13  // QUICK\n    ];\n\n    // --------------------------------------------------------------------------------\n\n    /**\n    * @dev Gelato executor will call this function before calling 'fillOrderGelato()'\n    * in the Controller contract.\n    * @param _vaultId: Vault that holds the order\n    * @param _orderId: Order to fill\n    * @param _fromToken: ERC20 token being swapped\n    * @param _toToken: ERC20 token received from swap\n    * @param _fromAmount: Amount of '_fromToken' going into the swap\n    * @return (true: Gelato executor call 'fillOrderGelato()'; false: Gelato executor \n    * will not call 'fillOrderGelato()', Input data for 'fillOrderGelato()')\n    */\n    function checker(\n        uint256 _vaultId, \n        uint256 _orderId, \n        address _fromToken, \n        address _toToken, \n        uint256 _fromAmount\n    ) public view returns (bool, bytes memory) {\n        // Find the best Uniswap V2 router and path for swapping tokens\n        (address router, address[] memory path, ) = findBestPath(_fromToken, _toToken, _fromAmount);\n\n        // Encode input data for when the Gelato executor calls 'fillOrderGelato()'\n        return (\n            true, \n            abi.encodeWithSelector(\n                IController.fillOrderGelato.selector, \n                _vaultId, \n                _orderId, \n                router, \n                path\n            )\n        );\n    }\n\n    // --------------------------------------------------------------------------------\n\n    /**\n    * @param _fromToken: ERC20 token being swapped\n    * @param _toToken: ERC20 token received from swap\n    * @param _amountIn: Amount of '_fromToken' going into the swap \n    */\n    function findBestPath(\n        address _fromToken, \n        address _toToken, \n        uint256 _amountIn\n    ) public view returns (address, address[] memory, uint256) {\n        uint256 bestAmountOut = 0;\n        address bestRouter;\n        address bestConnectorToken;\n\n        address fromToken = _fromToken;\n        address toToken = _toToken;\n        uint256 amountIn = _amountIn;\n\n        // Loop through all of the routers\n        for(uint i = 0; i < routers.length; i++) {\n            // Loop through all of the connector tokens\n            for(uint j = 0; j < connectorTokens.length; j++) {\n                // Connector token, 'from' token, and 'to' token must be unique\n                address connectorToken = fromToken == connectorTokens[j] || toToken == connectorTokens[j] ? address(0) : connectorTokens[j];\n                \n                // Get the 'to' amount from the swap\n                uint256 amountOut = getAmountOut(\n                    routers[i], \n                    amountIn, \n                    fromToken, \n                    connectorToken, \n                    toToken\n                );\n\n                // Current router and path produce the most amount out yet\n                if(amountOut > bestAmountOut) {\n                    bestAmountOut = amountOut;\n                    bestRouter = address(routers[i]);\n                    bestConnectorToken = connectorToken;\n                }\n            }\n        }\n\n        address[] memory bestPath;\n\n        // No connector token. Path is only 'from' token and 'to' token\n        if(bestConnectorToken == address(0)) {\n            bestPath = new address[](2);\n            bestPath[0] = fromToken;\n            bestPath[1] = toToken;\n        }\n\n        // Path has connector token\n        else {\n            bestPath = new address[](3);\n            bestPath[0] = fromToken;\n            bestPath[1] = bestConnectorToken;\n            bestPath[2] = toToken;\n        }\n        return (bestRouter, bestPath, bestAmountOut);\n    }\n\n    // --------------------------------------------------------------------------------\n\n    /**\n    * @param _router: Router used to perform a swap\n    * @param _amountIn: Amount of '_fromToken' going into the swap\n    * @param _fromToken: ERC20 token being swapped\n    * @param _connectorToken: ERC20 token that connects the 'from' and 'to' tokens\n    * @param _toToken: ERC20 token received from the swap\n    * @return Amount of '_toToken' received from the swap\n    */\n    function getAmountOut(\n        IUniswapV2Router02 _router, \n        uint256 _amountIn, \n        address _fromToken, \n        address _connectorToken, \n        address _toToken\n    ) public view returns (uint256) {\n        address[] memory _path;\n\n        // No connector token. Path is only 'from' token and 'to' token\n        if(_connectorToken == address(0)) {\n            _path = new address[](2);\n            _path[0] = _fromToken;\n            _path[1] = _toToken;\n        }\n        // Path has a connector token\n        else {\n            _path = new address[](3);\n            _path[0] = _fromToken;\n            _path[1] = _connectorToken;\n            _path[2] = _toToken;\n        }\n\n        // Get the 'to' amount from the swap\n        try _router.getAmountsOut(_amountIn, _path) returns (uint256[] memory amountsOut) {\n            return amountsOut[_path.length.sub(1)];\n        }\n        // Call reverted\n        catch {\n            return 0;\n        }\n    }\n}",
  "sourcePath": "contracts/Resolver.sol",
  "type": "contract"
}